:020000040800F2
:10000000F024002029020008052F0008072F00080F
:100010000B2F00080F2F0008132F0008000000000E
:10002000000000000000000000000000172F000882
:10003000192F0008000000001B2F00081D2F0008CA
:10004000430200084302000843020008430200087C
:100050004302000843020008472600084302000844
:10006000430200084302000843020008430200085C
:10007000430200084302000843020008430200084C
:10008000430200084302000843020008430200083C
:10009000430200084302000843020008430200082C
:1000A000430200084302000843020008430200081C
:1000B000ED23000843020008430200084302000841
:1000C00043020008430200084302000843020008FC
:1000D00043020008112E00084302000843020008F2
:1000E00043020008430200084302000843020008DC
:1000F00043020008430200084302000843020008CC
:1001000043020008430200084302000843020008BB
:1001100043020008430200084302000843020008AB
:10012000430200084302000843020008430200089B
:10013000430200084302000843020008430200088B
:10014000430200084302000843020008430200087B
:10015000430200084302000843020008430200086B
:10016000430200084302000843020008430200085B
:10017000430200084302000843020008430200084B
:10018000430200084302000800F002F800F03CF8C7
:100190000AA090E8000C82448344AAF10107DA45E2
:1001A00001D100F031F8AFF2090EBAE80F0013F0F8
:1001B000010F18BFFB1A43F001031847184F000046
:1001C000384F0000103A24BF78C878C1FAD85207D7
:1001D00024BF30C830C144BF04680C6070470000C1
:1001E0000023002400250026103A28BF78C1FBD840
:1001F000520728BF30C148BF0B6070471FB504F0DD
:100200004BFF1FBD10B510BD04F036FC1146FFF7C3
:10021000F5FF02F013FE04F054FC03B4FFF7F2FF05
:1002200003BC02F003FD000009488047094800476D
:10023000FEE7FEE7FEE7FEE7FEE7FEE7FEE7FEE796
:10024000FEE7FEE704480549054A064B70470000F3
:10025000FD2F000889010008F0050020F02400208F
:10026000F0140020F014002032490143324A11609A
:10027000704770B5002100230F22C4781CB32E4CA8
:10028000246804F4E064C4F5E064C4F30721C1F118
:100290000404E3B20A4144789C40E1B284781440FB
:1002A00021430C07210E254C05786155047804F094
:1002B0001F050124AC4005786D11AD0005F1E02566
:1002C000C5F8004109E0047804F01F050124AC40A2
:1002D0001B4D0678761145F8264070BD194A0A4034
:1002E0000243154B1B1F1A60704739B1124A121D89
:1002F00012680243104B1B1D1A6006E00E4A121DC5
:10030000126882430C4B1B1D1A607047042808D1E9
:100310004FF0E021096941F004014FF0E022116142
:1003200007E04FF0E021096921F004014FF0E022DD
:10033000116170470000FA050CED00E000E400E0F8
:1003400080E100E080FFFF1F002041490860091D97
:100350000860091D0860091D08603E483C491431C9
:100360000860704700213A498279002A3AD00A464B
:10037000126803689A430B461A600A1D12680368E4
:100380009A430B1D1A60027911440A6803681A43E4
:100390000A602F4A0832126803689A432C4B0833CC
:1003A0001A601A1D126803689A43294B0C331A60AD
:1003B0004279102A0ED11A1F126803681A43244B7F
:1003C00008331A601A1D126803681A43204B0C3355
:1003D0001A600DE01E49427911440A6803681A4305
:1003E0000A6005E0027911440A6803689A430A60CA
:1003F00070470021016001710C2141710021817160
:1004000070471349103109680143114A10321160D5
:100410007047014600200E4A143212680A400AB1A1
:10042000012000E00020704709491431086070473E
:1004300001460020064A143212680A400AB101201F
:1004400000E0002070470249143108607047000046
:10045000003C0140FFFF7F0010B5044698488442ED
:1004600008D10121084600F0A6FB0021012000F080
:10047000A2FB76E09348844208D10121022000F0DB
:100480009AFB0021022000F096FB6AE08E4884422D
:1004900008D10121042000F08EFB0021042000F08F
:1004A0008AFB5EE08948844208D10121082000F0DF
:1004B00082FB0021082000F07EFB52E08448844249
:1004C00008D10121102000F076FB0021102000F05F
:1004D00072FB46E07F48844208D10121202000F0D1
:1004E0006AFB0021202000F066FB3AE07A48844253
:1004F00008D10121402000F05EFB0021402000F0E7
:100500005AFB2EE07548844208D10121802000F07A
:1005100052FB0021802000F04EFB22E07048844214
:1005200008D10121801500F046FB0021A01500F044
:1005300042FB16E06B48844208D10121401500F0CF
:100540003AFB0021601500F036FB0AE06648844261
:1005500007D10121001500F02EFB0021201500F02D
:100560002AFB10BDF0B50A4600210023002400BF7D
:100570003DE0012505FA01F3156805EA03049C42F4
:1005800034D105684F000326BE40B5430560157998
:100590004E00B5400668354305601579012D02D03F
:1005A0001579022D16D185684F000326BE40B5434C
:1005B000856055794E00B54086683543856045684D
:1005C00001268E40B5434560456896798E40B6B2A7
:1005D00035434560C5684F000326BE40B543C5603E
:1005E000D5794E00B540C6683543C560491C102911
:1005F000BFD3F0BD4FF6FF71016000210171417161
:100600008171C171704708B54FF480320092009A31
:100610000A430092009AC261C161009AC261C26934
:100620000092C269009208BD0246002013690B4087
:100630000BB1012000E0002070470146086980B23C
:1006400070470246002053690B400BB1012000E0C7
:10065000002070470146486980B2704701837047A7
:10066000418370470AB1018300E0418370474161D3
:10067000704742694A4042617047F0B50023002448
:100680004D07ED0E02FA05F3CE1000F1200555F8E6
:1006900026504E07F70E0F26BE40B543CF1000F18F
:1006A000200646F82750CE1000F1200555F82650B8
:1006B00045EA0304CE1000F1200545F82640F0BDC0
:1006C000000002400004024000080240000C02400A
:1006D000001002400014024000180240001C0240BA
:1006E0000020024000240240002802400E49086019
:1006F00070470D49486070470B49886070474AF65B
:10070000AA200949086070474CF6CC4006490860A9
:10071000704701460020044AD2680A400AB101200D
:1007200000E000207047000000300040F9480068F9
:1007300040F00100F74908600020F64908310860E0
:10074000F4480068F4490840F2490860F348091D7C
:100750000860F348EF4984310860F0481038091DFB
:100760000860EC48006820F48020EA490860002016
:10077000E8490C310860E7498C3108607047002176
:10078000E44A921C117011460870704710B501467A
:100790000022002300204A11012A02D1DD4C2368E7
:1007A00008E0022A03D1DB4C7034236802E0D94C04
:1007B0007434236801F01F02012494401C400CB1E2
:1007C000012000E0002010BD38B50020009000247A
:1007D000002500BF3120FFF7D9FF05460098401CD7
:1007E00000900098B0F5A04F01D0002DF2D031203C
:1007F000FFF7CCFF08B1012400E00024204638BDFB
:1008000001460020C34A106820F0F80040EAC10009
:1008100010607047C349086070470021BD4A7032BC
:1008200011701170012802D004280AD104E00121BE
:10083000B84A7032117005E00521B64A7032117065
:1008400000E000BF00BF7047B7490860704770B54F
:10085000049C41EA82150126C6EB530645EA06458B
:10086000054345EA0465AB4E361D356070BDAD49A4
:1008700008667047820142EA0172A64B84331A600F
:100880007047A8498866704710B5830143EA016341
:1008900043EA02739F4C8834236010BDA149086766
:1008A0007047A049C864704702460020994B08333E
:1008B000186820F0EC6042EA01031843954B0833B6
:1008C0001860704702460020924B0833186820F0E9
:1008D000784042EA010318438E4B08331860704792
:1008E000014600208B4A0832106820F003000843BC
:1008F0001060704787480830006800F00C007047AF
:1009000001460020834A0832106820F0F0000843B6
:1009100010607047014600207E4A0832106820F4BB
:10092000E05008431060704701460020794A0832C1
:10093000106820F4604040EAC10010607047F0B5D4
:10094000002100220024022500260223714F0837CF
:100950003F6807F00C0121B1042905D0082937D1DF
:1009600005E0724F076036E0714F076033E0694F72
:100970003F1D3F68C7F38056664F3F1D3F6807F035
:100980003F036EB16A4FB7FBF3F7DFF888C10CF194
:10099000040CDCF800C0CCF3881C07FB0CF40CE062
:1009A000624FB7FBF3F7DFF86CC10CF1040CDCF815
:1009B00000C0CCF3881C07FB0CF4564F3F1D3F686A
:1009C000C7F301477F1C7D00B4FBF5F7076002E029
:1009D000564F076000BF00BF4E4F08373F6807F013
:1009E000F0010909534F7A5C0768D7404760494FC7
:1009F00008373F6807F4E051890A4E4F7A5C476830
:100A0000D7408760434F08373F6807F46041490B80
:100A1000484F7A5C4768D740C760F0BD002100F4BA
:100A20004072B2F5407F0AD13A4A0832116821F487
:100A3000F811414A02401143364A08321160354AE2
:100A400070321268C0F30B031A43324B70331A60D2
:100A50007047354944390860704733494039086068
:100A6000704736490860704701460020294A8C3299
:100A7000106820F01F004A1E1043264A8C32106076
:100A8000704701460020234A8C32106820F4F85049
:100A90004A1E40EA02201F4A8C321060704701460D
:100AA00000201C4A8C32106820F44010084310606B
:100AB000704701460020174A8C32106820F440002D
:100AC00008431060704701460020124A8C321068BB
:100AD00020F440300843106070471949086070479F
:100AE00039B10C4A3032126802430A4B30331A6073
:100AF00006E0084A303212688243064B30331A60EF
:100B00007047F9B1034A343212680243014B34335F
:100B10001A601CE000380240FFFFF6EA10300024A3
:100B20000030002000004742800E47420024F400BD
:100B300000127A0000000020FFFCFF0F5C0147421A
:100B4000E01147428F4A126882438E4B1A60704709
:100B500039B18C4A121D126802438A4B1B1D1A6060
:100B600006E0884A121D12688243864B1B1D1A60DC
:100B7000704739B1834A0C3212680243814B0C33FF
:100B80001A6006E07F4A0C32126882437D4B0C33B8
:100B90001A60704739B17B4A103212680243794BB0
:100BA00010331A6006E0774A103212688243754BA0
:100BB00010331A60704739B1724A243A12680243FE
:100BC000704B243B1A6006E06E4A243A1268824356
:100BD0006C4B243B1A60704739B16A4A203A12685C
:100BE0000243684B203B1A6006E0664A203A1268CE
:100BF0008243644B203B1A60704739B1614A1C3A0A
:100C0000126802435F4B1C3B1A6006E05D4A1C3AC7
:100C1000126882435B4B1C3B1A60704739B1594ADA
:100C2000143A12680243574B143B1A6006E0554AC7
:100C3000143A12688243534B143B1A60704739B11F
:100C4000504A103A126802434E4B103B1A6006E0BD
:100C50004C4A103A126882434A4B103B1A60704764
:100C600039B1484A1C3212680243464B1C331A60A1
:100C700006E0444A1C3212688243424B1C331A601D
:100C8000704739B13F4A2032126802433D4B20334E
:100C90001A6006E03B4A203212688243394B203307
:100CA0001A60704739B1374A243212680243354B13
:100CB00024331A6006E0334A243212688243314BEF
:100CC00024331A60704739B12E4A2C32126802431D
:100CD0002C4B2C331A6006E02A4A2C3212688243CD
:100CE000284B2C331A60704739B1264A30321268CB
:100CF0000243244B30331A6006E0224A3032126835
:100D00008243204B30331A607047012808D11D49B7
:100D10003C31096841F008011A4A3C32116007E091
:100D200018493C31096821F00801164A3C3211602B
:100D3000704739B1134A273A12780243114B273BC7
:100D40001A7006E00F4A273A127882430D4B273B70
:100D50001A7070470B484030006840F080700949B5
:100D600040310860704701460020064A283A126860
:100D70000A400AB1012000E00020704701492639ED
:100D8000087070473438024010B50446FB4884426E
:100D900008D101218014FFF752FF0021A014FFF7B2
:100DA0004EFF3CE0F648844208D101210014FFF7D1
:100DB00035FF00212014FFF731FF30E0F148844275
:100DC00008D10121C013FFF729FF0021E013FFF72D
:100DD00025FF24E0EC48844208D101214014FFF7AC
:100DE0002EFF00216014FFF72AFF18E0E748844235
:100DF00009D101210805FFF722FF00214FF48010DF
:100E0000FFF71DFF0BE0E248844208D101214805AD
:100E1000FFF715FF00214FF40010FFF710FF10BD82
:100E200010B50022028802F441520B884C882343FB
:100E30008C882343CC8823430C8923434C89234348
:100E40008C892343CC8923431A430280838B4FF23E
:100E5000FF74234083830B8A038210BD2DE9F04F7A
:100E60000025022300244FF001090022002600275C
:100E700094469046B0F81CA04FF2400B0AEA0B0AC9
:100E8000A0F81CA04FF0020AA0F820A0858BD1F892
:100E900008A0BAF1020F01D100BF82E0B1F804A0AE
:100EA000BAF1000F02D14FF0010901E04FF0020941
:100EB000DFF8E0A2DAF800A00AF4000ABAF1000FA5
:100EC00009D0DFF8D0A2DAF800A02AF4000ADFF88F
:100ED000C4B2CBF800A0DFF8BCA20AF17C0ADAF8B1
:100EE00000A0CAF3881CDFF8ACA20AF17C0ADAF889
:100EF00000A0CAF30278DFF89CA2AAF1040ADAF88B
:100F000000A00AF03F07DFF88CA2AAF1040ADAF881
:100F100000A00AF4800ABAF5800F08D1DFF878A2A1
:100F2000BAFBF7FA0AFB0CFABAFBF8F607E0DFF8AF
:100F30006CA2BAFBF7FA0AFB0CFABAFBF8F6B1F8A6
:100F400006A0BAF5007F0ED14FEA162A0AEB8A0AEC
:100F50004FEA4A0AD1F808B0BAFBFBFA0AF1050ACF
:100F60001FFA8AF20FE04FEA491AB6FBFAFA0AEBC7
:100F70008A0A4FEA4A0AD1F808B0BAFBFBFA0AF12A
:100F8000050A1FFA8AF24FF00A0AB2FBFAF202F0DF
:100F90000104A2EB040ACAF34F034FF6FF7A0AEAF0
:100FA0000424022B01DBFF2B01DD02230024B1F816
:100FB00006A04AEA040A4AEA030AA0F820A0B1F807
:100FC00004A0B1F80CB04AEA0B0AB1F802B04AEA40
:100FD0000B0AB1F800B04AEA0B0A4AF4006A4AEA7E
:100FE00005058583BDE8F08F002101804180818067
:100FF000C180018141818181C181072101827047C6
:101000000021018041808180C18002218160002116
:101010008181704721B1028842F04002028004E0E1
:1010200002884FF6BF731A400280704721B1828B4D
:1010300042F48062828304E0828B4FF6FF331A40D1
:101040008283704702884FF2FF731A400280028841
:101050000A4302807047B1F5804F04D1028842F400
:101060008042028004E002884BF6FF731A4002803F
:1010700070474FF6FF62914204D0028842F48072BA
:10108000028004E002884FF6FF631A400280704736
:1010900021B1828842F00402828004E082884FF607
:1010A000FB731A408280704721B1828842F010029F
:1010B000828004E082884FF6EF731A408280704786
:1010C00030B500220023848B4FF240052C408483EE
:1010D00002240484828B0C88B4F5007F01D00C8834
:1010E00014B94FF4807308E00C88B4F5407F03D046
:1010F0000C88B4F5807F00D100238C888D892C4327
:101100004D882C431C4344F400642243828330BD49
:101110000146888970478181704721B1028842F475
:101120000052028004E002884DF6FF731A400280EC
:101130007047018841F480510180704702460020C9
:10114000012901D0108B00E0908A70470146088A7F
:1011500070471AB183880B43838002E083888B43F6
:101160008380704730B5002400230C110125A54071
:10117000ABB2AAB185881D43858014E000300140E0
:1011800000380040003C0040003401400050014065
:10119000005401400838024000127A000024F40094
:1011A00085889D43858030BD0246002013890B4011
:1011B0000BB1012000E000207047CA430281704754
:1011C000F0B50246002000240023002501F00F079F
:1011D0000126BE40B4B20B1101269E40B3B29688E0
:1011E00006EA03051689264016B10DB1012000E07C
:1011F0000020F0BD10B5002201F00F040123A34030
:101200009AB2D343038110BD10B501218803FFF7C3
:1012100016FD00214FF48040FFF711FD10BD1C4961
:10122000086070471B490862704730B500228B0781
:101230001C0F0F2303FA04F2154B08338C1053F8DC
:1012400024309343124C08348D1044F82530234643
:101250008C1053F824308C07240F00FA04F4234335
:101260000B4C08348D1044F8253030BD0949DC3171
:101270000860704708490860704700200449203121
:10128000096801F4807109B1012000E00020704775
:1012900000380140000027420004274210B50446F0
:1012A000FE48844208D101210846FFF7C8FC00210E
:1012B0000120FFF7C4FC9DE0B4F1804F08D101216B
:1012C0000846FFF7ABFC00210120FFF7A7FC91E0E7
:1012D000F348844208D101210220FFF79FFC00213E
:1012E0000220FFF79BFC85E0EE48844208D10121F3
:1012F0000420FFF793FC00210420FFF78FFC79E026
:10130000E948844208D101210820FFF787FC002129
:101310000820FFF783FC6DE0E448844208D10121F6
:101320001020FFF77BFC00211020FFF777FC61E025
:10133000DF48844208D101212020FFF76FFC002103
:101340002020FFF76BFC55E0DA48844208D10121E8
:101350000220FFF774FC00210220FFF770FC49E037
:10136000D548844209D101210804FFF768FC002117
:101370004FF48030FFF763FC3CE0D048844209D151
:1013800001214804FFF75BFC00214FF40030FFF718
:1013900056FC2FE0CA48844209D101218804FFF796
:1013A0004EFC00214FF48020FFF749FC22E0C548A5
:1013B000844208D101214020FFF730FC0021402069
:1013C000FFF72CFC16E0C048844208D101218020A0
:1013D000FFF724FC00218020FFF720FC0AE0BB4837
:1013E000844207D101218015FFF718FC0021A015C8
:1013F000FFF714FC10BD00220288A84B98420ED0C3
:10140000AC4B98420BD0B0F1804F08D0A44B98421F
:1014100005D0A44B984202D0A34B984204D14FF67A
:101420008F731A404B881A43A04B984207D0A04BA9
:10143000984204D04FF6FF431A400B891A430280AA
:101440004B68C3620B880385944B984202D0994B3A
:10145000984201D18B7A03860123838270474FF033
:10146000FF3141600021018001814180817270471C
:101470000185828270470A46002101884FF68F73EA
:10148000194011430180704741627047C162704743
:101490000146486A70470146088D704721B10288AD
:1014A00042F00202028004E002884FF6FD731A4007
:1014B0000280704721B1028842F00402028004E0F9
:1014C00002884FF6FB731A400280704721B10288F0
:1014D00042F08002028004E002884FF67F731A40D7
:1014E0000280704702884FF6F7731A400280028824
:1014F0000A430280704702884FF6FF431A40028079
:1015000002880A430280704721B1028842F001023A
:10151000028004E002884FF6FE731A400280704792
:1015200070B5002400220023058C4FF6FE7635406E
:101530000584028C8388048B4FF68F752C40B51E72
:101540002C400D882C43751E2A408D892A434D88D6
:101550002A43524DA84202D0564DA84213D14FF60D
:10156000F7752A40CD892A434FF6FB752A408D88AE
:101570002A434FF6FF652B404FF6FF552B400D8A4F
:101580002B434D8A2B43838004838D6845630284FB
:1015900070BD70B5002400220023058C4FF6EF7655
:1015A00035400584028C8388048B48F6FF752C40F7
:1015B0004FF6FF452C400D884FF6FF7606EA0525CD
:1015C0002C434FF6DF752A408D8906EA05152A431C
:1015D0004D8806EA05152A43304DA84202D0354D04
:1015E000A8421DD14FF67F752A40CD894FF6FF7670
:1015F00006EA05152A434FF6BF752A408D8806EA8C
:1016000005152A434FF6FF352B404FF2FF752B404F
:101610000D8A06EA85052B434D8A06EA85052B438C
:10162000838004838D688563028470BD70B5002457
:1016300000220023058C4FF6FF6635400584028C9E
:101640008388848B4FF68F752C404FF6FC752C40A9
:101650000D882C434FF6FF552A408D894FF6FF76B3
:1016600006EA05252A434D8806EA05252A430B4D3F
:10167000A84202D00F4DA84238D14FF2FF752A4040
:10168000CD894FF6FF7606EA05252A434FF6FF354A
:101690002A408D8806EA05252A4319E0000001400A
:1016A0000004004000080040000C00400010004012
:1016B000001400400004014000400140004401408B
:1016C0000048014000180040001C0040002000407D
:1016D0004EF6FF752B404DF6FF752B400D8A06EA3E
:1016E00005152B434D8A06EA05152B438380848319
:1016F0008D68C563028470BD70B50022002300248C
:10170000058C4EF6FF7635400584038C8488828BE9
:1017100048F6FF752A404FF6FF452A400D884FF6E0
:10172000FF7606EA05252A434DF6FF752B408D8985
:1017300006EA05352B434D8806EA05352B43FE4D59
:10174000A84202D0FD4DA84208D14BF6FF752C40AF
:101750000D8A4FF6FF7606EA85152C438480828336
:101760008D680564038470BD002101804180818003
:1017700081608181C18101824182704770B50346D9
:10178000002000241846183001258D40ACB21D8C75
:10179000A5431D8409B108290AD100EB6100056841
:1017A0004FF68F76354005600568154305600FE0FC
:1017B0000D1FC5F34E052844056848F6FF763540F1
:1017C000056005684FF6FF7606EA02263543056098
:1017D00070BD4163704781637047C16370470164A6
:1017E00070470A460021018B4FF68F731940114351
:1017F000018370470A460021018B48F6FF731940A8
:101800004FF6FF7303EA02231943018370470A4628
:101810000021818B4FF68F731940114381837047EC
:101820000A460021818B48F6FF7319404FF6FF737B
:1018300003EA02231943818370470A460021018B82
:101840004FF6F77319401143018370470A46002190
:10185000018B4FF2FF7319404FF6FF7303EA022327
:101860001943018370470A460021818B4FF6F773B5
:1018700019401143818370470A460021818B4FF242
:10188000FF7319404FF6FF7303EA02231943818364
:1018900070470A460021018B4FF6FB731940114334
:1018A000018370470A460021018B4FF6FF33194030
:1018B0004FF6FF7303EA02231943018370470A4678
:1018C0000021818B4FF6FB731940114381837047D0
:1018D0000A460021818B4FF6FF3319404FF6FF7304
:1018E00003EA02231943818370470A460021018BD2
:1018F0004FF67F7319401143018370470A46002158
:10190000018BC1F30E014FF6FF7303EA0223194363
:10191000018370470A460021818B4FF67F7319407F
:101920001143818370470A460021818BC1F30E0168
:101930004FF6FF7303EA02231943818370470A4677
:101940000021018C4FF6FD7319401143018470474B
:101950000A460021018C4FF6F773194011430184A8
:1019600070470A460021018C4FF6DF7319404FF68D
:10197000FF7303EA02131943018470470A460021EA
:10198000018C4FF67F7319404FF6FF7303EA021381
:101990001943018470470A460021018C4FF6FF531A
:1019A00019404FF6FF7303EA02231943018470477D
:1019B0000A460021018C4FF2FF7319404FF6FF7366
:1019C00003EA02231943018470470A460021018C6F
:1019D0004DF6FF7319404FF6FF7303EA02331943C4
:1019E0000184704730B5002301248C40A3B2048CDD
:1019F0009C430484048C02FA01F5ADB22C430484A8
:101A000030BD30B5002304248C40A3B2048C9C4329
:101A10000484048C02FA01F5ADB22C43048430BD79
:101A2000828B4FF2FF331A408283828B4FF6FF7313
:101A300003EA01231A4382837047F0B50C4615462A
:101A4000002100220026078C4EF6FF7C07EA0C07D7
:101A50000784818B028C4FF6FF7707EA043640F645
:101A6000FF4739404FF6FF7707EA052739434FF61E
:101A7000FF7707EA0337394345F6FF773A4046F4E4
:101A800080573A4381830284F0BD828B4FF6F37313
:101A90001A408283828B0A4382837047F0B50C46DA
:101AA0001546002100220026078C4FF6FF6C07EA3E
:101AB0000C070784818B028C4FF6FF7707EA042618
:101AC0004FF60C7739404FF6FF7707EA03172F439D
:101AD00039434FF2FF573A4046F480773A438183C7
:101AE0000284F0BD028B4FF2FF331A400283028B57
:101AF0004FF6FF7303EA01231A4302837047F0B5E0
:101B00000C461546002100220026078C4FF6EF7C7C
:101B100007EA0C070784018B028C4FF6FF7707EA70
:101B2000041640F6FF4739404FF6FF7707EA0337C0
:101B300039434FF6FF7703E0000001400004014005
:101B400007EA052739434FF65F773A4046F010071A
:101B50003A4301830284F0BD028B4FF6F3731A40BF
:101B60000283028B0A4302837047F0B50C46154688
:101B700000210022068C4FF6FE773E400684018B42
:101B8000028C4FF60C7631407E1C06EA03162E437B
:101B900031434FF6F576324044F00106324301837B
:101BA0000284F0BD70B505460C46208850B92389E3
:101BB000A28861882846FFF7D8FFE1882846FFF70A
:101BC000CBFF25E0208804280AD12389A2886188D8
:101BD0002846FFF794FFE1882846FFF783FF17E0C8
:101BE000208808280AD12389A28861882846FFF71F
:101BF00055FFE1882846FFF748FF09E02389A288BE
:101C000061882846FFF719FFE1882846FFF708FF9B
:101C100070BD002101804180012181800021C180AF
:101C2000018170472DE9F04105460C460026012749
:101C3000608808B9022600E00026A088012801D1AA
:101C4000022700E001272088A0B92389A2886188A3
:101C50002846FFF78AFFE1882846FFF77DFF2389A2
:101C60003A4631462846FFF74AFFE1882846FFF703
:101C700039FF13E02389A28861882846FFF73FFFD8
:101C8000E1882846FFF72EFF23893A463146284649
:101C9000FFF76BFFE1882846FFF75EFFBDE8F081A4
:101CA0000146486B70470146886B70470146C86B18
:101CB00070470146086C70470A884B881A438B8826
:101CC0001A43CB881A430B891A434B891A438B89D1
:101CD0001A43A0F844207047002101804180818090
:101CE000C180018141818181704731B1B0F84420C8
:101CF00042F40042A0F8442005E0B0F84420C2F3CA
:101D00000E02A0F84420704721B1828842F00402FC
:101D1000828004E082884FF6FB731A40828070470D
:101D200021B1828842F00102828004E082884FF66D
:101D3000FE731A40828070471AB183890B438381F6
:101D400002E083898B43838170478182704702461A
:101D50000020138A0B400BB1012000E000207047E7
:101D6000CA430282704730B5024600200023002497
:101D7000158A05EA0103958905EA010413B10CB13E
:101D8000012000E0002030BDCA430282704741EAD2
:101D90000203A0F8483070471AB183890B4383814E
:101DA00002E083898B438381704721B1828842F0AE
:101DB0000802828004E082884FF6F7731A4082801E
:101DC000704701894FF6F8721140018170470A4649
:101DD000002101894FF68F7319401143018170472B
:101DE00030B504460D4629462046FFF7F0FF20890E
:101DF00040F00700208130BD2DE9F04104460D463A
:101E000016461F46602D06D13B460122314620462C
:101E1000FFF775FE05E03B46012231462046FFF7FD
:101E2000A4FE29462046FFF7D2FF208940F0070094
:101E30002081BDE8F08130B50C4600210189C9B28E
:101E40004FF6FF7505EA0325154325432943018114
:101E500030BD2DE9F04105460E4617469846002450
:101E600043463A4631462846FFF7E5FF2C894FF6B0
:101E7000F870044044F007044FF68F70044044F0BB
:101E800070042C81BDE8F081F0B504460D4616467D
:101E90001F463B46324629462046FFF7CCFF2089A5
:101EA00040F480402081F0BD82884FF68F731A4045
:101EB000828082880A438280704702894FF6F873D5
:101EC0001A40028102890A430281704702894FF653
:101ED0007F731A40028102890A4302817047F0B57C
:101EE0000C4615461E460021002200230189028B64
:101EF000038C4FF6F877394021434FF6FC473A40C0
:101F000040F201173A434FF6DD773B404FF6FF773B
:101F100007EA06172F433B43018102830384F0BD88
:101F200021B1828842F08002828004E082884FF6EC
:101F30007F731A4082807047A0F8501070470000ED
:101F400010B50446FA48844208D101211020FEF75A
:101F500076FE00211020FEF772FE57E0F54884421D
:101F600009D101214804FEF759FE00214FF4003049
:101F7000FEF754FE4AE0F048844209D1012188046A
:101F8000FEF74CFE00214FF48020FEF747FE3DE0B7
:101F9000EA48844209D10121C804FEF73FFE00212E
:101FA0004FF40020FEF73AFE30E0E548844209D1C4
:101FB00001210805FEF732FE00214FF48010FEF7E4
:101FC0002DFE23E0DF48844208D101212020FEF7C6
:101FD00036FE00212020FEF732FE17E0DA48844268
:101FE00009D101218807FEF719FE00214FF080403A
:101FF000FEF714FE0AE0D548844207D101214005CE
:10200000FEF70CFE00216005FEF708FE10BD2DE96D
:10201000FF4705460E460024A14600BFA046B089F2
:1020200000B100BF2C8A24F44054F08804432C8271
:10203000AC8941F20C608443B088318908437189CE
:1020400008430443AC81AC8A24F44074B08904434F
:10205000AC826846FEF773FCB548854202D0B948A9
:10206000854202D1DDF80C9001E0DDF80890A889E6
:1020700000F4004040B109EBC90000EB09103168E1
:102080004900B0FBF1F707E009EBC90000EB0910CC
:1020900031688900B0FBF1F76420B7FBF0F0040170
:1020A0002009642101FB1078A88900F4004040B1A8
:1020B000322000EBC800B0FBF1F000F00700044351
:1020C00008E0322000EB08106421B0FBF1F000F0D2
:1020D0000F0004432C81BDE8FF874FF416510160C7
:1020E00000218180C18001810C21418100218181F9
:1020F000704710B502460020108A20F470600B88EB
:102100004C8823438C882343CC8823431843108274
:1021100010BD0021018041808180C180704721B1C4
:10212000828942F40052828104E082894DF6FF7375
:102130001A4082817047028B02F47F420283028B35
:102140000A430283704721B1828942F400428281AE
:1021500003E08289C2F30E028281704721B1828A34
:1021600042F40062828204E0828A4FF2FF731A40D6
:1021700082827047C1F308028280704701468888D6
:10218000C0F308007047028A4FF6F0731A400282CB
:10219000028A0A430282704721B1828942F0020218
:1021A000828104E082894FF6FD731A408281704774
:1021B00082894FF2FF731A40828182890A438281A9
:1021C0007047028A4FF6DF731A400282028A0A437E
:1021D0000282704721B1028A42F48042028204E006
:1021E000028A4BF6FF731A4002827047818941F0E0
:1021F00001018181704721B1828A42F00802828206
:1022000004E0828A4FF6F7731A4082827047028B8D
:10221000D2B20283028B42EA01220283704721B1CB
:10222000828A42F02002828204E0828A4FF6DF73C3
:102230001A408282704721B1828A42F01002828263
:1022400004E0828A4FF6EF731A4082827047828AD6
:102250004FF6FB731A408282828A0A438282704759
:1022600021B1828A42F00202828204E0828A4FF621
:10227000FD731A40828270471AB1838A0B438382AE
:1022800002E0838A8B4383827047F0B503460024C3
:1022900000260025002040F66A17B94200D100BF91
:1022A0001846C1F3421401F01F06012707FA06F58C
:1022B000012C01D10C3004E0022C01D1103000E0DF
:1022C00014301AB107682F43076002E00768AF4374
:1022D0000760F0BD02460020B1F5007F00D100BFCD
:1022E00013880B400BB1012000E00020704701F47F
:1022F0000072B2F5007F00D100BFCA430280704770
:1023000070B50246002400230025002040F66A161E
:10231000B14200D100BFC1F3421501F01F030126F5
:1023200006FA03F3012D13D19689334017E000001C
:10233000001001400044004000480040004C0040B4
:10234000005000400014014000780040007C004034
:10235000022D02D1168A334001E0968A33400C12D6
:10236000012606FA04F41688344013B10CB101209A
:1023700000E0002070BD10B50022002340F66A1472
:10238000A14200D100BF0A1201249440A3B2DC4351
:10239000048010BD7FB504460D4601210846FEF7B6
:1023A000E8FBADF8045002940020ADF80600ADF84B
:1023B0000C0001A94FF08040FFF71DF801221146E3
:1023C0009007FFF7B9FC01218807FFF79DF81C2053
:1023D0008DF8000003208DF801008DF80200012027
:1023E0008DF803006846FDF744FF7FBD10B501215D
:1023F0008807FFF7B8FC012808D10E48026840683A
:10240000521C40F100000B490A6048600121880716
:10241000FFF7BAFC10BD074908684968704710B556
:1024200002460B460348016840688C1A60EB0301C2
:10243000204610BD1000002070B505460C4645F240
:102440005550FEF753F92846FEF753F92046FEF79C
:1024500053F9FEF754F9FEF757F970BD10B5FEF7C2
:102460004EF910BD1CB501210520FEF739FB0121F5
:102470008803FEF78FFBDA48006840F00070D84907
:1024800008604FF48170009001208DF80400002056
:102490008DF8060003208DF8050000208DF8070058
:1024A0006946D048FEF75EF80120009000208DF8C4
:1024B00004008DF807006946CA48FEF753F84FF448
:1024C000E050009002208DF8040000208DF80600F6
:1024D00003208DF8050000208DF807006946C248EA
:1024E000FEF740F84FF40040009001208DF8040002
:1024F00000208DF8060003208DF8050000208DF8DF
:1025000007006946B748FEF72DF806220A21B648AB
:10251000FEF7B3F806220B21B348FEF7AEF8062209
:102520000C21B148FEF7A9F806220F21AD48FEF7AD
:10253000A4F84FF40041AB48FEF790F81CBD00B57D
:1025400085B00121C803FEF714FB0020ADF80000A0
:102550004FF48270ADF802004FF40060ADF8040053
:102560000220ADF806000120ADF808004002ADF8E9
:102570000A000020ADF80C00ADF80E000720ADF801
:10258000100069469948FEF74BFC01219748FEF779
:1025900041FD05B000BD08B5FFF764FFFFF7CFFFB1
:1025A0004FF480718F48FEF759F80020009002E048
:1025B0000098401C00900098B0F57A7FF8D34FF453
:1025C00080718848FEF74CF808BD0EB501218803DC
:1025D000FEF7E0FA00210846FEF727FE01200190F1
:1025E00000208DF808000C208DF8090001208DF8DE
:1025F0000A0001A8FDF7B6FE06208DF800000320B2
:102600008DF8010001208DF802008DF80300684666
:10261000FDF72FFE0EBD10B5044600BF0221734822
:10262000FEF7C2FD0028F9D021467048FEF773FD81
:1026300000BF01216D48FEF7B7FD0028F9D06B48B7
:10264000FEF766FD10BD10B50120FDF7F1FEB8B133
:102650004FF400416348FEF703F8002406E0002031
:10266000FFF7D9FF624921F81400641C082CF6DB3F
:102670004FF400415B48FDF7F1FF0120FDF7E3FE59
:1026800010BD08B502215748FDF7EAFF0020009071
:1026900002E00098401C009000986428F9D30221C1
:1026A0005048FDF7DBFF08BD70B52DED048B00240D
:1026B00000254F4830F8140005B200BF60E034B187
:1026C000012C14D0022C2DD0032C56D13AE005EB6E
:1026D000850149004FF47A7201FB02F0C11700EB4B
:1026E0005141C1F3CF31434A22F8141046E005EBC3
:1026F000850149004FF47A7201FB02F0C11700EB2B
:102700005141C9130EB2304602F09DFB9FED3A0BCA
:1027100053EC102B02F0E2F902F068FB354921F886
:1027200014002BE005EB850149004FF47A7201FBA0
:1027300002F0C11700EB5141C1F3CF312D4A22F80D
:1027400014101BE005EB850149004FF47A7201FB80
:1027500002F0C11700EB5141C9130EB2304602F02E
:1027600072FB9FED270B53EC102B02F0B7F902F030
:102770003DFB204921F8140000E000BF00BF641CAD
:10278000082C9CDBBDEC048B70BD38B50025002403
:1027900022E0174830F8140005B205EB8501490026
:1027A0004FF47A7201FB02F0C11700EB5141C1F303
:1027B000CF31104A22F8141000BF104630F8140030
:1027C00000900B4830F8143022460FA1002002F090
:1027D0007DF800BF601CC4B2082CDADB38BD0000F5
:1027E000003801400000024000080240003C004068
:1027F0007000002080000020000000000000C03FAA
:10280000000000000000E03F6164635F6461746188
:102810005B25645D3D252D38782C616E616C6F679A
:102820005F646174613D25646D760D0A00000000EF
:1028300000B587B001210220FEF752F9012188037B
:10284000FEF797F94FF42040059002208DF818000C
:1028500000208DF81A0002208DF8190001208DF853
:102860001B0005A9A148FDF77DFE05220D219F480B
:10287000FDF703FF05220F219C48FDF7FEFE4FF4F4
:102880004040ADF800004FF48270ADF802004FF404
:102890000060ADF804000220ADF806000120ADF89C
:1028A00008004002ADF80A000020ADF80C00ADF8B9
:1028B0000E000720ADF8100069468D48FEF7B0FA0B
:1028C00001218B48FEF7A6FB07B000BD1CB50446EE
:1028D00001210620FEF704F9A088009001208DF860
:1028E000040000208DF8060002208DF8050001206C
:1028F0008DF8070069462068FDF734FEA18820683E
:10290000FDF7ACFEA089009001208DF804000020A6
:102910008DF8060002208DF8050001208DF80700D3
:102920006946A068FDF71EFEA189A068FDF796FE26
:102930001CBD70B504460D46A1882068FDF790FEC9
:1029400000BF02216A48FEF72FFC0028F9D0294673
:102950006748FEF7E0FB00BF80216548FEF724FCD6
:102960000128F9D0A1882068FDF778FE70BD38B540
:102970000446A189A068FDF773FE0020009002E0E4
:102980000098401C009000986428F9D3A189A068A1
:10299000FDF764FE38BDB5EEC00AF1EE10FA04D2C0
:1029A000DFED540AB0EE600A0AE0F0EE040AB4EE7D
:1029B000E00AF1EE10FA03DDF0EE040AB0EE600A70
:1029C000DFED4D0A60EE200AB0EE041AC0EE811A67
:1029D000FCEEE10A10EE900A80B2704710B5FFF7E6
:1029E00027FF4648FFF772FF4548FFF76FFF10BD0E
:1029F00070B52DED068B002400BF46E014B1012C0C
:102A000040D11FE03F4931F8140002F033FA9FED46
:102A10003E0B53EC102B02F041FA9FED3D0B53ECB3
:102A2000102B02F03BFA02F0B1F905B243F2333059
:102A300015FB00F04FF6FF7101EA4000364921F81E
:102A4000140020E02F4931F8140002F013FA9FED32
:102A5000330B53EC102B02F021FA9FED2D0B53ECAE
:102A6000102B02F01BFA02F091F905B243F2333059
:102A700015FB00F04FF6FF7101EA4000264921F8EE
:102A8000140000E000BF00BF641C022CB6DBBDECEC
:102A9000068B70BD10B52DED028BB7EE000AB0EEBF
:102AA000408AB0EE000A28EE000ADFED1E0A20EE92
:102AB000200ABCEEC00A10EE100A81B20F48FFF7E0
:102AC00038FF0E48FFF753FF9FED160A28EE000A65
:102AD000BCEEC00A10EE100A81B20948FFF729FFC8
:102AE0000748FFF744FFBDEC028B10BD0004024015
:102AF0000038004000000000000080472000002057
:102B0000300000205C000020000000000000C03FFA
:102B100000000000000059404000002000000000BC
:102B20000000E03F00CCCC4610B504466FF0040036
:102B3000FDF7ECFBE11704EB5171C1F3C701394A12
:102B400011701046007800EB4001C1EBC0104FF649
:102B5000FF7101EAC0003449088010BD0146314AC6
:102B600012784A434FF0E0235A6100229A611A46D4
:102B7000126942F001021A6100BF4FF0E0221069B1
:102B800000F001021AB100F48032002AF5D04FF0B3
:102B9000E022126922F001024FF0E0231A610022C4
:102BA0009A6170470146204A12884A434FF0E02359
:102BB0005A6100229A611A46126942F001021A61B2
:102BC00000BF4FF0E022106900F001021AB100F4DA
:102BD0008032002AF5D04FF0E022126922F0010283
:102BE0004FF0E0231A6100229A61704770B50446E5
:102BF0004FF4077094FBF0F0C6B24FF4077094FBEB
:102C0000F0F100FB114085B205E04FF40770FFF7CB
:102C1000C9FF701EC6B2002EF7D115B12846FFF7C6
:102C2000C1FF70BD440000204600002000BF704777
:102C300070B504460D467D490C8000BF40217B489D
:102C4000001FFFF747FB0028F8D0204670BD10B5E5
:102C500088B0044601210846FDF742FF01211020FB
:102C6000FDF74FFF072209217148FDF706FD0722F6
:102C70000A216F48FDF701FD4FF4C0600690022065
:102C80008DF81C008DF81D0000208DF81E0001201D
:102C90008DF81F0006A96648FDF764FC0294002029
:102CA000ADF80C00ADF80E00ADF81000ADF8140052
:102CB0000C20ADF8120002A95E48FFF7A8F9012127
:102CC0005C48FFF72CFA40215A48FFF710FB01221D
:102CD00040F225515748FFF7D8FA25208DF8040017
:102CE00003208DF805008DF8060001208DF80700FF
:102CF00001A8FDF7BEFA08B010BD10B586B00446B5
:102D000001214FF00410FDF7EBFE4848001FFFF7CC
:102D100017F907220A214848FDF7AFFC07220B21CB
:102D20004548FDF7AAFC4FF44060049002208DF85E
:102D300014008DF8150000208DF8160001208DF884
:102D4000170004A93C48FDF70DFC00940020ADF8E5
:102D50000400ADF80600ADF80800ADF80C000C203A
:102D6000ADF80A0069463148001FFFF750F901210C
:102D70002E48001FFFF7D3F940212C48001FFFF712
:102D8000B6FA06B010BD10B586B004460121042085
:102D9000FDF7A6FE01218804FDF7EBFE07220A21BC
:102DA0002548FDF76AFC07220B212348FDF765FC47
:102DB0004FF44060049002208DF814008DF8150047
:102DC00000208DF8160001208DF8170004A91A487C
:102DD000FDF7C8FB00940020ADF80400ADF8060034
:102DE000ADF80800ADF80C000C20ADF80A006946FB
:102DF0000E48001FFFF70BF901210C48001FFFF7D9
:102E00008EF940210948001FFFF771FA06B010BD86
:102E100010B540F225510748FFF772FA20B1054876
:102E2000FFF7ACF9C4B200BF10BD00000448004079
:102E300000000240001001400008024000BF4FF4B3
:102E4000A060FDF711FAA820FFF76EFE40F2DC50FB
:102E5000FFF7CCFE00BF16A1002001F037FD00BF38
:102E600000F0C4F900F004FAFFF7B8FDFFF793FB98
:102E700000F05EF9FFF7A9FB532140F2E730FFF7BE
:102E800089FA00F01CFC4FF448710420FFF7D4FAD3
:102E900000BF0FA1002001F019FD00BF07E000F006
:102EA00017FCFFF7EEFBFFF770FCFFF7F3FDF6E70B
:102EB0003C4459474C423E2073797374656D2069D8
:102EC0006E6974202E2E2E2E2E2E0D0A000000006C
:102ED0003C4459474C423E2053797374656D2069D8
:102EE0006E697420636F6D706C657465642C206509
:102EF0006E746572206C6F6F70202E2E2E2E2E2E0B
:102F00000D0A0000704700BFFEE700BFFEE700BFEC
:102F1000FEE700BFFEE7704770477047704700004C
:102F20000CB50020019000907648006840F4803095
:102F30007449086000BF7348006800F400300090D6
:102F40000198401C0190009818B90198B0F5A04F65
:102F5000F1D16C48006800F4003010B101200090FD
:102F600001E0002000900098012846D165484030DB
:102F7000006840F080506349403108606248006852
:102F800040F44040604908605E48083000685D4990
:102F9000083108600846006840F4004008600846B0
:102FA000006840F4A05008605848091F0860081FD6
:102FB000006840F08070091F086000BF5148006839
:102FC00000F000700028F9D040F205705049086008
:102FD0004C480830006820F003004A490831086076
:102FE0000846006840F00200086000BF454808300D
:102FF000006800F00C000828F8D10CBD10B5454859
:10300000006840F47000434908603E48006840F0A2
:1030100001003C49086000203A49083108603948FD
:1030200000683D490840374908603C48091D086070
:10303000081F006820F48020091F08600020314923
:103040000C310860FFF76CFF4FF0006031498039A8
:10305000086010BD70B50020002202230024022168
:10306000284D08352D6805F00C0020B1042806D045
:10307000082834D107E02A4D2A4E356033E02A4D26
:10308000284E35602FE01F4D2D1D2D68C5F380544F
:103090001C4D2D1D2D6805F03F0154B1224DB5FB8F
:1030A000F1F5184E361D3668C6F3881605FB06F294
:1030B00009E01B4DB5FBF1F5124E361D3668C6F31F
:1030C000881605FB06F20F4D2D1D2D68C5F3014531
:1030D0006D1C6B00B2FBF3F5124E356003E0104D32
:1030E000104E356000BF00BF064D08352D68C5F392
:1030F00003150E4E705D0B4D2D68C540094E3560B1
:1031000070BD0000003802400070004008544007C5
:10311000003C024088ED00E0FFFFF6FE1030002486
:103120000024F4004800002000127A004C00002027
:103130001CB501210C20FDF7D3FC4FF490700090DA
:1031400000208DF804008DF8070069462348FDF73C
:1031500009FA4FF42070009001208DF8040000203F
:103160008DF8060003208DF8050000208DF807007B
:1031700069461A48FDF7F6F90420009001208DF801
:10318000040000208DF8060003208DF805000020C3
:103190008DF8070069461248FDF7E4F980210F48D1
:1031A000FDF75EFA4FF400710C48FDF759FA1CBDAB
:1031B000704770B50024002500BF08E004EB44050B
:1031C000084830F81500084921F81400641C022C46
:1031D000F4DBFFF70DFCFFF75DFC70BD000802405B
:1031E000000C0240AA0000205C0000201CB5012158
:1031F0000846FDF775FCE020009002208DF80400E1
:1032000000208DF8060003208DF8050000208DF8C1
:1032100007006946C348FDF7A5F91020009001207A
:103220008DF8040000208DF8060003208DF80500BD
:1032300000208DF807006946BA48FDF793F905228A
:103240000421B848FDF719FA05221146B548FDF7E3
:1032500014FA05220621B348FDF70FFA05220721CB
:10326000B048FDF70AFA1021AE48FDF7F7F91CBD8A
:1032700000B587B001210803FDF78CFC012108038C
:10328000FDF7DDFC00214FF48050FDF7D8FC002055
:10329000ADF808004FF48270ADF80A004FF40060FA
:1032A000ADF80C000220ADF80E000120ADF81000C2
:1032B0004002ADF812000020ADF816000720ADF86E
:1032C000180002A99848FDF7ABFD0122602196483D
:1032D000FDF748FF23208DF8040001208DF805003C
:1032E00000208DF8060001208DF8070001A8FCF7EA
:1032F000C0FF01218C48FDF78DFE07B000BD10B561
:10330000044600BF02218848FDF74EFF0028F9D08F
:1033100021468548FDF7FFFE00BF01218248FDF7E9
:1033200043FF0028F9D08048FDF7F2FE10BDFEB53E
:10333000002000900190029000260025002445F214
:10334000AA507A4908801220488000BF1AE004EB96
:1033500044057648001D20F815406000744931F896
:1033600010207248001D691C20F81120012000EB7C
:1033700044006F4931F810206C48001DA91C20F84A
:103380001120641C022CE2DB00BF80216948FDF79C
:1033900058F96649098A60F30001644801824FF4D4
:1033A00000716448FDF74DF96049098A60F34101F5
:1033B0005E48018220215F48FDF743F95B49098A95
:1033C00060F30821594801824FF480715948FDF794
:1033D00038F95649098A60F349215448018200BFEF
:1033E000008852494988084486B2002404E03DF828
:1033F0001400304486B2641C062CF8DB4B4846822D
:103400004AF6BC4049498882FEBD70B50024474D4C
:1034100010214448FDF724F900BF04E035F81400FA
:10342000FFF76DFF641C41484088801CA042F5DC1A
:1034300010213C48FDF712F970BD2DE9F04700243A
:10344000002500260027A046A14664E0102135484B
:10345000FDF706F947F2AA70FFF751FF814604E035
:1034600047F2AA70FFF74BFF81464AF65520814587
:10347000F6D13148A0F800900020FFF740FF2E4918
:103480004880002419E004EB44050020FFF737FFD3
:103490002949091D21F815000020FFF730FF2649B2
:1034A000091D6A1C21F812000020FFF728FF22499D
:1034B000091DAA1C21F81200641C022CE3DB002069
:1034C000FFF71DFF1C4908820020FFF718FF1A496B
:1034D00048820020FFF713FF1749888208460088BA
:1034E000498800EB0108002405E01348001D30F86E
:1034F00015008044641C062CF7DB0F48408A4045C9
:1035000001D1012600E07F1C032F00D105E010212E
:103510000448FDF7A3F8002E98D000BF3046BDE860
:10352000F0870000000002400030014090000020C1
:103530008000002000080240A600002001463A4812
:103540000160002070472DE9F047044616461F46EB
:10355000DDE9088914B1B8F1000F03D14FF0FF3055
:10356000BDE8F087314D06E02868A04202D120680E
:10357000286003E02D6828680028F5D100BF2A489C
:103580000068804780197941C4E90201C4F81080BD
:10359000C4F81490254D00BF286818B90020206099
:1035A0002C600DE0D4E902302A68D2E90212591ADF
:1035B000904103D2286820602C6001E02D68EBE781
:1035C00000BF0020CCE70246184906E00868904298
:1035D00002D113680B6003E0096808680028F5D180
:1035E00000BF0020704710B51048046817E00E486F
:1035F00000688047D4E90232C01A914105D20A48D6
:1036000000688047A168081A10BD08492068086052
:10361000206918B12046D4E9042190472468002C81
:10362000E5D10020F0E700006400002060000020E9
:1036300010B5FEF7F0FE10BD2DE9FC470646144616
:103640001D46DDE90A784FF0000922462B46304638
:10365000CDE90078FFF777FF81464846BDE8FC8753
:1036600070B5044600252046FFF7ADFF0546284605
:1036700070BD1CB5184819494FF4FA720023CDE902
:103680000010FFF7D9FF1CBD70B504460D46144865
:103690000068401C124908600846007800F00100EC
:1036A00020B904210F48FCF7D9FF03E004210D489D
:1036B000FCF7D6FFFEF7D2FEFFF7DBFF70BD10B5BB
:1036C000AFF29300FFF73AFFFFF7D3FF002010BDE2
:1036D00010B5FFF788FF10BDC00000208936000834
:1036E00068000020000C024070B5FE4CA821204666
:1036F00001F065F9032020616061FBA0A061FD4934
:10370000E1614FF4806121620021A1626162E162A6
:10371000F5A02066F84961661021A16600212167A5
:10372000E1666167002505E0C5F10F00F349085C1B
:1037300060556D1C102DF7D370BD2DE9F05F044668
:10374000894617464FF0000AE56800BFD4F810809C
:10375000A84503D9A8EB0500461E04E0A5EB080028
:10376000401CA1680E1AA068401BB04201D9304627
:1037700001E0A068401B0646BE4201D2304600E090
:1037800038460646606800EB050B32464946584607
:1037900001F0D0F8B244B144BF1B3544A068A84240
:1037A00000D10025E560002FD0D15046BDE8F09F44
:1037B0002DE9F047044689461546E668A068871B50
:1037C000AF420AD9606800EB060A2A4649465046CD
:1037D00001F0B0F87019E06014E0B846606800EBE2
:1037E000060A42464946504601F0A4F8A5EB0708F0
:1037F000D4F804A009EB07014246504601F09AF8BC
:10380000C4F80C80BDE8F08738B505460C46FF20AB
:103810008DF80000BA48005D8DF80100022269466B
:103820002846FFF78AFF38BD10B501460A69CB6804
:103830009A4204D88C68641EE41AA01801E0D41AD5
:10384000601E10BD2DE9F74F82B08346174600BFBA
:10385000A448009000980078532801D0FFF744FF57
:1038600000BF0BEB4B019F48183000EBC106DDF8A1
:103870000C903569D6F80CA04FF00008554517D9C3
:10388000B068441BBC4201D2204600E038460446E2
:1038900070682844019022464846019901F04AF890
:1038A000A044A1443F1B2544B068A84200D1002594
:1038B000AAEB0504BC4201D2204600E0384604468B
:1038C0005CB170682844019022464846019901F095
:1038D00031F8A044A1443F1B2544B8F1000F00D0AB
:1038E0003561404605B0BDE8F08F2DE9F74F82B055
:1038F0008346174600BF7B48009000980078532805
:1039000001D0FFF7F1FE00BF0BEB4B0175486030B3
:1039100000EBC106DDF80C903569D6F80CA04FF02D
:103920000008554517D9B068441BBC4201D2204657
:1039300000E0384604467068284401902246484614
:10394000019900F0F7FFA044A1443F1B2544B06853
:10395000A84200D10025AAEB0504BC4201D22046B2
:1039600000E0384604465CB1706828440190224665
:103970004846019900F0DEFFA044A1443F1B2544C6
:10398000B8F1000F00D03561404605B0BDE8F08FBA
:103990002DE9F04104460D461646EFF311808046AE
:1039A000202080F3118800BF00BF32462946204600
:1039B000FFF748FF074608F0FF0080F3118800BFBB
:1039C00000BF3846BDE8F0812DE9F04104460D46C0
:1039D0001646EFF311808046202080F3118800BF47
:1039E00000BF324629462046FFF77FFF074608F012
:1039F000FF0080F3118800BF00BF3846BDE8F081AA
:103A00002DE9F047074688461646C14607EB4701B1
:103A10003448183000EBC104D4E90301884202D1D4
:103A2000A068451E0EE0D4E90301884204D2206953
:103A3000E168401A451E05E02069E168401A401E11
:103A4000A1684518AE420CD92069711B0844206159
:103A500003E02069A168401A20612069A1688842BA
:103A6000F7D2D4E90201451A00BFB5420CD9E1688A
:103A7000606800EB010A32464946504600F05AFFA2
:103A8000E0683044E06010E0E168606800EB010A43
:103A90002A464946504600F04DFFA9440020E06008
:103AA000761BA068451E002EDFD100BFBDE8F08761
:103AB0002DE9F74F82B082461446DDF80CB00AEBD0
:103AC0004A010848183000EBC105D5F81090EE689F
:103AD000686830440190B14539D8A868801B471EFA
:103AE000A7420FE0D80000205465726D696E616CCA
:103AF000000000008001002080050020B250000876
:103B0000A25000080AD322465946019800F012FF3D
:103B10003019E860012005B0BDE8F08F4F44A7429E
:103B200023D3A868A0EB060842465946019800F046
:103B300001FFA4EB08043CB1686801900BEB08019D
:103B40002246019800F0F6FEEC600120E3E7A9EBC5
:103B50000600471EA74208D322465946019800F0A6
:103B6000E9FE3019E8600120D5E70020D3E72DE910
:103B7000F047074688461646C24607EB4701FE480F
:103B800000EBC109D9F8140020B1012811D0022896
:103B900026D11EE04846FFF747FE0546B54201D252
:103BA000002405E03446324651464846FFF700FE01
:103BB00018E04846FFF738FE0546B54201D22846D0
:103BC00000E030460446224651464846FFF7F0FDE5
:103BD00008E0324651464846FFF7AFFD044601E093
:103BE000002400BF00BF2046BDE8F0872DE9F04764
:103BF000074688461646C24607EB4701DE48483866
:103C000000EBC109D9F8140020B1012811D0022815
:103C100026D11EE04846FFF707FE0546B54201D211
:103C2000002405E03446324651464846FFF7C0FDC1
:103C300018E04846FFF7F8FD0546B54201D2284690
:103C400000E030460446224651464846FFF7B0FDA4
:103C500008E0324651464846FFF76FFD044601E052
:103C6000002400BF00BF2046BDE8F0872DE9F041E9
:103C700004460D46164600BFBF4F603F38785328B4
:103C800001D0FFF731FD00BFEFF311800746202080
:103C900080F3118800BF00BF324629462046FFF757
:103CA00066FF8046F8B280F3118800BF00BF40462F
:103CB000BDE8F0812DE9F04104460D46164600BFEF
:103CC000AD4F603F3878532801D0FFF70DFD00BF9E
:103CD000EFF311800746202080F3118800BF00BF5A
:103CE000324629462046FFF781FF8046F8B280F32E
:103CF000118800BF00BF4046BDE8F08170B50546A1
:103D00000C46204600F0F7FD06463246214628467E
:103D1000FFF7D0FF70BDF0B503460C4603EB430739
:103D2000954E483E06EBC701CE68721C8E689642DF
:103D300000D100220E69964206D0CF684E68F51970
:103D40002C70CA60012000E00020F0BD2DE9F04792
:103D50000746884600BFDFF820A2AAF1600A9AF859
:103D60000000532801D0FFF7BFFC00BFEFF3118123
:103D70000846202181F3118800BF00BF07EB4702EE
:103D80007D49483901EBC204E1684D1CA168A94294
:103D900000D100252169A94208D0E268616801EBE1
:103DA000020989F80080E560012600E00026C1B222
:103DB00081F3118800BF00BF3046BDE8F0872DE9D0
:103DC000F0470746884600BFDFF8ACA1AAF1600AB9
:103DD0009AF80000532801D0FFF786FC00BFEFF3EC
:103DE00011810846202181F3118800BF00BF07EB35
:103DF00047026149483901EBC204E1684D1CA168E2
:103E0000A94200D100256169022903D100BF2169BF
:103E1000A942FCD02169A94208D0E268616801EB9F
:103E2000020989F80080E560012600E00026C1B2A1
:103E300081F3118800BF00BF3046BDE8F08738B578
:103E4000012269460020FFF7BFFD0446012C02D184
:103E50009DF8004001E04FF0FF34204638BD10B51A
:103E600000BFFFF7ECFF0028FBDB10BD2DE9F041A0
:103E700000BF414F603F3878532801D0FFF734FC32
:103E800000BF3D4C2669E068B04201D0012500E04A
:103E900000252846BDE8F08110B5014601EB41043C
:103EA000354800EBC402D3681069181A10BD10B56C
:103EB000014601EB41043048483800EBC402136965
:103EC000D068C01A10BD2DE9F04706460F4690464F
:103ED000994600BFDFF8A0A0AAF1600A9AF8000096
:103EE000532801D0FFF700FC00BFEFF31181084613
:103EF000202181F3118800BF00BF1F4D603D0024C9
:103F000000BF04EB440205F1600101EBC201496806
:103F100001B903E0641C6969A142F2DC00BF696970
:103F2000A1422EDD04EB440205F1600141F832604C
:103F300004EB440201EBC2014F6004EB440205F1C3
:103F4000600101EBC201C1F80880002204EB4403C8
:103F500005F1600101EBC3010A6104EB440305F1C3
:103F6000600101EBC301CA6004EB440205F160018A
:103F700001EBC20102E0000038010020C1F81490FA
:103F800001E04FF0FF34C1B281F3118800BF00BFE0
:103F90002046BDE8F0872DE9F04706460F469046DB
:103FA000994600BFDFF800A49AF80000532801D01A
:103FB000FFF79AFB00BFEFF311810846202181F340
:103FC000118800BF00BFF84D002400BF04EB44027D
:103FD00005F1180101EBC201496801B903E0641C55
:103FE0002969A142F2DC00BF2969A1422ADD04EB64
:103FF000440205F1180141F8326004EB440201EB80
:10400000C2014F6004EB440205F1180101EBC2014B
:10401000C1F80880002204EB440305F1180101EB0C
:10402000C3010A6104EB440305F1180101EBC3016C
:10403000CA6004EB440205F1180101EBC201C1F8AA
:10404000149001E04FF0FF34C1B281F3118800BF3A
:1040500000BF2046BDE8F0872DE9F05F05460F461A
:104060009046994600BFDFF840B39BF80000532804
:1040700001D0FFF739FB00BFDFF82CA3032D1FD2BF
:10408000EFF311810846202181F3118800BF00BFA2
:1040900005EB45020AF1180101EBC2043DB12760AE
:1040A000C4F80480C4F8089000212161E1600A99F5
:1040B0006161C1B281F3118800BF00BF002601E039
:1040C0004FF0FF363046BDE8F09F2DE9F05F054622
:1040D0000F469046994600BFDFF8CCB29BF800002F
:1040E000532801D0FFF700FB00BFDFF8BCA2032D6F
:1040F0001FD2EFF311810846202181F3118800BF00
:1041000000BF05EB45020AF1600101EBC2043DB1BD
:104110002760C4F80480C4F8089000212161E160A0
:104120000A996161C1B281F3118800BF00BF002606
:1041300001E04FF0FF363046BDE8F09F2DE9F04733
:1041400004460E4600BFDFF8609299F8000053283D
:1041500001D0FFF7C9FA00BF934F032C16D2EFF33B
:1041600011810846202181F3118800BF00BF04EBB4
:10417000440207F1180101EBC208C8F80060C1B29F
:1041800081F3118800BF00BF002501E04FF0FF352B
:104190002846BDE8F0872DE9F04704460E4600BFEB
:1041A000DFF8049299F80000532801D0FFF79CFA39
:1041B00000BF7D4F032C16D2EFF31181084620215A
:1041C00081F3118800BF00BF04EB440207F16001D6
:1041D00001EBC208C8F80060C1B281F3118800BFCA
:1041E00000BF002501E04FF0FF352846BDE8F0870D
:1041F0002DE9F04704460E4600BFDFF8AC9199F870
:104200000000532801D0FFF76FFA00BF664F032C60
:1042100016D2EFF311810846202181F3118800BFE7
:1042200000BF04EB440207F1180101EBC208C8F813
:104230001460C1B281F3118800BF00BF002501E006
:104240004FF0FF352846BDE8F0872DE9F0470446DA
:104250000E4600BFDFF8509199F80000532801D0B6
:10426000FFF742FA00BF504F032C16D2EFF3118133
:104270000846202181F3118800BF00BF04EB4402EF
:1042800007F1600101EBC208C8F81460C1B281F304
:10429000118800BF00BF002501E04FF0FF35284620
:1042A000BDE8F08710B5FFF71FFA10BD2DE9F84300
:1042B000044600BFDFF8F08098F80000532801D0D2
:1042C000FFF712FA00BF0027FF208DF80000102C26
:1042D00031D23648005D8DF80100334D1835EFF3CB
:1042E00011808046202080F3118800BF00BF287D08
:1042F00000F00300022807D12D480470022269460D
:104300002846FFF71AFA0FE02846FFF78DFA06460F
:10431000022E07D326480470022269462846FFF77A
:1043200047FA01E04FF0FF3708F0FF0080F31188F3
:1043300000BF00BF01E04FF0FF373846BDE8F8830B
:104340002DE9F0470746894600BFDFF85CA09AF8E0
:104350000000532801D0FFF7C7F900BF102F70DA13
:10436000DFF8448008F11808484600F0C4FA064611
:10437000EFF311808246202080F3118800BF00BF38
:104380004046FFF751FA054698F8140000F0030084
:1043900020B101281ED0022847D136E0301D8542C9
:1043A00008D2002415E00000D8000020A250000828
:1043B0006C00002039464046FFF726FA324649464F
:1043C0004046FFF7BAF90446364801784046FFF701
:1043D0001BFA2DE0042D02D24FF0FF3414E03946D1
:1043E0004046FFF711FA281FB04201D9304600E0DD
:1043F000281F024649464046FFF79FF904462948D0
:1044000001784046FFF700FA12E039464046FFF7D0
:10441000FBF9324649464046FFF78FF904462148EA
:1044200001784046FFF7F0F902E04FF0FF3400BF9B
:1044300000BF0AF0FF0080F3118800BF00BF02E058
:10444000FFE74FF0FF342046BDE8F08770B5044623
:1044500004EB4401144800EBC1052846FFF7E4F9DA
:1044600070BD70B50146104C183C01EB410604F1DB
:10447000180505EBC6052A6901EB410604F118058C
:1044800005EBC605EB689A4201D8981A08E001EBE3
:10449000410604F1180505EBC605AD689E1AA81B78
:1044A00070BD00006C000020F000002070B50446D4
:1044B0000E46A568681C6168814206D3206846558F
:1044C000681CA060E068401CE060D4E901108842EC
:1044D0000DD1A26821682069FFF7ECFBA168884232
:1044E00003D04FF0FF30E06001E00020A06070BD1D
:1044F0002DE9FC5F8046894615461E460C9CCDF88A
:1045000004900127BB4605E00198B0FBF5F001904F
:104510000BF1010B0198A842F6D25E4500D9B346D3
:104520000D9800F00100D0B9CCB10D9800F0020058
:10453000022803D116B93020009001E0202000901D
:1045400009E0641E40460099FFF7B0FFD8F80C0060
:10455000002800DA02E00CB1A345F2D300BFD8F87E
:104560000C00002835DB09E0012E01D9761E04E09D
:10457000B9FBF7FAAA4500D201E06F43F4E700BFA8
:1045800000BFB9FBF7FA0AFB1799D94810F80A10CF
:104590004046FFF78BFFD8F80C00002800DA03E054
:1045A000B7FBF5F7002FECD100BF0D9800F001002C
:1045B00078B174B109E0641E20214046FFF776FF10
:1045C000D8F80C00002800DA02E00CB1A345F2D3C1
:1045D00000BFBDE8FC9F2DE9FC5F06460F469246F2
:1045E0009846DDE90C45002F01DA784200E03846B4
:1045F00083464FF0010903E09BFBFAFB09F1010937
:10460000D345F9DAC84500D9C14634B1002F03DBE0
:1046100005F00400042800D1641E05F0020010B16A
:10462000B8F1000F11D005F0010070B96CB108E0CD
:10463000641E20213046FFF739FFF068002800DAB9
:1046400002E00CB1A145F3D300BFF068002836DBCF
:10465000002F05DA7F422D213046FFF727FF07E0C4
:1046600005F00400042803D12B213046FFF71EFF7C
:10467000F068002823DB05F00200022814D105F0C1
:10468000010088B9B8F1000F0ED16CB108E0641ECA
:1046900030213046FFF70AFFF068002800DA02E018
:1046A0000CB1A145F3D300BFF068002807DB4346F7
:1046B000524639463046CDE90045FFF719FFBDE8BF
:1046C000FC9F2DE9F04F99B082460D46144603A891
:1046D00014904020159000201690CDF860A01790FF
:1046E00000BF2E786D1C06B9DDE0252E79D100279C
:1046F0004FF0010900BF2E78232E12D02B2E0CD0A4
:104700002D2E02D0302E10D103E047F001076D1C92
:104710000EE047F002076D1C0AE047F004076D1C2D
:1047200006E047F008076D1C02E04FF0000900BFEB
:1047300000BFB9F1000FDED14FF0000800BF2E78A6
:10474000302E01DB392E00DD07E06D1CA6F13000B4
:1047500008EB880100EB4108F1E700BF002013904F
:104760002E782E2E12D16D1C00BF2E78302E01DB3C
:10477000392E00DD09E06D1CA6F13000139901EB24
:10478000810100EB41001390EFE700BF2E7800BFDE
:104790006C2E01D0682E02D16D1C2E7800E000E056
:1047A000F6E700BF702E5DD008DC252E6AD0582EAB
:1047B00035D0632E09D0642E69D113E0732E3CD01E
:1047C000752E1DD0782E62D128E02168081D20604A
:1047D000D1F8009009F0FF0B594614A8FFF766FEC8
:1047E00056E058E02168081D2060D1F80090CDE91E
:1047F00000870A22494614A8139BFFF7ECFE47E006
:104800002168081D2060D1F80090CDE900870A22B8
:10481000494614A8139BFFF76BFE39E000BF2168DF
:10482000081D2060D1F80090CDE90087102249468C
:1048300014A8139BFFF75CFE2AE02168081D206086
:10484000D1F800B000BF9BF800600BF1010B06B976
:1048500006E0314614A8FFF729FE17980028F2DA7F
:1048600000BF15E02168081D2060D1F800900020ED
:1048700008210B461022CDE90010494614A8FFF785
:1048800037FE05E0252114A8FFF710FE00E000BF69
:1048900000BF6D1C03E0314614A8FFF707FE179810
:1048A0000028BFF61EAF00BF179800280ADD169833
:1048B00020B103A95046169AFFF7FCF9DDE916105E
:1048C00008441790179819B0BDE8F08F0FB438B5A9
:1048D000044606A800906A4620460599FFF7F1FEB7
:1048E000054600200090284638BC5DF814FB000007
:1048F000C3500008704710B5431C02E010F8011BBC
:1049000071B18107FAD14FF0013202C88C1A8C4381
:1049100014EAC211F9D0C01A0A0603D0C01E10BD95
:10492000C01A10BD0A0401D0801E10BD0902FCD0BF
:10493000401E10BD032A40F2308010F0030C00F03E
:10494000158011F8013BBCF1020F624498BF11F8C9
:1049500001CB00F8013B38BF11F8013BA2F1040282
:1049600098BF00F801CB38BF00F8013B11F00303FA
:1049700000F05080083AC0F0088051F8043B083A33
:1049800051F804CBA0E80810F5E7121D5CBF51F800
:10499000043B40F8043BAFF30080D20724BF11F87A
:1049A000013B11F801CB48BF11F8012B24BF00F8DF
:1049B000013B00F801CB48BF00F8012B70474FF0D6
:1049C000000200B5134694469646203922BFA0E85F
:1049D0000C50A0E80C50B1F12001BFF4F7AF09076B
:1049E00028BFA0E80C5048BF0CC05DF804EB89005C
:1049F00028BF40F8042B08BF704748BF20F8022B9F
:104A000011F0804F18BF00F8012B704770477047B6
:104A10007047704710B5203AC0F00B80B1E81850CD
:104A2000203AA0E81850B1E81850A0E81850BFF498
:104A3000F5AF5FEA027C24BFB1E81850A0E8185037
:104A400044BF18C918C0BDE810405FEA827C24BF8B
:104A500051F8043B40F8043B08BF7047D20728BF19
:104A600031F8023B48BF11F8012B28BF20F8023B68
:104A700048BF00F8012B7047754600F02BF8AE4692
:104A800005006946534620F00700854618B020B55A
:104A9000FBF7D8FBBDE820404FF000064FF00007C1
:104AA0004FF000084FF0000B21F00701AC46ACE8D6
:104AB000C009ACE8C009ACE8C009ACE8C0098D4643
:104AC000704710B50446AFF300802046BDE81040A3
:104AD000FBF7A3BB00487047900500202DE9C041BB
:104AE00030B4DFF8A0C23CEA111418BF3CEA13143A
:104AF00000F0EC8081EA03051CEA111444EAD57445
:104B000018BF1CEA131500F0C780A4EB05044FF092
:104B1000004545EAC12145EAC32341EA505143EA31
:104B2000525304F17F74994204F500344FEAC020D7
:104B30004FEAC22208BF904200F09C804FEA136502
:104B40000FF24016765D4FEA134506FB05F7C7F1F5
:104B5000807706FB07F74FEAD737A7FB0368764253
:104B6000C8F58038A7FB06CE38BFA8F1010807FBBF
:104B700008E64FF0000EA6FB028CE6FB03CEDCF14C
:104B8000000CCEF1004E38BFAEF1010EA6FB0C5862
:104B90004FF000074FF00005E6FB0E87A1FB08C6AB
:104BA000A0FB07CE16EB0E0645F10005E1FB0765FD
:104BB00015F1E04E7EBFA4F580345FEA46066D41F4
:104BC00016F1800745F100054FEA17274FEA066600
:104BD00047EA0567A6F1DE46B6F1805F4FEA152584
:104BE0001FD9384624F0010C05EBC471BCF1FE6FEF
:104BF00001EB0C1102D8F0BCBDE8008124425CBF7F
:104C000001F5801E9EEAC47F02D4F0BCBDE800819D
:104C1000244238D4F0BCA1F1C041BDE8004100F00D
:104C200035BA4FEAD22242EA43524FEAD323A7FBD6
:104C300002864FEAD02040EA415007FB03661EEA95
:104C40000E0F4FEAD12105FB026658BFA6EB0056B6
:104C5000B6EB00564FEA520E4EEAC37E18EB0E0E2C
:104C600056EB530EBDD518EB02085E417F1C55F183
:104C70000005B6E74FF480154FF000074FF000062F
:104C80004FF00008ADE7F0BC4FF0000001F1C0416B
:104C900001F00041BDE8008111EA0C1F0CEA131578
:104CA00000D00CE013EA0C1F00F025804FF000004C
:104CB000F0BC81EA030101F00041BDE80081F0BCD5
:104CC000BDE8004181EA030100F0E0B9F0BCBDE8B5
:104CD000004170B500F08CF9097EFC3E00F007B889
:104CE00081EA03014FF0000001F00041704781EAC2
:104CF000030100F0CBB9F0BCBDE800414FF000006B
:104D000021497047FFFDFBF9F7F5F4F2F0EEEDEB0A
:104D1000E9E8E6E4E3E1E0DEDDDBDAD8D7D5D4D3B9
:104D2000D1D0CFCDCCCBCAC8C7C6C5C4C2C1C0BF05
:104D3000BEBDBCBBBAB9B8B7B6B5B4B3B2B1B0AF0B
:104D4000AEADACABAAA9A8A8A7A6A5A4A3A3A2A1EF
:104D5000A09F9F9E9D9C9C9B9A99999897979695AA
:104D600095949393929191908F8F8E8E8D8C8C8B46
:104D70008B8A8989888887878685858484838382CE
:104D8000828181800000FF070000F87F4FEA410325
:104D90004FEA5353A3F58063D3F11E03C8BFD3F189
:104DA000210C0CDD4FF0004242EAC12242EA50528F
:104DB00032FA03FC8CEAE17CACEBE1707047102B1B
:104DC000C4BF0020704703F5787CBCF1FF3F04D0DE
:104DD0006FF0004282EA2100704770B500F008F9D8
:104DE0004992248000207047F2E700004FEA1153F7
:104DF000A3F58063D3F11E03A8BFD3F1200C08DB19
:104E00004FF0004242EAC12252EA505232FA03F015
:104E1000704709420BD4102BC4BF0020704703F524
:104E2000787CBCF1FF3F05D04FF0FF3070474FF06A
:104E30000000704770B500F0DBF800BF4992248095
:104E400000207047F0E710F0004248BF4042B0FA3F
:104E500080F310FA03F10AD0C3F11D0303F5806358
:104E60004FEA415002EB035202EBD12170474FF061
:104E700000007047B0FA80F310FA03F10AD0C3F1D2
:104E80001D0303F580634FEA41504FEA035202EBE2
:104E9000D12170474FF0000070470000DFF848C193
:104EA00070B51CEA111E1EBF1CEA13159EEA0C0FFA
:104EB00095EA0C0F00F06F8081EA030423EA4C139B
:104EC0004EEAD47E21EA4C1141F4801143F4801360
:104ED000AE44A1FB024CA0FB0365AEF17F7E361908
:104EE00055EB0C05A1FB034C4CF10003A0FB021C8D
:104EF00016EB0C06654153F10003094218BF46F05A
:104F0000010613F4007F0BD14FEA03314FEA05305D
:104F1000340341EA155140EA16506FF003020AE0EB
:104F20004FEAC3214FEAC520F40241EA555140EA55
:104F300056506FF0020202EB2E4201EB025585EA59
:104F4000CE710AD05FEA440C18BF24F0004450F13F
:104F5000000041F1000120EAD47040F2FE7C62457D
:104F600000D270BDA84214BF4FF080444FF04044BF
:104F7000002E08BF0024BEF1806FA8BFA1F1C04180
:104F8000BDE8704080F282804FF0000001F1C04126
:104F900001F0004170479EEA0C0F0CEA131518BF90
:104FA00095EA0C0F06D04FF0000081EA030E0EF0D8
:104FB000004170BD00F01CF88900013E00F007B808
:104FC00000F009B84FEA430C5FEA5C5C08D081EA64
:104FD000030100F05BB84FEA410C5FEA5C5CF6D17C
:104FE0004FF00000014970470000FF070000F87F04
:104FF0000EF1020E2EF0030E5EF8046B364205D45D
:10500000012A43EB030515F5001F12D8012841EBD7
:10501000010C1CF5001F0CD80ED14FEAD17C15F500
:10502000001F0CEB4C0C0CF1020C08BF4CEBD37CBA
:1050300004E04FF0080C01E04FEAD37C0CEB4C0588
:1050400026FA05F606F00706B6F1040C06D20EEBBA
:10505000860CBDE870404CF0010C6047DFE80CF0B6
:10506000090B02024FF000414FF00000A1F50021B2
:1050700070BD19461046012851EB010418BFD4F544
:10508000001484BF002001F0004170BD0808A0F5A5
:1050900000114FEA310170474FF04070E1EE100A05
:1050A0007047303132333435363738394142434432
:1050B0004546000000000000545452205245474726
:1050C0004553003031323334353637383941424375
:1050D00044454600F4500008000000207000000025
:1050E000C401000864510008700000208024000002
:1050F000E0010008000000000102030401020304B3
:105100000607080900000000000000000000000081
:1051100000000000000402400010000000040240F3
:1051200000080000000802401000000000080240D3
:10513000020000000000000000000000007A030AE6
:105140000000000000000000010203040607080937
:10515000000000000000000000000000000000004F
:04516000000000004B
:040000050800018965
:00000001FF
