:020000040800F2
:10000000503800207902000881430008834300082B
:10001000874300088B4300088F430008000000005E
:1000200000000000000000000000000093430008F2
:10003000954300080000000097430008994300081A
:10004000930200089302000893020008930200083C
:100050009302000893020008832B00089302000813
:10006000930200089302000893020008930200081C
:10007000930200089302000893020008930200080C
:1000800093020008930200089302000893020008FC
:1000900093020008930200089302000893020008EC
:1000A00093020008930200089302000893020008DC
:1000B00095280008352900089302000893020008DB
:1000C00093020008930200089302000893020008BC
:1000D0009302000893020008B94000089302000848
:1000E000930200089302000893020008930200089C
:1000F000930200089302000893020008930200088C
:10010000930200089302000893020008930200087B
:10011000930200089302000893020008930200086B
:10012000930200089302000893020008930200085B
:10013000930200089302000893020008930200084B
:10014000930200089302000893020008930200083B
:10015000930200089302000893020008930200082B
:10016000930200089302000893020008930200081B
:10017000930200089302000893020008930200080B
:10018000930200089302000800F002F800F064F8FF
:100190000AA090E8000C82448344AAF10107DA45E2
:1001A00001D100F059F8AFF2090EBAE80F0013F0D0
:1001B000010F18BFFB1A43F00103184740720000FB
:1001C000607200000A444FF0000C10F8013B13F07D
:1001D000070408BF10F8014B1D1108BF10F8015BA0
:1001E000641E05D010F8016B641E01F8016BF9D193
:1001F00013F0080F1EBF10F8014BAD1C0C1B09D1EA
:100200006D1E58BF01F801CBFAD505E014F8016B5B
:1002100001F8016B6D1EF9D59142D6D370470000ED
:100220000023002400250026103A28BF78C1FBD8FF
:10023000520728BF30C148BF0B607047642906F0E1
:100240006582782906F0C982002070471FB507F043
:1002500096F81FBD10B510BD06F0EAFC1146FFF779
:10026000F5FF03F08DFF06F008FD03B4FFF7F2FF82
:1002700003BC03F0B7FE0000094880470948004767
:10028000FEE7FEE7FEE7FEE7FEE7FEE7FEE7FEE746
:10029000FEE7FEE704480549054A064B70470000A3
:1002A00079440008890100085019002050380020C6
:1002B000502800205028002032490143324A116062
:1002C000704770B5002100230F22C4781CB32E4C58
:1002D000246804F4E064C4F5E064C4F30721C1F1C8
:1002E0000404E3B20A4144789C40E1B284781440AB
:1002F00021430C07210E254C05786155047804F044
:100300001F050124AC4005786D11AD0005F1E02515
:10031000C5F8004109E0047804F01F050124AC4051
:100320001B4D0678761145F8264070BD194A0A40E3
:100330000243154B1B1F1A60704739B1124A121D38
:1003400012680243104B1B1D1A6006E00E4A121D74
:10035000126882430C4B1B1D1A607047042808D199
:100360004FF0E021096941F004014FF0E0221161F2
:1003700007E04FF0E021096921F004014FF0E0228D
:10038000116170470000FA050CED00E000E400E0A8
:1003900080E100E080FFFF1F002041490860091D47
:1003A0000860091D0860091D08603E483C49143179
:1003B0000860704700213A498279002A3AD00A46FB
:1003C000126803689A430B461A600A1D1268036894
:1003D0009A430B1D1A60027911440A6803681A4394
:1003E0000A602F4A0832126803689A432C4B08337C
:1003F0001A601A1D126803689A43294B0C331A605D
:100400004279102A0ED11A1F126803681A43244B2E
:1004100008331A601A1D126803681A43204B0C3304
:100420001A600DE01E49427911440A6803681A43B4
:100430000A6005E0027911440A6803689A430A6079
:1004400070470021016001710C214171002181710F
:1004500070471349103109680143114A1032116085
:100460007047014600200E4A143212680A400AB151
:10047000012000E0002070470949143108607047EE
:1004800001460020064A143212680A400AB10120CF
:1004900000E00020704702491431086070470000F6
:1004A000003C0140FFFF7F0010B50446984884429D
:1004B00008D10121084600F0D2FD0021012000F002
:1004C000CEFD76E09348844208D10121022000F05D
:1004D000C6FD0021022000F0C2FD6AE08E48844281
:1004E00008D10121042000F0BAFD0021042000F011
:1004F000B6FD5EE08948844208D10121082000F061
:10050000AEFD0021082000F0AAFD52E0844884429C
:1005100008D10121102000F0A2FD0021102000F0E0
:100520009EFD46E07F48844208D10121202000F052
:1005300096FD0021202000F092FD3AE07A488442A6
:1005400008D10121402000F08AFD0021402000F068
:1005500086FD2EE07548844208D10121802000F0FC
:100560007EFD0021802000F07AFD22E07048844268
:1005700008D10121801500F072FD0021A01500F0C6
:100580006EFD16E06B48844208D10121401500F051
:1005900066FD0021601500F062FD0AE066488442B5
:1005A00007D10121001500F05AFD0021201500F0AF
:1005B00056FD10BDF0B50A4600210023002400BFFF
:1005C0003DE0012505FA01F3156805EA03049C42A4
:1005D00034D105684F000326BE40B5430560157948
:1005E0004E00B5400668354305601579012D02D0EF
:1005F0001579022D16D185684F000326BE40B543FC
:10060000856055794E00B5408668354385604568FC
:1006100001268E40B5434560456896798E40B6B256
:1006200035434560C5684F000326BE40B543C560ED
:10063000D5794E00B540C6683543C560491C1029C0
:10064000BFD3F0BD4FF6FF71016000210171417110
:100650008171C171704708B54FF480320092009AE1
:100660000A430092009AC261C161009AC261C269E4
:100670000092C269009208BD0246002013690B4037
:100680000BB1012000E0002070470146086980B2EC
:1006900070470246002053690B400BB1012000E077
:1006A000002070470146486980B270470183704757
:1006B000418370470AB1018300E041837047416183
:1006C000704742694A4042617047F0B500230024F8
:1006D0004D07ED0E02FA05F3CE1000F1200555F896
:1006E00026504E07F70E0F26BE40B543CF1000F13F
:1006F000200646F82750CE1000F1200555F8265068
:1007000045EA0304CE1000F1200545F82640F0BD6F
:10071000000002400004024000080240000C0240B9
:10072000001002400014024000180240001C024069
:1007300000200240002402400028024010B5044678
:10074000F848844209D10121480500F0BBFC002192
:100750004FF4001000F0B6FC18E0F348844209D1D1
:100760000121880500F0AEFC00214FF4800000F06C
:10077000A9FC0BE0ED48844208D10121C80500F036
:10078000A1FC00214FF4000000F09CFC10BD2DE9FD
:10079000FF4704460D460026B1460427DFF8908344
:1007A000A6884FF6C0700640684600F01CFBDDF8D6
:1007B0000880E048B8FBF0F01FFA80F946EA090625
:1007C000A68020884FF6FE71084020800026DA4976
:1007D000286888420CD828684000B8FBF0F087B23F
:1007E000042F00DA04273E4309F10100208427E0AA
:1007F000E8884BF6FF71884206D1286800EB40007C
:10080000B8FBF0F087B209E0286800EBC00101EB0B
:100810000010B8FBF0F087B247F48047C7F30B0035
:1008200008B947F0010747F4004006434FF49670BB
:1008300009FB00F04FF47A7190FBF1F0401C20842A
:10084000A683208840F00100208026884FF6F530EE
:100850000640A8886989084306432680A889298913
:1008600008432081BDE8FF8741F288310160002103
:1008700081804BF6FF71C1800021018141814FF4DD
:1008800080418181704721B1028842F001020280DB
:1008900004E002884FF6FE731A400280704729B1C7
:1008A000828C4FF6EF731A40828403E0828C42F010
:1008B0001002828470470A460021818C4FF6F07343
:1008C000194002F00F0319438184704721B1028857
:1008D00042F48072028004E002884FF6FF631A40FF
:1008E0000280704721B1028842F40072028004E065
:1008F00002884FF6FF531A400280704712B141F050
:10090000010101E001F0FE010182704721B102887E
:1009100042F48062028004E002884FF6FF331A40FE
:10092000028070470A46002181894FF60173194001
:1009300002F0FE0319438181704721B1828942F0A0
:100940000102828104E082894FF6FE731A4082819F
:10095000704721B1028842F04002028004E0028820
:100960004FF6BF731A400280704721B1028842F4EB
:100970000042028003E00288C2F30E020280704748
:1009800021B9028842F08002028004E002884FF61A
:100990007F731A4002807047B1F5804F05D0828B7B
:1009A0004BF6FF731A40828303E0828B42F480424D
:1009B00082837047B1F5006F04D1028842F400626F
:1009C000028004E002884FF2FF731A4002807047F1
:1009D000B1F5005F04D1028842F40052028004E0C5
:1009E00002884DF6FF731A400280704721B10288D9
:1009F00042F01002028004E002884FF6EF731A40C2
:100A000002807047018270470146088AC0B2704771
:100A100021B1028842F48052028004E002884EF63E
:100A2000FF731A4002807047B1F5006F04D102884D
:100A300042F40062028004E002884FF2FF731A4021
:100A40000280704721B1028842F02002028004E057
:100A500002884FF6DF731A40028070470146088B08
:100A60000012704721B1828842F40062828004E063
:100A700082884FF2FF731A408280704721B18288CA
:100A800042F48052828004E082884EF6FF731A405E
:100A90008280704708B502460020009000920098BE
:100AA000084400900098008808BD1AB183880B4361
:100AB000838002E083888B438380704770B5024651
:100AC0000024002500230020958A138B1B0445EA8F
:100AD000030626F07F4404EA01068E4201D101207C
:100AE00000E0002070BD10B5014600200023002268
:100AF0008B8A0A8B120443EA020424F07F4010BD63
:100B00000CB50246002000230193009300920B0FC6
:100B1000019321F07F41019B83B1009B143300932B
:100B200010E000000054004000580040005C00400D
:100B300000127A0040420F00A0860100090C009BC1
:100B400018330093009B1B680B400BB1012000E0A1
:100B500000200CBD002221F07F42D34383827047E6
:100B600030B5024600200023948801F0E06504EAD5
:100B7000154321F07F41948A0C4014B10BB1012040
:100B800000E0002030BD002221F07F42D343838269
:100B9000704700000E49086070470D494860704773
:100BA0000B49886070474AF6AA20094908607047D7
:100BB0004CF6CC4006490860704701460020044AC4
:100BC000D2680A400AB1012000E00020704700000E
:100BD00000300040F948006840F00100F749086023
:100BE0000020F64908310860F4480068F4490840DC
:100BF000F2490860F348091D0860F348EF49843161
:100C00000860F0481038091D0860EC48006820F4BE
:100C10008020EA4908600020E8490C310860E74973
:100C20008C31086070470021E44A921C1170114613
:100C30000870704710B501460022002300204A11B9
:100C4000012A02D1DD4C236808E0022A03D1DB4CE3
:100C50007034236802E0D94C7434236801F01F0219
:100C6000012494401C400CB1012000E0002010BD84
:100C700038B5002000900024002500BF3120FFF788
:100C8000D9FF05460098401C00900098B0F5A04F91
:100C900001D0002DF2D03120FFF7CCFF08B10124A4
:100CA00000E00024204638BD01460020C34A1068F9
:100CB00020F0F80040EAC10010607047C3490860A6
:100CC00070470021BD4A703211701170012802D0A6
:100CD00004280AD104E00121B84A7032117005E0FD
:100CE0000521B64A7032117000E000BF00BF7047A6
:100CF000B7490860704770B5049C41EA8215012627
:100D0000C6EB530645EA0645054345EA0465AB4E86
:100D1000361D356070BDAD4908667047820142EAF4
:100D20000172A64B84331A607047A84988667047E1
:100D300010B5830143EA016343EA02739F4C883490
:100D4000236010BDA14908677047A049C864704777
:100D500002460020994B0833186820F0EC6042EA04
:100D600001031843954B0833186070470246002072
:100D7000924B0833186820F0784042EA0103184388
:100D80008E4B083318607047014600208B4A0832AA
:100D9000106820F00300084310607047874808304F
:100DA000006800F00C00704701460020834A0832BA
:100DB000106820F0F00008431060704701460020E2
:100DC0007E4A0832106820F4E050084310607047F3
:100DD00001460020794A0832106820F4604040EA59
:100DE000C10010607047F0B50021002200240225E8
:100DF00000260223714F08373F6807F00C0121B12C
:100E0000042905D0082937D105E0724F076036E084
:100E1000714F076033E0694F3F1D3F68C7F380564D
:100E2000664F3F1D3F6807F03F036EB16A4FB7FB47
:100E3000F3F7DFF888C10CF1040CDCF800C0CCF348
:100E4000881C07FB0CF40CE0624FB7FBF3F7DFF8EC
:100E50006CC10CF1040CDCF800C0CCF3881C07FB5F
:100E60000CF4564F3F1D3F68C7F301477F1C7D00C0
:100E7000B4FBF5F7076002E0564F076000BF00BF04
:100E80004E4F08373F6807F0F0010909534F7A5C6D
:100E90000768D7404760494F08373F6807F4E0517B
:100EA000890A4E4F7A5C4768D7408760434F0837BE
:100EB0003F6807F46041490B484F7A5C4768D74068
:100EC000C760F0BD002100F44072B2F5407F0AD146
:100ED0003A4A0832116821F4F811414A024011439C
:100EE000364A08321160354A70321268C0F30B037B
:100EF0001A43324B70331A607047354944390860E1
:100F00007047334940390860704736490860704778
:100F100001460020294A8C32106820F01F004A1E2A
:100F20001043264A8C321060704701460020234A45
:100F30008C32106820F4F8504A1E40EA02201F4A02
:100F40008C3210607047014600201C4A8C321068B9
:100F500020F4401008431060704701460020174AF3
:100F60008C32106820F4400008431060704701463E
:100F70000020124A8C32106820F440300843106080
:100F8000704719490860704739B10C4A303212680D
:100F900002430A4B30331A6006E0084A30321268C6
:100FA0008243064B30331A607047F9B1034A34323A
:100FB00012680243014B34331A601CE000380240CF
:100FC000FFFFF6EA10300024003000200000474206
:100FD000800E47420024F40000127A000000002036
:100FE000FFFCFF0F5C014742E01147428F4A126845
:100FF00082438E4B1A60704739B18C4A121D1268B9
:1010000002438A4B1B1D1A6006E0884A121D1268B3
:101010008243864B1B1D1A60704739B1834A0C32DC
:1010200012680243814B0C331A6006E07F4A0C328F
:10103000126882437D4B0C331A60704739B17B4A8A
:10104000103212680243794B10331A6006E0774A77
:10105000103212688243754B10331A60704739B1F1
:10106000724A243A12680243704B243B1A6006E02D
:101070006E4A243A126882436C4B243B1A607047D4
:1010800039B16A4A203A12680243684B203B1A6021
:1010900006E0664A203A12688243644B203B1A609D
:1010A000704739B1614A1C3A126802435F4B1C3BDE
:1010B0001A6006E05D4A1C3A126882435B4B1C3B97
:1010C0001A60704739B1594A143A12680243574BB3
:1010D000143B1A6006E0554A143A12688243534B97
:1010E000143B1A60704739B1504A103A12680243F3
:1010F0004E4B103B1A6006E04C4A103A126882438D
:101100004A4B103B1A60704739B1484A1C3212688A
:101110000243464B1C331A6006E0444A1C321268F4
:101120008243424B1C331A60704739B13F4A203228
:10113000126802433D4B20331A6006E03B4A2032DE
:1011400012688243394B20331A60704739B1374AED
:10115000243212680243354B24331A6006E0334AC6
:10116000243212688243314B24331A60704739B1FC
:101170002E4A2C32126802432C4B2C331A6006E0A4
:101180002A4A2C3212688243284B2C331A6070474B
:1011900039B1264A303212680243244B30331A6088
:1011A00006E0224A303212688243204B30331A6004
:1011B0007047012808D11D493C31096841F00801F8
:1011C0001A4A3C32116007E018493C31096821F0A5
:1011D0000801164A3C321160704739B1134A273A68
:1011E00012780243114B273B1A7006E00F4A273A48
:1011F000127882430D4B273B1A7070470B484030E2
:10120000006840F08070094940310860704701462D
:101210000020064A283A12680A400AB1012000E07C
:101220000020704701492639087070473438024061
:1012300010B50446FB48844208D101218014FFF711
:1012400052FF0021A014FFF74EFF3CE0F648844215
:1012500008D101210014FFF735FF00212014FFF70A
:1012600031FF30E0F148844208D10121C013FFF77B
:1012700029FF0021E013FFF725FF24E0EC4884421A
:1012800008D101214014FFF72EFF00216014FFF761
:101290002AFF18E0E748844209D101210805FFF739
:1012A00022FF00214FF48010FFF71DFF0BE0E24802
:1012B000844208D101214805FFF715FF00214FF4B2
:1012C0000010FFF710FF10BD10B50022028802F4D5
:1012D00041520B884C8823438C882343CC8823437A
:1012E0000C8923434C8923438C892343CC89234392
:1012F0001A430280838B4FF2FF74234083830B8A4F
:10130000038210BD2DE9F04F0025022300244FF089
:10131000010900220026002794469046B0F81CA040
:101320004FF2400B0AEA0B0AA0F81CA04FF0020A89
:10133000A0F820A0858BD1F808A0BAF1020F01D146
:1013400000BF82E0B1F804A0BAF1000F02D14FF063
:10135000010901E04FF00209DFF8E0A2DAF800A08D
:101360000AF4000ABAF1000F09D0DFF8D0A2DAF8C7
:1013700000A02AF4000ADFF8C4B2CBF800A0DFF81E
:10138000BCA20AF17C0ADAF800A0CAF3881CDFF8D4
:10139000ACA20AF17C0ADAF800A0CAF30278DFF8FE
:1013A0009CA2AAF1040ADAF800A00AF03F07DFF8CD
:1013B0008CA2AAF1040ADAF800A00AF4800ABAF5AD
:1013C000800F08D1DFF878A2BAFBF7FA0AFB0CFA13
:1013D000BAFBF8F607E0DFF86CA2BAFBF7FA0AFBF3
:1013E0000CFABAFBF8F6B1F806A0BAF5007F0ED1F8
:1013F0004FEA162A0AEB8A0A4FEA4A0AD1F808B0DD
:10140000BAFBFBFA0AF1050A1FFA8AF20FE04FEA6B
:10141000491AB6FBFAFA0AEB8A0A4FEA4A0AD1F8E5
:1014200008B0BAFBFBFA0AF1050A1FFA8AF24FF07C
:101430000A0AB2FBFAF202F00104A2EB040ACAF3B0
:101440004F034FF6FF7A0AEA0424022B01DBFF2B3D
:1014500001DD02230024B1F806A04AEA040A4AEAA0
:10146000030AA0F820A0B1F804A0B1F80CB04AEA31
:101470000B0AB1F802B04AEA0B0AB1F800B04AEA26
:101480000B0A4AF4006A4AEA05058583BDE8F08F35
:101490000021018041808180C18001814181818161
:1014A000C181072101827047002101804180818034
:1014B000C1800221816000218181704721B10288B1
:1014C00042F04002028004E002884FF6BF731A40E7
:1014D0000280704721B1828B42F48062828304E0F3
:1014E000828B4FF6FF331A408283704702884FF297
:1014F000FF731A40028002880A4302807047B1F5E8
:10150000804F04D1028842F48042028004E00288C5
:101510004BF6FF731A40028070474FF6FF6291420C
:1015200004D0028842F48072028004E002884FF600
:10153000FF631A400280704721B1828842F00402A2
:10154000828004E082884FF6FB731A4082807047E5
:1015500021B1828842F01002828004E082884FF636
:10156000EF731A408280704730B500220023848BCD
:101570004FF240052C40848302240484828B0C8823
:10158000B4F5007F01D00C8814B94FF4807308E0E3
:101590000C88B4F5407F03D00C88B4F5807F00D16F
:1015A00000238C888D892C434D882C431C4344F4A4
:1015B00000642243828330BD01468889704781815F
:1015C000704721B1028842F40052028004E0028890
:1015D0004DF6FF731A4002807047018841F4805134
:1015E0000180704702460020012901D0108B00E0E5
:1015F000908A70470146088A70471AB183880B4366
:10160000838002E083888B438380704730B5002459
:1016100000230C110125A540ABB2AAB185881D435A
:10162000858014E00030014000380040003C00405C
:10163000003401400050014000540140083802408D
:1016400000127A000024F40085889D43858030BD17
:101650000246002013890B400BB1012000E000205E
:101660007047CA4302817047F0B50246002000244B
:101670000023002501F00F070126BE40B4B20B1174
:1016800001269E40B3B2968806EA030516892640D5
:1016900016B10DB1012000E00020F0BD10B5002210
:1016A00001F00F040123A3409AB2D343038110BD7C
:1016B00010B501218803FFF716FD00214FF480408B
:1016C000FFF711FD10BD1C49086070471B490862F7
:1016D000704730B500228B071C0F0F2303FA04F26A
:1016E000154B08338C1053F824309343124C0834B4
:1016F0008D1044F8253023468C1053F824308C0785
:10170000240F00FA04F423430B4C08348D1044F8E2
:10171000253030BD0949DC31086070470849086050
:101720007047002004492031096801F4807109B133
:10173000012000E0002070470038014000002742EF
:101740000004274210B50446FE48844208D1012116
:101750000846FFF7C8FC00210120FFF7C4FC9DE00C
:10176000B4F1804F08D101210846FFF7ABFC0021FE
:101770000120FFF7A7FC91E0F348844208D1012142
:101780000220FFF79FFC00210220FFF79BFC85E071
:10179000EE48844208D101210420FFF793FC002188
:1017A0000420FFF78FFC79E0E948844208D1012149
:1017B0000820FFF787FC00210820FFF783FC6DE07D
:1017C000E448844208D101211020FFF77BFC00216E
:1017D0001020FFF777FC61E0DF48844208D1012147
:1017E0002020FFF76FFC00212020FFF76BFC55E065
:1017F000DA48844208D101210220FFF774FC00215D
:101800000220FFF770FC49E0D548844209D101214C
:101810000804FFF768FC00214FF48030FFF763FCF9
:101820003CE0D048844209D101214804FFF75BFC29
:1018300000214FF40030FFF756FC2FE0CA488442E5
:1018400009D101218804FFF74EFC00214FF48020CC
:10185000FFF749FC22E0C548844208D1012140201D
:10186000FFF730FC00214020FFF72CFC16E0C048B9
:10187000844208D101218020FFF724FC0021802030
:10188000FFF720FC0AE0BB48844207D10121801504
:10189000FFF718FC0021A015FFF714FC10BD002273
:1018A0000288A84B98420ED0AC4B98420BD0B0F1B6
:1018B000804F08D0A44B984205D0A44B984202D048
:1018C000A34B984204D14FF68F731A404B881A43AA
:1018D000A04B984207D0A04B984204D04FF6FF434C
:1018E0001A400B891A4302804B68C3620B88038538
:1018F000944B984202D0994B984201D18B7A03863F
:101900000123838270474FF0FF3141600021018045
:1019100001814180817270470185828270470A4649
:10192000002101884FF68F731940114301807047E1
:1019300041627047C16270470146486A704701467C
:10194000088D704721B1028842F00202028004E053
:1019500002884FF6FD731A400280704721B1028859
:1019600042F00402028004E002884FF6FB731A4042
:101970000280704721B1028842F08002028004E0B8
:1019800002884FF67F731A400280704702884FF634
:10199000F7731A40028002880A4302807047028867
:1019A0004FF6FF431A40028002880A4302807047C4
:1019B00021B1028842F00102028004E002884FF661
:1019C000FE731A400280704770B500240022002385
:1019D000058C4FF6FE7635400584028C8388048B97
:1019E0004FF68F752C40B51E2C400D882C43751E6C
:1019F0002A408D892A434D882A43524DA84202D05D
:101A0000564DA84213D14FF6F7752A40CD892A4387
:101A10004FF6FB752A408D882A434FF6FF652B4011
:101A20004FF6FF552B400D8A2B434D8A2B43838065
:101A300004838D684563028470BD70B50024002264
:101A40000023058C4FF6EF7635400584028C8388A1
:101A5000048B48F6FF752C404FF6FF452C400D884F
:101A60004FF6FF7606EA05252C434FF6DF752A4030
:101A70008D8906EA05152A434D8806EA05152A438D
:101A8000304DA84202D0354DA8421DD14FF67F758A
:101A90002A40CD894FF6FF7606EA05152A434FF610
:101AA000BF752A408D8806EA05152A434FF6FF3593
:101AB0002B404FF2FF752B400D8A06EA85052B431C
:101AC0004D8A06EA85052B43838004838D688563F0
:101AD000028470BD70B5002400220023058C4FF6EF
:101AE000FF6635400584028C8388848B4FF68F75A2
:101AF0002C404FF6FC752C400D882C434FF6FF55BB
:101B00002A408D894FF6FF7606EA05252A434D883F
:101B100006EA05252A430B4DA84202D00F4DA842E4
:101B200038D14FF2FF752A40CD894FF6FF7606EA8D
:101B300005252A434FF6FF352A408D8806EA0525FC
:101B40002A4319E000000140000400400008004062
:101B5000000C004000100040001400400004014050
:101B6000004001400044014000480140001800408E
:101B7000001C0040002000404EF6FF752B404DF643
:101B8000FF752B400D8A06EA05152B434D8A06EAA0
:101B900005152B43838084838D68C563028470BDE3
:101BA00070B5002200230024058C4EF6FF763540E8
:101BB0000584038C8488828B48F6FF752A404FF693
:101BC000FF452A400D884FF6FF7606EA05252A4391
:101BD0004DF6FF752B408D8906EA05352B434D8860
:101BE00006EA05352B43FE4DA84202D0FD4DA84222
:101BF00008D14BF6FF752C400D8A4FF6FF7606EAAA
:101C000085152C43848082838D680564038470BDB0
:101C1000002101804180818081608181C1810182B8
:101C20004182704770B503460020002418461830E2
:101C300001258D40ACB21D8CA5431D8409B1082936
:101C40000AD100EB610005684FF68F7635400560DC
:101C50000568154305600FE00D1FC5F34E052844C8
:101C6000056848F6FF763540056005684FF6FF7653
:101C700006EA02263543056070BD41637047816303
:101C80007047C1637047016470470A460021018BA9
:101C90004FF68F7319401143018370470A460021A4
:101CA000018B48F6FF7319404FF6FF7303EA0223D6
:101CB0001943018370470A460021818B4FF68F73C9
:101CC00019401143818370470A460021818B48F6F1
:101CD000FF7319404FF6FF7303EA02231943818310
:101CE00070470A460021018B4FF6F77319401143E4
:101CF000018370470A460021018B4FF2FF731940A0
:101D00004FF6FF7303EA02231943018370470A4623
:101D10000021818B4FF6F77319401143818370477F
:101D20000A460021818B4FF2FF7319404FF6FF7373
:101D300003EA02231943818370470A460021018B7D
:101D40004FF6FB7319401143018370470A46002187
:101D5000018B4FF6FF3319404FF6FF7303EA02235E
:101D60001943018370470A460021818B4FF6FB73AC
:101D700019401143818370470A460021818B4FF639
:101D8000FF3319404FF6FF7303EA0223194381839F
:101D900070470A460021018B4FF67F7319401143AB
:101DA000018370470A460021018BC1F30E014FF6F3
:101DB000FF7303EA02231943018370470A46002197
:101DC000818B4FF67F7319401143818370470A4618
:101DD0000021818BC1F30E014FF6FF7303EA02234A
:101DE0001943818370470A460021018C4FF6FD7329
:101DF00019401143018470470A460021018C4FF6B7
:101E0000F77319401143018470470A460021018C81
:101E10004FF6DF7319404FF6FF7303EA02131943BD
:101E2000018470470A460021018C4FF67F731940E8
:101E30004FF6FF7303EA02131943018470470A4601
:101E40000021018C4FF6FF5319404FF6FF7303EA50
:101E500002231943018470470A460021018C4FF286
:101E6000FF7319404FF6FF7303EA022319430184FD
:101E700070470A460021018C4DF6FF7319404FF65A
:101E8000FF7303EA023319430184704730B500231E
:101E900001248C40A3B2048C9C430484048C02FA79
:101EA00001F5ADB22C43048430BD30B500230424C9
:101EB0008C40A3B2048C9C430484048C02FA01F588
:101EC000ADB22C43048430BD828B4FF2FF331A40F5
:101ED0008283828B4FF6FF7303EA01231A438283C6
:101EE0007047F0B50C461546002100220026078CED
:101EF0004EF6FF7C07EA0C070784818B028C4FF6B5
:101F0000FF7707EA043640F6FF4739404FF6FF7780
:101F100007EA052739434FF6FF7707EA03373943C6
:101F200045F6FF773A4046F480573A43818302846E
:101F3000F0BD828B4FF6F3731A408283828B0A4383
:101F400082837047F0B50C4615460021002200261A
:101F5000078C4FF6FF6C07EA0C070784818B028C15
:101F60004FF6FF7707EA04264FF60C7739404FF615
:101F7000FF7707EA03172F4339434FF2FF573A40E1
:101F800046F480773A4381830284F0BD028B4FF29E
:101F9000FF331A400283028B4FF6FF7303EA0123DB
:101FA0001A4302837047F0B50C4615460021002203
:101FB0000026078C4FF6EF7C07EA0C070784018B9D
:101FC000028C4FF6FF7707EA041640F6FF473940C8
:101FD0004FF6FF7707EA033739434FF6FF7703E001
:101FE000000001400004014007EA052739434FF68D
:101FF0005F773A4046F010073A4301830284F0BD10
:10200000028B4FF6F3731A400283028B0A4302835A
:102010007047F0B50C46154600210022068C4FF69D
:10202000FE773E400684018B028C4FF60C763140E1
:102030007E1C06EA03162E4331434FF6F5763240F6
:1020400044F00106324301830284F0BD70B50546B9
:102050000C46208850B92389A28861882846FFF75A
:10206000D8FFE1882846FFF7CBFF25E02088042829
:102070000AD12389A28861882846FFF794FFE18866
:102080002846FFF783FF17E0208808280AD1238914
:10209000A28861882846FFF755FFE1882846FFF7A8
:1020A00048FF09E02389A28861882846FFF719FFC5
:1020B000E1882846FFF708FF70BD002101804180BC
:1020C000012181800021C180018170472DE9F0410B
:1020D00005460C4600260127608808B9022600E064
:1020E0000026A088012801D1022700E001272088CE
:1020F000A0B92389A28861882846FFF78AFFE18872
:102100002846FFF77DFF23893A4631462846FFF7E8
:102110004AFFE1882846FFF739FF13E02389A288A8
:1021200061882846FFF73FFFE1882846FFF72EFF2A
:1021300023893A4631462846FFF76BFFE188284657
:10214000FFF75EFFBDE8F0810146486B704701462E
:10215000886B70470146C86B70470146086C704732
:102160000A884B881A438B881A43CB881A430B89F9
:102170001A434B891A438B891A43A0F844207047AD
:102180000021018041808180C18001814181818164
:10219000704731B1B0F8442042F40042A0F8442026
:1021A00005E0B0F84420C2F30E02A0F844207047C6
:1021B00021B1828842F00402828004E082884FF6D6
:1021C000FB731A408280704721B1828842F001027D
:1021D000828004E082884FF6FE731A408280704746
:1021E0001AB183890B43838102E083898B43838106
:1021F00070478182704702460020138A0B400BB162
:10220000012000E000207047CA430282704730B5C9
:102210000246002000230024158A05EA010395895F
:1022200005EA010413B10CB1012000E0002030BD2B
:10223000CA430282704741EA0203A0F8483070475F
:102240001AB183890B43838102E083898B438381A5
:10225000704721B1828842F00802828004E08288BF
:102260004FF6F7731A408280704701894FF6F87273
:102270001140018170470A46002101894FF68F7392
:10228000194011430181704730B504460D46294677
:102290002046FFF7F0FF208940F00700208130BD85
:1022A0002DE9F04104460D4616461F46602D06D125
:1022B0003B46012231462046FFF775FE05E03B46CE
:1022C000012231462046FFF7A4FE29462046FFF7AB
:1022D000D2FF208940F007002081BDE8F08130B5B1
:1022E0000C4600210189C9B24FF6FF7505EA0325A6
:1022F000154325432943018130BD2DE9F0410546B1
:102300000E4617469846002443463A46314628462C
:10231000FFF7E5FF2C894FF6F870044044F00704FE
:102320004FF68F70044044F070042C81BDE8F081BA
:10233000F0B504460D4616461F463B463246294632
:102340002046FFF7CCFF208940F480402081F0BD7B
:1023500082884FF68F731A40828082880A43828077
:10236000704702894FF6F8731A40028102890A43C6
:102370000281704702894FF67F731A4002810289F9
:102380000A4302817047F0B50C4615461E460021EF
:10239000002200230189028B038C4FF6F877394025
:1023A00021434FF6FC473A4040F201173A434FF6BB
:1023B000DD773B404FF6FF7707EA06172F433B4395
:1023C000018102830384F0BD21B1828842F0800242
:1023D000828004E082884FF67F731A4082807047C3
:1023E000A0F850107047000010B50446FA48844227
:1023F00008D101211020FEF776FE00211020FEF703
:1024000072FE57E0F548844209D101214804FEF7E5
:1024100059FE00214FF40030FEF754FE4AE0F04828
:10242000844209D101218804FEF74CFE00214FF4BB
:102430008020FEF747FE3DE0EA48844209D10121B1
:10244000C804FEF73FFE00214FF40020FEF73AFEDD
:1024500030E0E548844209D101210805FEF732FE4B
:1024600000214FF48010FEF72DFE23E0DF48844268
:1024700008D101212020FEF736FE00212020FEF7A2
:1024800032FE17E0DA48844209D101218807FEF7BD
:1024900019FE00214FF08040FEF714FE0AE0D548F7
:1024A000844207D101214005FEF70CFE00216005A2
:1024B000FEF708FE10BD2DE9FF4705460E46002435
:1024C000A14600BFA046B08900B100BF2C8A24F409
:1024D0004054F08804432C82AC8941F20C60844360
:1024E000B08831890843718908430443AC81AC8AC0
:1024F00024F44074B0890443AC826846FEF773FC50
:10250000B548854202D0B948854202D1DDF80C9029
:1025100001E0DDF80890A88900F4004040B109EB23
:10252000C90000EB091031684900B0FBF1F707E082
:1025300009EBC90000EB091031688900B0FBF1F725
:102540006420B7FBF0F004012009642101FB10783E
:10255000A88900F4004040B1322000EBC800B0FB75
:10256000F1F000F00700044308E0322000EB08100F
:102570006421B0FBF1F000F00F0004432C81BDE8B2
:10258000FF874FF41651016000218180C1800181D5
:102590000C21418100218181704710B50246002045
:1025A000108A20F470600B884C8823438C88234366
:1025B000CC8823431843108210BD00210180418044
:1025C0008180C180704721B1828942F400528281AA
:1025D00004E082894DF6FF731A4082817047028BB6
:1025E00002F47F420283028B0A430283704721B1C7
:1025F000828942F40042828103E08289C2F30E02A2
:102600008281704721B1828A42F40062828204E0B2
:10261000828A4FF2FF731A4082827047C1F3080228
:102620008280704701468888C0F308007047028A9C
:102630004FF6F0731A400282028A0A430282704700
:1026400021B1828942F00202828104E082894FF640
:10265000FD731A408281704782894FF2FF731A40DE
:10266000828182890A4382817047028A4FF6DF7332
:102670001A400282028A0A430282704721B1028A0A
:1026800042F48042028204E0028A4BF6FF731A4051
:1026900002827047818941F001018181704721B137
:1026A000828A42F00802828204E0828A4FF6F7733F
:1026B0001A4082827047028BD2B20283028B42EAB6
:1026C00001220283704721B1828A42F02002828275
:1026D00004E0828A4FF6DF731A408282704721B18C
:1026E000828A42F01002828204E0828A4FF6EF73FF
:1026F0001A4082827047828A4FF6FB731A408282A8
:10270000828A0A438282704721B1828A42F00202A1
:10271000828204E0828A4FF6FD731A4082827047FB
:102720001AB1838A0B43838202E0838A8B438382BC
:102730007047F0B50346002400260025002040F62F
:102740006A17B94200D100BF1846C1F3421401F024
:102750001F06012707FA06F5012C01D10C3004E011
:10276000022C01D1103000E014301AB107682F4359
:10277000076002E00768AF430760F0BD0246002033
:10278000B1F5007F00D100BF13880B400BB10120D1
:1027900000E00020704701F40072B2F5007F00D124
:1027A00000BFCA430280704770B502460024002370
:1027B0000025002040F66A16B14200D100BFC1F3E7
:1027C000421501F01F03012606FA03F3012D13D170
:1027D0009689334017E0000000100140004400409B
:1027E00000480040004C00400050004000140140F0
:1027F00000780040007C0040022D02D1168A334050
:1028000001E0968A33400C12012606FA04F4168879
:10281000344013B10CB1012000E0002070BD10B5B0
:102820000022002340F66A14A14200D100BF0A1220
:1028300001249440A3B2DC43048010BD7FB504465C
:102840000D4601210846FEF7E8FBADF8045002945E
:102850000020ADF80600ADF80C0001A94FF0804053
:10286000FFF71DF8012211469007FFF7B9FC01217F
:102870008807FFF79DF81C208DF8000003208DF8D5
:1028800001008DF8020001208DF803006846FDF775
:1028900018FD7FBD10B501218807FFF7B8FC01289E
:1028A00008D1314802684068521C40F100002E49AE
:1028B0000A60486001218807FFF7BAFC10BD2A4969
:1028C00008684968704710B502460B4626480168FB
:1028D00040688C1A60EB0301204610BD7FB50546A9
:1028E0000C4601210220FEF798FB0295ADF804404A
:1028F0000020ADF80600ADF80C0001A91B48FEF75A
:10290000CEFF012211461948FFF76AFC0121174842
:10291000FFF74EF81D208DF8000001208DF8010012
:1029200003208DF8020001208DF803006846FDF7B2
:10293000C8FC7FBD10B501210C48FFF768FC0128D9
:102940000CD10B480068401C0949086008464068E3
:10295000401C486008468068401C8860012103488C
:10296000FFF766FC10BD00001000002000040040CE
:10297000DC13002070B505460C4645F25550FEF7B5
:1029800009F92846FEF709F92046FEF709F9FEF78E
:102990000AF9FEF70DF970BD10B5FEF704F910BD88
:1029A0001CB501210520FEF7EFFA01218803FEF78F
:1029B00045FBFE48006840F00070FC4908604FF499
:1029C0008170009001208DF8040000208DF8060031
:1029D00003208DF8050000208DF807006946F448B3
:1029E000FDF7E8FD0120009000208DF804008DF82F
:1029F00007006946EE48FDF7DDFD4FF4E05000901A
:102A000002208DF8040000208DF8060003208DF8C8
:102A1000050000208DF807006946E648FDF7CAFD6D
:102A20004FF40040009001208DF8040000208DF844
:102A3000060003208DF8050000208DF80700694688
:102A4000DB48FDF7B7FD06220A21DA48FDF73DFE17
:102A500006220B21D748FDF738FE06220C21D54867
:102A6000FDF733FE06220F21D148FDF72EFE4FF46D
:102A70000041CF48FDF71AFE1CBD00B585B001210D
:102A8000C803FEF7CAFA0020ADF800004FF48270C8
:102A9000ADF802004FF40060ADF804000220ADF87C
:102AA00006000120ADF808004002ADF80A00002041
:102AB000ADF80C00ADF80E000720ADF81000694627
:102AC000BD48FEF701FC0121BB48FEF7F7FC05B04D
:102AD00000BD08B5FFF764FFFFF7CFFF4FF480712B
:102AE000B348FDF7E3FD0020009002E00098401C91
:102AF00000900098B0F57A7FF8D34FF48071AC481D
:102B0000FDF7D6FD08BD0EB501218803FEF796FA44
:102B100000210846FEF7DDFD0120019000208DF820
:102B200008000C208DF8090001208DF80A0001A88A
:102B3000FDF740FC06208DF8000003208DF8010011
:102B400001208DF802008DF803006846FDF7B9FBFF
:102B50000EBD10B5044600BF02219748FEF778FD70
:102B60000028F9D021469448FEF729FD00BF012135
:102B70009148FEF76DFD0028F9D08F48FEF71CFD47
:102B800010BD10B50120FDF77BFCB8B14FF400413A
:102B90008748FDF78DFD002406E00020FFF7D9FFF0
:102BA000864921F81400641C082CF6DB4FF4004120
:102BB0007F48FDF77BFD0120FDF76DFC10BD30B5B2
:102BC00002460B467E4850F8220002EB82047D4DFF
:102BD00035F82440001B7A4C44F82200002110E014
:102BE00002EB8200774C04EB8004481C34F81000A0
:102BF00002EB8204734D05EB840424F81100481C99
:102C0000C1B20929ECDB02EB82006E4C04EB8000C0
:102C100043826B4850F8220002EB8204694D05EBB9
:102C20008404648A2044664C44F82200204650F80C
:102C300022000A24B0FBF4F080B230BD70B5054626
:102C40000024012D0ED100BF09E05C4A32F81410B7
:102C5000E0B2FFF7B4FF5C4921F81400641C082CB3
:102C6000F3DB0AE0002406E0544830F8140056492B
:102C700021F81400641C082CF6DB70BD08B5022195
:102C80004B48FDF715FD0020009002E00098401C25
:102C9000009000986428F9D302214548FDF706FD0D
:102CA00008BD70B52DED048B0025002400BF00E1A8
:102CB000454830F8150004B2082D75D2DFE805F05C
:102CC000041322455F9FB9DC04EB840149004FF4F3
:102CD0007A7201FB02F0C11700EB5141C1F3CF3111
:102CE0003A4AD181E3E004EB840149004FF47A725F
:102CF00001FB02F0C11700EB5141C1F3CF31334A60
:102D00009181D4E004EB840149004FF47A7251437D
:102D10004800C11700EB5141C1F3CF312B4A11805C
:102D20002B4890ED020A2B4890ED021A10460088BD
:102D300000EE900AF8EE600A01EE200ABCEEC00A2E
:102D400010EE100A11460880B1E004EB840149003E
:102D50004FF47A7201FB02F0C11700EB5141C91325
:102D60000EB2304604F071F99FED1B0B53EC102BA3
:102D700003F0E6FF04F03CF91449488097E004EBC7
:102D8000840149004FF47A7251434800C11700EBA7
:102D90005141C1F3CF310D4A11810D4890ED040A24
:102DA0000C4890ED041A1BE080E000000038014060
:102DB0000000024000080240003C00404811002092
:102DC000081200206811002028120020581100204D
:102DD0009C13002068130020000000000000E03F6A
:102DE0001046008900EE900AF8EE600A01EE200A13
:102DF000BCEEC00A10EE100A1146088157E004EB41
:102E0000840149004FF47A7201FB02F0C11700EB14
:102E10005141C9130EB2304604F017F91FED120BE1
:102E200053EC102B03F08CFF04F0E2F83349488197
:102E30003DE004EB840149004FF47A7251434800AD
:102E4000C11700EB5141C1F3CF312C4A91802C487E
:102E500090ED030A2B4890ED031A1046808800EE8F
:102E6000900AF8EE600A01EE200ABCEEC00A10EEED
:102E7000100A114688801AE004EB840149004FF4DF
:102E80007A7201FB02F0C11700EB5141C9130EB277
:102E9000304604F0DAF81FED300B53EC102B03F042
:102EA0004FFF04F0A5F81549C88000E000BF00BF3F
:102EB0006D1C082DFFF6FCAEBDEC048B70BD30B56B
:102EC00000210023002016E00F4A32F8102011B232
:102ED00001EB810464004FF47A756C436200D417EF
:102EE00002EB5444C4F3CF34044D25F8104000BF26
:102EF00000BF421CD0B20828E6DB30BD58110020CC
:102F00009C130020681300204811002000B587B0F2
:102F100001210220FEF738F801218803FEF77DF831
:102F20004FF42040059002208DF8180000208DF805
:102F30001A0003208DF8190001208DF81B0005A947
:102F4000E348FDF737FB05220D21E148FDF7BDFB06
:102F500005220F21DE48FDF7B8FB4FF44040ADF8E5
:102F600000004FF48270ADF802004FF40060ADF83D
:102F700004000220ADF806000120ADF80800400270
:102F8000ADF80A000820ADF80C000020ADF80E00E6
:102F90000720ADF810006946CE48FEF795F90121EB
:102FA000CC48FEF78BFA07B000BD1CB504460121E2
:102FB0000620FDF7E9FFA088009001208DF80400AD
:102FC00000208DF8060003208DF8050001208DF803
:102FD000070069462068FDF7EDFAA1882068FDF733
:102FE00065FBA089009001208DF8040000208DF879
:102FF000060003208DF8050001208DF807006946C2
:10300000A068FDF7D7FAA189A068FDF74FFB1CBDAA
:1030100070B504460D46A1882068FDF749FB00BF46
:103020000221AC48FEF714FB0028F9D02946A94834
:10303000FEF7C5FA00BF0221A648FEF709FB0028EB
:10304000F9D08021A348FEF703FB0128F3D0052027
:1030500000F060FFA1882068FDF728FB70BD38B53F
:1030600004460020009002E00098401C0090009868
:103070000A28F9D3A189A068FDF71AFB0020009067
:1030800002E00098401C009000986428F9D3A189C0
:10309000A068FDF70BFB38BDB5EEC00AF1EE10FAE3
:1030A00004D2DFED8D0AB0EE600A0AE0F0EE040A09
:1030B000B4EEE00AF1EE10FA03DDF0EE040AB0EE31
:1030C000600ADFED860A60EE200AB0EE041AC0EE58
:1030D000811AFCEEE10A10EE900A80B2704710B53A
:1030E000FFF714FF7E48FFF760FF7E48FFF75DFFA4
:1030F0007D48FFF75AFF10BD70B52DED048B0024FD
:1031000000BFA6E024B1012C34D0022C7DD163E0B5
:10311000764830F8140000EE100AB8EE400ADFEDF1
:10312000740A80EE201A11EE105A284604F0B6F800
:1031300041EC190B9FED6F0B53EC102B03F0B0FF1C
:1031400041EC180B9FED6D0B53EC102B51EC180B51
:1031500003F0A6FF41EC190B03F04AFF6949088010
:1031600000BF084630F8142067A1002003F0ACFA35
:1031700000BF6CE05D4830F8140000EE100AB8EEB5
:10318000400ADFED5B0A80EE201A11EE105A284645
:1031900004F084F841EC190B9FED560B53EC102B07
:1031A00003F07EFF41EC180B9FED540B53EC102BFA
:1031B00051EC180B03F074FF41EC190B03F018FFEE
:1031C0005049488000BF084630F814205EA1002016
:1031D00003F07AFA00BF3AE0444830F8140000EEF9
:1031E000100AB8EE400ADFED420A80EE201A11EE16
:1031F000105A284604F052F841EC190B9FED3D0B94
:1032000053EC102B03F04CFF00E019E041EC180BDD
:103210009FED3A0B53EC102B51EC180B03F040FFD1
:1032200041EC190B03F0E4FE3649888000BF0846E4
:1032300030F8142054A1002003F046FA00BF06E045
:1032400000BF61A1002003F03FFA00BF00BF00BF34
:10325000641C032CFFF656AFBDEC048B70BD10B59B
:10326000002465480068401C6349086008460068FF
:103270000321B0FBF1F201FB120424B1012C0BD0AD
:10328000022C1BD111E01F4801881548FFF7C0FE32
:103290001348FFF7E4FE18E01A4841881148FFF789
:1032A000B7FE1048FFF7DBFE0FE0164881880E4896
:1032B000FFF7AEFE0C48FFF7D2FE06E000BF42A1CA
:1032C000002003F001FA00BF00BF00BF10BD0000E6
:1032D0000004024000380040000000000000804769
:1032E0002000002030000020400000201C110020A1
:1032F00000007A44000000000000E03F00000000F1
:103300008099D940500000202A2A2A2A2A2A2A2ACB
:10331000096C696D69745F4164353532345F4461AD
:1033200074615B4753444A315F4445565F4E554D87
:103330005D093D092564092A2A2A2A2A2A2A2A2AD5
:103340002A2A2A2A2A0D0A002A2A2A2A2A2A2A2A44
:10335000096C696D69745F4164353532345F44616D
:1033600074615B4753444A325F4445565F4E554D46
:103370005D093D092564092A2A2A2A2A2A2A2A2A95
:103380002A2A2A2A2A0D0A002A2A2A2A2A2A2A2A04
:10339000096C696D69745F4164353532345F44612D
:1033A00074615B445947595F4445565F4E554D5DC6
:1033B000093D092564092A2A2A2A2A2A2A2A2A2A88
:1033C0002A2A2A2A0D0A00005741524E494E472107
:1033D0002121212121212020464154414C204552C8
:1033E000524F452C504C4541534520434845434B93
:1033F00020434F44450D0A005800002000B587B017
:1034000001214805FDF709FE01210220FDF7BCFD61
:1034100001218803FDF712FE01214805FDF752FE48
:1034200000214FF40010FDF74DFE01219F48FDF7EC
:103430009CFA00219D48FDF798FA042206219C4839
:10344000FDF743F9042207219948FDF73EF9402092
:10345000059002208DF8180003208DF81900012036
:103460008DF81A008DF81B0005A99148FDF7A2F808
:103470008020059005A98E48FDF79CF80020ADF846
:1034800008004BF6FF70ADF80A008A4890F81E0459
:10349000ADF80C004FF48060ADF80E000001ADF8FF
:1034A00010008548019001A98048FDF770F90121BD
:1034B0007E48FDF72BFA01217C48FDF7E4F907B0BF
:1034C00000BD10B5FFF79AFF10BD10B5044600BF50
:1034D00022467AA1002003F0F7F800BF204610BD75
:1034E0002DE9F04704460F46164698460025A946A2
:1034F00000224FF400712068FDF7D7FA00224FF444
:1035000080612068FDF7D1FA00224FF480712068B5
:10351000FDF7CBFA4FF4204506E0281EA5F1010582
:1035200002D14FF0040962E04FF400312068FDF74A
:10353000E7FA0028F1D101212068FDF7C7F94FF41F
:10354000805506E0281EA5F1010502D14FF00509BE
:103550004DE065492068FDF7B1FA0028F2D07A06FF
:10356000110E00222068FDF7C9F94FF4805506E0DE
:10357000281EA5F1010502D14FF0060937E05B498D
:103580002068FDF79BFA0028F2D015E0317820681A
:10359000FDF738FA761C4FF4805506E0281EA5F199
:1035A000010502D14FF0080921E05049891C20682B
:1035B000FDF784FA0028F1D0B8F10000A8F101016C
:1035C0001FFA81F8E2D101212068FDF78BF9012271
:1035D00051022068FDF769FA012291022068FDF787
:1035E00064FA012211022068FDF75FFA00BFB9F109
:1035F000000F03D009F0FF00FFF767FF0020BDE8D0
:10360000F0872DE9F04105460F4690461C462046BE
:10361000E11704EBD1514912A4EB4121A5F81A148A
:103620007806000E85F81F044FF4007105F505704B
:1036300003F01AFA2646E01704EB10600012A4EB20
:103640000022414605F5057003F0C9F9BDE8F08197
:1036500070B50446184D07E0281EA5F1010503D1F9
:103660006320FFF732FF70BD4FF400312068FDF793
:1036700047FA0028F0D102E02068FDF7C5F91C499F
:103680002068FDF73DFA0028F6D14FF40072094991
:103690001431A1F1100001F0B3FE4FF4007215498E
:1036A000A1F1100001F0ACFE0020DCE70054004066
:1036B0000004024074000020A08601004552524FD1
:1036C000523A2049324320776169742074696D65EC
:1036D0006F75742C206572726F72436F6465203D44
:1036E0002025640D0A00000001000300820007008D
:1036F00040000010A804002008B50020009000BF82
:10370000FB4908680121FDF7E1F8F949086814212F
:10371000FDF7C0F90090F64A92F81F1410680022D5
:10372000FDF7ECF8F24908681421FDF7B3F900F051
:1037300002000028E4D0EE490868EE49FDF70AFAD5
:10374000EB4908680121FDF7CDF808BD70B50446C6
:103750000D4616464FF42040E749086009E0E64967
:103760000868411EE44A116018B90420FFF7ADFE55
:1037700070BDDF4908684FF40031FDF7C1F900283A
:10378000EDD1DB4908680121FDF7A0F84FF4805026
:10379000D949086009E0D8490868411ED64A116035
:1037A00018B90520FFF791FEE2E7D1490868D3492F
:1037B000FDF784F90028EED0CD4A92F81F14106866
:1037C0000022FDF79BF84FF48050CB49086009E0D8
:1037D000C9490868411EC84A116018B90620FFF798
:1037E00074FEC5E7C2490868C549FDF767F90028B6
:1037F000EED02912BE4A1068FDF704F94FF480504C
:10380000BD49086009E0BC490868411EBA4A116018
:1038100018B90720FFF759FEAAE7B5490868B84963
:10382000891CFDF74BF90028EDD0E9B2B04A1068C9
:10383000FDF7E8F84FF48050AF49086009E0AE4961
:103840000868411EAC4A116018B90720FFF73DFE19
:103850008EE7A7490868AA49891CFDF72FF90028B7
:10386000EDD01CE02178A24A1068FDF7CBF8641C6B
:103870004FF48050A049086009E09F490868411E44
:103880009D4A116018B90820FFF71FFE70E798499C
:1038900008689B49891CFDF711F90028EDD0301EFE
:1038A000A6F10101CEB2DDD1914908680121FDF7F1
:1038B00019F801205CE72DE9F04707460D4614464C
:1038C0004FF00008C146C24600262846E91705EB1E
:1038D0005161C911A5EBC11101F0FF0ACAF18000C5
:1038E000C6B22046E11704EB5161C1F3C718E117D6
:1038F00004EB5161C911A4EBC11101F0FF09BAF148
:10390000000F28D1B8F1000F07D14A4629463846A2
:10391000FFF71CFFFFF7F0FE60E00AE08022294677
:103920003846FFF713FFFFF7E7FE05F18000C5B249
:103930008037B8F10000A8F1010101F0FF08EDD1D6
:10394000B9F1000F4AD04A4629463846FFF7FEFE35
:10395000FFF7D2FE42E0B8F1000F07D14A462946F0
:103960003846FFF7F3FEFFF7C7FE37E0A01B84B22F
:103970002046E11704EB5161C1F3C718E11704EBCE
:103980005161C911A4EBC11101F0FF094EB13246DA
:1039900029463846FFF7DAFEFFF7AEFEA819C5B292
:1039A00037440AE0802229463846FFF7CFFEFFF76A
:1039B000A3FE05F18000C5B28037B8F10000A8F180
:1039C000010101F0FF08EDD1B9F1000F06D04A4620
:1039D00029463846FFF7BAFEFFF78EFEBDE8F087AE
:1039E00070B505460C46424908680121FCF76EFF98
:1039F0004FF480504049086009E03F490868411E83
:103A00003D4A116018B90020FFF75FFD70BD3849CD
:103A100008683A49FDF752F80028EED0344A92F887
:103A20001F1410680022FCF769FF4FF480503249E0
:103A3000086009E030490868411E2F4A116018B932
:103A40000120FFF742FDE1E7294908682C49FDF70D
:103A500035F80028EED02112254A1068FCF7D2FF75
:103A60004FF480502449086009E023490868411E4A
:103A7000214A116018B90220FFF727FDC6E71C494B
:103A800008681F49891CFDF719F80028EDD0E1B23C
:103A9000174A1068FCF7B6FF4FF4805016490860CB
:103AA00009E015490868411E134A116018B902203F
:103AB000FFF70BFDAAE70E4908681149891CFCF7BE
:103AC000FDFF0028EDD02978094A1068FCF79AFF1D
:103AD0004FF480500849086014E007490868411E07
:103AE000054A116070B90320FFF7EFFC8EE7000074
:103AF000DC0C002000040010D80C002001000300A2
:103B000082000700C8490868C849FCF7D7FF0028A9
:103B1000E3D0C54908680121FCF7E4FE012075E700
:103B200070B505460E4614464FF42040C049086063
:103B300009E0BF490868411EBD4A116018B9092053
:103B4000FFF7C3FC70BDB84908684FF40031FCF7BB
:103B5000D7FF0028EDD1B44908680121FCF7B6FE73
:103B60004FF48050B249086009E0B1490868411E2D
:103B7000AF4A116018B90A20FFF7A7FCE2E7AA498B
:103B80000868AC49FCF79AFF0028EED0A64A92F8E4
:103B90001F1410680022FCF7B1FE4FF48050A449B6
:103BA000086009E0A2490868411EA14A116018B9DD
:103BB0000B20FFF78AFCC5E79B4908689B49891ED3
:103BC000FCF77CFF0028EDD0974908680121FCF73D
:103BD0005AFE3112944A1068FCF714FF4FF48050DB
:103BE0009349086009E092490868411E904A1160B3
:103BF00018B90C20FFF769FCA4E78B4908688B49CA
:103C0000FCF75CFF0028EED0F1B2874A1068FCF7A1
:103C1000F9FE4FF480508649086009E0844908683D
:103C2000411E834A116018B90C20FFF74EFC89E74A
:103C30007D4908687D49FCF741FF0028EED07A49AC
:103C400008680121FCF742FE4FF480507849086073
:103C500009E077490868411E754A116018B90D20BE
:103C6000FFF733FC6EE7704908687249FCF726FFDE
:103C70000028EED06C4A92F81F1410680122FCF75D
:103C80003DFE4FF480506A49086009E068490868C1
:103C9000411E674A116018B90E20FFF716FC51E764
:103CA000614908686349491CFCF708FF0028EDD00A
:103CB0002AE0012C09D15C4908680021FCF726FEA6
:103CC000594908680121FCF70DFE4FF4204058497E
:103CD000086009E056490868411E554A116018B944
:103CE0000320FFF7F2FB2DE74F49086851493F31A8
:103CF000FCF7E4FE0028EDD04B490868FCF784FE91
:103D000028706D1C601E84B2002CD2D14649086810
:103D10000121FCF7FBFD012014E710B5ADF5007D96
:103D20004FF4807140A802F09FFE4FF48071684606
:103D300002F09AFE00BF40A1002002F0C5FC00BFC7
:103D4000002419E040A90C5500BF40A8025D40A125
:103D5000002002F0B9FC00BFE11704EB117109115A
:103D6000A4EB01110F2905D100BF38A1002002F0FA
:103D7000ABFC00BF601C84B2FF2CE3DD4FF480720B
:103D8000002140A8FFF797FD00BF33A1002002F0FB
:103D90009BFC00BF00BF33A1002002F095FC00BFD8
:103DA0004FF4807200216846FFF7BAFE002430E02D
:103DB0001DF8040040A9095D884212D000BF1DF81B
:103DC000043022462DA1002002F07EFC00BF00BF7F
:103DD00030A1002002F078FC00BF00200DF5007D2E
:103DE00010BD00BF1DF8042019A1002002F06CFCDA
:103DF00000BFE11704EB11710911A4EB01110F29A8
:103E000005D100BF11A1002002F05EFC00BF601CC4
:103E100084B2FF2CCCDD00BF28A1002002F054FCAE
:103E200000BF0120DAE70000DC0C0020840007005E
:103E3000D80C00200100030077726974652064616A
:103E4000746120746F20656570726F6D0D0A0000DB
:103E500025303258200000005772697465204F4B9E
:103E60000D0A00005265616420646174612066720D
:103E70006F6D20656570726F6D0D0A00696E646507
:103E8000785B25645D2076616C5B30782530325834
:103E90005D0D0A00454550524F4D2D4552524F522F
:103EA0003A2072656164206E6F7420657175616C73
:103EB00020746F2077726974650D0A0049324328B7
:103EC0004154323443303229207465737420737541
:103ED000636365737366756C6C790D0A000000008E
:103EE00010B504466FF00400FCF738FAE11704EB54
:103EF0005171C1F3C701394A11701046007800EBC7
:103F00004001C1EBC0104FF6FF7101EAC000344917
:103F1000088010BD0146314A12784A434FF0E02331
:103F20005A6100229A611A46126942F001021A612E
:103F300000BF4FF0E022106900F001021AB100F456
:103F40008032002AF5D04FF0E022126922F00102FF
:103F50004FF0E0231A6100229A6170470146204A1F
:103F600012884A434FF0E0235A6100229A611A46B0
:103F7000126942F001021A6100BF4FF0E02210699D
:103F800000F001021AB100F48032002AF5D04FF09F
:103F9000E022126922F001024FF0E0231A610022B0
:103FA0009A61704770B504464FF4077094FBF0F0C7
:103FB000C6B24FF4077094FBF0F100FB114085B2DC
:103FC00005E04FF40770FFF7C9FF701EC6B2002E60
:103FD000F7D115B12846FFF7C1FF70BDFC100020D6
:103FE000FE10002000BF704770B504460D465249D0
:103FF0000C8000BF40215048001FFEF7BFFB002887
:10400000F8D0204670BD10B588B00446012108469E
:10401000FCF7BAFF01214804FCF7FFFF0722022149
:104020004648FCF752FB072203214448FCF74DFBAE
:104030000C20069002208DF81C008DF81D00002039
:104040008DF81E0001208DF81F0006A93B48FCF7E3
:10405000B1FA02940020ADF80C00ADF80E00ADF8F6
:104060001000ADF814000C20ADF8120002A932487F
:10407000001FFEF720FA01212F48001FFEF7A3FAC8
:1040800040212D48001FFEF786FB012240F22551FA
:104090002948001FFEF74DFB26208DF80400032061
:1040A0008DF805008DF8060001208DF8070001A8A5
:1040B000FCF707F908B010BD10B540F225511E48B5
:1040C000001FFEF771FB18B31B48001FFEF7AAFA8A
:1040D000C4B21B48008800F40040C8B918480088E2
:1040E00000F4804060B10A2C03D0002014490880FD
:1040F00020E01348008840F400401149088019E08E
:104100000D2C06D10E48008840F480400C490880F0
:1041100010E00B480088C0F30D000A490C54084811
:104120000088401C0649088008460088C72801DD31
:104130000020088010BD0000044400400000024040
:10414000041100203812002070B50C4604B102B9E9
:1041500070BD6449884200D9FAE786184B1C9E421C
:1041600001D90B1A5A1C0546002304E055F82360B8
:1041700044F823605B1CB3EB920FF7D300BFE7E773
:104180002DED048B82B0002500264FF4A060FCF7D3
:1041900093F8A820FFF7A4FE40F2DC50FFF702FFDF
:1041A00000BF51A1002002F08FFA00BFFFF789F98C
:1041B00000F09CFC00F0DCFCFEF791FFFEF789FCB0
:1041C00000F0F4F900F085FBFEF79DFC4FF4E130C0
:1041D000FFF719FF532140F2E730FEF72FFB01F004
:1041E000FAF842F2CF010920FEF778FB4FF448714C
:1041F0000420FEF7BFFB342243494448FFF7A4FFE5
:104200003422434941483430FFF79EFF002428E020
:104210003D4951F8240002F02FFF41EC190B9FEDAE
:104220003D0B53EC102B02F03BFF41EC180B02F05E
:1042300055FD3A4941F82400354951F8240002F06F
:1042400004FF41EC190B9FED330B53EC102B02F0E4
:1042500027FF41EC180B02F041FD314941F82400E1
:10426000641C0D2CD4D32F4800F06CFF2D4800782F
:10427000019000F041FB00BF2BA1002002F024FAC6
:1042800000BF2DE001F0B0F8FEF7F8FC0020FEF7CB
:10429000D5FCFEF706FD00F0B0FC00F080FD3846CE
:1042A000FEF711FB87B200F092FD0546FEF707FB13
:1042B00087B2012D06D100F0F9F900F0F3FA00F011
:1042C0004CFF06E0761C00BF24A1002002F0FCF9A0
:1042D00000BF4FF47A7000F0BDFA0120FFF762FED4
:1042E000D0E70000FFFF0F083C4459474C423E20F6
:1042F00073797374656D20696E6974202E2E2E2E6D
:104300002E2E0D0A000000000013002000000E08F1
:10431000341300208DEDB5A0F7C6B03E6813002021
:104320009C130020351100203C4459474C423E204C
:1043300053797374656D20696E697420636F6D7055
:104340006C657465642C20656E746572206C6F6F8B
:1043500070202E2E2E2E2E2E0D0A00004C494D4977
:104360005420435552454E54204D45535347452004
:10437000524543495645204552524F520D0A0000BE
:10438000704700BFFEE700BFFEE700BFFEE700BFCB
:10439000FEE7704770477047704700000CB500207B
:1043A000019000907648006840F4803074490860BD
:1043B00000BF7348006800F4003000900198401C72
:1043C0000190009818B90198B0F5A04FF1D16C4850
:1043D000006800F4003010B10120009001E00020DE
:1043E00000900098012846D165484030006840F0B0
:1043F00080506349403108606248006840F44040A2
:10440000604908605E48083000685D49083108600E
:104410000846006840F4004008600846006840F420
:10442000A05008605848091F0860081F006840F045
:104430008070091F086000BF5148006800F00070DC
:104440000028F9D040F20570504908604C48083007
:10445000006820F003004A490831086008460068F7
:1044600040F00200086000BF45480830006800F0D6
:104470000C000828F8D10CBD10B54548006840F480
:104480007000434908603E48006840F001003C4924
:10449000086000203A4908310860394800683D4901
:1044A0000840374908603C48091D0860081F00683B
:1044B00020F48020091F0860002031490C31086079
:1044C000FFF76CFF4FF0006031498039086010BD84
:1044D00070B500200022022300240221284D083557
:1044E0002D6805F00C0020B1042806D0082834D12E
:1044F00007E02A4D2A4E356033E02A4D284E3560BC
:104500002FE01F4D2D1D2D68C5F380541C4D2D1D12
:104510002D6805F03F0154B1224DB5FBF1F5184E61
:10452000361D3668C6F3881605FB06F209E01B4DFA
:10453000B5FBF1F5124E361D3668C6F3881605FB3D
:1045400006F20F4D2D1D2D68C5F301456D1C6B0046
:10455000B2FBF3F5124E356003E0104D104E35609E
:1045600000BF00BF064D08352D68C5F303150E4E7C
:10457000705D0B4D2D68C540094E356070BD000063
:10458000003802400070004008544007003C0240E0
:1045900088ED00E0FFFFF6FE103000240024F40058
:1045A0000811002000127A000C1100201CB5012116
:1045B0000D20FCF7E9FC44F22010009000208DF85B
:1045C00004008DF807006946FE48FBF7F3FF42F24E
:1045D0009000009001208DF8040000208DF8060066
:1045E00003208DF8050000208DF807006946F54886
:1045F000FBF7E0FF48F2402000906946F148FBF7E6
:10460000D9FF4021EF48FCF751F84FF40071ED4815
:10461000FCF74CF84FF40041EA48FCF747F84FF438
:10462000C050009001208DF8040000208DF8060095
:1046300003208DF8050000208DF807006946E24848
:10464000FBF7B8FF4FF48051DF48FCF72FF8042048
:10465000009001208DF8040000208DF80600032052
:104660008DF8050000208DF807006946D748FBF754
:10467000A1FF1021D348FCF71BF88021D148FCF79B
:1046800017F84FF40051CF48FCF712F81CBD10B5D5
:104690000446012C04D1C102CB48FCF707F804E022
:1046A0004FF40061C848FCF703F810BD08B50020BE
:1046B0000090C748807D00F001008DF80000C448DC
:1046C000807DC0F340008DF80100C148807DC0F3BB
:1046D00080008DF802009DF8000098B94FF4007139
:1046E000B848FBF7E5FF002000E0401C3228FCDB67
:1046F0004FF40071B348FBF7D9FF0020B5490860BB
:10470000B54908609DF8010088B94021AD48FBF724
:10471000CFFF002000E0401C3228FCDB4021A948EC
:10472000FBF7C4FF0020AB494860AB4948609DF8E7
:10473000020098B94FF40041A248FBF7B9FF0020EE
:1047400000E0401C3228FCDB4FF400419D48FBF7A1
:10475000ADFF00209F4988609F4988609DF8000058
:1047600001280AD19B48006838B94FF40071954878
:10477000FBF79EFF0120974908609DF80100012882
:1047800009D19448406830B940218E48FBF790FF2A
:104790000120904948609DF8020001280ED18D4803
:1047A000806858B94FF400418648FBF781FF01202B
:1047B00088498860FEF783F88849086000BF84480C
:1047C000807D00F0010020B180217E48FBF76EFF64
:1047D00003E080217B48FBF76BFF00BF7C48807DB6
:1047E000C0F3400028B10020FFF751FF00207C49B2
:1047F000086000BF7648807DC0F3400020B11021E2
:104800007048FBF753FF03E010216E48FBF750FFA1
:1048100000BF6F48807DC0F3400040B97048006819
:1048200028B90120FFF733FF01206D49086000BF60
:104830006748807DC0F3800028B14FF40051614883
:10484000FBF734FF04E04FF400515E48FBF730FF04
:1048500000BF08BD10B504465F480068A04204D9F7
:104860004FF400715748FBF721FF5B484068A042B6
:1048700003D940215348FBF719FF57488068A042ED
:104880000FD94FF400414F48FBF710FF5348006821
:10489000FEF719F85349086001205349086000BF2A
:1048A00000BF10BD70B50024002500BF0AE004EB76
:1048B00044054748001DA91C30F811004B4921F858
:1048C0001400641C032CF2DBFEF716FCFEF7C7FC99
:1048D00070BD10B500244648007801280BD100BFF8
:1048E00000E0641C032CFCDBFEF706FCFEF7B7FCC3
:1048F00000203F49087010BD01B582B00020019032
:104900009DF8080000F001008DF804009DF80800F3
:10491000C0F340008DF805009DF80800C0F380004A
:104920008DF806009DF8040098B94FF400712548F1
:10493000FBF7BEFE002000E0401C3228FCDB4FF4F9
:1049400000712048FBF7B2FE00202249086022498E
:1049500008609DF8050088B940211A48FBF7A8FEB9
:10496000002000E0401C3228FCDB40211548FBF70A
:104970009DFE002017494860174948609DF80600D1
:1049800098B94FF400410F48FBF792FE002000E079
:10499000401C3228FCDB4FF400410A48FBF786FE3E
:1049A00000200C4988600C4988609DF804000128AB
:1049B00023D10848006800BB4FF400710148FBF7A1
:1049C00077FE17E00008024000000240000C0240A1
:1049D00004140020D0130020DC1300202411002038
:1049E00030110020281100202C1100201C11002063
:1049F000221100200120384908609DF80500012897
:104A000009D13548406830B940213448FBF750FEA1
:104A10000120314948609DF8060001280ED12E483A
:104A2000806858B94FF400412C48FBF741FE012043
:104A300029498860FDF743FF2949086000BF2948DC
:104A4000807D00F0010020B180212448FBF72EFE7C
:104A500003E080212148FBF72BFE00BF2148807D29
:104A6000C0F3400028B10020FFF711FE00201E49CE
:104A7000086000BF1B48807DC0F3400020B11021BA
:104A80001648FBF713FE03E010211448FBF710FE55
:104A900000BF1448807DC0F3400040B91248006850
:104AA00028B90120FFF7F3FD01200F49086000BF7E
:104AB0000C48807DC0F3800028B14FF400510748B6
:104AC000FBF7F4FD04E04FF400510448FBF7F0FD60
:104AD00000BF00200EBD0000D013002000080240DF
:104AE0002411002004140020301100201CB50121E5
:104AF0000846FCF749FAE020009002208DF80400F7
:104B000000208DF8060003208DF8050000208DF8A8
:104B100007006946FE48FBF74DFD1020009001207C
:104B20008DF8040000208DF8060003208DF80500A4
:104B300000208DF807006946F548FBF73BFD05228C
:104B40000421F348FBF7C1FD05221146F048FBF7AD
:104B5000BCFD05220621EE48FBF7B7FD0522072123
:104B6000EB48FBF7B2FD1021E948FBF79FFD1CBDA8
:104B700000B585B001210803FCF760FA0020ADF80C
:104B800000004FF48270ADF802004FF40060ADF801
:104B900004000220ADF806000120ADF80800400234
:104BA000ADF80A001820ADF80C000020ADF80E009A
:104BB0000720ADF810006946D648FCF785FB0121B7
:104BC000D448FCF77BFC05B000BD10B5044600BF1F
:104BD0000221D048FCF73CFD0028F9D02146CD4801
:104BE000FCF7EDFC00BF0121CA48FCF731FD0028AD
:104BF000F9D0C848FCF7E0FC10BD70B500260025D0
:104C0000002445F2AA50C44908801420488000BFFF
:104C100032E004EB4405A01C81B2BF48001D20F81F
:104C2000151000BF30F815202946BCA001F062FD28
:104C300000BF6000C84931F81020B748001D691C4A
:104C400020F8112000BF30F81120B4A001F052FD6F
:104C500000BF012000EB4400BF4931F81020AE48EE
:104C6000001DA91C20F8112000BF30F81120ABA0B6
:104C700001F040FD00BF641C032CCADB00BF802193
:104C8000B648FBF706FDA449C98A60F30001A248B3
:104C9000C1821021B148FBF7FCFC01469E48C08A46
:104CA00061F341009C49C8824FF40051AB48FBF7C7
:104CB000F0FC9949C98A60F382019748C1824FF498
:104CC0008071A648FBF7D8FC08B9012000E000205D
:104CD0009149C98A60F308218F48C18220219F48E9
:104CE000FBF7CAFC08B9012000E000208A49C98A04
:104CF00060F349218848C1824FF480419748FBF70F
:104D0000BBFC08B9012000E000208349C98A60F398
:104D10008A218148C182924800787F49C98A60F31C
:104D200004117D48C1828E48007841087A48C08AC3
:104D300061F345107849C88289480078810876482F
:104D4000C08A61F386107449C88200BF00BF08465C
:104D5000C18A84A001F0CEFC00BF6F4800886E4974
:104D60004988084486B2002406E06B48001D30F8EC
:104D70001400304486B2641C092CF6DB6648C08AF5
:104D8000304486B26448068300BF018B7EA001F0E8
:104D9000B1FC00BF4AF6BC405F49488370BD70B5A6
:104DA00000245D4D10215A48FBF782FC00BF04E04F
:104DB00035F81400FFF709FF641C57484088801C31
:104DC000A042F5DC10215248FBF770FC70BD2DE9C4
:104DD000F04700250024A046A1460026A246002751
:104DE000A8E1002610214A48FBF762FC45F2AA50D0
:104DF000FFF7EBFE07460220FFF7E7FE4AF6DE303C
:104E0000FFF7E3FE4FF4C570FFF7DFFE4AF6BC4044
:104E1000FFF7DBFE10213E48FBF748FC0120FFF7BF
:104E200079F810213A48FBF743FC47F2AA70FFF7E4
:104E3000CCFE074600BF3B462A465FA1002001F09A
:104E400043FC00BF00BF3A4629465BA001F052FC7C
:104E500000BF5E4807800020FFF7B7FE5B4948802F
:104E600000BF084642885AA1002001F02DFC00BF77
:104E700000BF5648418856A001F03CFC00BF002509
:104E8000D9E005EB45040020FFF79FFE4F49091DBF
:104E900021F8140000BF084630F81430224654A10F
:104EA000002001F011FC00BF00BF4848001D30F891
:104EB000142021464EA001F01DFC00BF0020FFF78A
:104EC00084FE4249091D621C21F8120000BF0846F9
:104ED000611C30F8113046A1002001F0F5FB00BF45
:104EE00000BF3A48001D611C30F8112040A001F0BD
:104EF00001FC00BF0020FFF768FE01463348001D9B
:104F0000A21C20F8121000BFA11C30F8113081E063
:104F10000000024000300140E81300202A2A2A2A1B
:104F20002A2A2A2A2A73656E646D65737361676520
:104F30002E6D657373616765446174615B25785D8F
:104F40003D3D25642A2A2A2A2A2A2A2A2A2A2A2A66
:104F50002A2A2A0D0A0000005811002000080240E9
:104F60003511002073656E646D6573736167652E1E
:104F7000737475416E647761726E696E672E7261CB
:104F8000773D3D25780D0A002A2A2A2A2A2A2A2A2C
:104F90002A73656E646D6573736167652E73756DD5
:104FA0003D3D25782A2A2A2A2A2A2A2A2A2A2A2AF2
:104FB0002A2A2A0D0A0000007370695F686561641F
:104FC0005B25645D3D25780D0A0000000414002077
:104FD0007265636976656D6573736167652E64617B
:104FE00074615F6C656E3D3D25780D0A0000000020
:104FF0007265636976656D6573736167652E6D654E
:105000007373616765446174615B25645D3D3D2533
:10501000780D0A00AFF22801002001F055FB00BF17
:1050200000BF6848A11C30F81120AFF23C0001F02D
:1050300061FB00BF6D1C032DFFF623AF0020FFF7BF
:10504000C4FD6049091FC88200BF0846C28A5EA12C
:10505000002001F039FB00BF00BF5A48001FC18A81
:1050600059A001F047FB00BF0020FFF7AEFD5549F6
:10507000091F088300BF0846028B5DA1002001F0D4
:1050800023FB00BF00BF4F48001F018B58A001F059
:1050900031FB00BF0020FFF798FD4A49091F4883F4
:1050A00000BF0846428B58A1002001F00DFB00BF55
:1050B00000BF4448001F418B53A001F01BFB00BF01
:1050C0004048001F00883F49091F4988084486B2AC
:1050D000002505E03B4830F81500304486B26D1CD1
:1050E000092DF7DB3748001FC08A304486B23548A7
:1050F000001F008BB0420FD176B14FF6FF70864291
:105100000AD04FF0010800BF2E48001F028B314625
:1051100044A001F0EFFA01E009F10109B9F1030F30
:1051200004D110214848FBF7C1FA07E01021464896
:10513000FBF7BCFAB8F1000F3FF453AE00BF404696
:10514000BDE8F08770B50446002501220021204605
:10515000FEF7E6FC0546284670BD10B50024002089
:105160003A4908701748001F807D0009097860F3EC
:105170000001364801701348001F807D4009334903
:10518000097860F34101314801700E48001F807DAD
:1051900080092E49097860F382012C48017000785B
:1051A0002B49097888420AD000212848FEF718FCCC
:1051B0000446012C03D12548007825490870204673
:1051C00010BD0000081400207265636976656D6586
:1051D00073736167652E737475416E647761726E67
:1051E000696E672E7261773D3D25780D0A000000DB
:1051F0007265636976656D6573736167652E737536
:105200006D3D3D25780D0A007265636976656D65B3
:1052100073736167652E64617461456E643D3D25FD
:10522000780D0A0073756D3D307825782C726563B2
:105230006976656D6573736167652E73756D3D3D48
:1052400025782C0D0A0000000000024034110020D7
:105250003511002001463A480160002070472DE9D1
:10526000F047044616461F46DDE9088914B1B8F137
:10527000000F03D14FF0FF30BDE8F087314D06E05D
:105280002868A04202D12068286003E02D682868C1
:105290000028F5D100BF2A4800688047801979416D
:1052A000C4E90201C4F81080C4F81490254D00BF71
:1052B000286818B9002020602C600DE0D4E9023085
:1052C0002A68D2E90212591A904103D22868206054
:1052D0002C6001E02D68EBE700BF0020CCE7024620
:1052E000184906E00868904202D113680B6003E099
:1052F000096808680028F5D100BF0020704710B584
:105300001048046817E00E4800688047D4E902326C
:10531000C01A914105D20A4800688047A168081A5E
:1053200010BD084920680860206918B12046D4E9FA
:10533000042190472468002CE5D10020F0E700000C
:105340003C1100203811002010B5FDF7B8FA10BD4F
:105350002DE9FC47064614461D46DDE90A784FF064
:10536000000922462B463046CDE90078FFF777FF4B
:1053700081464846BDE8FC8770B5044600252046B6
:10538000FFF7ADFF0546284670BD1CB51848194902
:105390004FF4FA720023CDE90010FFF7D9FF1CBDCE
:1053A00070B504460D4614480068401C1249086058
:1053B0000846007800F0010020B904210F48FBF7EF
:1053C00075F903E004210D48FBF772F9FDF7E4FAE3
:1053D000FFF7DBFF70BD10B5AFF29300FFF73AFFA8
:1053E000FFF7D3FF002010BD10B5FFF788FF10BDF9
:1053F00020140020A153000840110020000C02409E
:105400000160531E436000238360C360704770B522
:1054100004460D46204601F04DFC20B1A068401C1A
:1054200061680840A060E16820684554E068401C5D
:1054300061680840E06070BD2DE9F04107460D4607
:105440001646002404E0295D3846FFF7E0FF641C9F
:10545000B442F8D3BDE8F08170B504460D4620464D
:1054600001F01FFC08B1002070BDA1682068405CFD
:105470002870A068401C61680840A0600120F3E724
:105480002DE9F04180460E461746404601F009FCE2
:1054900010B10020BDE8F0813546002401E0641C15
:1054A0006D1CBC4205D229464046FFF7D5FF0028B7
:1054B000F5D12046EEE72DE9F04104460E461546AB
:1054C000204601F003FCA84202D80020BDE8F0818C
:1054D000A0682844616800EA01072068C05D307058
:1054E0000120F3E770B5FE4CA821204601F0BCFA7C
:1054F000032020616061FBA0A061FD49E1614FF4E0
:10550000806121620021A1626162E162F5A02066F2
:10551000F84961661021A16600212167E166616793
:10552000002505E0C5F10F00F349085C60556D1CCE
:10553000102DF7D370BD2DE9F05F0446894617465C
:105540004FF0000AE56800BFD4F81080A84503D9E1
:10555000A8EB0500461E04E0A5EB0800401CA1686E
:105560000E1AA068401BB04201D9304601E0A06885
:10557000401B0646BE4201D2304600E03846064691
:10558000606800EB050B32464946584601F027FAA1
:10559000B244B144BF1B3544A068A84200D10025E5
:1055A000E560002FD0D15046BDE8F09F2DE9F047CF
:1055B000044689461546E668A068871BAF420AD9AB
:1055C000606800EB060A2A464946504601F007FA91
:1055D0007019E06014E0B846606800EB060A4246C5
:1055E0004946504601F0FBF9A5EB0708D4F804A0A2
:1055F00009EB07014246504601F0F1F9C4F80C806E
:10560000BDE8F08738B505460C46FF208DF8000050
:10561000BA48005D8DF80100022269462846FFF76E
:105620008AFF38BD10B501460A69CB689A4204D892
:105630008C68641EE41AA01801E0D41A601E10BD24
:105640002DE9F74F82B08346174600BFA44800906B
:1056500000980078532801D0FFF744FF00BF0BEB00
:105660004B019F48183000EBC106DDF80C903569FE
:10567000D6F80CA04FF00008554517D9B068441B68
:10568000BC4201D2204600E03846044670682844F7
:10569000019022464846019901F0A1F9A044A14495
:1056A0003F1B2544B068A84200D10025AAEB0504A1
:1056B000BC4201D2204600E0384604465CB1706826
:1056C0002844019022464846019901F088F9A044F7
:1056D000A1443F1B2544B8F1000F00D0356140467E
:1056E00005B0BDE8F08F2DE9F74F82B0834617462D
:1056F00000BF7B48009000980078532801D0FFF746
:10570000F1FE00BF0BEB4B017548603000EBC106AA
:10571000DDF80C903569D6F80CA04FF0000855451F
:1057200017D9B068441BBC4201D2204600E038467D
:10573000044670682844019022464846019901F0C9
:105740004EF9A044A1443F1B2544B068A84200D1B3
:105750000025AAEB0504BC4201D2204600E03846F1
:1057600004465CB17068284401902246484601997D
:1057700001F035F9A044A1443F1B2544B8F1000FC6
:1057800000D03561404605B0BDE8F08F2DE9F0410D
:1057900004460D461646EFF311808046202080F324
:1057A000118800BF00BF324629462046FFF748FF58
:1057B000074608F0FF0080F3118800BF00BF38469D
:1057C000BDE8F0812DE9F04104460D461646EFF3A1
:1057D00011808046202080F3118800BF00BF324630
:1057E00029462046FFF77FFF074608F0FF0080F3B9
:1057F000118800BF00BF3846BDE8F0812DE9F047B1
:10580000074688461646C14607EB4701344818301C
:1058100000EBC104D4E90301884202D1A068451E0F
:105820000EE0D4E90301884204D22069E168401AFD
:10583000451E05E02069E168401A401EA168451830
:10584000AE420CD92069711B0844206103E0206935
:10585000A168401A20612069A1688842F7D2D4E982
:105860000201451A00BFB5420CD9E168606800EB3F
:10587000010A32464946504601F0B1F8E06830442A
:10588000E06010E0E168606800EB010A2A464946E2
:10589000504601F0A4F8A9440020E060761BA068FF
:1058A000451E002EDFD100BFBDE8F0872DE9F74F80
:1058B00082B082461446DDF80CB00AEB4A01084873
:1058C000183000EBC105D5F81090EE6868683044D8
:1058D0000190B14539D8A868801B471EA7420FE048
:1058E000381400205465726D696E616C0000000010
:1058F000E0140020E0180020A27300089273000852
:105900000AD322465946019801F069F83019E86037
:10591000012005B0BDE8F08F4F44A74223D3A8680B
:10592000A0EB060842465946019801F058F8A4EB4E
:1059300008043CB1686801900BEB0801224601980D
:1059400001F04DF8EC600120E3E7A9EB0600471EEB
:10595000A74208D322465946019801F040F8301971
:10596000E8600120D5E70020D3E72DE9F04707469E
:1059700088461646C24607EB4701FE4800EBC109C0
:10598000D9F8140020B1012811D0022826D11EE038
:105990004846FFF747FE0546B54201D2002405E020
:1059A0003446324651464846FFF700FE18E0484666
:1059B000FFF738FE0546B54201D2284600E03046E2
:1059C0000446224651464846FFF7F0FD08E03246BD
:1059D00051464846FFF7AFFD044601E0002400BFF2
:1059E00000BF2046BDE8F0872DE9F047074688460E
:1059F0001646C24607EB4701DE48483800EBC109AE
:105A0000D9F8140020B1012811D0022826D11EE0B7
:105A10004846FFF707FE0546B54201D2002405E0DF
:105A20003446324651464846FFF7C0FD18E0484626
:105A3000FFF7F8FD0546B54201D2284600E03046A2
:105A40000446224651464846FFF7B0FD08E032467C
:105A500051464846FFF76FFD044601E0002400BFB1
:105A600000BF2046BDE8F0872DE9F04104460D4611
:105A7000164600BFBF4F603F3878532801D0FFF76C
:105A800031FD00BFEFF311800746202080F311881D
:105A900000BF00BF324629462046FFF766FF80461A
:105AA000F8B280F3118800BF00BF4046BDE8F08126
:105AB0002DE9F04104460D46164600BFAD4F603F4C
:105AC0003878532801D0FFF70DFD00BFEFF31180A8
:105AD0000746202080F3118800BF00BF32462946C8
