:020000040800F2
:1000000070280020390200085D3200085F320008C5
:100010006132000863320008653200080000000009
:10002000000000000000000000000000673200082F
:1000300069320008000000006B3200086D320008D1
:10004000530200085302000853020008530200083C
:100050005302000853020008CB2300085302000893
:10006000530200085302000853020008530200081C
:10007000530200085302000853020008530200080C
:1000800053020008530200085302000853020008FC
:1000900053020008530200085302000853020008EC
:1000A00053020008530200085302000853020008DC
:1000B000EF200008892100085302000853020008BD
:1000C00053020008530200085302000853020008BC
:1000D0005302000853020008852F0008530200084D
:1000E000530200085302000853020008530200089C
:1000F000530200085302000853020008530200088C
:10010000530200085302000853020008530200087B
:10011000530200085302000853020008530200086B
:10012000530200085302000853020008530200085B
:10013000530200085302000853020008530200084B
:10014000530200085302000853020008530200083B
:10015000530200085302000853020008530200082B
:10016000530200085302000853020008530200081B
:10017000530200085302000853020008530200080B
:10018000530200085302000800F002F800F044F89F
:100190000AA090E8000C82448344AAF10107DA45E2
:1001A00001D100F039F8AFF2090EBAE80F0013F0F0
:1001B000010F18BFFB1A43F001031847DC5400007D
:1001C000FC540000103A24BF78C878C1FAD852070E
:1001D00024BF30C830C144BF04680C6070470000C1
:1001E0000023002400250026103A28BF78C1FBD840
:1001F000520728BF30C148BF0B607047642904F024
:100200009784782904F0FB84002070471FB505F01F
:1002100009FA1FBD10B510BD04F01CFF1146FFF711
:10022000F5FF02F068FF04F03AFF03B4FFF7F2FFB6
:1002300003BC02F041FE000009488047094800471E
:10024000FEE7FEE7FEE7FEE7FEE7FEE7FEE7FEE786
:10025000FEE7FEE704480549054A064B70470000E3
:10026000133300088901000870090020702800205D
:100270007018002070180020284908432849086099
:10028000704730B50F23C27801780125FAB1244AAE
:10029000126801F1E02102F4E062C2F5E062C2F30B
:1002A0000722C2F10404D3404278A24084781C4063
:1002B0001443220181F80024007800F01F018D40D2
:1002C0004009800000F1E020C0F8005130BD01F08D
:1002D0001F0085404809800000F1E020C0F88051EF
:1002E00030BD104A114001430D48001F01607047A6
:1002F0000B4A121D0029116801D0014300E081431F
:10030000116070474FF0E0210428086903D020F005
:1003100004000861704740F00400FAE70000FA05A5
:100320000CED00E080FFFF1F354900200860091D2B
:100330000860091D0860091D086031493148143101
:100340000860704730B52E4A8379016853B313684B
:100350008B431360111D0B680468A3430B60017984
:1003600011440B68046823430B60254B083319685C
:100370000468A14319601C1D21680568A943216018
:100380004179102905D011440A68006802430A60C7
:1003900030BD196802681143196021680068014383
:1003A000216030BD0079104402688A43026030BD8C
:1003B0000021016001710C22427181717047104966
:1003C00010310A6802430A60704701460C4A002057
:1003D000143212680A4200D00120704708491431D3
:1003E000086070470146064A0020143212680A422B
:1003F00000D00120704702491431086070470000A6
:10040000003C0140FFFF7F00F94908707047F84940
:100410000028086802D040F4807001E020F4807069
:1004200008607047F2490028086802D040F4007064
:1004300001E020F4007008607047ED49002808686A
:1004400002D040F4806001E020F4806008607047D2
:10045000E748016841F4006101607047E4480168C1
:1004600041F4805101607047E14810300068002875
:1004700005DADF48DF49001D0160DF490160704790
:10048000DB481030016841F0004101607047D849F5
:1004900009200C310A68D20301D5012070470A688F
:1004A000D20601D5062070470A68D20501D5022080
:1004B00070470A6812F0EF0F01D0072070470968F3
:1004C0008907FBD50820704708B509208DF8000082
:1004D000FFF7DDFF8DF800009DF800000128F7D040
:1004E0009DF8000008BD70B50646002529B1012918
:1004F00028D0022929D04FF44075FFF7E5FF0928DD
:100500001FD1BB4C1034206820F44070206020685C
:1005100028432060206820F0F8002060206846F022
:10052000020108432060206840F480302060FFF71B
:10053000CBFF216821F002012160216821F0F80140
:10054000216070BD4FF48075D7E74FF40075D4E794
:1005500030B504460025FFF7B7FF2CB1012C1DD0A4
:10056000022C1ED04FF44075092816D1A04C10342F
:10057000206820F4407020602068284320602068B4
:1005800040F004002060206840F480302060FFF7D5
:100590009BFF216821F00401216030BD4FF480757C
:1005A000E2E74FF40075DFE730B504460025FFF7BA
:1005B0008BFF2CB1012C1DD0022C1ED04FF44075A6
:1005C000092816D18A4C1034206820F4407020602D
:1005D000206828432060206840F0040020602068E4
:1005E00040F480302060FFF76FFF216821F00401A4
:1005F000216030BD4FF48075E2E74FF40075DFE70E
:1006000030B504460025FFF75FFF2CB1012C1DD04B
:10061000022C1ED04FF44075092816D1744C1034AA
:10062000206820F440702060206828432060206803
:1006300040F400402060206840F480302060FFF7E4
:1006400043FF216821F40041216030BD4FF48075E3
:10065000E2E74FF40075DFE7F0B516461F460546A2
:10066000FFF732FF092815D1614C1034206820F4BF
:1006700040702060206840F440702060206840F0A6
:10068000010020602E606F60FFF71EFF216821F0DF
:1006900001012160F0BD70B50D460646FFF714FF5D
:1006A000092814D1524C1034206820F44070206086
:1006B000206840F400702060206840F00100206055
:1006C0003560FFF701FF216821F00101216070BD55
:1006D00070B50D460646FFF7F7FE092814D1444CC5
:1006E0001034206820F440702060206840F480704E
:1006F0002060206840F0010020603580FFF7E4FEB4
:10070000216821F00101216070BD70B50D460646DB
:10071000FFF7DAFE092812D1354C1034206820F496
:100720004070206020682060206840F00100206058
:100730003570FFF7C9FE216821F00101216070BD0D
:100740002B4814300068C00705D029482B490830D1
:1007500001602B490160704725481430016841F061
:1007600001010160704730B50D460446FFF7ACFE4D
:10077000092807D11E48163001880DB1A14300E0B9
:100780002143018030BD30B50D460446FFF79CFE85
:10079000092807D116481A3001880DB1A14300E09D
:1007A0002143018030BD124A1732117801F07F01D8
:1007B00008431070704730B50D460446FFF784FEBD
:1007C000092807D10A4A163210880DB1204300E0EB
:1007D000A043108030BD30B50D460446FFF774FECF
:1007E000092811D1024A1A3210885DB120430AE06B
:1007F000003C024023016745AB89EFCD3B2A190835
:100800007F6E5D4CA043108030BD10B50446FFF7ED
:100810005BFE092801D13548047010BD70B515463E
:100820000C460646FFF750FE092808D12F49491EFD
:10083000087800F00F0004432C4334430C7070BD63
:100840002A49491E0A7822F010020A700A780243E7
:100850000A7070472549491E0A7822F00C020A7076
:100860000A7802430A7070472048401E017841F020
:100870000201017028E61D48401E0068C0F34710C1
:1008800070471A48401C008870471848401D00886F
:1008900070471648401C008870471448401D008867
:1008A0007047124900200978AA2900D0012070471A
:1008B0000E48401E007800F00C0070470B4A521F93
:1008C0000029116801D0014300E0814311607047A5
:1008D0000146064A0020093A12680A4200D0012067
:1008E000704702490939086070470000153C024012
:1008F000774910B5884206D10121084600F0B7FAC1
:10090000002101205BE07349884206D101210220C9
:1009100000F0ADFA0021022051E06F49884206D173
:100920000121042000F0A3FA0021042047E06B49D4
:10093000884206D10121082000F099FA0021082000
:100940003DE06749884206D10121102000F08FFA6E
:100950000021102033E06349884206D10121202084
:1009600000F085FA0021202029E05F49884206D165
:100970000121402000F07BFA002140201FE05B496C
:10098000884206D10121802000F071FA00218020E8
:1009900015E05749884202D1012184150AE05549E2
:1009A000884202D10121441504E0534988420AD10A
:1009B00001210415204600F05AFA00212046BDE826
:1009C000104000F054BA10BDF0B5002201274FF0DE
:1009D000030C0B6807FA02F52B40AB422CD10668DA
:1009E00053000CFA03F4A64306600E79D0F800E039
:1009F0009E4046EA0E0606600E79012E01D0022EB8
:100A000012D18668A64386604E79D0F808E09E40F1
:100A100046EA0E0686604668AE43466045688E79B3
:100A20009640B6B235434560C568A543C560CC79EC
:100A30009C40C3681C43C460521C102AC9D3F0BD3B
:100A40004FF6FF7101600021017141718171C17127
:100A5000704708B541F480320092C261C1610099CB
:100A6000C161C169C069009008BD024600201269D9
:100A70000A4200D001207047006980B270470246E8
:100A8000002052690A4200D001207047406980B2BC
:100A9000704701837047418370470AB101837047F3
:100AA000418370474161704742694A4042617047E3
:100AB0004B07DB0E9A40C90810B500EB8100016AB4
:100AC0000F249C40A1430162016A1143016210BDE1
:100AD000000002400004024000080240000C0240F6
:100AE000001002400014024000180240001C0240A6
:100AF0000020024000240240002802400D49086006
:100B000070470C49486070470A4988607047094936
:100B10004AF6AA200860704706494CF6CC400860A7
:100B20007047044A01460020D2680A4200D00120E2
:100B30007047000000300040F848016841F00101B2
:100B40000160F64A0021083211600268F44B1A4035
:100B50000260031DF34A1A60F04BF34A84331A60B3
:100B6000F04A103A1B1D1A60026822F480220260CB
:100B7000EA480C300160181D01607047E749002207
:100B8000891C0A700870704702460020510901292B
:100B90000CD002290CD0E1497431096802F01F021F
:100BA000012393400B4200D001207047DB49F4E75A
:100BB000DA497031F1E718B500204FF4A0440090F5
:100BC0003120FFF7E1FF0099491C0091A14201D0BB
:100BD0000028F5D03120FFF7D7FF002800D00120F2
:100BE00018BDCE4A116821F0F80141EAC00010603A
:100BF0007047CE4908607047C849002270310A70BA
:100C00000A70012802D0042801D10520087070471D
:100C1000C7490860704741EA82115A0810B5C54BB0
:100C2000029C03EB02421143014341EA0460BB49C9
:100C3000091D086010BDBD4908667047800140EA83
:100C40000170B649843108607047B84988667047BA
:100C5000800140EA0160B14940EA027088310860D1
:100C60007047B24908677047B049C8647047AB4BDA
:100C700008331A68084322F0EC621043186070478A
:100C8000A64B08331A68084322F0784210431860D4
:100C90007047A24A0832116821F003010143116034
:100CA00070479E480830006800F00C0070479B4A6F
:100CB0000832116821F0F001014311607047974A32
:100CC0000832116821F4E051014311607047934AE2
:100CD0000832116821F4604141EAC0001060704799
:100CE00070B58E4B08331968934C11F00C0104D089
:100CF0006610042903D0082903D004601BE00660B5
:100D000019E0864A121D1168C1F38055116801F07F
:100D10003F0115B1B6FBF1F101E0B4FBF1F114684C
:100D20001268C4F388146143C2F30142521C52009A
:100D3000B1FBF2F1016019680F2202EA11117F4A3A
:100D4000545C0168E14041601C68072505EA942471
:100D5000145D21FA04F484601B6805EA5333D25C05
:100D6000D140C16070BDC0F30121032908D16B4B94
:100D700008331968724A21F4F81102400A431A60D4
:100D8000664970310A68C0F30B0002430A6070477D
:100D900067494439086070476549403908607047C1
:100DA0006249C1F85C0170475C4A8C321168401E90
:100DB00021F01F01014311607047584A8C321168BD
:100DC0006FF0FF0321F4F85103EB0020084310609B
:100DD0007047524A8C32116821F44011014311606E
:100DE00070474E4A8C32116821F440010143116072
:100DF00070474A4A8C32116821F440310143116036
:100E000070475049C1F8E0017047444A3032002928
:100E1000116801D0014300E08143116070473F4AEF
:100E200034320029116801D0014300E08143116090
:100E300070473A4A38320029116801D0014300E076
:100E4000814311607047354A40320029116801D052
:100E5000014300E0814311607047304A4432002969
:100E6000116801D0014300E08143116070472B4AB3
:100E700010320029116801D0014300E08143116064
:100E80007047264A14320029116801D0014300E05E
:100E9000814311607047214A18320029116801D03E
:100EA000014300E08143116070471C4A2032002951
:100EB000116801D0014300E0814311607047174A77
:100EC00024320029116801D0014300E08143116000
:100ED0007047124A50320029116801D0014300E0E6
:100EE0008143116070470D4A54320029116801D0C6
:100EF000014300E0814311607047084A58320029DD
:100F0000116801D0014300E0814311607047034A3A
:100F100060320029116817D0014316E00038024002
:100F2000FFFFF6EA103000240030002000004742A6
:100F3000800E47420000FFFF0024F4000000002064
:100F4000FFFCFF0F00104742814311607047194AB0
:100F50000029116801D0014300E08143116070470E
:100F600014490C310128086803D020F008000860FB
:100F7000704740F00800FAE70E4A573A0029117806
:100F800001D0014300E081431170704709481030DF
:100F9000016841F08071016070470146054A0020F8
:100FA000583A12680A4200D0012070470149563968
:100FB0000870704764380240C14910B5884202D1B8
:100FC0000121841424E0BF49884202D10121041484
:100FD00004E0BD4988420AD10121C4132046FFF72D
:100FE00064FF2046BDE810400021FFF75EBFB7490F
:100FF000884202D1012144140AE0B549884202D155
:1010000001210C0504E0B34988420AD101214C05B5
:101010002046FFF754FF2046BDE810400021FFF7AF
:101020004EBF10BD30B502884C8802F441530A8887
:10103000CD8822438C882C4322430C8922434C893F
:1010400022438C892243CC8922431A430280828B1B
:1010500022F400628283098A018230BDF0B5022247
:101060000023858B01244FF240063540858302849E
:10107000868B8D68022D3DD08A8802B10224964A63
:1010800013681B0203D5136823F400031360924A0C
:101090007C3213681268C3F388138F4FC2F3027255
:1010A0003F1F3D683F6805F03F057F0201D58B4F2C
:1010B00000E08B4FB7FBF5F55D43B5FBF2F2CB8853
:1010C000B3F5007F2BD06301B2FBF3F202EB820297
:1010D0008B685200B2FBF3F2521D92B20A23B2FBAC
:1010E000F3F202F00103D21A4FF6FF74C2F34F027B
:1010F00004EA0323941EFE2C01D302220023CC8891
:101100001A43144304840A884B881A438B888989BC
:101110000B431A43324342F400618183F0BD120A4B
:10112000D4E70021018041808180C180018141811B
:101130008181C181072101827047002101804180A6
:101140008180C180022282608181704700290188EC
:1011500002D041F0400101E021F0400101807047E0
:101160000029818B02D041F4806101E021F480618B
:1011700081837047028822F40062028002880A4359
:1011800002807047B1F5804F018803D021F480417F
:101190000180704741F48041FAE7A1F57E42018861
:1011A000FF3A02D041F4807101E021F480710180A6
:1011B00070470029818802D041F0040101E021F04C
:1011C0000401818070470029818802D041F010011C
:1011D00001E021F010018180704730B5828B00233F
:1011E0004FF240042240828302220284848B0A88C8
:1011F0004FF48075B2F5007F00D002B92B464A88C3
:101200008D8889892A4319430A43224342F40061A5
:10121000818330BD808970478181704700290188B2
:1012200002D041F4005101E021F4005101807047E7
:10123000018841F4805101807047012901D0008B61
:101240007047808A7047008A7047002A828801D0E0
:101250000A4300E08A4382807047090901238B40DA
:10126000002A828899B201D00A4300E08A43828032
:1012700070470246002012890A4200D001207047C0
:10128000C9430181704730B501F00F0301250246C3
:1012900005FA03F40020A3B2090905FA01F49188C4
:1012A000A4B2128921401A4202D0002900D00120A4
:1012B00030BD01F00F0201219140C9430181704707
:1012C0000030014000380040003C00400034014044
:1012D00000500140005401400838024000127A00DA
:1012E0000024F40010B501218C032046FFF7E7FD30
:1012F0002046BDE810400021FFF7E1BD1449086019
:10130000704714490862704710B58A0721F003043A
:101310001149120F21440F23D1F8084893409C43F0
:10132000C1F80848D1F8083890400343C1F808389C
:1013300010BD0849C1F8DC007047084908607047D3
:101340000349002020310968C90500D501207047F4
:1013500000380140000027420030014000042742CD
:10136000FE4910B5884206D101210846FFF7A7FDC6
:10137000002101205BE0B0F1804F09D0F84988429C
:101380000DD101210220FFF790FD0021022070E025
:1013900001210846FFF789FD0021012069E0F1499C
:1013A000884206D101210420FFF77FFD002104209F
:1013B0005FE0ED49884206D101210820FFF775FD65
:1013C0000021082055E0E949884206D1012110207A
:1013D000FFF76BFD002110204BE0E549884206D164
:1013E00001212020FFF761FD0021202041E0E1499B
:1013F000884206D101210220FFF761FD0021022071
:1014000015E0DD49884202D101210C040AE0DB49E4
:10141000884202D101214C0404E0D94988420AD112
:1014200001218C042046FFF74AFD00212046BDE83B
:101430001040FFF744BDD349884206D10121402026
:10144000FFF733FD0021402013E0CF49884206D149
:1014500001218020FFF729FD0021802009E0CB49F0
:1014600088420AD1841501212046FFF71EFD002184
:101470002046BDE81040FFF718BD10BD30B502880A
:10148000B64CBC4DA0420DD0A8420BD0B0F1804F5D
:1014900008D0B34B984205D0B24B984202D0B24B21
:1014A000984203D122F070034A881A43AF4B984206
:1014B00006D0AF4B984203D022F440730A891A43F6
:1014C00002804A68C2620A880285A04201D0A8420E
:1014D00001D1897A01860121818230BD4FF0FF312F
:1014E0004160002101800181418081727047018546
:1014F00082827047028822F070020A43028070479D
:1015000041627047C1627047406A7047008D704702
:101510000029018802D041F0020101E021F002011E
:10152000018070470029018802D041F0040101E0E8
:1015300021F00401018070470029018802D041F0A8
:10154000800101E021F0800101807047028822F0D3
:101550000802028002880A4302807047028822F44F
:101560004072028002880A43028070470029018885
:1015700002D041F0010101E021F00101018070473A
:1015800030B5028C22F001020284028C8388048B25
:1015900022F0020224F073050C882C438D89154338
:1015A0004A882A436D4DA84202D0724DA8420DD1FF
:1015B00022F00805CA8923F440732A4322F0040567
:1015C0008A882A430D8A1D434B8A2B4383800483D8
:1015D00089684163028430BD70B5028C22F010022C
:1015E0000284028C8388048B0D8824F4E6464FF62F
:1015F000FF7404EA052535438E8922F0200204EAAF
:10160000061616434A8804EA02123243534EB04289
:1016100002D0584EB04215D122F08006CA8923F478
:10162000406304EA0212324322F040068A8804EA48
:10163000021232430E8A04EA86061E434B8A04EAEB
:10164000830333438380058389688163028470BD8B
:1016500070B5028C22F480720284028C8388848BA1
:101660000D8824F0730425438E894FF6FF7422F40D
:10167000007204EA062616434A8804EA022232432C
:10168000364EB04202D03B4EB04215D122F4006635
:10169000CA8923F4405304EA0222324322F48066CA
:1016A0008A8804EA022232430E8A04EA06161E439E
:1016B0004B8A04EA03133343838085838968C163BB
:1016C000028470BD70B5028C22F480520284058CB5
:1016D0008288838B0C8823F4E6464FF6FF7303EA77
:1016E0000424344325F400568D8903EA0535354337
:1016F0004E8803EA06362E43184DA84202D01D4DEF
:10170000A84205D122F480450A8A03EA82122A43BC
:101710008280848389680164068470BD0021018011
:101720004180818081608181C181018241827047D5
:1017300030B50124058C00F118038C40A5430584C5
:1017400031B308292CD0091FC1F34E001844016899
:1017500048F6FF731940016001681AE0000001407B
:101760000004004000080040000C00400010004051
:1017700000140040000401400040014000440140CA
:101780000048014000180040001C004000200040BC
:1017900006E04FF6FF7303EA02221143016030BDF9
:1017A00003EB510001684FF68F7319400160016827
:1017B000F3E74163704781637047C1637047016419
:1017C0007047028B22F070020A4302837047028B3B
:1017D0004FF6FF7322F4E04203EA01211143018333
:1017E0007047828B22F070020A4382837047828B9B
:1017F0004FF6FF7322F4E04203EA01211143818393
:101800007047028B22F008020A4302837047028B62
:101810004FF6FF7322F4006203EA012111430183B2
:101820007047828B22F008020A4382837047828BC2
:101830004FF6FF7322F4006203EA01211143818312
:101840007047028B22F004020A4302837047028B26
:101850004FF6FF7322F4806203EA012111430183F2
:101860007047828B22F004020A4382837047828B86
:101870004FF6FF7322F4806203EA01211143818352
:101880007047028B22F080020A4302837047028B6A
:101890004FF6FF73C2F30E0203EA012111430183E5
:1018A0007047828B22F080020A4382837047828BCA
:1018B0004FF6FF73C2F30E0203EA01211143818345
:1018C0007047028C22F002020A4302847047028CA5
:1018D00022F008020A4302847047028C4FF6FF731D
:1018E00022F0200203EA0111114301847047028CA7
:1018F0004FF6FF7322F0800203EA011111430184C5
:101900007047028C4FF6FF7322F4007203EA012144
:10191000114301847047028C4FF6FF7322F400627A
:1019200003EA0121114301847047028C4FF6FF73D3
:1019300022F4005203EA013111430184704710B5CB
:101940000123048C8B409C430484038C8A40134302
:10195000038410BD10B50423048C8B409C43048485
:10196000038C8A401343038410BD828B22F44062AF
:101970008283828B4FF6FF7303EA01210A4382833D
:101980007047828B22F00C028283828B0A4382830F
:101990007047028B22F440620283028B4FF6FF7382
:1019A00003EA01210A4302837047F0B5048C24F056
:1019B00010040484078B068C4FF6FF7404EA0115AB
:1019C00027F4734704EA0331394304EA02220A4345
:1019D00026F0A001294341F0100102830184F0BDEB
:1019E000028B22F00C020283028B0A4302837047AF
:1019F0002DE9F0410C460E884988A28823890546C6
:101A00000EB3042E26D0082E2E8C4FF6FF7028D051
:101A100026F480562E84AF8B2E8C00EA022200EA38
:101A2000013127F473473A4300EA0330104326F4A8
:101A300020420A4342F48051A8832984E188284641
:101A4000BDE8F04191E700F062F9E1882846BDE881
:101A5000F041C5E7FFF7A9FFE1882846BDE8F0415E
:101A600097E726F480762E84AF8B2E8C00EA012136
:101A700000EA0310104327F0F307384326F42062EE
:101A80000A4342F48071A8832984E1882846BDE88E
:101A9000F04176E700210180418001228280C180EF
:101AA000018170472DE9F0410C4600264988074620
:101AB000012501B90226A288012A00D10225208829
:101AC00023890028384610D0FFF76FFFE188384699
:101AD000FFF75FFF23892A463146384600F017F9A1
:101AE000E1883846BDE8F0417AE700F010F9E18876
:101AF0003846FFF775FF23892A4631463846FFF7F7
:101B000054FFE1883846BDE8F04142E7406B70473A
:101B1000806B7047C06B7047006C704710B50A88C7
:101B20004B88CC881A438B8823431A430B891A436A
:101B30004B8989891A430A43A0F8442010BD00212B
:101B4000018041808180C180018141818181704714
:101B5000002930F8441F02D041F4004101E0C1F3F4
:101B60000E01018070470029818802D041F00401F4
:101B700001E021F00401818070470029818802D0B2
:101B800041F0010101E021F0010181807047002A4C
:101B9000828901D00A4300E08A43828170478182B2
:101BA000704702460020128A0A4200D00120704786
:101BB000C9430182704702460020138A92890B4272
:101BC00002EA010202D0002A00D001207047C94376
:101BD000018270471143A0F848107047002A82899B
:101BE00001D00A4300E08A4382817047002981883E
:101BF00002D041F0080101E021F008018180704726
:101C0000018921F0070101817047028922F07002E9
:101C10000A430281704700B50346FFF7F6FF1889B3
:101C200040F00700188100BD70B516460D466029CA
:101C300004464FF0010231460AD000F068F8294608
:101C40002046FFF7E2FF208940F00700208170BDA9
:101C5000FFF7ABFEF3E730B504894FF6FF7505EAF1
:101C600003231343E4B20B432343038130BD10B578
:101C70000446FFF7F0FF208940F07700208110BD77
:101C800010B50446FFF7E7FF208940F4804020812B
:101C900010BD828822F07002828082880A4382808E
:101CA0007047028922F00702028102890A430281F9
:101CB0007047028922F08002028102890A43028170
:101CC000704770B50589048B068C25F007050D4318
:101CD0004FF6FC410C4040F201110C434FF6FF71EE
:101CE00001EA031126F022061143314305810483E2
:101CF000018470BD0029818802D041F0800101E09B
:101D000021F0800181807047A0F85010704770B5B5
:101D1000048C24F001040484058B048C4FF6FF76B8
:101D200006EA0313134325F0F3052B4324F00A02BC
:101D30000A4342F001010383018470BDCD4910B50F
:101D4000884206D101211020FFF7B9F800211020A8
:101D500020E0C949884202D101214C0429E0C74949
:101D6000884202D101218C0423E0C549884202D176
:101D70000121CC041DE0C349884202D101210C0598
:101D800017E0C149884209D101212020FFF797F8C7
:101D900000212020BDE81040FFF791B8BB498842E0
:101DA00002D101218C0704E0B94988420AD10121FE
:101DB00044052046FFF779F82046BDE81040002191
:101DC000FFF773B810BD7FB50446008A0D46C98879
:101DD00020F4405001432182A08941F20C618843E4
:101DE000A9882A8911436A8902431143A181A08AE3
:101DF00020F44071A8890843A0826846FEF770FF6E
:101E00009C48844202D0A048844201D1039800E05B
:101E10000298A189090400EBC00101EB00102968B8
:101E200001D5490000E08900B0FBF1F06422B0FB6D
:101E3000F2F109010B096FF018056B4300EB830009
:101E4000A3891D044FF0320306D503EBC000B0FB9D
:101E5000F2F000F0070005E003EB0010B0FBF2F039
:101E600000F00F00084320817FBD4FF41651016040
:101E700000218180C18001810C22428181817047D3
:101E800010B5028A4C8822F470630A8822438C8839
:101E9000C9880C4322431A43028210BD00210180ED
:101EA00041808180C18070470029818902D041F43E
:101EB000005101E021F4005181817047028B02F44E
:101EC0007F420283028B0A43028370470029818983
:101ED00002D041F4004101E0C1F30E01818170475D
:101EE0000029818A02D041F4006101E021F40061FF
:101EF00081827047C1F30801818070478088C0F3F8
:101F000008007047028A22F00F020282028A0A4306
:101F1000028270470029818902D041F0020101E06C
:101F200021F0020181817047828922F4006282815E
:101F300082890A4382817047028A22F0200202824B
:101F4000028A0A43028270470029018A02D041F4C2
:101F5000804101E021F4804101827047818941F094
:101F60000101818170470029818A02D041F0080176
:101F700001E021F0080181827047028BD2B2028316
:101F8000028B42EA0121018370470029818A02D035
:101F900041F0200101E021F02001818270470029F9
:101FA000818A02D041F0100101E021F0100181820C
:101FB0007047828A22F004028282828A0A438282E5
:101FC00070470029818A02D041F0020101E021F02E
:101FD000020181827047002A828A01D00A4300E010
:101FE0008A438282704710B5C1F3421301F01F0487
:101FF0000121A140012B07D0022B07D01430002A69
:10200000026805D00A4304E00C30F8E71030F6E728
:102010008A43026010BD0246002012880A4200D0A6
:1020200001207047C9430180704770B501F01F055A
:1020300001260024C1F3421306FA05F2012B0FD04A
:10204000022B0FD0838A4FEA11210088134206FA2F
:1020500001F600EA060001D000B10124204670BD5F
:102060008389F0E7038AEEE70A0A01219140C94318
:1020700001807047001001400044004000480040CB
:10208000004C004000500040001401400078004027
:10209000007C00407FB50C46054601210846FEF74E
:1020A000D2FEADF800400020ADF80200ADF8080007
:1020B0004FF08044019569462046FFF7DFF9012281
:1020C00011462046FFF763FD01212046FFF74EFA37
:1020D0001C208DF80C0003208DF80D008DF80E00EB
:1020E00001208DF80F0003A8FEF7CBF87FBD10B5D7
:1020F00001218C072046FFF75EFD012807D13049FA
:102100000A684868521C40F100000A604860204696
:10211000BDE810400121FFF75ABD29490868496808
:102120007047274A13685268181A62EB010170471A
:102130007FB50D46044601210220FEF784FE01947E
:102140000020ADF800501F4CADF80200ADF80800BB
:1021500069462046FFF792F9012211462046FFF713
:1021600016FD01212046FFF701FA1D208DF80C0015
:1021700001208DF80D0003218DF80E108DF80F0051
:1021800003A8FEF77EF87FBD10B50E4C0121204656
:10219000FFF711FD01280CD10B490A68521C0A6097
:1021A0004868401C48608868401C8860C868401CBB
:1021B000C8602046BDE810400121FFF708BD0000BF
:1021C0001000002000040040EC03002070B504461D
:1021D0000D4645F25550FEF791FC2046FEF791FC66
:1021E0002846FEF791FCFEF792FCBDE87040FEF732
:1021F00093BCFEF78CBC00002DE9FC4701210520B3
:10220000FEF703FE01218803FEF727FEFE48016862
:1022100041F00071016001258DF8045000244FF455
:1022200081708DF806400326DFF8E09300908DF86A
:1022300005608DF8074069464846FEF7C5FB8DF8F6
:10224000044000958DF8074069464846FEF7BCFB00
:102250004FF4E050009002208DF804008DF8064005
:10226000DFF8AC838DF805608DF80740694640467D
:10227000FEF7AAFB8DF804508DF80640EF038DF8A9
:10228000056000978DF8074069464846FEF79CFBBD
:1022900006220A214046FEF70BFC06220B2140468F
:1022A000FEF706FC06220C214046FEF701FC062242
:1022B0000F214846FEF7FCFB39464846FEF7E9FB8E
:1022C000BDE8FC8710B5012186B0C803FEF7BBFD51
:1022D0000020ADF800004FF48271ADF802104FF409
:1022E0000061ADF804100221ADF806100121ADF82F
:1022F0000C00ADF80810ADF80E0049020720C54CDF
:10230000ADF80A10ADF8100069462046FEF78AFEC7
:1023100001212046FEF71AFF06B010BD38B5FFF7C1
:102320006BFFFFF7CFFFB94D4FF48074214628466D
:10233000FEF7AFFB00204FF47A710090421C10466C
:1023400000928A42FAD321462846BDE83840FEF77B
:10235000A2BB3EB501218803FEF77FFD00210846A0
:10236000FEF7D2FF00208DF804000C2001248DF828
:10237000050000948DF806406846FDF7E3FF06204F
:102380008DF8080003208DF809008DF80A408DF8BB
:102390000B4002A8FDF775FF3EBD70B59D4C05468C
:1023A00002212046FEF765FF0028F9D02946204685
:1023B000FEF732FF01212046FEF75BFF0028F9D02F
:1023C0002046BDE87040FEF725BF2DE9F041012011
:1023D000FEF708F8002819D08C4F4FF4004631461C
:1023E0003846FEF758FB8C4D00240020FFF7D5FF40
:1023F00025F81400641C082CF7DB31463846FEF73C
:1024000048FBBDE8F0410120FDF7F5BFBDE8F081D4
:1024100070B5814D002405F1E00650B135F8141077
:10242000E0B200F02BFA26F81400641C082CF5DB4F
:1024300070BD35F8140026F81400641C082CF8DB75
:1024400070BD38B5714C02212046FEF724FB0020F8
:1024500000900099491C00916429FAD32046BDE8F8
:1024600038400221FEF715BB70B56B4E00242DEDF0
:10247000028BE0369FED698BA6F1D00536F914008A
:10248000082C74D2DFE804F0040D20333C4F586B65
:1024900049F640414843C11700EB5140C00B28802A
:1024A00065E042F2107110FB01F0C11700EB5140E2
:1024B000C01300B202F08DFF53EC182B02F0B4FFF2
:1024C00002F05AFF688052E042F2107110FB01F0F6
:1024D000C11700EB5140C01300B202F07AFF53EC79
:1024E000182B02F0A1FF02F047FF68813FE049F698
:1024F00040414843C11700EB5140C00B288136E0F2
:1025000042F2107110FB01F0C11700EB5140C013F3
:1025100000B202F05EFF53EC182B02F085FF02F0D0
:102520002BFFE88023E049F640414843C11700EB08
:102530005140C00BA8801AE042F2107110FB01F06C
:10254000C11700EB5140C01300B202F042FF53EC40
:10255000182B02F069FF02F00FFFE88107E049F64F
:1025600040414843C11700EB5140C00BA881641C97
:10257000082C83DBBDEC028B70BD274A10B5002010
:1025800002F1100332F8101042F2107411FB04F142
:10259000CC1701EB5441C90B23F81010401CC0B2FA
:1025A0000828EFD310BD30B51E491B4D05F11005AD
:1025B000898B2B8811F0010200EE103A05F5D874D2
:1025C00004EBC203B8EE400A83ED000A00D00246D5
:1025D00000EE102AC1F34002B8EE400A83ED010A72
:1025E000AB8800EE103A04EBC203B8EE400A83ED6C
:1025F000040A02B1024600EE102AC1F38002B8EECE
:10260000400A83ED050A0FE0003801400000024057
:1026100000080240003C0040AC0000200000000028
:1026200000000040FC0300202B8900EE103A04EB70
:10263000C203B8EE400A83ED080A02B1024600EE7A
:10264000102AC1F3C001B8EE400A83ED090AAA8935
:1026500000EE102A04EBC102B8EE400A82ED0C0A2B
:1026600001B9002000EE100AB8EE400A82ED0D0A12
:1026700030BD30B568B362B35BB3022929D39FED97
:10268000910A0024B0EE402AF0EE401AB0EE401A53
:102690000EE000EBC405641CD5ED000AD5ED012A5F
:1026A00000EEA01A40EEA21A30EE800A32EE822A24
:1026B0008C42EED300EE901A834CF8EE600A60EE86
:1026C000810A40EE400AF0EEE02A12EE900AA042A3
:1026D00001DC002030BD02EE901A22EE011AF8EE65
:1026E000622A00EE611A62EEA12A40EE422A81EED1
:1026F000200A82EEA03A82ED003A83ED000AD2ED84
:10270000000A9FED720A012060EE800AC2ED000A05
:10271000D3ED000A20EE800A83ED000A30BD00EE02
:10272000801AB0EE410A70472DE9F84F684D4FF41A
:102730000076002431462846FEF7ADF94FF4805864
:1027400041462846FEF7A7F9DFF888910821484658
:10275000FEF7A1F9DFF880A108215046FEF79BF9AA
:102760004FF4FA67384600F08CFBFFF76AFE002052
:10277000FFF74EFEFFF778FE01F054F8012000F05D
:1027800080FB641C142CF0DB46F660542046FFF7F7
:102790000AFF31462846FEF77CF941462846FEF7F7
:1027A00078F908214846FEF774F908215046FEF7EB
:1027B00070F94AA1002002F03DF9384600F061FBB3
:1027C0000025FFF73EFE0020FFF722FEFFF74CFE3C
:1027D00001F028F8012000F054FB6D1C142DF0DBF3
:1027E0002046FFF7E0FE424B0221A3F1680202F10E
:1027F000AC00FFF73EFF3E4B02211B1DA3F1680218
:1028000002F1B800FFF735FF394B02210833A3F17D
:10281000680202F1C400FFF72CFF354B02210C3394
:10282000A3F1680202F1D000FFF723FF304F00242C
:10283000243FA7F13405A7F1680805F1680608EB05
:102840008400224690ED000A07EB840029A1BCEE2B
:10285000C00A10EE103A45F8243090ED000ABDEEA3
:10286000C00A10EE100A46F824000090002002F082
:10287000E1F8641C0D2CE2D3BDE8F88F70B51C4D57
:1028800000EB8003BC3DA5F1A00655F8202036F8EA
:10289000234006EB8303141B45F82040002203EB82
:1028A0004206768823F81260521CD2B2092AF6D367
:1028B0005982214445F820100A20B1FBF0F080B283
:1028C00070BD000000000000BD378635002474494B
:1028D000000002400004024000080240706C656184
:1028E0007365206F70656E205147534A200D0A00B2
:1028F00028020020693D25642C6B5F7533323D252D
:10290000642C20202020625F7533323D2564200D29
:102910000A000000F0B587B001210220FEF775FA29
:1029200001218803FEF78FFA4FF4604002240590DE
:102930008DF8184000268DF81A6003208DF81900D4
:10294000D64F01258DF81B5005A93846FEF73CF8F7
:1029500005220D213846FEF7ABF805220F21384637
:10296000FEF7A6F84FF44040ADF800004FF4827037
:10297000ADF80200A002ADF80400ADF808508010D8
:10298000ADF80A000820ADF80C00ADF806400720AD
:10299000C34CADF81000ADF80E6069462046FEF756
:1029A00041FB01212046FEF7D1FB07B0F0BD2DE928
:1029B000FC41044601210620FEF727FAA0880125E4
:1029C0008DF8045000268DF8066003278DF80570F9
:1029D00000908DF8075069462068FDF7F5FFA18843
:1029E0002068FEF756F8A0898DF804508DF806602F
:1029F0008DF8057000908DF807506946A068FDF7C6
:102A0000E3FFA189A068FEF744F8BDE8FC8170B53A
:102A10000D46044681880068FEF73DF8A04E02216D
:102A20003046FEF726FC0028F9D0294635463046C8
:102A3000FEF7F2FB02212846FEF71BFC0028F9D026
:102A400080212846FEF715FC0128F3D0052000F070
:102A5000EAF9A1882068BDE87040FEF71AB8012A9B
:102A600001D0FEF718B8FEF714B82DE9F04115466D
:102A70000E4607460022FFF7F2FF894C022120464E
:102A8000FEF7F7FB0028F9D029462046FEF7C4FBE5
:102A900080212046FEF7EDFB0128F9D0012000F04F
:102AA000C2F931463846BDE8F0410122D7E738B5D2
:102AB0000025044600950098401C00900A28FAD38F
:102AC000A189A068FDF7E7FF00950098401C0090E1
:102AD0006428FAD3A189A068BDE83840FDF7D9BFC2
:102AE000FDF7D9BFB5EEC00AF0EE040AF1EE10FA18
:102AF00002D29FED6C0A06E010EE100A6A49884285
:102B000001DDB0EE600A9FED691A20EE010A80EE49
:102B1000201ABCEEC10A10EE100A80B2704710B540
:102B2000FFF7F8FE6248FFF742FF61481030FFF7F9
:102B30003EFF5F482030FFF73AFF5D48BDE8104098
:102B4000303034E770B55B4E00242DED068B9FEDE1
:102B50005A8B9FED5B9B9FED5CAB554D083D7CB167
:102B6000012C22D0022C38D0032C4BD058A10020AD
:102B700001F060FF641C042CF1DBBDEC068B70BD22
:102B8000308802F03DFC53EC182B02F09DFA53EC18
:102B9000192B02F049FC53EC1A2B02F045FC02F011
:102BA000EBFB82B22A8056A113E0708802F028FC69
:102BB00053EC182B02F088FA53EC192B02F034FC7A
:102BC00053EC1A2B02F030FC02F0D6FB82B26A8082
:102BD0005BA1002001F02EFFCCE7B08802F010FCD2
:102BE00053EC182B02F070FA53EC192B02F01CFC7A
:102BF00053EC1A2B02F018FC02F0BEFB82B2AA8042
:102C00005FA1E6E7F08802F0FBFB53EC182B02F023
:102C10005BFA53EC192B02F007FC53EC1A2B02F071
:102C200003FC02F0A9FB82B2EA8065A1D1E720494A
:102C300010B50C390868401C086010F0030001F161
:102C400004010BD0012811D0022815D003281BD075
:102C5000BDE810401EA1002001F0ECBE14484988D8
:102C60001030FFF7D4FE1248103014E009881048E5
:102C7000FFF7CDFE0E480EE00D4889882030FFF7A3
:102C8000C6FE0B48203006E00948C9883030FFF7FF
:102C9000BEFE07483030BDE8104008E7000402409F
:102CA0000038004000000000000020400000804785
:102CB00024000020940000200000000000408F400D
:102CC000000000000000E03F000000008099D940B3
:102CD0005741524E494E47212121212121212020B7
:102CE000464154414C204552524F452C504C454191
:102CF000534520434845434B20434F44450D0A006C
:102D00002A2A2A2A2A2A2A2A096C696D69745F41AB
:102D100064353532345F446174615B484A4A4331FB
:102D20005F4445565F4E554D5D093D092564092AAE
:102D30002A2A2A2A2A2A2A2A2A2A2A2A2A0D0A005A
:102D40002A2A2A2A2A2A2A2A096C696D69745F416B
:102D500064353532345F446174615B484A4A4332BA
:102D60005F4445565F4E554D5D093D092564092A6E
:102D70002A2A2A2A2A2A2A2A2A2A2A2A2A0D0A001A
:102D80002A2A2A2A2A2A2A2A096C696D69745F412B
:102D900064353532345F446174615B42465F44455B
:102DA000565F4E554D5D093D092564092A2A2A2A98
:102DB0002A2A2A2A2A2A2A2A2A2A0D0A0000000058
:102DC0002A2A2A2A2A2A2A2A096C696D69745F41EB
:102DD00064353532345F446174615B57414F584A02
:102DE0005F4445565F4E554D5D093D092564092AEE
:102DF0002A2A2A2A2A2A2A2A2A2A2A2A2A0D0A009A
:102E000010B504466FF00400FDF77CFA2949E0088C
:102E100000EB40020870C2EBC0104FF6FF7202EAEE
:102E2000C000488010BD2349097848434FF0E02195
:102E3000486100238B61086940F00100086108695E
:102E4000C20701D0C003FAD5086920F0010008616B
:102E50008B6170471749498848434FF0E02148612A
:102E600000238B61086940F0010008610869C2070E
:102E700001D0C003FAD5086920F0010008618B6118
:102E8000704770B54FF40776B0FBF6F1CCB2B0FBEB
:102E9000F6F106FB110504E03046FFF7DBFF641E88
:102EA000E4B2002CF8D1002D03D02846BDE87040D4
:102EB000D0E770BD64000020704770B504464848F4
:102EC0000480051F40212846FFF7A5F80028F9D007
:102ED000204670BD2DE9F0418046012188B00846AA
:102EE000FDF793FF01214804FDF7ADFF3D4E07229A
:102EF00002213046FDF7DCFD072203213046FDF7B5
:102F0000D7FD02218DF814108DF8151000240C2522
:102F10008DF81640012704958DF8177004A93046E6
:102F2000FDF752FDADF80440ADF80640ADF808409D
:102F3000ADF80C402A4CCDF80080241FADF80A50A3
:102F400069462046FEF73FFF01212046FEF7ACFF11
:102F500040212046FFF766F8012240F22551204625
:102F6000FFF741F826208DF8180003208DF819008E
:102F70008DF81A008DF81B7006A8FDF782F908B0CD
:102F8000BDE8F08170B5164C40F22551241F204653
:102F9000FFF74BF800280ED02046FEF7AFFF124A8D
:102FA000C1B21088030406D444044FF0000306D5D0
:102FB0000A2901D0138070BD40F400400DE00D29B6
:102FC00009D0C0F30D04094D401C80B22955108072
:102FD000C728EFD870BD40F48040108070BD00005D
:102FE000044400400000024068000020AC020020C1
:102FF000704710B50446FDF737FA03212046FDF768
:1030000072FABDE81040FDF73BBA70B50C460546B4
:10301000FDF72AFA4FF480363046FDF759FC0028B8
:10302000FAD11020FDF754FC10B11020FDF759FC27
:103030002020FDF74DFC10B12020FDF752FC214669
:103040002846FDF728FBBDE87040FDF719BA2DE9C9
:10305000F04116460F00054628D0002E26D0FDF779
:1030600003FA00244FF4803819E04046FDF730FCA5
:103070000028FAD11020FDF72BFC10B11020FDF72D
:1030800030FC2020FDF724FC10B12020FDF729FCA6
:1030900057F824102846FDF7FEFA641C2D1DB4EBEA
:1030A000960FE2D3BDE8F041FDF7EAB9BDE8F08143
:1030B000A0F10061B1F5801F02D34FF0FF307047DF
:1030C0000068704730B5002914D0002A12D0374B61
:1030D00098420FD88418B4F1016F01D91A1A521C02
:1030E000002304E050F8234041F823405B1CB3EB7D
:1030F000920FF7D330BD4FF4A060FDF7BDF8A820C4
:10310000FFF77EFE40F2DC50FFF7BBFE28A1002057
:1031100001F090FC00F002FB00F03FFBFFF7FFFC2A
:10312000FFF7FCF800F062F900F0DAFAFFF711F9A6
:103130004FF4E130FFF7CEFE532140F2E730FEF7C7
:10314000A9FF00F05BFE42F2CF010920FEF7F0FF7D
:103150001FA1002001F06EFC00F059FE5820FFF77F
:1031600048FFFFF7E1FA284C342226492046FFF7B2
:103170006EFF254D3422343524492846FFF767FF7A
:10318000342223492046FFF79DFF21493422343160
:103190002846FFF797FF1FA1002001F04BFC25A157
:1031A000002001F047FC00F032FEFCE7FFFF0F08B3
:1031B0003C4459474C423E2073797374656D2069D5
:1031C0006E6974202E2E2E2E2E2E0D0A0000000069
:1031D0003C4459474C423E2053797374656D2069D5
:1031E0006E697420636F6D706C657465642C206506
:1031F0006E746572206C6F6F70202E2E2E2E2E2E08
:103200000D0A0000D001002000000E083802002046
:10321000740300206269616F2064696E6720454E07
:103220004421212121212121202020202020200D86
:103230000A000000796F752063616E20627265611B
:103240006B206F666620706F7765722121212121C6
:10325000212120202020200D0A0000007047FEE7D9
:10326000FEE7FEE7FEE770477047704770470000D3
:103270000CB50022544900920192086840F4803055
:1032800008604FF4A043086800F4003001900098F3
:10329000401C0090019810B900989842F3D108683A
:1032A000800334D50120019047484030026842F045
:1032B000805202604548026842F44042026042483F
:1032C000083002680260026842F40042026002684C
:1032D00042F4A0520260031F3D4A1A600A6842F09D
:1032E00080720A600A689201FCD53A4940F2057280
:1032F0000A60016821F003010160016841F00201E8
:1033000001600168C1F381010229FAD10CBD01926B
:103310000CBD314810B5016841F4700101602A48C4
:10332000016841F001010160274A00210832116063
:1033300002682A4B1A400260031D294A1A6002687B
:1033400022F48022026020480C300160FFF790FFD9
:1033500021494FF000608039086010BD70B51A4DEA
:10336000083528681F4B204910F00C0004D05E106F
:10337000042803D0082803D00B601BE00E6019E07E
:10338000114A121D1068C0F38054106800F03F000D
:1033900014B1B6FBF0F001E0B3FBF0F01368126873
:1033A000C3F388135843C2F30142521C5200B0FBCE
:1033B000F2F0086028680C4AC0F30310121D105C7C
:1033C0000A68C2400A6070BD0038024000700040C8
:1033D00008544007003C024088ED00E0FFFFF6FE85
:1033E000103000240024F400700000202DE9FC4778
:1033F00001210F20FDF709FD4FF480600024DFF864
:1034000000A300908DF804408DF8074069465046AF
:10341000FDF7DAFA1120DFF8EC82009069464046A9
:10342000FDF7D2FA1020DFF8E09200906946484696
:10343000FDF7CAFA01268DF804604FF490508DF81C
:103440000640032700908DF805708DF80740694607
:103450005046FDF7B9FA0825694640460095FDF744
:10346000B3FA694648460095FDF7AEFA8DF8046058
:1034700004208DF8064000908DF805708DF8074007
:103480006946A248FDF7A0FA2C026946504600940E
:10349000FDF79AFA2220009069464046FDF794FA1B
:1034A0002020009069464846FDF78EFA2146504696
:1034B000FDF7EFFA02214046FDF7EBFA20214046E6
:1034C000FDF7E7FA20214846FDF7E3FAA110504640
:1034D000FDF7E1FA61005046FDF7DDFA08214046AC
:1034E000FDF7D9FA08214846FDF7D5FABDE8FC8773
:1034F0002DE9F05FDFF818B2DFF818924FF00008FE
:103500009BF81C00A9F1100400F001015FEA010A18
:10351000C0F34007C0F38006C0F3C00511D14FF4DB
:1035200000617748FDF7B7FA0020401C3228FCDB29
:103530004FF400617248FDF7ACFAC4F80080C9F896
:1035400000807FB902216F48FDF7A5FA0020401CDA
:103550003228FCDB02216B48FDF79BFAC4F804809B
:10356000C9F804807EB920216648FDF794FA00204E
:10357000401C3228FCDB20216248FDF78AFAC4F89F
:103580000880C9F808807DB920215F48FDF783FADB
:103590000020401C3228FCDB20215B48FDF779FA33
:1035A000C4F80C80C9F80C804FF00108BAF1000F84
:1035B00008D0206830B94FF400615148FDF76BFA2C
:1035C000C4F800803FB1606828B902214D48FDF77A
:1035D00062FAC4F804803EB1A06828B920214948A5
:1035E000FDF759FAC4F808805DB1E06848B92021B8
:1035F0004548FDF750FAC4F80C80FEF78EFD4649A9
:1036000048609BF81C005C46C0073D484FF40071C1
:1036100002D0FDF73EFA01E0FDF73DFA207F4FF4BE
:1036200080518007364802D5FDF733FA01E0FDF7F7
:1036300032FA207F4FF008014007324802D5FDF7EB
:1036400028FA01E0FDF727FA207F4FF00801000774
:103650002D4803D5BDE8F05FFDF71BBABDE8F05F6C
:10366000FDF719BA70B52B4D04462868A04204D95D
:103670004FF400612248FDF70CFA6868214EA04221
:1036800003D902213046FDF704FAA868A04203D905
:1036900020213046FDF7FDF9E868A0420AD9202133
:1036A0001948FDF7F6F91C4C6068FEF73AFDA0607A
:1036B0000120E06070BD184B10B50020144A103393
:1036C00000EB400102EB4101098923F81010401C76
:1036D0000428F5DBFFF736FABDE81040FFF7A7BA7C
:1036E00010B50D4C00202178002908D0401C04287A
:1036F000FCDBFFF727FAFFF79AFA0020207010BDD5
:10370000000002400004024000080240000C024099
:103710001E040020EC030020840000207CB5012161
:103720000846FDF772FBE020009002208DF80400AF
:1037300000248DF806400325FF4E8DF805508DF8C6
:10374000074069463046FDF73FF910200090012000
:103750008DF804008DF806408DF805508DF807406F
:1037600069463046FDF730F9052204213046FDF761
:103770009FF9052211463046FDF79AF905220621E8
:103780003046FDF795F9052207213046FDF790F9FF
:1037900010213046FDF77DF97CBD10B5012186B0C2
:1037A0000803FDF75AFB0020ADF800004FF48271CA
:1037B000ADF802104FF40061ADF804100221ADF82D
:1037C00006100121ADF808104902ADF80A101821C1
:1037D000ADF80C10ADF80E000720D84CADF8100075
:1037E00069462046FDF71EFC01212046FDF7AEFC90
:1037F00006B010BD70B5D14C054602212046FDF73C
:1038000038FD0028F9D029462046FDF705FD0121A5
:103810002046FDF72EFD0028F9D02046BDE8704077
:10382000FDF7F8BC2DE9F041C54845F2AA51002446
:1038300001801A21C34F4180804604EB440604F105
:10384000090082B208EB46053146AA80BEA001F00D
:1038500063F937F82400E88082B2711CBAA001F045
:103860005BF907EB84004088288182B2B11CB6A0C6
:1038700001F052F9641C042CDFDBAF4E4FF40071F1
:103880003046FDF7FCF8B8F81C10444660F3000120
:10389000A8F81C10B1143046FDF7F1F80146A08BD2
:1038A000B84D61F34100A08308212846FDF7E7F8F1
:1038B000A18BB54F60F38201A18308213846FDF743
:1038C000DEF8A18B60F3C301A18329153046FDF713
:1038D000CCF80028A08B3CD020F48070A08301217C
:1038E0002846FDF7C2F80028A08B35D020F40070E0
:1038F000A08310212846FDF7B8F80028A08B2ED011
:1039000020F48060A08310213846FDF7AEF800282F
:10391000A08B27D020F40061A1839CA001F0FCF8CB
:1039200020886188084481B2002004EB4002401CDA
:1039300092880C28114489B2F7DBA08B084481B22D
:10394000E1839BA001F0E8F84AF6BC402084BDE882
:10395000F08140F48070C1E740F40070C8E740F4A3
:103960008060CFE740F40061D6E72DE9F041724F67
:103970000024734D10213846FDF78DF82E4604E0E3
:1039800035F81400FFF736FF641C7088801CA042D5
:10399000F6DC3846BDE8F0411021FDF77AB82DE994
:1039A000F05F0024DFF89891DFF88CA1A04626464E
:1039B00045F2AA5B09F12209102155465046FDF750
:1039C0006AF85846FFF716FF0220FFF713FF4AF682
:1039D000DE30FFF70FFF4FF4C570FFF70BFF4AF61D
:1039E000BC40FFF707FF10212846FDF752F80120E1
:1039F000FFF719FA10212846FDF74DF847F2AA7093
:103A0000FFF7F8FE05460346224675A1002001F0A7
:103A100011F82A46214672A001F07EF84C46A9F81A
:103A200000500020FFF7E6FE6080024671A10020F2
:103A300001F000F861886FA001F06EF80027A14640
:103A400007EB47040020FFF7D5FE09EB44050346CA
:103A5000A88022466FA1002000F0ECFFAA88214632
:103A60006CA001F059F80020FFF7C4FEE88003467F
:103A7000621C68A1002000F0DDFFEA88611C65A0DF
:103A800001F04AF80020FFF7B5FE28810346A21C8A
:103A900060A1002000F0CEFF2A89A11C5DA001F0EA
:103AA0003BF87F1C042FCBDB0020FFF7A3FEA9F817
:103AB0001C0002464D4660A1002000F0BBFFA98B10
:103AC0005DA001F029F80020FFF794FEE88302468C
:103AD00063A1002000F0AEFFE98B61A001F01CF8AB
:103AE0000020FFF787FE2884024663A1002000F033
:103AF000A1FF298C60A001F00FF8288869880024B4
:103B0000084480B205EB4401641C89880C2C0844ED
:103B100080B2F7DBA98BEA8B084481B28A420AD1D2
:103B200049B1A1F57F40FF3805D04FF0010859A0F9
:103B300000F0F2FFC1E0BFE00000024000300140B1
:103B4000FC030020BC0000202A2A2A2A2A2A2A2A2A
:103B50002A73656E646D6573736167652E6D657339
:103B600073616765446174615B25785D3D3D2564E3
:103B70002A2A2A2A2A2A2A2A2A2A2A2A2A2A2A0DC2
:103B80000A000000000402400008024073656E64F1
:103B90006D6573736167652E737475416E647761CB
:103BA000726E696E672E7261773D3D25780D0A0051
:103BB0002A2A2A2A2A2A2A2A2A73656E646D65739C
:103BC000736167652E73756D3D3D25782A2A2A2A13
:103BD0002A2A2A2A2A2A2A2A2A2A2A0D0A00000000
:103BE0007370695F686561645B25645D3D25780D70
:103BF0000A0000007265636976656D6573736167BD
:103C0000652E646174615F6C656E3D3D25780D0ABB
:103C1000000000007265636976656D6573736167A6
:103C2000652E6D657373616765446174615B2564BE
:103C30005D3D3D25780D0A007265636976656D65A9
:103C400073736167652E737475416E647761726E0C
:103C5000696E672E7261773D3D25780D0A00000080
:103C60007265636976656D6573736167652E7375DB
:103C70006D3D3D25780D0A007265636976656D6559
:103C800073736167652E64617461456E643D3D25A3
:103C9000780D0A0073756D3D307825782C72656358
:103CA0006976656D6573736167652E73756D3D3DEE
:103CB00025782C0D0A000000761C032E4FF0100111
:103CC000504608D0FCF7E5FEB8F1000F3FF474AEA3
:103CD0004046BDE8F09FFCF7DCFEF9E7304948605C
:103CE000002070472DE9F0411646DDE906581F46D1
:103CF000040002D00DB12A4809E04FF0FF30BDE8C2
:103D0000F081A14202D12168016003E00846016808
:103D10000029F6D1224840688047831904F10C023B
:103D20007941A36082E822011D4802684AB1D2E9C4
:103D300002565D1B71EB060506D22260046000206E
:103D4000DDE700212160F9E71046EEE7144A05E0BF
:103D5000814202D10068106003E00A461168002920
:103D6000F6D10020704770B50D4D2C6813E06868DF
:103D70008047D4E90223801A994104D268688047B9
:103D8000A168081A70BD20682860226912B1204617
:103D9000616990472468002CE9D1002070BD0000C3
:103DA0009C000020FEF7B9B91CB5DDE90414CDE98B
:103DB0000014FFF797FF1CBDFFF7C8BF1CB51549DE
:103DC0001548CDE900014FF4FA7200230846FFF7C9
:103DD000EBFF1CBD114910B50868401C0860C10705
:103DE0000F484FF0040106D0FCF755FEFEF701FA2C
:103DF000BDE81040E2E7FCF74CFEF7E710B5AFF284
:103E00005B00FFF76BFFFFF7D9FF002010BDFFF746
:103E1000AABF000040040020D53D0008A4000020F7
:103E2000000C024010B5F84CA821204601F02EF8F5
:103E3000032020616061F5A0A06104F1A800E061A9
:103E40004FF4806020620020A0626062E062EFA117
:103E5000216604F5956161661021A1662067E06620
:103E60006067ED49C0F10F028A5C2254401C1028A3
:103E7000F8D310BD2DE9F047C468174689460546BA
:103E80004FF000082869A04201D9061B02E0A9688A
:103E9000201A0E1AA868761E001BB04200D80646EB
:103EA000BE4200D33E46686832462044494600F090
:103EB000A8FFA868BF1B3444B044B144A04200D15D
:103EC0000024EC60002FDDD14046BDE8F0872DE9ED
:103ED000F04104468846D4E90207C51BE1686068E2
:103EE00016460844B54206D9414600F08AFFB81983
:103EF000E060BDE8F0812A46414600F082FF761B73
:103F000008EB05013246606800F07BFFE660F0E7F1
:103F10002DE9F0470F46BC49044616460878532859
:103F200001D0FFF77FFFB84904EB440001EBC00567
:103F3000B846AC6AD5F82490002718354C4511D9FD
:103F4000A868071BB74200D3374668683A4601198C
:103F5000404600F056FFA868F61B3C44B844A04217
:103F600000D10024A9EB0400B04200D206463EB1C5
:103F7000686832460119404600F043FF3744344434
:103F800007B12C613846A0E72DE9F0470F469E495E
:103F9000044616460878532801D0FFF743FF9A4994
:103FA00004EB440001EBC005B846D5E91B9400279B
:103FB00060354C4511D9A868071BB74200D3374676
:103FC00068683A460119404600F01BFFA868F61BD6
:103FD0003C44B844A04200D10024A9EB0400B04204
:103FE00000D206463EB1686832460119404600F0EC
:103FF00008FF3744344407B12C61384665E710B5F3
:10400000EFF31184202383F31188FFF781FFE1B2DE
:1040100081F3118810BD10B5EFF31184202383F3D1
:104020001188FFF7B1FFE1B281F3118810BD2DE9CE
:10403000F0410F46744900EB400001EBC004154607
:10404000D4E909011834884202D1A068401E08E072
:10405000216988422169A1EB0000F7D3A168401EC5
:10406000084485420BD92169281A08442061A068B8
:1040700002E02169091A216121698142F9D2D4E95A
:104080000201461A4FF00008E1686068AE42084439
:1040900007D92A46394600F0B4FEE0682844E060BB
:1040A00027E73246394600F0ACFE3744C4F80C80AE
:1040B000AD1BA668A6F10106E6D11AE72DE9F0418D
:1040C0000F46514900EB400001EBC0041646A16ABF
:1040D000656AE06918342844A94218D8A268531BBD
:1040E0005A1EB24201D3324615E01144B14219D3EF
:1040F0001D461A46394600F084FE2B46761B04D036
:10410000F9183246606800F07CFEE66008E0491B62
:10411000491EB14206D3394600F073FEA819E0608B
:104120000120E6E60020E4E670B50E46364900EBD5
:10413000400001EBC0051446686F603520B10128CE
:104140000FD0022805D113E0284600F020FBA04242
:1041500001D2002411E0224631462846FFF7B7FE7F
:104160000BE0284600F013FBA042F4D20446F2E72D
:1041700031462846FFF77EFE0446204670BD70B5E6
:104180000E46214900EB400001EBC0051446E86AE9
:10419000183520B101280FD0022805D113E0284698
:1041A00000F0F5FAA04201D2002411E02246314687
:1041B0002846FFF78CFE0BE0284600F0E8FAA04204
:1041C000F4D20446F2E731462846FFF753FE044690
:1041D000204670BD2DE9F04107460B4815460E46B6
:1041E0000078532801D0FFF71DFEEFF31184202043
:1041F00080F311882A4631463846FFF795FFE1B231
:1042000081F3118875E60000580400205465726D32
:10421000696E616C000000003E5600082DE9F04117
:104220000746FB4815460E460078532801D0FFF795
:10423000F9FDEFF31184202080F311882A463146DE
:104240003846FFF79CFFE1B281F3118851E670B563
:1042500005460C46084600F0B5FD024621462846B4
:10426000BDE87040DAE7EA4A00EB400010B502EB27
:10427000C000426A046A13461830521C944200D1AE
:1042800000220469944204D04468E154C2600120D1
:1042900010BD002010BD70B50546DD480C46007805
:1042A000532801D0FFF7BEFDEFF31181202080F3EA
:1042B0001188D74A05EB450002EBC000426A056A47
:1042C00013461830521C954200D1002205699542D0
:1042D00004D04568EC54C260012000E00020C9B25F
:1042E00081F3118870BD70B50546C9480C46007849
:1042F000532801D0FFF796FDEFF31183202080F3C0
:104300001188C34905EB450001EBC000426A016A10
:1043100015461830521C914200D1002241690229F1
:1043200002D101699142FCD00169914204D04168F7
:104330004C55C260012000E00020D9B281F3118801
:1043400070BD08B5012269460020FFF764FE012810
:1043500002D04FF0FF3008BD9DF8000008BD10B539
:10436000FFF7EFFF0028FBDB10BDA94810B5007870
:10437000532801D0FFF756FDA548016FC06E884253
:1043800001D0012010BD002010BDA14900EB40006C
:1043900001EBC000C16E006F081A70479C4900EB2A
:1043A000400001EBC000816A406A401A70472DE965
:1043B000F041074696481C46154600780E4653289D
:1043C00001D0FFF72FFDEFF31182202080F3118839
:1043D0008F49002000EB400301EBC3035B6E1BB170
:1043E0004B69401C8342F5DC4B6983420BDD00EBDB
:1043F000400301EBC3010F664E668D6600230B6719
:10440000CB664C6701E04FF0FF30D1B281F31188E9
:104410006FE52DE9F04107467D481C4615460078BA
:104420000E46532801D0FFF7FDFCEFF31182202048
:1044300080F311887649002000EB400301EBC303B1
:10444000DB691BB10B69401C8342F5DC0B698342BD
:104450000BDD00EB400301EBC3018F61CE610D6208
:1044600000238B624B62CC6201E04FF0FF30D1B28F
:1044700081F311883DE52DE9F04104466448DDF8FB
:1044800018801D46007816460F46532801D0FFF7C6
:10449000C9FC5F48032C17D2EFF31181202282F36D
:1044A000118804EB440200EBC20018302CB1076005
:1044B0004660856000220261C260C0F81480C8B204
:1044C00080F31188002014E54FF0FF3011E52DE94D
:1044D000F04104464E48DDF818801D460078164627
:1044E0000F46532801D0FFF79DFC4948032C17D2F3
:1044F000EFF31181202282F3118804EB440200EBD8
:10450000C20060302CB10760466085600022026105
:10451000C260C0F81480C8B280F311880020E8E4BB
:104520004FF0FF30E5E470B5044639480D46007899
:10453000532801D0FFF776FC3548032C0ED2EFF359
:104540001182202181F3118804EB440100EBC100AA
:104550008561D0B280F31188002070BD4FF0FF302C
:1045600070BD70B504462A480D460078532801D026
:10457000FFF758FC2648032C0ED2EFF311822021BE
:1045800081F3118804EB440100EBC1000566D0B251
:1045900080F31188002070BD4FF0FF3070BD70B502
:1045A00004461B480D460078532801D0FFF73AFC1B
:1045B0001748032C0ED2EFF31182202181F31188CA
:1045C00004EB440100EBC100C562D0B280F3118856
:1045D000002070BD4FF0FF3070BD70B504460C4830
:1045E0000D460078532801D0FFF71CFC0848032C27
:1045F00010D2EFF31182202181F3118804EB4401E2
:1046000000EBC1004567D0B280F31188002070BD77
:10461000580400204FF0FF30F9E703E42DE9F84398
:10462000044660480078532801D0FFF7FBFBFF20C9
:1046300000258DF800004FF0FF39102C2BD25A487E
:10464000584E005D8DF801001836EFF311872020D9
:1046500080F31188307DDFF8548100F003000228D8
:104660000CD0304600F093F802280FD388F80040B1
:10467000022269463046FFF72AFC08E088F800402D
:10468000022269463046FFF7F5FB00E04D46F8B2DE
:1046900080F3118800E04D462846BDE8F8832DE9F7
:1046A000F05F82463F488B460078532801D0FFF7E1
:1046B000B9FB4FF0FF37BAF1100F40D2DFF8E490AA
:1046C000584609F1180900F07DFB0546EFF3118803
:1046D000202080F31188484600F059F8044699F8E4
:1046E0001400324E10F0030004D0012807D0022835
:1046F00007D11FE0281D84421CD2002415E0042CA1
:1047000001D23C4611E05146484600F033F8201FE4
:10471000854200D305462A4659464846FFF7AAFB7C
:1047200004463178484600F025F808F0FF0080F391
:10473000118805E05146484600F01CF8EBE73C467E
:104740002046BDE8F09F174900EB400001EBC00098
:10475000183000F01CB8134900EB400001EBC00218
:10476000916A506A814201D8401A7047126A401A11
:10477000101A704708B5FF228DF800200A4A515CD4
:104780008DF8011002226946FFF774FB08BD02692B
:10479000C1688A4203D88068401A104400E0501A69
:1047A000401E7047580400202E560008A800002024
:1047B00010B50446D4E90130421C934205D3236866
:1047C0001954A260E068401CE060D4E90102824212
:1047D00009D121682069FFF721FDA168884203D033
:1047E0004FF0FF30E06010BD0020A06010BD2DE94B
:1047F000F84F8246DDE90A4B01259946174688465F
:1048000008462E4602E0B0FBF7F0761CB842FAD21A
:10481000B14500D94E465FEACB7017D1B4B15FEA1B
:104820008B7002D5B9F1000F02D0202000900BE070
:104830003020FBE75046641E0099FFF7B9FFDAF815
:104840000C00002835DB0CB1A642F3D3DAF80C00DB
:1048500000282EDBB9F1010F02D9A9F1010903E00B
:10486000B8FBF5F0B84201D37D43F3E7DFF8A0923F
:10487000B8FBF5F000FB158819F800105046FFF75B
:1048800097FFDAF80C00002803DBB5FBF7F5002DE5
:10489000EED15FEACB700CD0002C0AD0A64208D231
:1048A00020215046641EFFF783FFDAF80C00002831
:1048B000F2DABDE8F88F2DE9F04198B0804607A8FC
:1048C000029040200026CDE90306CDE90568154693
:1048D0000C4614F8011B00296FD0252908D002A826
:1048E000FFF766FF05980028F3DA18B0BDE8F081FD
:1048F00000200122217823291ED02B2919D02D290F
:1049000002D0302908D102E040F0010001E040F07F
:104910000200641C002AEDD100222178A1F13003AD
:104920000A2B0CD202EB820201EB4202303A641CE9
:10493000F3E740F00400ECE740F00800E9E700236B
:10494000CFB22E2F0BD114F8011FA1F130070A2F7F
:1049500005D203EB830301EB4303303BF3E76C2900
:104960000DD068290BD070294AD00BDC252914D032
:1049700058292BD063290CD0642911D112E014F8E6
:10498000011FECE773292CD0752917D0782907D19E
:104990001CE02868011D2960017802A8FFF708FFC4
:1049A000641C9FE729680F1D2F600968CDE900206E
:1049B0000A2202A800F049F8F2E72BE029680F1D4F
:1049C0002F600968CDE900200A2206E029680F1D42
:1049D0002F600968CDE90020102202A8FFF707FF29
:1049E000DEE72868011D2960076817F8011B002908
:1049F000D6D002A8FFF7DCFE05980028F5DACFE74D
:104A00002868011D296001680820CDE900060346D9
:104A10001022E2E7059800287FF767AF049820B1DD
:104A2000024607A94046FFF7F9FBDDE904100844F8
:104A300005905AE70FB408B504A900916A46039996
:104A4000FFF739FF01B05DF814FB2DE9FC5F0E00A4
:104A50008046DDE90C47C6F1000099469246834640
:104A600000D40846012502E090FBFAF06D1C504589
:104A7000FADAA94500D94D4624B1002E01DB7807AA
:104A800000D5641EB80702D5B9F1000F0FD0F807A2
:104A90000DD164B1A5420AD220214046641EFFF721
:104AA00087FED8F80C000028F3DABDE8FC9FD8F8A0
:104AB0000C000028F9DB002E02DA5E462D2102E010
:104AC000780707D52B214046FFF772FED8F80C0077
:104AD0000028EADB07F0030002280FD1B9F1000F2C
:104AE0000CD15CB1A54209D230214046641EFFF7CB
:104AF0005FFED8F80C000028F3DAD6E7CDE90047CE
:104B00004B46524631464046FFF771FECDE7000066
:104B10004F560008704700000FB4044910B503AAAF
:104B2000029800F04FFA10BC5DF814FB6C000020F6
:104B30002DE9F0410646002410687529314616A576
:104B400010D0AFF30080002802DA404213A507E03E
:104B500031688A0701D512A502E0490704D511A5DD
:104B6000012401E0AFF3008000210A2206F12407AE
:104B700009E0B0FBF2FCB0FBF2F302FB1C003030AA
:104B800078541846491C0028F3D123462A4630465B
:104B9000BDE8F04100F0A5B9000000002D000000C4
:104BA0002B00000020000000F0B40D46018809052C
:104BB00002D5214C7C4402E01F4C7C440E34002181
:104BC00000F1240608E002F00F071209E75D42EA4F
:104BD00003721B097754491C52EA0307F3D1027888
:104BE0000023120704D5702D06D009B10223113419
:104BF0002246F0BC00F075B901231034F8E770B517
:104C000004460D4621461068AFF30080024629464F
:104C10002046BDE870400023C6E7D21D22F00703FE
:104C2000D3E90023C0E70368126843F02003036060
:104C30000823C3610023B7E7A70A00002DE9F05F4E
:104C4000894604464FF0000ADFF874B1FB44C0F80F
:104C500020A02046E1688847002874D0252806D087
:104C6000D4E901219047206A401C2062F1E7002628
:104C70005F462046E16888472028054607DB312D3E
:104C800005D2781910F8200C08B10643F1E7B007F7
:104C900001D526F00406C4F81CA00027C4F818A00B
:104CA0002A2D09D0284600F007FA38B304EB87080C
:104CB000303DC8F8185019E059F8041B204604EBA1
:104CC00087029161E1688847012F054618D1E069A4
:104CD000002820DA26F020061DE0D8F8180000EBA6
:104CE000800005EB40003038C8F818002046E16825
:104CF0008847054600F0E0F90028EED1012F0AD0E0
:104D00002E2D08D12046E16888477F1C0546022FDA
:104D100046F02006C4DBA069002803DA404246F0D2
:104D20000106A061F00701D026F010066C2D0BD013
:104D3000682D09D04C2D39D06A2D35D0742D35D041
:104D40007A2D33D016E038E0E1682F4620468847B8
:104D5000B842054609D16C2F26D04FF48060E16837
:104D6000064320468847054604E06C2F1AD04FF4CE
:104D7000807006430DB3A5F14100192802D82035F3
:104D800046F400664A462946204626604E46FBF712
:104D900035FA80B101280BD0F61D26F0070000F18E
:104DA000080956E74020E4E78020D8E70020D6E74E
:104DB00006F104094DE7284652E7206ABDE8F09F56
:104DC000370A000010B5431C02E010F8011B71B156
:104DD0008107FAD14FF0013202C88C1A8C4314EAD1
:104DE000C211F9D0C01A0A0603D0C01E10BDC01AE5
:104DF00010BD0A0401D0801E10BD0902FCD0401E67
:104E000010BD032A40F2308010F0030C00F0158032
:104E100011F8013BBCF1020F624498BF11F801CBBD
:104E200000F8013B38BF11F8013BA2F1040298BF22
:104E300000F801CB38BF00F8013B11F0030300F08C
:104E4000D380083AC0F0088051F8043B083A51F882
:104E500004CBA0E80810F5E7121D5CBF51F8043B35
:104E600040F8043BAFF30080D20724BF11F8013BA8
:104E700011F801CB48BF11F8012B24BF00F8013B0A
:104E800000F801CB48BF00F8012B70474FF000023B
:104E900000B5134694469646203922BFA0E80C5030
:104EA000A0E80C50B1F12001BFF4F7AF090728BF0B
:104EB000A0E80C5048BF0CC05DF804EB890028BF87
:104EC00040F8042B08BF704748BF20F8022B11F0B0
:104ED000804F18BF00F8012B70477047704770472C
:104EE00070472DE9F0470D4699469246044600F179
:104EF00024080168880604D5E06921F010012160CA
:104F000000E00120A84201DD471B00E00027A16965
:104F10007A1902EB0900081AA0612078C00602D4B1
:104F20002046AFF30080002608E0D4E901211AF8FA
:104F300006009047206A401C761C20624E45F4DB38
:104F40002078C0060AD52046AFF3008006E0D4E9F9
:104F5000012130209047206A401C2062381EA7F1B2
:104F60000107F4DC07E0D4E9012118F805009047B7
:104F7000206A401C2062281EA5F10105F3DC2046B2
:104F8000AFF300802078000602D50220BDE8F0874C
:104F90000120FBE701694A1C02610878704700B5EF
:104FA0008FB0CDE901310021059105497944CDE962
:104FB000031011466846FFF741FE0FB000BD000028
:104FC000E5FFFFFF074B70B50D467B44FFF7E7FF9A
:104FD0000446284600F03AF810B14FF0FF3070BD9B
:104FE000204670BDEDDEFFFF10B5203AC0F00B800B
:104FF000B1E81850203AA0E81850B1E81850A0E8DD
:105000001850BFF4F5AF5FEA027C24BFB1E8185036
:10501000A0E8185044BF18C918C0BDE810405FEAA6
:10502000827C24BF51F8043B40F8043B08BF704722
:10503000D20728BF31F8023B48BF11F8012B28BF27
:1050400020F8023B48BF00F8012B7047007B00F0BE
:1050500080007047754600F02BF8AE4605006946A3
:10506000534620F00700854618B020B5FBF7F2F84C
:10507000BDE820404FF000064FF000074FF0000859
:105080004FF0000B21F00701AC46ACE8C009ACE8DA
:10509000C009ACE8C009ACE8C0098D46704710B53E
:1050A0000446AFF300802046BDE81040FBF7BDB8D2
:1050B000004870471009002030380A2801D201202A
:1050C00070470020704700002DE9C04130B4DFF880
:1050D000A0C23CEA111418BF3CEA131400F0EC80A3
:1050E00081EA03051CEA111444EAD57418BF1CEACE
:1050F000131500F0C780A4EB05044FF0004545EA06
:10510000C12145EAC32341EA505143EA525304F115
:105110007F74994204F500344FEAC0204FEAC2225E
:1051200008BF904200F09C804FEA13650FF24016D2
:10513000765D4FEA134506FB05F7C7F1807706FB5E
:1051400007F74FEAD737A7FB03687642C8F58038E0
:10515000A7FB06CE38BFA8F1010807FB08E64FF011
:10516000000EA6FB028CE6FB03CEDCF1000CCEF1B8
:10517000004E38BFAEF1010EA6FB0C584FF00007F1
:105180004FF00005E6FB0E87A1FB08C6A0FB07CE8B
:1051900016EB0E0645F10005E1FB076515F1E04E43
:1051A0007EBFA4F580345FEA46066D4116F18007A4
:1051B00045F100054FEA17274FEA066647EA0567FB
:1051C000A6F1DE46B6F1805F4FEA15251FD93846B5
:1051D00024F0010C05EBC471BCF1FE6F01EB0C1166
:1051E00002D8F0BCBDE8008124425CBF01F5801EFE
:1051F0009EEAC47F02D4F0BCBDE80081244238D4CA
:10520000F0BCA1F1C041BDE8004100F005BA4FEA91
:10521000D22242EA43524FEAD323A7FB02864FEA47
:10522000D02040EA415007FB03661EEA0E0F4FEA0A
:10523000D12105FB026658BFA6EB0056B6EB00561F
:105240004FEA520E4EEAC37E18EB0E0E56EB530E8B
:10525000BDD518EB02085E417F1C55F10005B6E78D
:105260004FF480154FF000074FF000064FF0000894
:10527000ADE7F0BC4FF0000001F1C04101F000418A
:10528000BDE8008111EA0C1F0CEA131500D00CE0F8
:1052900013EA0C1F00F025804FF00000F0BC81EAFB
:1052A000030101F00041BDE80081F0BCBDE8004110
:1052B00081EA030100F0B0B9F0BCBDE8004170B56F
:1052C00000F05CF9097EFC3E00F007B881EA0301BA
:1052D0004FF0000001F00041704781EA030100F047
:1052E0009BB9F0BCBDE800414FF000002149704778
:1052F000FFFDFBF9F7F5F4F2F0EEEDEBE9E8E6E49B
:10530000E3E1E0DEDDDBDAD8D7D5D4D3D1D0CFCD21
:10531000CCCBCAC8C7C6C5C4C2C1C0BFBEBDBCBB5A
:10532000BAB9B8B7B6B5B4B3B2B1B0AFAEADACAB55
:10533000AAA9A8A8A7A6A5A4A3A3A2A1A09F9F9E2F
:105340009D9C9C9B9A9999989797969595949393E1
:10535000929191908F8F8E8E8D8C8C8B8B8A898978
:1053600088888787868585848483838282818180FB
:105370000000FF070000F87F4FEA1153A3F5806398
:10538000D3F11E03A8BFD3F1200C08DB4FF000427D
:1053900042EAC12252EA505232FA03F070470942FF
:1053A0000BD4102BC4BF0020704703F5787CBCF1F0
:1053B000FF3F05D04FF0FF3070474FF000007047BF
:1053C00070B500F0DBF800BF4992248000207047E0
:1053D000F0E710F0004248BF4042B0FA80F310FA04
:1053E00003F10AD0C3F11D0303F580634FEA415076
:1053F00002EB035202EBD12170474FF000007047DF
:10540000B0FA80F310FA03F10AD0C3F11D0303F5DB
:1054100080634FEA41504FEA035202EBD1217047BB
:105420004FF0000070470000DFF848C170B51CEA7B
:10543000111E1EBF1CEA13159EEA0C0F95EA0C0FF5
:1054400000F06F8081EA030423EA4C134EEAD47E15
:1054500021EA4C1141F4801143F48013AE44A1FBC6
:10546000024CA0FB0365AEF17F7E361955EB0C05AF
:10547000A1FB034C4CF10003A0FB021C16EB0C0635
:10548000654153F10003094218BF46F0010613F4C9
:10549000007F0BD14FEA03314FEA0530340341EA74
:1054A000155140EA16506FF003020AE04FEAC3219B
:1054B0004FEAC520F40241EA555140EA56506FF0D8
:1054C000020202EB2E4201EB025585EACE710AD0B0
:1054D0005FEA440C18BF24F0004450F1000041F191
:1054E000000120EAD47040F2FE7C624500D270BD1B
:1054F000A84214BF4FF080444FF04044002E08BF34
:105500000024BEF1806FA8BFA1F1C041BDE870408A
:1055100080F282804FF0000001F1C04101F00041B3
:1055200070479EEA0C0F0CEA131518BF95EA0C0F92
:1055300006D04FF0000081EA030E0EF0004170BD6E
:1055400000F01CF88900013E00F007B800F009B82F
:105550004FEA430C5FEA5C5C08D081EA030100F08B
:105560005BB84FEA410C5FEA5C5CF6D14FF000009B
:10557000014970470000FF070000F87F0EF1020E9E
:105580002EF0030E5EF8046B364205D4012A43EB7D
:10559000030515F5001F12D8012841EB010C1CF57D
:1055A000001F0CD80ED14FEAD17C15F5001F0CEB73
:1055B0004C0C0CF1020C08BF4CEBD37C04E04FF018
:1055C000080C01E04FEAD37C0CEB4C0526FA05F6FB
:1055D00006F00706B6F1040C06D20EEB860CBDE809
:1055E00070404CF0010C6047DFE80CF0090B020240
:1055F0004FF000414FF00000A1F5002170BD1946A9
:105600001046012851EB010418BFD4F5001484BFE3
:10561000002001F0004170BD0808A0F500114FEA1C
:10562000310170474FF04070E1EE100A70473031A1
:105630003233343536373839414243444546000029
:105640000000000054545220524547474553003053
:1056500031323334353637383941424344454630A8
:105660003132333435363738394142434445464088
:10567000305800303132333435363738396162636F
:1056800064656640307800040000080000000000F7
:105690000000020001000010B856000800000020C1
:1056A000AC000000C401000864570008AC000020F2
:1056B000C4270000E001000800000000010203040C
:1056C00001020304060708090000000000000000B2
:1056D0000000000000000000000000000004024084
:1056E0000010000000040240000800000008024012
:1056F0000100000000040240000400000008024015
:105700000200000000040240000200000008024005
:10571000040000000004024000010000000000003E
:105720000000000000000000007A030A00000000F2
:105730000000000001020304060708090100000040
:10574000000000000000000000000000AC0DAC0DE7
:10575000E803DC050000000000000000000000007D
:045760000000000045
:040000050800018965
:00000001FF
