:020000040800F2
:1000000030340020790200083537000837370008FF
:10001000393700083B3700083D3700080000000072
:100020000000000000000000000000003F37000852
:10003000413700080000000043370008453700083A
:10004000930200089302000893020008930200083C
:10005000930200089302000883220008930200081C
:10006000930200089302000893020008930200081C
:10007000930200089302000893020008930200080C
:1000800093020008930200089302000893020008FC
:1000900093020008930200089302000893020008EC
:1000A00093020008930200089302000893020008DC
:1000B000A71F0008412000089302000893020008CF
:1000C00093020008930200089302000893020008BC
:1000D0009302000893020008C1340008930200084C
:1000E000930200089302000893020008930200089C
:1000F000930200089302000893020008930200088C
:10010000930200089302000893020008930200087B
:10011000930200089302000893020008930200086B
:10012000930200089302000893020008930200085B
:10013000930200089302000893020008930200084B
:10014000930200089302000893020008930200083B
:10015000930200089302000893020008930200082B
:10016000930200089302000893020008930200081B
:10017000930200089302000893020008930200080B
:10018000930200089302000800F002F800F064F8FF
:100190000AA090E8000C82448344AAF10107DA45E2
:1001A00001D100F059F8AFF2090EBAE80F0013F0D0
:1001B000010F18BFFB1A43F001031847FC5C000055
:1001C0001C5D00000A444FF0000C10F8013B13F0D6
:1001D000070408BF10F8014B1D1108BF10F8015BA0
:1001E000641E05D010F8016B641E01F8016BF9D193
:1001F00013F0080F1EBF10F8014BAD1C0C1B09D1EA
:100200006D1E58BF01F801CBFAD505E014F8016B5B
:1002100001F8016B6D1EF9D59142D6D370470000ED
:100220000023002400250026103A28BF78C1FBD8FF
:10023000520728BF30C148BF0B607047642905F0E2
:100240003D80782905F0A180002070471FB505F09A
:10025000F3FD1FBD10B510BD05F0C2FA1146FFF742
:10026000F5FF03F07CF905F0E0FA03B4FFF7F2FFC5
:1002700003BC03F0BFF80000094880470948004765
:10028000FEE7FEE7FEE7FEE7FEE7FEE7FEE7FEE746
:10029000FEE7FEE704480549054A064B70470000A3
:1002A000EB370008890100083015002030340020A9
:1002B00030240020302400202849084328490860C1
:1002C000704730B50F23C27801780125FAB1244A6E
:1002D000126801F1E02102F4E062C2F5E062C2F3CB
:1002E0000722C2F10404D3404278A24084781C4023
:1002F0001443220181F80024007800F01F018D4092
:100300004009800000F1E020C0F8005130BD01F04C
:100310001F0085404809800000F1E020C0F88051AE
:1003200030BD104A114001430D48001F0160704765
:100330000B4A121D0029116801D0014300E08143DE
:10034000116070474FF0E0210428086903D020F0C5
:1003500004000861704740F00400FAE70000FA0565
:100360000CED00E080FFFF1F354900200860091DEB
:100370000860091D0860091D0860314931481431C1
:100380000860704730B52E4A8379016853B313680B
:100390008B431360111D0B680468A3430B60017944
:1003A00011440B68046823430B60254B083319681C
:1003B0000468A14319601C1D21680568A9432160D8
:1003C0004179102905D011440A68006802430A6087
:1003D00030BD196802681143196021680068014343
:1003E000216030BD0079104402688A43026030BD4C
:1003F0000021016001710C22427181717047104926
:1004000010310A6802430A60704701460C4A002016
:10041000143212680A4200D0012070470849143192
:10042000086070470146064A0020143212680A42EA
:1004300000D0012070470249143108607047000065
:10044000003C0140FFFF7F00774910B5884206D18C
:100450000121084600F067FC002101205BE07349A0
:10046000884206D10121022000F05DFC002102201B
:1004700051E06F49884206D10121042000F053FC6D
:100480000021042047E06B49884206D10121082061
:1004900000F049FC002108203DE06749884206D170
:1004A0000121102000F03FFC0021102033E06349BF
:1004B000884206D10121202000F035FC00212020B7
:1004C00029E05F49884206D10121402000F02BFC41
:1004D000002140201FE05B49884206D10121802095
:1004E00000F021FC0021802015E05749884202D10C
:1004F000012184150AE05549884202D101214415A1
:1005000004E0534988420AD101210415204600F035
:100510000AFC00212046BDE8104000F004BC10BDDC
:10052000F0B5002201274FF0030C0B6807FA02F523
:100530002B40AB422CD1066853000CFA03F4A643BF
:1005400006600E79D0F800E09E4046EA0E0606608E
:100550000E79012E01D0022E12D18668A643866044
:100560004E79D0F808E09E4046EA0E06866046685E
:10057000AE43466045688E799640B6B235434560D5
:10058000C568A543C560CC799C40C3681C43C46062
:10059000521C102AC9D3F0BD4FF6FF710160002133
:1005A000017141718171C171704708B541F48032A8
:1005B0000092C261C1610099C161C169C0690090C6
:1005C00008BD0246002012690A4200D0012070478F
:1005D000006980B270470246002052690A4200D08A
:1005E00001207047406980B27047018370474183A2
:1005F00070470AB10183704741837047416170477A
:1006000042694A40426170474B07DB0E9A40C90875
:1006100010B500EB8100016A0F249C40A1430162E8
:10062000016A1143016210BD000002400004024053
:1006300000080240000C024000100240001402407A
:1006400000180240001C024000200240002402402A
:1006500000280240D24910B5884202D101214C0540
:100660000AE0D049884202D101218C0504E0CE493C
:1006700088420AD10121CC05204600F072FB2046B9
:10068000BDE81040002100F06CBB10BD7FB50446F2
:1006900080880D4620F03F06684600F07DFAC34989
:1006A0000298B0FBF1F189B20E43A680228822F0B5
:1006B00001022280BE4B2A689A421BD85200B0FB2E
:1006C000F2F080B2042800D20420491C2184A083C7
:1006D000208840F00100208020884FF6F531084046
:1006E000A9886A89114301432180A889298908437F
:1006F00020817FBDEB88A3F53F46FF3E0BD002EB88
:10070000C20303EB0212B0FBF2F080B240F480406F
:10071000020506D007E002EB4202B0FBF2F080B225
:10072000F6E740F001004FF4967251434FF47A72AD
:10073000B1FBF2F140F40040C7E741F288310160BB
:10074000002181804BF6FF72C280018141814FF40C
:100750008041818170470029018802D041F0010168
:1007600001E021F00101018070470029818C02D055
:1007700021F0100101E041F0100181847047828C6A
:1007800001F00F0122F00F0211438184704700290C
:10079000018802D041F4807101E021F48071018070
:1007A00070470029018802D041F4007101E021F472
:1007B00000710180704712B141F0010101E001F0C8
:1007C000FE01018270470029018802D041F4806156
:1007D00001E021F4806101807047828901F0FE010F
:1007E00022F0FE021143818170470029818902D0E5
:1007F00041F0010101E021F00101818170470029F0
:10080000018802D041F0400101E021F04001018067
:1008100070470029018802D041F4004101E0C1F392
:100820000E01018070470029018803D021F080016A
:100830000180704741F08001FAE7B1F5804F818B6C
:1008400002D021F4804101E041F48041818370476E
:10085000B1F5006F018803D021F400610180704779
:1008600041F40061FAE7B1F5005F018803D021F49B
:1008700000510180704741F40051FAE700290188D6
:1008800002D041F0100101E021F010010180704719
:1008900001827047008AC0B270470029018802D0E7
:1008A00041F4805101E021F4805101807047B1F59D
:1008B000006F018803D021F400610180704741F48A
:1008C0000061FAE70029018802D041F0200101E02F
:1008D00021F0200101807047008B000A7047002939
:1008E000818802D041F4006101E021F4006181803F
:1008F00070470029818802D041F4805101E021F441
:1009000080518180704708B508440090008808BD78
:10091000002A828801D00A4300E08A43828070471F
:10092000034600209A8A1B8B42EA034222F07F4250
:10093000914300D101207047818A008B41EA004138
:1009400021F07F4070470CB50246002000920A0F4C
:1009500021F07F41019202D0009A143202E0009A05
:10096000090C1832009212680A4200D001200CBD16
:10097000C9438182704710B5034600209A884FF41E
:10098000E06404EA11449B8A224021F07F410B423B
:1009900002D0002A00D0012010BDC94381827047D7
:1009A0000054004000580040005C004040420F00EE
:1009B000A08601000D49086070470C4948607047E7
:1009C0000A498860704709494AF6AA2008607047BA
:1009D00006494CF6CC4008607047044A01460020A6
:1009E000D2680A4200D00120704700000030004069
:1009F000F848016841F001010160F64A002108321F
:100A000011600268F44B1A400260031DF34A1A6039
:100A1000F04BF34A84331A60F04A103A1B1D1A60F7
:100A2000026822F480220260EA480C300160181D3E
:100A300001607047E7490022891C0A7008707047FE
:100A400002460020510901290CD002290CD0E149AD
:100A50007431096802F01F02012393400B4200D059
:100A600001207047DB49F4E7DA497031F1E718B546
:100A700000204FF4A04400903120FFF7E1FF0099DF
:100A8000491C0091A14201D00028F5D03120FFF788
:100A9000D7FF002800D0012018BDCE4A116821F0F0
:100AA000F80141EAC00010607047CE490860704705
:100AB000C849002270310A700A70012802D0042847
:100AC00001D1052008707047C7490860704741EAA6
:100AD00082115A0810B5C54B029C03EB0242114328
:100AE000014341EA0460BB49091D086010BDBD49CE
:100AF00008667047800140EA0170B6498431086099
:100B00007047B84988667047800140EA0160B14982
:100B100040EA0270883108607047B2490867704740
:100B2000B049C8647047AB4B08331A68084322F0D9
:100B3000EC62104318607047A64B08331A680843EC
:100B400022F07842104318607047A24A08321168B8
:100B500021F003010143116070479E48083000688E
:100B600000F00C0070479B4A0832116821F0F00138
:100B7000014311607047974A0832116821F4E0512F
:100B8000014311607047934A0832116821F46041B3
:100B900041EAC0001060704770B58E4B0833196889
:100BA000934C11F00C0104D06610042903D00829DD
:100BB00003D004601BE0066019E0864A121D11682C
:100BC000C1F38055116801F03F0115B1B6FBF1F199
:100BD00001E0B4FBF1F114681268C4F388146143B6
:100BE000C2F30142521C5200B1FBF2F101601968DC
:100BF0000F2202EA11117F4A545C0168E140416012
:100C00001C68072505EA9424145D21FA04F4846025
:100C10001B6805EA5333D25CD140C16070BDC0F39C
:100C20000121032908D16B4B08331968724A21F45A
:100C3000F81102400A431A60664970310A68C0F32D
:100C40000B0002430A6070476749443908607047E7
:100C500065494039086070476249C1F85C017047D6
:100C60005C4A8C321168401E21F01F010143116063
:100C70007047584A8C3211686FF0FF0321F4F85125
:100C800003EB0020084310607047524A8C32116811
:100C900021F440110143116070474E4A8C321168B3
:100CA00021F440010143116070474A4A8C321168B7
:100CB00021F440310143116070475049C1F8E0010F
:100CC0007047444A30320029116801D0014300E0E6
:100CD0008143116070473F4A34320029116801D0C6
:100CE000014300E08143116070473A4A38320029DD
:100CF000116801D0014300E0814311607047354A1B
:100D000040320029116801D0014300E081431160A5
:100D10007047304A44320029116801D0014300E095
:100D20008143116070472B4A10320029116801D0AD
:100D3000014300E0814311607047264A14320029C4
:100D4000116801D0014300E0814311607047214ADE
:100D500018320029116801D0014300E0814311607D
:100D600070471C4A20320029116801D0014300E07D
:100D7000814311607047174A24320029116801D05D
:100D8000014300E0814311607047124A503200294C
:100D9000116801D0014300E08143116070470D4AA2
:100DA00054320029116801D0014300E081431160F1
:100DB0007047084A58320029116801D0014300E009
:100DC000814311607047034A60320029116817D0CF
:100DD000014316E000380240FFFFF6EA103000241D
:100DE0000030002000004742800E47420000FFFF15
:100DF0000024F40000000020FFFCFF0F0010474219
:100E0000814311607047194A0029116801D00143DC
:100E100000E081431160704714490C3101280868D3
:100E200003D020F008000860704740F00800FAE79F
:100E30000E4A573A0029117801D0014300E081435E
:100E40001170704709481030016841F080710160ED
:100E500070470146054A0020583A12680A4200D0FD
:100E600001207047014956390870704764380240C4
:100E7000C14910B5884202D10121841424E0BF4940
:100E8000884202D10121041404E0BD4988420AD1FC
:100E90000121C4132046FFF764FF2046BDE810403F
:100EA0000021FFF75EBFB749884202D101214414F7
:100EB0000AE0B549884202D101210C0504E0B3499A
:100EC00088420AD101214C052046FFF754FF2046F5
:100ED000BDE810400021FFF74EBF10BD30B50288BD
:100EE0004C8802F441530A88CD8822438C882C43D5
:100EF00022430C8922434C8922438C892243CC898A
:100F000022431A430280828B22F400628283098A80
:100F1000018230BDF0B502220023858B01244FF2FF
:100F20004006354085830284868B8D68022D3DD036
:100F30008A8802B10224964A13681B0203D51368FB
:100F400023F400031360924A7C3213681268C3F3DF
:100F500088138F4FC2F302723F1F3D683F6805F050
:100F60003F057F0201D58B4F00E08B4FB7FBF5F5B6
:100F70005D43B5FBF2F2CB88B3F5007F2BD0630164
:100F8000B2FBF3F202EB82028B685200B2FBF3F287
:100F9000521D92B20A23B2FBF3F202F00103D21AFD
:100FA0004FF6FF74C2F34F0204EA0323941EFE2C93
:100FB00001D302220023CC881A43144304840A88F4
:100FC0004B881A438B8889890B431A43324342F476
:100FD00000618183F0BD120AD4E7002101804180C5
:100FE0008180C180018141818181C181072101828C
:100FF00070470021018041808180C180022282608F
:10100000818170470029018802D041F0400101E050
:1010100021F04001018070470029818B02D041F40A
:10102000806101E021F4806181837047028822F4AD
:101030000062028002880A4302807047B1F5804F47
:10104000018803D021F480410180704741F4804140
:10105000FAE7A1F57E420188FF3A02D041F480719F
:1010600001E021F48071018070470029818802D05D
:1010700041F0040101E021F0040181807047002962
:10108000818802D041F0100101E021F0100181803F
:10109000704730B5828B00234FF240042240828398
:1010A00002220284848B0A884FF48075B2F5007F97
:1010B00000D002B92B464A888D8889892A43194372
:1010C0000A43224342F40061818330BD8089704726
:1010D000818170470029018802D041F4005101E06C
:1010E00021F4005101807047018841F48051018052
:1010F0007047012901D0008B7047808A7047008AB1
:101100007047002A828801D00A4300E08A43828027
:101110007047090901238B40002A828899B201D0C7
:101120000A4300E08A438280704702460020128909
:101130000A4200D001207047C9430181704730B591
:1011400001F00F030125024605FA03F40020A3B2C3
:10115000090905FA01F49188A4B2128921401A42C2
:1011600002D0002900D0012030BD01F00F02012182
:101170009140C94301817047003001400038004070
:10118000003C004000340140005001400054014048
:101190000838024000127A000024F40010B5012142
:1011A0008C032046FFF7E7FD2046BDE810400021F4
:1011B000FFF7E1BD144908607047144908627047A1
:1011C00010B58A0721F003041149120F21440F239F
:1011D000D1F8084893409C43C1F80848D1F8083832
:1011E00090400343C1F8083810BD0849C1F8DC003D
:1011F000704708490860704703490020203109689A
:10120000C90500D501207047003801400000274281
:101210000030014000042742FE4910B5884206D143
:1012200001210846FFF7A7FD002101205BE0B0F196
:10123000804F09D0F84988420DD101210220FFF7E3
:1012400090FD0021022070E001210846FFF789FD92
:101250000021012069E0F149884206D101210420E2
:10126000FFF77FFD002104205FE0ED49884206D1B1
:1012700001210820FFF775FD0021082055E0E9490C
:10128000884206D101211020FFF76BFD00211020BC
:101290004BE0E549884206D101212020FFF761FD9E
:1012A0000021202041E0E149884206D101210220AD
:1012B000FFF761FD0021022015E0DD49884202D1DF
:1012C00001210C040AE0DB49884202D101214C04CF
:1012D00004E0D94988420AD101218C042046FFF755
:1012E0004AFD00212046BDE81040FFF744BDD34928
:1012F000884206D101214020FFF733FD0021402024
:1013000013E0CF49884206D101218020FFF729FD53
:101310000021802009E0CB4988420AD184150121AF
:101320002046FFF71EFD00212046BDE81040FFF7D4
:1013300018BD10BD30B50288B64CBC4DA0420DD0D2
:10134000A8420BD0B0F1804F08D0B34B984205D0E3
:10135000B24B984202D0B24B984203D122F07003B4
:101360004A881A43AF4B984206D0AF4B984203D0FD
:1013700022F440730A891A4302804A68C2620A88CA
:101380000285A04201D0A84201D1897A01860121BB
:10139000818230BD4FF0FF31416000210180018129
:1013A000418081727047018582827047028822F0F5
:1013B00070020A430280704741627047C162704701
:1013C000406A7047008D70470029018802D041F0C3
:1013D000020101E021F0020101807047002901882B
:1013E00002D041F0040101E021F0040101807047C6
:1013F0000029018802D041F0800101E021F0800144
:1014000001807047028822F00802028002880A43A5
:1014100002807047028822F44072028002880A43E8
:10142000028070470029018802D041F0010101E0EB
:1014300021F001010180704730B5028C22F00102D9
:101440000284028C8388048B22F0020224F073054C
:101450000C882C438D8915434A882A436D4DA84238
:1014600002D0724DA8420DD122F00805CA8923F49A
:1014700040732A4322F004058A882A430D8A1D43BB
:101480004B8A2B438380048389684163028430BD87
:1014900070B5028C22F010020284028C8388048BC7
:1014A0000D8824F4E6464FF6FF7404EA052535431B
:1014B0008E8922F0200204EA061616434A8804EABE
:1014C00002123243534EB04202D0584EB04215D1B0
:1014D00022F08006CA8923F4406304EA02123243F0
:1014E00022F040068A8804EA021232430E8A04EA95
:1014F00086061E434B8A04EA8303334383800583B5
:1015000089688163028470BD70B5028C22F4807298
:101510000284028C8388848B0D8824F07304254315
:101520008E894FF6FF7422F4007204EA06261643F1
:101530004A8804EA02223243364EB04202D03B4E81
:10154000B04215D122F40066CA8923F4405304EA5C
:101550000222324322F480668A8804EA022232435D
:101560000E8A04EA06161E434B8A04EA0313334329
:10157000838085838968C163028470BD70B5028CE5
:1015800022F480520284058C8288838B0C8823F499
:10159000E6464FF6FF7303EA0424344325F400566D
:1015A0008D8903EA053535434E8803EA06362E4316
:1015B000184DA84202D01D4DA84205D122F4804505
:1015C0000A8A03EA82122A4382808483896801643A
:1015D000068470BD0021018041808180816081810D
:1015E000C18101824182704730B50124058C00F130
:1015F00018038C40A543058431B308292CD0091F5A
:10160000C1F34E001844016848F6FF7319400160A9
:1016100001681AE00000014000040040000800409A
:10162000000C004000100040001400400004014085
:1016300000400140004401400048014000180040C3
:10164000001C00400020004006E04FF6FF7303EA54
:1016500002221143016030BD03EB510001684FF6D7
:101660008F73194001600168F3E74163704781633C
:101670007047C163704701647047028B22F07002AB
:101680000A4302837047028B4FF6FF7322F4E04255
:1016900003EA0121114301837047828B22F070021B
:1016A0000A4382837047828B4FF6FF7322F4E04235
:1016B00003EA0121114381837047028B22F0080263
:1016C0000A4302837047028B4FF6FF7322F40062D5
:1016D00003EA0121114301837047828B22F0080243
:1016E0000A4382837047828B4FF6FF7322F40062B5
:1016F00003EA0121114381837047028B22F0040227
:101700000A4302837047028B4FF6FF7322F4806214
:1017100003EA0121114301837047828B22F0040206
:101720000A4382837047828B4FF6FF7322F48062F4
:1017300003EA0121114381837047028B22F080026A
:101740000A4302837047028B4FF6FF73C2F30E0207
:1017500003EA0121114301837047828B22F080024A
:101760000A4382837047828B4FF6FF73C2F30E02E7
:1017700003EA0121114381837047028C22F00202A7
:101780000A4302847047028C22F008020A43028452
:101790007047028C4FF6FF7322F0200203EA01111A
:1017A000114301847047028C4FF6FF7322F08002D0
:1017B00003EA0111114301847047028C4FF6FF7355
:1017C00022F4007203EA0121114301847047028C64
:1017D0004FF6FF7322F4006203EA012111430184F2
:1017E0007047028C4FF6FF7322F4005203EA013176
:1017F00011430184704710B50123048C8B409C4336
:101800000484038C8A401343038410BD10B5042361
:10181000048C8B409C430484038C8A4013430384D0
:1018200010BD828B22F440628283828B4FF6FF735D
:1018300003EA01210A4382837047828B22F00C0263
:101840008283828B0A4382837047028B22F4406238
:101850000283028B4FF6FF7303EA01210A430283DE
:101860007047F0B5048C24F010040484078B068CB8
:101870004FF6FF7404EA011527F4734704EA0331B5
:10188000394304EA02220A4326F0A001294341F029
:10189000100102830184F0BD028B22F00C0202834E
:1018A000028B0A43028370472DE9F0410C460E88F3
:1018B0004988A288238905460EB3042E26D0082E17
:1018C0002E8C4FF6FF7028D026F480562E84AF8BD6
:1018D0002E8C00EA022200EA013127F473473A43D2
:1018E00000EA0330104326F420420A4342F48051B8
:1018F000A8832984E1882846BDE8F04191E700F0FB
:1019000062F9E1882846BDE8F041C5E7FFF7A9FF85
:10191000E1882846BDE8F04197E726F480762E84DA
:10192000AF8B2E8C00EA012100EA0310104327F050
:10193000F307384326F420620A4342F48071A883F7
:101940002984E1882846BDE8F04176E7002101803E
:10195000418001228280C180018170472DE9F041E0
:101960000C46002649880746012501B90226A288AF
:10197000012A00D10225208823890028384610D06A
:10198000FFF76FFFE1883846FFF75FFF23892A469C
:101990003146384600F017F9E1883846BDE8F04195
:1019A0007AE700F010F9E1883846FFF775FF2389E0
:1019B0002A4631463846FFF754FFE1883846BDE8ED
:1019C000F04142E7406B7047806B7047C06B7047D7
:1019D000006C704710B50A884B88CC881A438B88F6
:1019E00023431A430B891A434B8989891A430A43B3
:1019F000A0F8442010BD0021018041808180C18079
:101A00000181418181817047002930F8441F02D053
:101A100041F4004101E0C1F30E010180704700294B
:101A2000818802D041F0040101E021F004018180AD
:101A300070470029818802D041F0010101E021F0C6
:101A4000010181807047002A828901D00A4300E0A9
:101A50008A43828170478182704702460020128A41
:101A60000A4200D001207047C943018270470246F4
:101A70000020138A92890B4202EA010202D0002A56
:101A800000D001207047C943018270471143A0F87C
:101A900048107047002A828901D00A4300E08A4337
:101AA000828170470029818802D041F0080101E05D
:101AB00021F0080181807047018921F0070101812F
:101AC0007047028922F070020A430281704700B514
:101AD0000346FFF7F6FF188940F00700188100BDA4
:101AE00070B516460D46602904464FF00102314696
:101AF0000AD000F068F829462046FFF7E2FF208967
:101B000040F00700208170BDFFF7ABFEF3E730B572
:101B100004894FF6FF7505EA03231343E4B20B4330
:101B20002343038130BD10B50446FFF7F0FF208941
:101B300040F07700208110BD10B50446FFF7E7FFA5
:101B4000208940F48040208110BD828822F07002FC
:101B5000828082880A4382807047028922F00702CD
:101B6000028102890A4302817047028922F08002C1
:101B7000028102890A430281704770B50589048B8E
:101B8000068C25F007050D434FF6FC410C4040F252
:101B900001110C434FF6FF7101EA031126F02206F2
:101BA0001143314305810483018470BD002981887C
:101BB00002D041F0800101E021F080018180704776
:101BC000A0F85010704770B5048C24F00104048410
:101BD000058B048C4FF6FF7606EA0313134325F0BA
:101BE000F3052B4324F00A020A4342F00101038368
:101BF000018470BDCD4910B5884206D10121102065
:101C0000FFF7B9F80021102020E0C949884202D12D
:101C100001214C0429E0C749884202D101218C04EA
:101C200023E0C549884202D10121CC041DE0C3490B
:101C3000884202D101210C0517E0C149884209D12F
:101C400001212020FFF797F800212020BDE8104057
:101C5000FFF791B8BB49884202D101218C0704E00B
:101C6000B94988420AD1012144052046FFF779F895
:101C70002046BDE810400021FFF773B810BD7FB5C6
:101C80000446008A0D46C98820F440500143218251
:101C9000A08941F20C618843A9882A8911436A8985
:101CA00002431143A181A08A20F44071A88908430E
:101CB000A0826846FEF770FF9C48844202D0A0488C
:101CC000844201D1039800E00298A189090400EB45
:101CD000C00101EB0010296801D5490000E089002E
:101CE000B0FBF1F06422B0FBF2F109010B096FF0D7
:101CF00018056B4300EB8300A3891D044FF03203EA
:101D000006D503EBC000B0FBF2F000F0070005E0E1
:101D100003EB0010B0FBF2F000F00F00084320814D
:101D20007FBD4FF41651016000218180C180018187
:101D30000C2242818181704710B5028A4C8822F4BE
:101D400070630A8822438C88C9880C4322431A4353
:101D5000028210BD0021018041808180C1807047D6
:101D60000029818902D041F4005101E021F40051A1
:101D700081817047028B02F47F420283028B0A4307
:101D8000028370470029818902D041F4004101E0BB
:101D9000C1F30E01818170470029818A02D041F48C
:101DA000006101E021F4006181827047C1F3080104
:101DB000818070478088C0F308007047028A22F053
:101DC0000F020282028A0A43028270470029818937
:101DD00002D041F0020101E021F00201818170474F
:101DE000828922F40062828182890A43828170475B
:101DF000028A22F020020282028A0A43028270478B
:101E00000029018A02D041F4804101E021F480419F
:101E100001827047818941F0010181817047002969
:101E2000818A02D041F0080101E021F0080181829D
:101E30007047028BD2B20283028B42EA01210183F6
:101E400070470029818A02D041F0200101E021F091
:101E50002001818270470029818A02D041F010015F
:101E600001E021F0100181827047828A22F0040291
:101E70008282828A0A43828270470029818A02D044
:101E800041F0020101E021F0020181827047002A45
:101E9000828A01D00A4300E08A438282704710B5EB
:101EA000C1F3421301F01F040121A140012B07D00F
:101EB000022B07D01430002A026805D00A4304E040
:101EC0000C30F8E71030F6E78A43026010BD024696
:101ED000002012880A4200D001207047C9430180C7
:101EE000704770B501F01F0501260024C1F34213AD
:101EF00006FA05F2012B0FD0022B0FD0838A4FEA8E
:101F000011210088134206FA01F600EA060001D00A
:101F100000B10124204670BD8389F0E7038AEEE713
:101F20000A0A01219140C943018070470010014015
:101F30000044004000480040004C00400050004079
:101F40000014014000780040007C00407FB50C4642
:101F5000054601210846FEF7D2FEADF800400020FC
:101F6000ADF80200ADF808004FF0804401956946D5
:101F70002046FFF7DFF9012211462046FFF763FDF7
:101F800001212046FFF74EFA1C208DF80C0003209B
:101F90008DF80D008DF80E0001208DF80F0003A8BC
:101FA000FEF78FF97FBD10B501218C072046FFF7A2
:101FB0005EFD012807D130490A684868521C40F18B
:101FC00000000A6048602046BDE810400121FFF78C
:101FD0005ABD2949086849687047274A13685268FA
:101FE000181A62EB010170477FB50D4604460121C6
:101FF0000220FEF784FE01940020ADF800501F4C33
:10200000ADF80200ADF8080069462046FFF792F9E6
:10201000012211462046FFF716FD01212046FFF759
:1020200001FA1D208DF80C0001208DF80D00032110
:102030008DF80E108DF80F0003A8FEF742F97FBD52
:1020400010B50E4C01212046FFF711FD01280CD1DF
:102050000B490A68521C0A604868401C486088683E
:10206000401C8860C868401CC8602046BDE810401D
:102070000121FFF708BD000010000020000400400F
:10208000AC0F002070B504460D4645F25550FEF7E2
:1020900091FC2046FEF791FC2846FEF791FCFEF7E6
:1020A00092FCBDE87040FEF793BCFEF78CBC0000CC
:1020B0002DE9FC4701210520FEF703FE01218803DD
:1020C000FEF727FEFE48016841F00071016001251E
:1020D0008DF8045000244FF481708DF806400326DB
:1020E000DFF8E09300908DF805608DF807406946B1
:1020F0004846FEF715FA8DF8044000958DF8074024
:1021000069464846FEF70CFA4FF4E0500090022072
:102110008DF804008DF80640DFF8AC838DF805607B
:102120008DF8074069464046FEF7FAF98DF80450ED
:102130008DF80640EF038DF8056000978DF8074095
:1021400069464846FEF7ECF906220A214046FEF7AA
:102150005BFA06220B214046FEF756FA06220C21B6
:102160004046FEF751FA06220F214846FEF74CFA88
:1021700039464846FEF739FABDE8FC8710B501211B
:1021800086B0C803FEF7BBFD0020ADF800004FF499
:102190008271ADF802104FF40061ADF80410022115
:1021A000ADF806100121ADF80C00ADF80810ADF83F
:1021B0000E0049020720C54CADF80A10ADF810001A
:1021C00069462046FEF78AFE01212046FEF71AFFE7
:1021D00006B010BD38B5FFF76BFFFFF7CFFFB94D65
:1021E0004FF4807421462846FEF7FFF900204FF493
:1021F0007A710090421C104600928A42FAD321461E
:102200002846BDE83840FEF7F2B93EB50121880303
:10221000FEF77FFD00210846FEF7D2FF00208DF873
:1022200004000C2001248DF8050000948DF8064070
:102230006846FEF7A7F806208DF8080003208DF801
:1022400009008DF80A408DF80B4002A8FEF739F816
:102250003EBD70B59D4C054602212046FEF765FF48
:102260000028F9D029462046FEF732FF01212046FA
:10227000FEF75BFF0028F9D02046BDE87040FEF76E
:1022800025BF2DE9F0410120FEF7CCF8002819D038
:102290008C4F4FF4004631463846FEF7A8F98C4D76
:1022A00000240020FFF7D5FF25F81400641C082C3B
:1022B000F7DB31463846FEF798F9BDE8F0410120DA
:1022C000FEF7B9B8BDE8F08170B5814D002405F185
:1022D000E00650B135F81410E0B200F019F926F814
:1022E0001400641C082CF5DB70BD35F8140026F8CA
:1022F0001400641C082CF8DB70BD38B5714C022149
:102300002046FEF774F9002000900099491C0091C6
:102310006429FAD32046BDE838400221FEF765B9AA
:102320002DE9F041DFF8A88100242DED028B08F1A2
:10233000E0089FED688B694E694FA8F1D00538F928
:102340001400082C1DD2DFE804F0041D30435C6F3C
:10235000889B49F640414843C11700EB5140C00BF0
:102360002880D6ED090A97ED091A288800EE100A90
:10237000B8EE400A41EE000ABCEEE00A10EE100A88
:10238000288095E042F2107110FB01F0C11700EBBC
:102390005140C01300B203F026FC53EC182B03F09D
:1023A0004DFC03F0F3FB688082E042F2107110FBF9
:1023B00001F0C11700EB5140C01300B203F013FC51
:1023C00053EC182B03F03AFC03F0E0FB68816FE05C
:1023D00049F640414843C11700EB5140C00B2881EA
:1023E00096ED0B0A97ED0B1A288900EE900AF8EE8D
:1023F000600A01EE200ABCEEC00A10EE100A288125
:1024000056E042F2107110FB01F0C11700EB514091
:10241000C01300B203F0E7FB53EC182B03F00EFCE3
:1024200003F0B4FBE88043E049F640414843C1175C
:1024300000EB5140C00BA88096ED0A0A97ED0A1AEE
:10244000A88800EE900AF8EE600A01EE200ABCEEC1
:10245000C00A10EE100AA8802AE042F2107110FBA8
:1024600001F0C11700EB5140C01300B203F0BBFBF9
:1024700053EC182B03F0E2FB03F088FBE88117E034
:1024800049F640414843C11700EB5140C00BA881B9
:1024900096ED0C0A97ED0C1AA88900EE900AF8EE5A
:1024A000600A01EE200ABCEEC00A10EE100AA881F4
:1024B000641C082CFFF643AFBDEC028B02E7000062
:1024C000003801400000024000080240003C00408B
:1024D000140D00200000000000000040680F0020E4
:1024E000340F00201C4A10B5002002F1100332F80E
:1024F000101042F2107411FB04F1CC1701EB54419F
:10250000C90B23F81010401CC0B20828EFD310BD2F
:1025100070B5114D00EB8003C035A5F1A00655F84C
:10252000202036F8234006EB8303141B45F8204097
:10253000002203EB4206768823F81260521CD2B2C6
:10254000092AF6D35982214445F820100A20B1FB0C
:10255000F0F080B270BD0000140D0020F0B587B01F
:1025600001210220FEF7ADFB01218803FEF7C7FB26
:102570004FF46040022405908DF8184000268DF835
:102580001A6003208DF81900D64F01258DF81B50D5
:1025900005A93846FDF7C4FF05220D213846FEF790
:1025A00033F805220F213846FEF72EF84FF440404D
:1025B000ADF800004FF48270ADF80200A002ADF853
:1025C0000400ADF808508010ADF80A000820ADF8FE
:1025D0000C00ADF806400720C34CADF81000ADF874
:1025E0000E6069462046FEF779FC01212046FEF781
:1025F00009FD07B0F0BD2DE9FC410446012106208C
:10260000FEF75FFBA08801258DF8045000268DF8A9
:10261000066003278DF8057000908DF80750694615
:102620002068FDF77DFFA1882068FDF7DEFFA08907
:102630008DF804508DF806608DF8057000908DF8C7
:1026400007506946A068FDF76BFFA189A068FDF7F8
:10265000CCFFBDE8FC8170B50D460446818800685A
:10266000FDF7C5FFA04E02213046FEF75EFD0028B3
:10267000F9D0294635463046FEF72AFD0221284684
:10268000FEF753FD0028F9D080212846FEF74DFDC6
:102690000128F3D0052000F064FEA1882068BDE881
:1026A0007040FDF7A2BF012A01D0FDF7A0BFFDF7E2
:1026B0009CBF2DE9F04115460E4607460022FFF764
:1026C000F2FF894C02212046FEF72FFD0028F9D0A9
:1026D00029462046FEF7FCFC80212046FEF725FD1A
:1026E0000128F9D0012000F03CFE31463846BDE813
:1026F000F0410122D7E738B500250446009500983F
:10270000401C00900A28FAD3A189A068FDF76FFF4A
:1027100000950098401C00906428FAD3A189A06815
:10272000BDE83840FDF761BFFDF761BFB5EEC00AF7
:10273000F0EE040AF1EE10FA02D29FED6C0A06E008
:1027400010EE100A6A49884201DDB0EE600A9FED82
:10275000691A20EE010A80EE201ABCEEC10A10EEC2
:10276000100A80B2704710B5FFF7F8FE6248FFF715
:1027700042FF61481030FFF73EFF5F482030FFF70F
:102780003AFF5D48BDE81040303034E770B55B4E2D
:1027900000242DED068B9FED5A8B9FED5B9B9FEDEB
:1027A0005CAB554D083D7CB1012C22D0022C38D0B9
:1027B000032C4BD058A1002002F002FD641C042C15
:1027C000F1DBBDEC068B70BD308803F023FA53ECCF
:1027D000182B03F083F853EC192B03F02FFA53EC6A
:1027E0001A2B03F02BFA03F0D1F982B22A8056A1FA
:1027F00013E0708803F00EFA53EC182B03F06EF818
:1028000053EC192B03F01AFA53EC1A2B03F016FAB7
:1028100003F0BCF982B26A805BA1002002F0D0FC18
:10282000CCE7B08803F0F6F953EC182B03F056F818
:1028300053EC192B03F002FA53EC1A2B03F0FEF9B8
:1028400003F0A4F982B2AA805FA1E6E7F08803F062
:10285000E1F953EC182B03F041F853EC192B03F07A
:10286000EDF953EC1A2B03F0E9F903F08FF982B27A
:10287000EA8065A1D1E7204910B50C390868401CF1
:10288000086010F0030001F104010BD0012811D001
:10289000022815D003281BD0BDE810401EA100203F
:1028A00002F08EBC144849881030FFF7D4FE12485D
:1028B000103014E009881048FFF7CDFE0E480EE0F6
:1028C0000D4889882030FFF7C6FE0B48203006E00F
:1028D0000948C9883030FFF7BEFE07483030BDE8F0
:1028E000104008E7000402400038004000000000EB
:1028F000000020400000804724000020F80C002049
:102900000000000000408F40000000000000E03F99
:10291000000000008099D9405741524E494E47214E
:102920002121212121212020464154414C20455282
:10293000524F452C504C4541534520434845434B4D
:1029400020434F44450D0A002A2A2A2A2A2A2A2AE5
:10295000096C696D69745F4164353532345F446177
:1029600074615B484A4A43315F4445565F4E554D5A
:102970005D093D092564092A2A2A2A2A2A2A2A2A9F
:102980002A2A2A2A2A0D0A002A2A2A2A2A2A2A2A0E
:10299000096C696D69745F4164353532345F446137
:1029A00074615B484A4A43325F4445565F4E554D19
:1029B0005D093D092564092A2A2A2A2A2A2A2A2A5F
:1029C0002A2A2A2A2A0D0A002A2A2A2A2A2A2A2ACE
:1029D000096C696D69745F4164353532345F4461F7
:1029E00074615B42465F4445565F4E554D5D093DFF
:1029F000092564092A2A2A2A2A2A2A2A2A2A2A2A44
:102A00002A2A0D0A000000002A2A2A2A2A2A2A2A0B
:102A1000096C696D69745F4164353532345F4461B6
:102A200074615B57414F584A5F4445565F4E554D60
:102A30005D093D092564092A2A2A2A2A2A2A2A2ADE
:102A40002A2A2A2A2A0D0A0070B501214D0586B0CE
:102A50002846FEF754F901210220FEF732F9012140
:102A60008C032046FEF755F901212846FEF779F937
:102A700000212846FEF775F9904D01212846FDF703
:102A8000C8FE00212846FDF7C4FE8D4E0422062113
:102A90003046FDF7B9FD042207213046FDF7B4FDAD
:102AA0004020009002208DF8040003208DF80500DE
:102AB00001218DF806108DF8071069463046FDF7A4
:102AC0002FFD8020009069463046FDF729FD00204B
:102AD000ADF80C004BF6FF70ADF80E00794802A976
:102AE00090F81E04ADF810002011ADF812007648E1
:102AF0000290ADF814402846FDF7C8FD0121284694
:102B0000FDF761FE01212846FDF725FE06B070BDE8
:102B10009AE710B5044602466CA1002002F050FB73
:102B2000204610BD2DE9F05F90468A4604460026F7
:102B30001F46006832464FF40071FDF7E9FE00229F
:102B40004FF480612068FDF7E3FE00224FF48071AE
:102B50002068FDF7DDFE4FF420454FF4003903E017
:102B60006D1E01D204265EE049462068FDF7EBFEAB
:102B70000028F5D101212068FDF709FE4FF48059A6
:102B80004D46DFF874B103E06D1E01D205264AE020
:102B900059462068FDF7C4FE0028F5D04FEA4A6088
:102BA000010E00222068FDF706FE4D46DFF84CA11D
:102BB00003E06D1E01D2062635E051462068FDF780
:102BC000AFFE0028F5D0CA46DFF8309109F10209BE
:102BD0007F1EBFB213D398F800102068FDF758FE8F
:102BE00008F10108554603E06D1E01D208261AE0DF
:102BF00049462068FDF794FE0028E9D1F4E7012159
:102C00002068FDF7CEFD012251022068FDF780FE0D
:102C1000012291022068FDF77BFE0122110220684B
:102C2000FDF776FE16B13046FFF773FF0020BDE8D2
:102C3000F09F70B51546C3F30802A0F81A244900A6
:102C400080F81F1400F505701C464FF4007106460D
:102C500002F0E2FCE2B229463046BDE8704002F0E4
:102C600096BC70B50446184D4FF4003605E06D1E55
:102C700003D2BDE8704063204BE731462068FDF782
:102C800062FE0028F3D11E4D20682946FDF75BFE49
:102C900018B12068FDF7FEFDF6E70A494FF400740D
:102CA00014312246A1F1100001F01AFC1549224608
:102CB000A1F1100001F014FC002070BD0054004090
:102CC0000004024064000020A08601004552524FDB
:102CD000523A2049324320776169742074696D65E6
:102CE0006F75742C206572726F72436F6465203D3E
:102CF0002025640D0A000000010003008200070087
:102D0000400000109804002038B50020ADF8000005
:102D1000FE4C01212068FDF73AFD14212068FDF7E3
:102D2000F2FDADF8000094F81F1400222068FDF7B2
:102D300042FD14212068FDF7E6FD8007E9D5F4493E
:102D40002068FDF715FE2068BDE838400121FDF739
:102D500028BD2DE9F05FED4E0546361F4FF42040AB
:102D600014468B4630604FF40038371D05E030685C
:102D7000411E316001D2042076E041463868FDF7FB
:102D8000E2FD0028F3D101213868FDF700FD4FF482
:102D90008058C6F80080DFF87C9305E03068411E5B
:102DA000316001D205205FE049463868FDF7B8FD83
:102DB0000028F3D097F81F1400223868FDF7FBFCB9
:102DC000C6F80080DFF8509305E03068411E31609E
:102DD00001D2062048E049463868FDF7A1FD0028E9
:102DE000F3D000213868FDF753FDC146C6F80080D6
:102DF000B846C94FBF1C03E03068411E316011D393
:102E00003946D8F80000FDF78BFD0028F4D0C24603
:102E10005946D8F80000FDF73BFDC6F80090B046D3
:102E2000564607E007201FE0D8F80000421EC8F809
:102E30000020F7D339463068FDF772FD0028F3D043
:102E4000CA46C146B846641EE4B218D32978306831
:102E5000FDF71EFD4F46C9F800A06D1C08E038685C
:102E6000401E386004D20820BDE8F05FFFF751BE75
:102E700041463068FDF754FD0028E4D1EFE7012119
:102E80003068FDF78EFC0120BDE8F09F2DE9F04190
:102E9000054611F07F000C4602F07F01C0F180076B
:102EA000C2F3C716884611D08EB1D01BC0F3C71627
:102EB00000F07F087FB33A4621462846FFF749FFD6
:102EC000FFF722FFE019C4B23D4424E05EB90A4690
:102ED00010E0802221462846FFF73BFFFFF714FF52
:102EE0008034E4B28035761EF6B2F2D2B8F100003A
:102EF00015D0024621462846FFF72BFFBDE8F041DA
:102F000002E7802221462846FFF723FFFFF7FCFE59
:102F10008034E4B28035761EF6B2F2D2E6E7BDE840
:102F2000F0812DE9F047794D8946804601212868D6
:102F3000FDF72DFC2C1F4FF480562660754F03E0E3
:102F40002068411E21604AD339462868FDF7E8FC15
:102F50000028F5D095F81F1400222868FDF72BFCF7
:102F600026606D4F05E02068411E216001D20120DE
:102F700035E039462868FDF7D3FC0028F3D000215E
:102F80002868FDF785FC2660634FBF1C03E02068BE
:102F9000401E20600BD339462868FDF7C1FC00288D
:102FA000F5D049462868FDF773FC266005E002204D
:102FB00015E02068411E2160F9D339462868FDF7E5
:102FC000AFFC0028F5D098F800102868FDF760FCE9
:102FD000266008E02068401E206004D20320BDE87F
:102FE000F047FFF796BD39462868FDF799FC0028A1
:102FF000F0D001212868FDF7D4FB0120BDE8F0875F
:103000002DE9F74F414F4FF4204A3F1F1446054624
:10301000C7F800A04FF400383E1D05E03868411E97
:10302000396001D20920BBE041463068FDF78BFCD6
:103030000028F3D101213068FDF7A9FB4FF4805B34
:10304000C7F800B0DFF8CC90B04605E03868411E04
:10305000396001D20A20A3E04E464946D8F8000064
:10306000FDF75EFC0028F1D0C14698F81F1400223D
:10307000D8F80000FDF79FFBC7F800B0B8464F46F0
:1030800007E0D8F80000421EC8F8002001D20B204B
:1030900086E021493868FDF743FC0028F1D0012182
:1030A0003868FDF758FB00213868FDF7F1FBC8F8D8
:1030B00000B0B94605E0D8F80000421EC8F800206C
:1030C00010D31549D9F80000891CFDF729FC002808
:1030D000F1D0D9F800000199FDF7DAFBC8F800B08B
:1030E0004F4607E00C205BE0D8F80000421EC8F80D
:1030F0000020F7D308493868891CFDF711FC002827
:10310000F2D0B9460121386808E00000A808002084
:10311000000400100100030082000700FDF737FBE8
:103120004746C8F800B0B0464E4605E03868411E34
:10313000396001D20D2033E041463068FDF7F0FBE5
:103140000028F3D096F81F1401223068FDF733FBF6
:10315000C7F800B0DFF8388105E03868411E3960F3
:1031600001D20E201CE041463068FDF7D9FB002853
:10317000F3D026E0012C07D100213068FDF723FBB6
:1031800001213068FDF70DFBC7F800A0DFF80081D2
:1031900008F13E0808E03868411E396004D2032077
:1031A000BDE8FE4FFFF7B5BC41463068FDF7B8FB00
:1031B0000028F0D03068FDF76DFB641E05F8010BA8
:1031C000A4B2002CD6D101213068FDF7FCFA012011
:1031D000BDE8FE8F70B5ADF5007D4FF480763146C9
:1031E000684602F019FA314640A802F015FA29A102
:1031F000002001F0E5FF00246D46E2B22A552BA124
:10320000002001F0DDFFE043000702D126A101F01C
:10321000D7FF641CA4B2FF2CEFD9324600216846C8
:10322000FFF734FE23A1002001F0CAFF24A10020F3
:1032300001F0C6FF3246002140A8FFF7E1FE00245E
:1032400040AE285D325D82420DD01346224622A157
:10325000002001F0B5FF26A1002001F0B1FF002001
:103260000DF5007D70BD11A1002001F0A9FFE04324
:10327000000702D10CA101F0A3FF641CA4B2FF2C33
:10328000DFD925A1002001F09BFF0120E8E7000025
:1032900002000300777269746520646174612074B0
:1032A0006F20656570726F6D0D0A00002530325811
:1032B000200000005772697465204F4B0D0A000012
:1032C0005265616420646174612066726F6D20656F
:1032D0006570726F6D0D0A00696E6465785B2564B8
:1032E0005D2076616C5B3078253032585D0D0A00C8
:1032F000454550524F4D2D4552524F523A2072651E
:103300006164206E6F7420657175616C20746F202C
:1033100077726974650D0A0049324328415432348A
:103320004330322920746573742073756363657349
:103330007366756C6C790D0A0000000010B50446C8
:103340006FF00400FCF7FEFF2949E00800EB4002A3
:103350000870C2EBC0104FF6FF7202EAC00048804E
:1033600010BD2349097848434FF0E021486100230C
:103370008B61086940F0010008610869C20701D04B
:10338000C003FAD5086920F0010008618B6170471D
:103390001749498848434FF0E021486100238B6179
:1033A000086940F0010008610869C20701D0C00344
:1033B000FAD5086920F0010008618B61704770B58B
:1033C0004FF40776B0FBF6F1CCB2B0FBF6F106FB9A
:1033D000110504E03046FFF7DBFF641EE4B2002C69
:1033E000F8D1002D03D02846BDE87040D0E770BD6D
:1033F000C80C0020704770B5044648480480051F7B
:1034000040212846FEF763FD0028F9D0204670BD14
:103410002DE9F0418046012188B00846FDF751FCB6
:1034200001214804FDF76BFC3D4E07220221304686
:10343000FDF7EAF8072203213046FDF7E5F80221FF
:103440008DF814108DF8151000240C258DF81640F9
:10345000012704958DF8177004A93046FDF760F830
:10346000ADF80440ADF80640ADF80840ADF80C40AA
:103470002A4CCDF80080241FADF80A50694620463A
:10348000FEF7FDFB01212046FEF76AFC40212046A5
:10349000FEF724FD012240F225512046FEF7FFFCF5
:1034A00026208DF8180003208DF819008DF81A00D9
:1034B0008DF81B7006A8FCF704FF08B0BDE8F0818A
:1034C00070B5164C40F22551241F2046FEF709FD29
:1034D00000280ED02046FEF76DFC124AC1B21088BB
:1034E000030406D444044FF0000306D50A2901D092
:1034F000138070BD40F400400DE00D2909D0C0F3E9
:103500000D04094D401C80B229551080C728EFD802
:1035100070BD40F48040108070BD00000444004045
:1035200000000240CC0C0020040E002030B5002921
:1035300014D0002A12D05B4B98420FD88418B4F1F3
:10354000016F01D91A1A521C002304E050F82340DD
:1035500041F823405B1CB3EB920FF7D330BD2DED48
:10356000028B82B04FF4A060FCF7A6FEA820FFF704
:10357000E5FE40F2DC50FFF722FF4BA1002001F0F6
:103580001FFEFFF7C5FA00F0EDFB00F02AFCFFF785
:10359000EAF8FEF71FFE00F095F900F00DFBFEF7CC
:1035A00034FE4FF4E130FFF733FF532140F2E730B0
:1035B000FEF7CCFC00F080FF42F2CF010920FEF7BD
:1035C00013FD4FF448710420FEF75CFD34223E49A0
:1035D0003E48FFF7ABFF3C493C483422343134309D
:1035E000FFF7A4FF384E9FED3A8B002406F1340715
:1035F00006F1680806F19C0956F8240002F00AFB5F
:1036000053EC182B02F01AFB02F036F948F82400AC
:1036100057F8240002F0E7FA53EC182B02F00EFBE7
:1036200002F02AF949F82400641C0D2CE4D32A483E
:1036300000F076FE28480088ADF80000009800F001
:10364000CBFA26A1002001F0BBFD4FF47A7600F002
:103650003CFFFEF752FE0020FEF736FEFEF760FE4E
:1036600000F004FC00F0B2FC2846FEF7B6FC00F0C7
:10367000C7FC0446FEF7ADFC85B2012C0AD024A19C
:10368000002001F09DFD304600F058FA0120FFF7C0
:1036900096FEDCE700F098F900F079FA00F044FEBD
:1036A000F1E70000FFFF0F083C4459474C423E2021
:1036B00073797374656D20696E6974202E2E2E2EB9
:1036C0002E2E0D0A00000000CC0E002000000E0877
:1036D0008DEDB5A0F7C6B03E020D00203C44594721
:1036E0004C423E2053797374656D20696E69742075
:1036F000636F6D706C657465642C20656E746572A3
:10370000206C6F6F70202E2E2E2E2E2E0D0A000094
:103710004C494D495420435552454E54204D455334
:1037200053474520524543495645204552524F5232
:103730000D0A00007047FEE7FEE7FEE7FEE7704770
:1037400070477047704700000CB500225449009242
:103750000192086840F4803008604FF4A043086884
:1037600000F4003001900098401C0090019810B9BE
:1037700000989842F3D10868800334D50120019065
:1037800047484030026842F0805202604548026873
:1037900042F4404202604248083002680260026817
:1037A00042F400420260026842F4A0520260031F29
:1037B0003D4A1A600A6842F080720A600A68920103
:1037C000FCD53A4940F205720A60016821F0030114
:1037D0000160016841F0020101600168C1F38101EB
:1037E0000229FAD10CBD01920CBD314810B5016817
:1037F00041F4700101602A48016841F00101016053
:10380000274A00210832116002682A4B1A400260E0
:10381000031D294A1A60026822F4802202602048AF
:103820000C300160FFF790FF21494FF000608039B4
:10383000086010BD70B51A4D083528681F4B204927
:1038400010F00C0004D05E10042803D0082803D028
:103850000B601BE00E6019E0114A121D1068C0F3E6
:103860008054106800F03F0014B1B6FBF0F001E0A6
:10387000B3FBF0F013681268C3F388135843C2F324
:103880000142521C5200B0FBF2F0086028680C4A5A
:10389000C0F30310121D105C0A68C2400A6070BDBC
:1038A000003802400070004008544007003C0240CD
:1038B00088ED00E0FFFFF6FE103000240024F40045
:1038C000D40C00202DE9FC4701210F20FDF7F9F968
:1038D0004FF480600024DFF864A400908DF8044069
:1038E0008DF8074069465046FCF71AFE1120DFF8B4
:1038F0005084009069464046FCF712FE1020DFF825
:103900004494009069464846FCF70AFE01268DF86B
:1039100004604FF490508DF80640032700908DF816
:1039200005708DF8074069465046FCF7F9FD0825FB
:10393000694640460095FCF7F3FD69464846009508
:10394000FCF7EEFD8DF8046004208DF80640009031
:103950008DF805708DF807406946FB48FCF7E0FDDF
:103960002C02694650460094FCF7DAFD22200090B4
:1039700069464046FCF7D4FD202000906946484641
:10398000FCF7CEFD21465046FCF72FFE02214046B3
:10399000FCF72BFE20214046FCF727FE202148465D
:1039A000FCF723FEA1105046FCF721FE61005046B3
:1039B000FCF71DFE08214046FCF719FE0821484689
:1039C000FCF715FEBDE8FC872DE9F05FDFF87CB35E
:1039D000DFF87C934FF000089BF81C00A9F110045D
:1039E00000F001015FEA010AC0F34007C0F380065E
:1039F000C0F3C00511D14FF40061D048FCF7F7FDCA
:103A00000020401C3228FCDB4FF40061CB48FCF75F
:103A1000ECFDC4F80080C9F800807FB90221C848D5
:103A2000FCF7E5FD0020401C3228FCDB0221C448E5
:103A3000FCF7DBFDC4F80480C9F804807EB92021BE
:103A4000BF48FCF7D4FD0020401C3228FCDB2021BD
:103A5000BB48FCF7CAFDC4F80880C9F808807DB9E6
:103A60002021B848FCF7C3FD0020401C3228FCDBB5
:103A70002021B448FCF7B9FDC4F80C80C9F80C80CB
:103A80004FF00108BAF1000F08D0206830B94FF4A8
:103A90000061AA48FCF7ABFDC4F800803FB1606844
:103AA00028B90221A648FCF7A2FDC4F804803EB163
:103AB000A06828B92021A248FCF799FDC4F8088025
:103AC0005DB1E06848B920219E48FCF790FDC4F83C
:103AD0000C80FEF77EFA9F4948609BF81C005C460C
:103AE000C00796484FF4007102D0FCF77EFD01E05C
:103AF000FCF77DFD207F4FF4805180078F4802D571
:103B0000FCF773FD01E0FCF772FD207F4FF0080128
:103B100040078B4802D5FCF768FD01E0FCF767FD24
:103B2000207F4FF008010007864803D5BDE8F05F0D
:103B3000FCF75BBDBDE8F05FFCF759BD70B5844D87
:103B400004462868A04204D94FF400617B48FCF782
:103B50004CFD68687A4EA04203D902213046FCF73A
:103B600044FDA868A04203D920213046FCF73DFD62
:103B7000E868A0420AD920217248FCF736FD754C4E
:103B80006068FEF72AFAA0600120E06070BD714B0A
:103B900010B500206D4A103300EB400102EB4101EB
:103BA000098923F81010401C0428F5DBFEF7EEFD10
:103BB000BDE81040FEF75FBE10B5664C00202178CE
:103BC000002908D0401C0428FCDBFEF7DFFDFEF7CF
:103BD00052FE0020207010BD2DE9F05FDFF87091DB
:103BE00000F001014FF000085FEA010AC0F340074E
:103BF000C0F38006C0F3C005A9F1100411D14FF441
:103C0000006B59464D48FCF7F2FC0020401C32285E
:103C1000FCDB59464948FCF7E8FCC4F80080C9F8C9
:103C20000080DFF81CB17FB902215846FCF7DFFCA9
:103C30000020401C3228FCDB02215846FCF7D5FC52
:103C4000C4F80480C9F804807EB920215846FCF7E6
:103C5000CEFC0020401C3228FCDB20215846FCF71B
:103C6000C4FCC4F80880C9F808807DB92021354813
:103C7000FCF7BDFC0020401C3228FCDB2021314831
:103C8000FCF7B3FCC4F80C80C9F80C804FF00108B5
:103C9000BAF1000F08D0206830B94FF4006127480E
:103CA000FCF7A5FCC4F800803FB1606828B9022188
:103CB0005846FCF79CFCC4F804803EB1A06828B9C3
:103CC00020215846FCF793FCC4F808805DB1E068F9
:103CD00048B920211B48FCF78AFCC4F80C80FEF789
:103CE00078F91C494860194C4FF40071207FC007D7
:103CF000124802D0FCF779FC01E0FCF778FC207F49
:103D00004FF4805180070D4802D5FCF76EFC01E0AE
:103D1000FCF76DFC207F4FF008014007584602D5A4
:103D2000FCF763FC01E0FCF762FC207F4FF0080128
:103D30000007044810D5FCF758FC0FE000000240D3
:103D40000004024000080240000C0240DE0F002088
:103D5000AC0F0020E80C0020FCF749FC0020BDE877
:103D6000F09F00007CB501210846FCF7AAFFE02087
:103D70000090022000248DF804008DF806400325F1
:103D80008DF805508DF807406946FE4E3046FCF729
:103D9000C7FB1020009001208DF804008DF806402C
:103DA0008DF805508DF8074069463046FCF7B8FBA2
:103DB000052204213046FCF727FC05221146304637
:103DC000FCF722FC052206213046FCF71DFC0522EB
:103DD00007213046FCF718FC10213046FCF705FCA3
:103DE0007CBD10B5012186B00803FCF792FF0020CE
:103DF000ADF800004FF48271ADF802104FF400618D
:103E0000ADF804100221ADF806100121ADF808103C
:103E10004902ADF80A101821ADF80C10ADF80E00EB
:103E20000720D94CADF8100069462046FDF756F83A
:103E300001212046FDF7E6F806B010BD70B5D24C62
:103E4000054602212046FDF770F90028F9D02946E1
:103E50002046FDF73DF901212046FDF766F90028CF
:103E6000F9D02046BDE87040FDF730B92DE9F041AA
:103E7000C64845F2AA51002401801A21C44F41804E
:103E8000804604EB440604F1090082B208EB4605C3
:103E90003146AA80BFA001F005FA37F82400E88077
:103EA00082B2711CBBA001F0FDF907EB84004088D1
:103EB000288182B2B11CB7A001F0F4F9641C042C73
:103EC000DFDBB04E4FF400713046FCF784FBB8F8EE
:103ED0001C10444660F30001A8F81C10B1143046D1
:103EE000FCF779FB0146A08BB94D61F34100A0833B
:103EF00008212846FCF76FFBA18BB64F60F38201C7
:103F0000A18308213846FCF766FBA18B60F3C3014F
:103F1000A18329153046FCF754FB0028A08B49D01B
:103F200020F48070A08301212846FCF74AFB00287A
:103F3000A08B42D020F40070A08310212846FCF70B
:103F400040FB0028A08B3BD020F48060A083102190
:103F50003846FCF736FB0028A08B34D020F40061F3
:103F60009D48007860F30411420862F3451182080D
:103F700062F38611C00860F3C711A18397A001F016
:103F800091F920886188084481B2002004EB400246
:103F9000401C92880C28114489B2F7DBA08B08449E
:103FA00081B2E18396A001F07DF94AF6BC402084FD
:103FB000BDE8F08140F48070B4E740F40070BBE7E6
:103FC00040F48060C2E740F40061C9E72DE9F041A8
:103FD0006C4F00246D4D10213846FCF708FB2E462F
:103FE00004E035F81400FFF729FF641C7088801C7A
:103FF000A042F6DC3846BDE8F0411021FCF7F5BAE6
:104000002DE9F05F0024DFF88491DFF878A1A04665
:10401000264645F2AA5B09F1220910215546504671
:10402000FCF7E5FA5846FFF709FF0220FFF706FF05
:104030004AF6DE30FFF702FF4FF4C570FFF7FEFED1
:104040004AF6BC40FFF7FAFE10212846FCF7CDFAED
:104050000120FFF786F910212846FCF7C8FA47F23D
:10406000AA70FFF7EBFE05460346224670A100202A
:1040700001F0A6F82A4621466DA001F013F94C463E
:10408000A9F800500020FFF7D9FE608002466DA11C
:10409000002001F095F861886AA001F003F900277B
:1040A000A14607EB47040020FFF7C8FE09EB4405D3
:1040B0000346A88022466BA1002001F081F8AA885F
:1040C000214668A001F0EEF80020FFF7B7FEE88077
:1040D0000346621C63A1002001F072F8EA88611CAB
:1040E00060A001F0DFF80020FFF7A8FE288103465A
:1040F000A21C5CA1002001F063F82A89A11C59A030
:1041000001F0D0F87F1C042FCBDB0020FFF796FED8
:10411000A9F81C0002464D465BA1002001F050F8B2
:10412000A98B59A001F0BEF80020FFF787FEE883B5
:1041300002465FA1002001F043F8E98B5CA001F08A
:10414000B1F80020FFF77AFE288402465EA1002025
:1041500001F036F8298C5CA001F0A4F82888698861
:104160000024084480B205EB4401641C89880C2CAF
:10417000084480B2F7DBA98BEA8B084481B28A42FB
:10418000B0E000000000024000300140BC0F002001
:10419000240D00202A2A2A2A2A2A2A2A2A73656E0E
:1041A000646D6573736167652E6D657373616765B3
:1041B000446174615B25785D3D3D25642A2A2A2A85
:1041C0002A2A2A2A2A2A2A2A2A2A2A0D0A0000000A
:1041D0000004024000080240020D002073656E6476
:1041E0006D6573736167652E737475416E64776175
:1041F000726E696E672E7261773D3D25780D0A00FB
:104200002A2A2A2A2A2A2A2A2A73656E646D657345
:10421000736167652E73756D3D3D25782A2A2A2ABC
:104220002A2A2A2A2A2A2A2A2A2A2A0D0A000000A9
:104230007370695F686561645B25645D3D25780D19
:104240000A0000007265636976656D657373616766
:10425000652E646174615F6C656E3D3D25780D0A65
:10426000000000007265636976656D657373616750
:10427000652E6D657373616765446174615B256468
:104280005D3D3D25780D0A007265636976656D6553
:1042900073736167652E737475416E647761726EB6
:1042A000696E672E7261773D3D25780D0A0000002A
:1042B0007265636976656D6573736167652E737585
:1042C0006D3D3D25780D0A007265636976656D6503
:1042D00073736167652E64617461456E643D3D254D
:1042E000780D0A000AD149B1A1F57F40FF3805D009
:1042F0004FF001081DA000F0D5FF00E0761C032E52
:104300004FF01001504608D0FCF76FF9B8F1000FDC
:104310003FF483AE4046BDE8F09FFCF766F9F9E74D
:1043200001220021FEF76CBE70B5194C194900201E
:104330002070097F22880B0963F300024B0963F3A5
:1043400041028B0963F38202C90961F3C30222802F
:10435000A51C21782A78914207D000212046FEF73B
:10436000E0FD012801D12178297070BD73756D3D84
:10437000307825782C7265636976656D6573736135
:1043800067652E73756D3D3D25782C0D0A00000084
:10439000000D0020DE0F00203049486000207047EB
:1043A0002DE9F0411646DDE906581F46040002D00B
:1043B0000DB12A4809E04FF0FF30BDE8F081A1427D
:1043C00002D12168016003E0084601680029F6D1A6
:1043D000224840688047831904F10C027941A360A8
:1043E00082E822011D4802684AB1D2E902565D1BEB
:1043F00071EB060506D2226004600020DDE7002193
:104400002160F9E71046EEE7144A05E0814202D147
:104410000068106003E00A4611680029F6D1002008
:10442000704770B50D4D2C6813E068688047D4E97B
:104430000223801A994104D268688047A168081A4B
:1044400070BD20682860226912B1204661699047DA
:104450002468002CE9D1002070BD0000040D00206C
:10446000FDF7B7BD1CB5DDE90414CDE90014FFF775
:1044700097FF1CBDFFF7C8BF1CB515491548CDE90E
:1044800000014FF4FA7200230846FFF7EBFF1CBD52
:10449000114910B50868401C0860C1070F484FF06B
:1044A000040106D0FCF7A3F8FDF7FFFDBDE81040BE
:1044B000E2E7FCF79AF8F7E710B5AFF25B00FFF719
:1044C0006BFFFFF7D9FF002010BDFFF7AABF000068
:1044D00000100020914400080C0D0020000C024048
:1044E000521EC0E9001200218160C160704770B5A2
:1044F0000D46044601F0B5F920B1D4E90110401C85
:104500000840A060E16820684554E0686168401C8C
:104510000840E06070BD2DE9F04115460E460746A3
:10452000002404E0315D3846FFF7E1FF641CAC4233
:10453000F8D3BDE8F08170B50D46044601F089F965
:1045400008B1002070BDA1682068405C2870D4E9E3
:104550000110401C0840A060012070BD2DE9F04111
:1045600016460D46074601F074F908B10020E0E751
:10457000002401E0641C6D1CB44205D22946384673
:10458000FFF7D9FF0028F5D12046D2E730B5D0E9B2
:104590000234E51A44682540954201D8002030BD18
:1045A0001A4400682240805C0870012030BD000081
:1045B00010B5F84CA821204601F02EF80320206108
:1045C0006061F5A0A06104F1A800E0614FF4806093
:1045D00020620020A0626062E062EFA1216604F523
:1045E000956161661021A1662067E0666067ED490C
:1045F000C0F10F028A5C2254401C1028F8D310BD71
:104600002DE9F047C4681746894605464FF0000873
:104610002869A04201D9061B02E0A968201A0E1AD7
:10462000A868761E001BB04200D80646BE4200D3E2
:104630003E46686832462044494600F0A8FFA86814
:10464000BF1B3444B044B144A04200D10024EC600C
:10465000002FDDD14046BDE8F0872DE9F04104464A
:104660008846D4E90207C51BE1686068164608441D
:10467000B54206D9414600F08AFFB819E060BDE8AE
:10468000F0812A46414600F082FF761B08EB0501C7
:104690003246606800F07BFFE660F0E72DE9F04706
:1046A0000F46BC49044616460878532801D0FFF748
:1046B0007FFFB84904EB440001EBC005B846AC6A83
:1046C000D5F82490002718354C4511D9A868071B48
:1046D000B74200D3374668683A460119404600F0B1
:1046E00056FFA868F61B3C44B844A04200D1002401
:1046F000A9EB0400B04200D206463EB168683246DB
:104700000119404600F043FF3744344407B12C619F
:104710003846A0E72DE9F0470F469E490446164665
:104720000878532801D0FFF743FF9A4904EB44006F
:1047300001EBC005B846D5E91B94002760354C4510
:1047400011D9A868071BB74200D3374668683A46B4
:104750000119404600F01BFFA868F61B3C44B84412
:10476000A04200D10024A9EB0400B04200D20646CA
:104770003EB1686832460119404600F008FF3744F0
:10478000344407B12C61384665E710B5EFF3118466
:10479000202383F31188FFF781FFE1B281F31188B1
:1047A00010BD10B5EFF31184202383F31188FFF7B8
:1047B000B1FFE1B281F3118810BD2DE9F0410F4640
:1047C000744900EB400001EBC0041546D4E909012F
:1047D0001834884202D1A068401E08E0216988424E
:1047E0002169A1EB0000F7D3A168401E084485426F
:1047F0000BD92169281A08442061A06802E02169C8
:10480000091A216121698142F9D2D4E90201461ACB
:104810004FF00008E1686068AE42084407D92A46B4
:10482000394600F0B4FEE0682844E06027E73246ED
:10483000394600F0ACFE3744C4F80C80AD1BA668C6
:10484000A6F10106E6D11AE72DE9F0410F465149DC
:1048500000EB400001EBC0041646A16A656AE069FE
:1048600018342844A94218D8A268531B5A1EB242D1
:1048700001D3324615E01144B14219D31D461A4600
:10488000394600F084FE2B46761B04D0F9183246D8
:10489000606800F07CFEE66008E0491B491EB142FA
:1048A00006D3394600F073FEA819E0600120E6E661
:1048B0000020E4E670B50E46364900EB400001EBFF
:1048C000C0051446686F603520B101280FD002285A
:1048D00005D113E0284600F020FBA04201D20024BD
:1048E00011E0224631462846FFF7B7FE0BE0284686
:1048F00000F013FBA042F4D20446F2E7314628460A
:10490000FFF77EFE0446204670BD70B50E46214975
:1049100000EB400001EBC0051446E86A183520B1F1
:1049200001280FD0022805D113E0284600F0F5FA3F
:10493000A04201D2002411E0224631462846FFF76A
:104940008CFE0BE0284600F0E8FAA042F4D20446C0
:10495000F2E731462846FFF753FE0446204670BD75
:104960002DE9F04107460B4815460E4600785328BE
:1049700001D0FFF71DFEEFF31184202080F3118892
:104980002A4631463846FFF795FFE1B281F3118898
:1049900075E60000181000205465726D696E616C38
:1049A000000000005C5E00082DE9F0410746FB486E
:1049B00015460E460078532801D0FFF7F9FDEFF3B6
:1049C0001184202080F311882A4631463846FFF7AB
:1049D0009CFFE1B281F3118851E670B505460C46A3
:1049E000084600F0B5FD024621462846BDE8704065
:1049F000DAE7EA4A00EB400010B502EBC000426A79
:104A0000046A13461830521C944200D100220469F3
:104A1000944204D04468E154C260012010BD0020DB
:104A200010BD70B50546DD480C460078532801D00E
:104A3000FFF7BEFDEFF31181202080F31188D74AE4
:104A400005EB450002EBC000426A056A13461830C8
:104A5000521C954200D100220569954204D0456858
:104A6000EC54C260012000E00020C9B281F311883B
:104A700070BD70B50546C9480C460078532801D072
:104A8000FFF796FDEFF31183202080F31188C349CF
:104A900005EB450001EBC000426A016A154618307B
:104AA000521C914200D100224169022902D10169C0
:104AB0009142FCD00169914204D041684C55C260DA
:104AC000012000E00020D9B281F3118870BD08B543
:104AD000012269460020FFF764FE012802D04FF052
:104AE000FF3008BD9DF8000008BD10B5FFF7EFFFCF
:104AF0000028FBDB10BDA94810B50078532801D071
:104B0000FFF756FDA548016FC06E884201D0012015
:104B100010BD002010BDA14900EB400001EBC0001A
:104B2000C16E006F081A70479C4900EB400001EB12
:104B3000C000816A406A401A70472DE9F04107467B
:104B400096481C46154600780E46532801D0FFF7BC
:104B50002FFDEFF31182202080F311888F49002070
:104B600000EB400301EBC3035B6E1BB14B69401CC0
:104B70008342F5DC4B6983420BDD00EB400301EB24
:104B8000C3010F664E668D6600230B67CB664C67CC
:104B900001E04FF0FF30D1B281F311886FE52DE9CC
:104BA000F04107467D481C46154600780E465328BE
:104BB00001D0FFF7FDFCEFF31182202080F3118874
:104BC0007649002000EB400301EBC303DB691BB116
:104BD0000B69401C8342F5DC0B6983420BDD00EB63
:104BE000400301EBC3018F61CE610D6200238B6234
:104BF0004B62CC6201E04FF0FF30D1B281F31188FB
:104C00003DE52DE9F04104466448DDF818801D4675
:104C1000007816460F46532801D0FFF7C9FC5F48BD
:104C2000032C17D2EFF31181202282F3118804EBB9
:104C3000440200EBC20018302CB10760466085606A
:104C400000220261C260C0F81480C8B280F31188EB
:104C5000002014E54FF0FF3011E52DE9F041044646
:104C60004E48DDF818801D46007816460F4653283A
:104C700001D0FFF79DFC4948032C17D2EFF31181B7
:104C8000202282F3118804EB440200EBC200603062
:104C90002CB107604660856000220261C260C0F8E6
:104CA0001480C8B280F311880020E8E44FF0FF3090
:104CB000E5E470B5044639480D460078532801D024
:104CC000FFF776FC3548032C0ED2EFF3118220213A
:104CD00081F3118804EB440100EBC1008561D0B27F
:104CE00080F31188002070BD4FF0FF3070BD70B5AB
:104CF00004462A480D460078532801D0FFF758FC97
:104D00002648032C0ED2EFF31182202181F3118863
:104D100004EB440100EBC1000566D0B280F31188BA
:104D2000002070BD4FF0FF3070BD70B504461B48C9
:104D30000D460078532801D0FFF73AFC1748032CA2
:104D40000ED2EFF31182202181F3118804EB44018C
:104D500000EBC100C562D0B280F31188002070BDA5
:104D60004FF0FF3070BD70B504460C480D4600781A
:104D7000532801D0FFF71CFC0848032C10D2EFF396
:104D80001182202181F3118804EB440100EBC10062
:104D90004567D0B280F31188002070BD1810002044
:104DA0004FF0FF30F9E703E42DE9F843044660488B
:104DB0000078532801D0FFF7FBFBFF2000258DF87A
:104DC00000004FF0FF39102C2BD25A48584E005D8E
:104DD0008DF801001836EFF31187202080F3118839
:104DE000307DDFF8548100F0030002280CD03046FB
:104DF00000F093F802280FD388F800400222694699
:104E00003046FFF72AFC08E088F800400222694695
:104E10003046FFF7F5FB00E04D46F8B280F311880D
:104E200000E04D462846BDE8F8832DE9F05F824654
:104E30003F488B460078532801D0FFF7B9FB4FF06D
:104E4000FF37BAF1100F40D2DFF8E490584609F16D
:104E5000180900F07DFB0546EFF31188202080F350
:104E60001188484600F059F8044699F81400324E6B
:104E700010F0030004D0012807D0022807D11FE05A
:104E8000281D84421CD2002415E0042C01D23C468B
:104E900011E05146484600F033F8201F854200D308
:104EA00005462A4659464846FFF7AAFB044631788C
:104EB000484600F025F808F0FF0080F3118805E06F
:104EC0005146484600F01CF8EBE73C462046BDE85A
:104ED000F09F174900EB400001EBC000183000F0D4
:104EE0001CB8134900EB400001EBC002916A506A04
:104EF000814201D8401A7047126A401A101A70474E
:104F000008B5FF228DF800200A4A515C8DF8011087
:104F100002226946FFF774FB08BD0269C1688A4234
:104F200003D88068401A104400E0501A401E7047B1
:104F3000181000204C5E0008100D002010B504462B
:104F4000D4E90130421C934205D323681954A2606E
:104F5000E068401CE060D4E90102824209D1216886
:104F60002069FFF721FDA168884203D04FF0FF3090
:104F7000E06010BD0020A06010BD2DE9F84F824612
:104F8000DDE90A4B012599461746884608462E4614
:104F900002E0B0FBF7F0761CB842FAD2B14500D976
:104FA0004E465FEACB7017D1B4B15FEA8B7002D581
:104FB000B9F1000F02D0202000900BE03020FBE779
:104FC0005046641E0099FFF7B9FFDAF80C0000287C
:104FD00035DB0CB1A642F3D3DAF80C0000282EDB47
:104FE000B9F1010F02D9A9F1010903E0B8FBF5F00D
:104FF000B84201D37D43F3E7DFF8A092B8FBF5F0A8
:1050000000FB158819F800105046FFF797FFDAF8F3
:105010000C00002803DBB5FBF7F5002DEED15FEAAD
:10502000CB700CD0002C0AD0A64208D220215046CA
:10503000641EFFF783FFDAF80C000028F2DABDE8FF
:10504000F88F2DE9F04198B0804607A802904020E3
:105050000026CDE90306CDE9056815460C4614F88F
:10506000011B00296FD0252908D002A8FFF766FF91
:1050700005980028F3DA18B0BDE8F081002001227D
:10508000217823291ED02B2919D02D2902D030298F
:1050900008D102E040F0010001E040F00200641C91
:1050A000002AEDD100222178A1F130030A2B0CD285
:1050B00002EB820201EB4202303A641CF3E740F05B
:1050C0000400ECE740F00800E9E70023CFB22E2F00
:1050D0000BD114F8011FA1F130070A2F05D203EB01
:1050E000830301EB4303303BF3E76C290DD06829C0
:1050F0000BD070294AD00BDC252914D058292BD08D
:1051000063290CD0642911D112E014F8011FECE7D7
:1051100073292CD0752917D0782907D11CE028686D
:10512000011D2960017802A8FFF708FF641C9FE7B2
:1051300029680F1D2F600968CDE900200A2202A806
:1051400000F049F8F2E72BE029680F1D2F6009688D
:10515000CDE900200A2206E029680F1D2F600968AA
:10516000CDE90020102202A8FFF707FFDEE728683C
:10517000011D2960076817F8011B0029D6D002A875
:10518000FFF7DCFE05980028F5DACFE72868011D57
:10519000296001680820CDE9000603461022E2E7F5
:1051A000059800287FF767AF049820B1024607A949
:1051B0004046FFF7F9FBDDE90410084405905AE783
:1051C0000FB408B504A900916A460399FFF739FFA7
:1051D00001B05DF814FB2DE9FC5F0E008046DDE9AF
:1051E0000C47C6F1000099469246834600D4084613
:1051F000012502E090FBFAF06D1C5045FADAA94552
:1052000000D94D4624B1002E01DB780700D5641E7D
:10521000B80702D5B9F1000F0FD0F8070DD164B16E
:10522000A5420AD220214046641EFFF787FED8F827
:105230000C000028F3DABDE8FC9FD8F80C00002829
:10524000F9DB002E02DA5E462D2102E0780707D551
:105250002B214046FFF772FED8F80C000028EADB4D
:1052600007F0030002280FD1B9F1000F0CD15CB197
:10527000A54209D230214046641EFFF75FFED8F8F0
:105280000C000028F3DAD6E7CDE900474B4652463A
:1052900031464046FFF771FECDE700006D5E000825
:1052A000704700000FB4044910B503AA029800F03B
:1052B0004FFA10BC5DF814FBD00C00202DE9F04132
:1052C0000646002410687529314616A510D0AFF3A4
:1052D0000080002802DA404213A507E031688A07FF
:1052E00001D512A502E0490704D511A5012401E06A
:1052F000AFF3008000210A2206F1240709E0B0FB89
:10530000F2FCB0FBF2F302FB1C003030785418467C
:10531000491C0028F3D123462A463046BDE8F04117
:1053200000F0A5B9000000002D0000002B000000D7
:1053300020000000F0B40D460188090502D5214C7B
:105340007C4402E01F4C7C440E34002100F1240612
:1053500008E002F00F071209E75D42EA03721B0939
:105360007754491C52EA0307F3D10278002312074D
:1053700004D5702D06D009B1022311342246F0BCA9
:1053800000F075B901231034F8E770B504460D46F6
:1053900021461068AFF30080024629462046BDE84A
:1053A00070400023C6E7D21D22F00703D3E9002393
:1053B000C0E70368126843F0200303600823C36159
:1053C0000023B7E7390B00002DE9F05F894604465A
:1053D0004FF0000ADFF874B1FB44C0F820A020466B
:1053E000E1688847002874D0252806D0D4E9012137
:1053F0009047206A401C2062F1E700265F46204665
:10540000E16888472028054607DB312D05D2781949
:1054100010F8200C08B10643F1E7B00701D526F0DB
:105420000406C4F81CA00027C4F818A02A2D09D02F
:10543000284600F007FA38B304EB8708303DC8F877
:10544000185019E059F8041B204604EB87029161BB
:10545000E1688847012F054618D1E069002820DA65
:1054600026F020061DE0D8F8180000EB800005EBC0
:1054700040003038C8F818002046E16888470546E3
:1054800000F0E0F90028EED1012F0AD02E2D08D12E
:105490002046E16888477F1C0546022F46F020061B
:1054A000C4DBA069002803DA404246F00106A0618F
:1054B000F00701D026F010066C2D0BD0682D09D016
:1054C0004C2D39D06A2D35D0742D35D07A2D33D06E
:1054D00016E038E0E1682F4620468847B842054686
:1054E00009D16C2F26D04FF48060E1680643204636
:1054F0008847054604E06C2F1AD04FF480700643AD
:105500000DB3A5F14100192802D8203546F40066F4
:105510004A462946204626604E46FAF78FFE80B15D
:1055200001280BD0F61D26F0070000F1080956E708
:105530004020E4E78020D8E70020D6E706F1040900
:105540004DE7284652E7206ABDE8F09FC90A0000EF
:1055500010B5431C02E010F8011B71B18107FAD1AC
:105560004FF0013202C88C1A8C4314EAC211F9D0F0
:10557000C01A0A0603D0C01E10BDC01A10BD0A040E
:1055800001D0801E10BD0902FCD0401E10BD032AB0
:1055900040F2308010F0030C00F0158011F8013B50
:1055A000BCF1020F624498BF11F801CB00F8013B37
:1055B00038BF11F8013BA2F1040298BF00F801CBFB
:1055C00038BF00F8013B11F0030300F0D380083A24
:1055D000C0F0088051F8043B083A51F804CBA0E829
:1055E0000810F5E7121D5CBF51F8043B40F8043B7E
:1055F000AFF30080D20724BF11F8013B11F801CBB3
:1056000048BF11F8012B24BF00F8013B00F801CB83
:1056100048BF00F8012B70474FF0000200B5134659
:1056200094469646203922BFA0E80C50A0E80C50C2
:10563000B1F12001BFF4F7AF090728BFA0E80C5073
:1056400048BF0CC05DF804EB890028BF40F8042B6C
:1056500008BF704748BF20F8022B11F0804F18BFD9
:1056600000F8012B704770477047704770472DE96D
:10567000F0470D4699469246044600F12408016819
:10568000880604D5E06921F01001216000E00120C6
:10569000A84201DD471B00E00027A1697A1902EB4F
:1056A0000900081AA0612078C00602D42046AFF392
:1056B0000080002608E0D4E901211AF8060090478E
:1056C000206A401C761C20624E45F4DB2078C00620
:1056D0000AD52046AFF3008006E0D4E9012130204E
:1056E0009047206A401C2062381EA7F10107F4DCB5
:1056F00007E0D4E9012118F805009047206A401C12
:105700002062281EA5F10105F3DC2046AFF30080DE
:105710002078000602D50220BDE8F0870120FBE7D3
:1057200001694A1C02610878704700B58FB0CDE965
:1057300001310021059105497944CDE90310114655
:105740006846FFF741FE0FB000BD0000E5FFFFFF18
:10575000074B70B50D467B44FFF7E7FF044628462C
:1057600000F03AF810B14FF0FF3070BD204670BD28
:105770009DDCFFFF10B5203AC0F00B80B1E8185057
:10578000203AA0E81850B1E81850A0E81850BFF42B
:10579000F5AF5FEA027C24BFB1E81850A0E81850CA
:1057A00044BF18C918C0BDE810405FEA827C24BF1E
:1057B00051F8043B40F8043B08BF7047D20728BFAC
:1057C00031F8023B48BF11F8012B28BF20F8023BFB
:1057D00048BF00F8012B7047007B00F08000704745
:1057E000754600F02BF8AE4605006946534620F09A
:1057F0000700854618B020B5FAF74CFDBDE82040FB
:105800004FF000064FF000074FF000084FF0000B7C
:1058100021F00701AC46ACE8C009ACE8C009ACE82F
:10582000C009ACE8C0098D46704710B50446AFF317
:1058300000802046BDE81040FAF717BD00487047C9
:10584000D014002030380A2801D2012070470020EF
:105850007047C1688068814201D1012070470020F3
:105860007047D0E902214068891A884301D000209E
:10587000704701207047000021F00042A2F1605201
:10588000B2F5801F01F0004328BFD2F17F6C0BD925
:105890005FEA001C43EAC20242EB507018BF704737
:1058A00028BF20F001007047B2F5801FBCBF18462A
:1058B00070474FEA410C1CF5001F02D2084600F069
:1058C000C0BA70B500F064FA00000089FFF7F6BFB7
:1058D0004FF00040A0F58000704700002DE9C04166
:1058E00030B4DFF8A0C23CEA111418BF3CEA13142C
:1058F00000F0EC8081EA03051CEA111444EAD57437
:1059000018BF1CEA131500F0C780A4EB05044FF084
:10591000004545EAC12145EAC32341EA505143EA23
:10592000525304F17F74994204F500344FEAC020C9
:105930004FEAC22208BF904200F09C804FEA1365F4
:105940000FF24016765D4FEA134506FB05F7C7F1E7
:10595000807706FB07F74FEAD737A7FB0368764245
:10596000C8F58038A7FB06CE38BFA8F1010807FBB1
:1059700008E64FF0000EA6FB028CE6FB03CEDCF13E
:10598000000CCEF1004E38BFAEF1010EA6FB0C5854
:105990004FF000074FF00005E6FB0E87A1FB08C69D
:1059A000A0FB07CE16EB0E0645F10005E1FB0765EF
:1059B00015F1E04E7EBFA4F580345FEA46066D41E6
:1059C00016F1800745F100054FEA17274FEA0666F2
:1059D00047EA0567A6F1DE46B6F1805F4FEA152576
:1059E0001FD9384624F0010C05EBC471BCF1FE6FE1
:1059F00001EB0C1102D8F0BCBDE8008124425CBF71
:105A000001F5801E9EEAC47F02D4F0BCBDE800818F
:105A1000244238D4F0BCA1F1C041BDE8004100F0FF
:105A200005BA4FEAD22242EA43524FEAD323A7FBF8
:105A300002864FEAD02040EA415007FB03661EEA87
:105A40000E0F4FEAD12105FB026658BFA6EB0056A8
:105A5000B6EB00564FEA520E4EEAC37E18EB0E0E1E
:105A600056EB530EBDD518EB02085E417F1C55F175
:105A70000005B6E74FF480154FF000074FF0000621
:105A80004FF00008ADE7F0BC4FF0000001F1C0415D
:105A900001F00041BDE8008111EA0C1F0CEA13156A
:105AA00000D00CE013EA0C1F00F025804FF000003E
:105AB000F0BC81EA030101F00041BDE80081F0BCC7
:105AC000BDE8004181EA030100F0B0B9F0BCBDE8D7
:105AD000004170B500F05CF9097EFC3E00F007B8AB
