:020000040800F2
:10000000000B012015030008195100081B510008BE
:100010001F5100082351000827510008000000006C
:100020000000000000000000000000002B5100084C
:100030002D510008000000002F5100083151000828
:100040002F0300082F0300082F0300082F030008C8
:100050002F0300082F0300082F0300082F030008B8
:100060002F0300082F0300082F0300082F030008A8
:100070002F0300082F0300082F0300082F03000898
:100080002F0300082F0300082F0300082F03000888
:100090002F0300082F0300082F0300082F03000878
:1000A0002F0300082F0300082F0300082F03000868
:1000B000EF3800082F0300082F030008054500084B
:1000C0000F4500084D450008574500081D780008F9
:1000D0002F030008D54F00082F0300082F03000846
:1000E0002F0300082F0300082F0300082F03000828
:1000F0002F0300082F0300082F0300082F03000818
:100100002F0300082F0300082F0300082F03000807
:100110002F0300082F0300082F0300082F030008F7
:100120002F0300082F0300082F0300082F030008E7
:100130002F0300082F0300082F0300082F030008D7
:100140002F0300082F0300082F0300082F030008C7
:100150002F0300082F0300082F0300082F030008B7
:100160002F0300082F0300082F0300082F030008A7
:100170002F0300082F0300082F0300082F03000897
:100180002F0300082F03000800F002F800F0B2F877
:100190000AA090E8000C82448344AAF10107DA45E2
:1001A00001D100F0A7F8AFF2090EBAE80F0013F082
:1001B000010F18BFFB1A43F001031847C4F00000F9
:1001C000E4F000000A444FF0000C10F8013B13F07B
:1001D000070408BF10F8014B1D1108BF10F8015BA0
:1001E000641E05D010F8016B641E01F8016BF9D193
:1001F00013F0080F1EBF10F8014BAD1C0C1B09D1EA
:100200006D1E58BF01F801CBFAD505E014F8016B5B
:1002100001F8016B6D1EF9D59142D6D370470000ED
:100220000023002400250026103A28BF78C1FBD8FF
:10023000520728BF30C148BF0B6070476E290DF0D0
:10024000C38170290CF03B8766290EF08C866529E6
:100250000EF0898667290EF0868661290EF0858664
:1002600003681B0A28BF41F0800169290CF0AC86A5
:1002700064290CF0A98675290CF0A6866F290DF06B
:10028000C28278290CF00787E9290DF05D82E42904
:100290000DF05A82F5290DF05782EF290DF0BF823B
:1002A000F8290CF006870368DB0928BF41F08001BC
:1002B00063290DF0CC8173290DF0D181E3290DF074
:1002C000C786F3290DF0CC86002070471FB50EF0CD
:1002D00040FE0DF01BFF0400002000210EF034FC56
:1002E000401C6060002000210EF018FCE0601FBD83
:1002F00010B510BD0DF0DCFE1146FFF7E7FF04F06E
:100300008EFE0DF0B9FF03B4FFF7F2FF03BC04F05B
:100310006FFD00000948804709480047FEE7FEE7F7
:10032000FEE7FEE7FEE7FEE7FEE7FEE7FEE7FEE7A5
:1003300004480549054A064B704700001152000861
:100340008901000800EC0020000B012000FB0020C8
:1003500000FB002032490143324A1160704770B5FA
:10036000002100230F22C4781CB32E4C246804F40F
:10037000E064C4F5E064C4F30721C1F10404E3B20E
:100380000A4144789C40E1B28478144021430C0730
:10039000210E254C05786155047804F01F050124D1
:1003A000AC4005786D11AD0005F1E025C5F80041C0
:1003B00009E0047804F01F050124AC401B4D0678C9
:1003C000761145F8264070BD194A0A400243154B84
:1003D0001B1F1A60704739B1124A121D126802437E
:1003E000104B1B1D1A6006E00E4A121D1268824354
:1003F0000C4B1B1D1A607047042808D14FF0E021F8
:10040000096941F004014FF0E022116107E04FF06B
:10041000E021096921F004014FF0E02211617047E9
:100420000000FA050CED00E000E400E080E100E0EF
:1004300080FFFF1F10B50121080201F04CF80021D8
:100440004FF4807001F047F810BD30B5024600202F
:1004500000235068F84C20400D790C6844EA0524CC
:10046000204350609068F54C2040D1E903542C4360
:100470008D682C434D7944EA450420439060D06A4E
:1004800020F470000C7D641EE4B2234340EA035064
:10049000D06230BD00210160017141718160C16095
:1004A00001610121017570470021E54A1168E54AA3
:1004B0001140D0E900231A4383681A43C3681A43E2
:1004C0001143E14AC2F80413704700210160416002
:1004D0008160C160704721B1826842F00102826090
:1004E00003E0826822F00102826070470A46002120
:1004F0004168D64B194011434160704741628262A6
:1005000070470A460021416821F01F0111434160F4
:10051000704738B1CA49096841F40001CA4AC2F8B3
:10052000041306E0C649096821F40001C64AC2F86E
:100530000413704738B1C249096841F48001C24AC6
:10054000C2F8041306E0BE49096821F48001BE4ADE
:10055000C2F804137047F0B504460D460020002190
:10056000092D11DDE068A5F10A0606EB460707260E
:1005700006FA07F18843A5F10A0606EB460603FAD8
:1005800006F10843E0600CE0206905EB450707260B
:1005900006FA07F1884305EB450603FA06F108431E
:1005A0002061072A0FDA606B561E06EB86071F26AE
:1005B00006FA07F18843561E06EB860605FA06F191
:1005C0000843606322E00D2A0FDA206BD61F06EB8A
:1005D00086071F2606FA07F18843D61F06EB860614
:1005E00005FA06F10843206310E0E06AA2F10D0667
:1005F00006EB86071F2606FA07F18843A2F10D06CF
:1006000006EB860605FA06F10843E062F0BD816854
:1006100041F0804181607047014600208A6802F005
:1006200080420AB1012000E00020704721B18268B9
:1006300042F48062826003E0826822F48062826019
:10064000704721B1826842F00202826003E0826852
:1006500022F002028260704710B50A460021002392
:10066000416821F46041531E41EA4331416010BDAD
:1006700021B1426842F40062426003E0426822F421
:100680000062426070470146C86C80B270476C4897
:10069000001D0068704721B1826842F48072826058
:1006A00003E0826822F480728260704721B1826820
:1006B00042F40072826003E0826822F40072826079
:1006C000704738B15E49096841F400515E4AC2F88A
:1006D000041306E05A49096821F400515A4AC2F845
:1006E00004137047F0B5044615460020002200268A
:1006F000092911DDE068A1F10A0707EB470C07277C
:1007000007FA0CF29043A1F10A0707EB470703FA37
:1007100007F21043E0600CE0206901EB410C072771
:1007200007FA0CF2904301EB410703FA07F210437A
:100730002061A06BC0F30156EF1C06F1010CA7EB82
:100740000C0707EB870C1F2707FA0CF29043EF1CEE
:1007500006F1010CA7EB0C0707EB870701FA07F27C
:100760001043A063F0BD10B50A4600210023816B41
:1007700021F44011531E41EA0351816310BD08B5B5
:10078000002300930090009B0B440093009B1A6091
:1007900008BD0A460021816821F47021114381605F
:1007A00070470A460021816821F44011114381609D
:1007B0007047816841F480018160704701460020E4
:1007C0008A6802F480020AB1012000E0002070472C
:1007D00021B1426842F48062426003E0426822F440
:1007E00080624260704721B1426842F480524260A8
:1007F00003E0426822F480524260704708B5024626
:1008000000200090009201F12800009B1844009005
:100810000098006880B208BD10B50B460021D9B21F
:10082000012404FA01F11AB144680C43446002E067
:1008300044688C43446010BDFFFEFFFCFDF7FFC021
:1008400004230140E030FCFF00200140FFFD3FFF9A
:100850000246002013680B400BB1012000E000208D
:100860007047CA430260704770B5024600200023FB
:1008700000240B12556801268E4005EA060415680F
:100880001D4015B10CB1012000E0002070BD002218
:100890000A12D3430360704710B504469848844257
:1008A00008D10121084600F0D2FD0021012000F00E
:1008B000CEFD76E09348844208D10121022000F069
:1008C000C6FD0021022000F0C2FD6AE08E4884428D
:1008D00008D10121042000F0BAFD0021042000F01D
:1008E000B6FD5EE08948844208D10121082000F06D
:1008F000AEFD0021082000F0AAFD52E084488442A9
:1009000008D10121102000F0A2FD0021102000F0EC
:100910009EFD46E07F48844208D10121202000F05E
:1009200096FD0021202000F092FD3AE07A488442B2
:1009300008D10121402000F08AFD0021402000F074
:1009400086FD2EE07548844208D10121802000F008
:100950007EFD0021802000F07AFD22E07048844274
:1009600008D10121801500F072FD0021A01500F0D2
:100970006EFD16E06B48844208D10121401500F05D
:1009800066FD0021601500F062FD0AE066488442C1
:1009900007D10121001500F05AFD0021201500F0BB
:1009A00056FD10BDF0B50A4600210023002400BF0B
:1009B0003DE0012505FA01F3156805EA03049C42B0
:1009C00034D105684F000326BE40B5430560157954
:1009D0004E00B5400668354305601579012D02D0FB
:1009E0001579022D16D185684F000326BE40B54308
:1009F000856055794E00B540866835438560456809
:100A000001268E40B5434560456896798E40B6B262
:100A100035434560C5684F000326BE40B543C560F9
:100A2000D5794E00B540C6683543C560491C1029CC
:100A3000BFD3F0BD4FF6FF7101600021017141711C
:100A40008171C171704708B54FF480320092009AED
:100A50000A430092009AC261C161009AC261C269F0
:100A60000092C269009208BD0246002013690B4043
:100A70000BB1012000E0002070470146086980B2F8
:100A800070470246002053690B400BB1012000E083
:100A9000002070470146486980B270470183704763
:100AA000418370470AB1018300E04183704741618F
:100AB000704742694A4042617047F0B50023002404
:100AC0004D07ED0E02FA05F3CE1000F1200555F8A2
:100AD00026504E07F70E0F26BE40B543CF1000F14B
:100AE000200646F82750CE1000F1200555F8265074
:100AF00045EA0304CE1000F1200545F82640F0BD7C
:100B0000000002400004024000080240000C0240C5
:100B1000001002400014024000180240001C024075
:100B200000200240002402400028024010B5044684
:100B3000F848844209D10121480500F0BBFC00219E
:100B40004FF4001000F0B6FC18E0F348844209D1DD
:100B50000121880500F0AEFC00214FF4800000F078
:100B6000A9FC0BE0ED48844208D10121C80500F042
:100B7000A1FC00214FF4000000F09CFC10BD2DE909
:100B8000FF4704460D460026B1460427DFF8908350
:100B9000A6884FF6C0700640684600F01CFBDDF8E2
:100BA0000880E048B8FBF0F01FFA80F946EA090631
:100BB000A68020884FF6FE71084020800026DA4982
:100BC000286888420CD828684000B8FBF0F087B24B
:100BD000042F00DA04273E4309F10100208427E0B6
:100BE000E8884BF6FF71884206D1286800EB400088
:100BF000B8FBF0F087B209E0286800EBC00101EB18
:100C00000010B8FBF0F087B247F48047C7F30B0041
:100C100008B947F0010747F4004006434FF49670C7
:100C200009FB00F04FF47A7190FBF1F0401C208436
:100C3000A683208840F00100208026884FF6F530FA
:100C40000640A8886989084306432680A88929891F
:100C500008432081BDE8FF8741F28831016000210F
:100C600081804BF6FF71C1800021018141814FF4E9
:100C700080418181704721B1028842F001020280E7
:100C800004E002884FF6FE731A400280704729B1D3
:100C9000828C4FF6EF731A40828403E0828C42F01C
:100CA0001002828470470A460021818C4FF6F0734F
:100CB000194002F00F0319438184704721B1028863
:100CC00042F48072028004E002884FF6FF631A400B
:100CD0000280704721B1028842F40072028004E071
:100CE00002884FF6FF531A400280704712B141F05C
:100CF000010101E001F0FE010182704721B102888B
:100D000042F48062028004E002884FF6FF331A400A
:100D1000028070470A46002181894FF6017319400D
:100D200002F0FE0319438181704721B1828942F0AC
:100D30000102828104E082894FF6FE731A408281AB
:100D4000704721B1028842F04002028004E002882C
:100D50004FF6BF731A400280704721B1028842F4F7
:100D60000042028003E00288C2F30E020280704754
:100D700021B9028842F08002028004E002884FF626
:100D80007F731A4002807047B1F5804F05D0828B87
:100D90004BF6FF731A40828303E0828B42F4804259
:100DA00082837047B1F5006F04D1028842F400627B
:100DB000028004E002884FF2FF731A4002807047FD
:100DC000B1F5005F04D1028842F40052028004E0D1
:100DD00002884DF6FF731A400280704721B10288E5
:100DE00042F01002028004E002884FF6EF731A40CE
:100DF00002807047018270470146088AC0B270477E
:100E000021B1028842F48052028004E002884EF64A
:100E1000FF731A4002807047B1F5006F04D1028859
:100E200042F40062028004E002884FF2FF731A402D
:100E30000280704721B1028842F02002028004E063
:100E400002884FF6DF731A40028070470146088B14
:100E50000012704721B1828842F40062828004E06F
:100E600082884FF2FF731A408280704721B18288D6
:100E700042F48052828004E082884EF6FF731A406A
:100E80008280704708B502460020009000920098CA
:100E9000084400900098008808BD1AB183880B436D
:100EA000838002E083888B438380704770B502465D
:100EB0000024002500230020958A138B1B0445EA9B
:100EC000030626F07F4404EA01068E4201D1012088
:100ED00000E0002070BD10B5014600200023002274
:100EE0008B8A0A8B120443EA020424F07F4010BD6F
:100EF0000CB50246002000230193009300920B0FD3
:100F0000019321F07F41019B83B1009B1433009337
:100F100010E000000054004000580040005C004019
:100F200000127A0040420F00A0860100090C009BCD
:100F300018330093009B1B680B400BB1012000E0AD
:100F400000200CBD002221F07F42D34383827047F2
:100F500030B5024600200023948801F0E06504EAE1
:100F6000154321F07F41948A0C4014B10BB101204C
:100F700000E0002030BD002221F07F42D343838275
:100F8000704700000E49086070470D49486070477F
:100F90000B49886070474AF6AA20094908607047E3
:100FA0004CF6CC4006490860704701460020044AD0
:100FB000D2680A400AB1012000E00020704700001A
:100FC00000300040F948006840F00100F74908602F
:100FD0000020F64908310860F4480068F4490840E8
:100FE000F2490860F348091D0860F348EF4984316D
:100FF0000860F0481038091D0860EC48006820F4CB
:101000008020EA4908600020E8490C310860E7497F
:101010008C31086070470021E44A921C117011461F
:101020000870704710B501460022002300204A11C5
:10103000012A02D1DD4C236808E0022A03D1DB4CEF
:101040007034236802E0D94C7434236801F01F0225
:10105000012494401C400CB1012000E0002010BD90
:1010600038B5002000900024002500BF3120FFF794
:10107000D9FF05460098401C00900098B0F5A04F9D
:1010800001D0002DF2D03120FFF7CCFF08B10124B0
:1010900000E00024204638BD01460020C34A106805
:1010A00020F0F80040EAC10010607047C3490860B2
:1010B00070470021BD4A703211701170012802D0B2
:1010C00004280AD104E00121B84A7032117005E009
:1010D0000521B64A7032117000E000BF00BF7047B2
:1010E000B7490860704770B5049C41EA8215012633
:1010F000C6EB530645EA0645054345EA0465AB4E93
:10110000361D356070BDAD4908667047820142EA00
:101110000172A64B84331A607047A84988667047ED
:1011200010B5830143EA016343EA02739F4C88349C
:10113000236010BDA14908677047A049C864704783
:1011400002460020994B0833186820F0EC6042EA10
:1011500001031843954B083318607047024600207E
:10116000924B0833186820F0784042EA0103184394
:101170008E4B083318607047014600208B4A0832B6
:10118000106820F00300084310607047874808305B
:10119000006800F00C00704701460020834A0832C6
:1011A000106820F0F00008431060704701460020EE
:1011B0007E4A0832106820F4E050084310607047FF
:1011C00001460020794A0832106820F4604040EA65
:1011D000C10010607047F0B50021002200240225F4
:1011E00000260223714F08373F6807F00C0121B138
:1011F000042905D0082937D105E0724F076036E091
:10120000714F076033E0694F3F1D3F68C7F3805659
:10121000664F3F1D3F6807F03F036EB16A4FB7FB53
:10122000F3F7DFF888C10CF1040CDCF800C0CCF354
:10123000881C07FB0CF40CE0624FB7FBF3F7DFF8F8
:101240006CC10CF1040CDCF800C0CCF3881C07FB6B
:101250000CF4564F3F1D3F68C7F301477F1C7D00CC
:10126000B4FBF5F7076002E0564F076000BF00BF10
:101270004E4F08373F6807F0F0010909534F7A5C79
:101280000768D7404760494F08373F6807F4E05187
:10129000890A4E4F7A5C4768D7408760434F0837CA
:1012A0003F6807F46041490B484F7A5C4768D74074
:1012B000C760F0BD002100F44072B2F5407F0AD152
:1012C0003A4A0832116821F4F811414A02401143A8
:1012D000364A08321160354A70321268C0F30B0387
:1012E0001A43324B70331A607047354944390860ED
:1012F0007047334940390860704736490860704785
:1013000001460020294A8C32106820F01F004A1E36
:101310001043264A8C321060704701460020234A51
:101320008C32106820F4F8504A1E40EA02201F4A0E
:101330008C3210607047014600201C4A8C321068C5
:1013400020F4401008431060704701460020174AFF
:101350008C32106820F4400008431060704701464A
:101360000020124A8C32106820F44030084310608C
:10137000704719490860704739B10C4A3032126819
:1013800002430A4B30331A6006E0084A30321268D2
:101390008243064B30331A607047F9B1034A343246
:1013A00012680243014B34331A601CE000380240DB
:1013B000FFFFF6EA10300024003000200000474212
:1013C000800E47420024F40000127A000000002042
:1013D000FFFCFF0F5C014742E01147428F4A126851
:1013E00082438E4B1A60704739B18C4A121D1268C5
:1013F00002438A4B1B1D1A6006E0884A121D1268C0
:101400008243864B1B1D1A60704739B1834A0C32E8
:1014100012680243814B0C331A6006E07F4A0C329B
:10142000126882437D4B0C331A60704739B17B4A96
:10143000103212680243794B10331A6006E0774A83
:10144000103212688243754B10331A60704739B1FD
:10145000724A243A12680243704B243B1A6006E039
:101460006E4A243A126882436C4B243B1A607047E0
:1014700039B16A4A203A12680243684B203B1A602D
:1014800006E0664A203A12688243644B203B1A60A9
:10149000704739B1614A1C3A126802435F4B1C3BEA
:1014A0001A6006E05D4A1C3A126882435B4B1C3BA3
:1014B0001A60704739B1594A143A12680243574BBF
:1014C000143B1A6006E0554A143A12688243534BA3
:1014D000143B1A60704739B1504A103A12680243FF
:1014E0004E4B103B1A6006E04C4A103A1268824399
:1014F0004A4B103B1A60704739B1484A1C32126897
:101500000243464B1C331A6006E0444A1C32126800
:101510008243424B1C331A60704739B13F4A203234
:10152000126802433D4B20331A6006E03B4A2032EA
:1015300012688243394B20331A60704739B1374AF9
:10154000243212680243354B24331A6006E0334AD2
:10155000243212688243314B24331A60704739B108
:101560002E4A2C32126802432C4B2C331A6006E0B0
:101570002A4A2C3212688243284B2C331A60704757
:1015800039B1264A303212680243244B30331A6094
:1015900006E0224A303212688243204B30331A6010
:1015A0007047012808D11D493C31096841F0080104
:1015B0001A4A3C32116007E018493C31096821F0B1
:1015C0000801164A3C321160704739B1134A273A74
:1015D00012780243114B273B1A7006E00F4A273A54
:1015E000127882430D4B273B1A7070470B484030EE
:1015F000006840F08070094940310860704701463A
:101600000020064A283A12680A400AB1012000E088
:10161000002070470149263908707047343802406D
:1016200010B50446FB48844208D101218014FFF71D
:1016300052FF0021A014FFF74EFF3CE0F648844221
:1016400008D101210014FFF735FF00212014FFF716
:1016500031FF30E0F148844208D10121C013FFF787
:1016600029FF0021E013FFF725FF24E0EC48844226
:1016700008D101214014FFF72EFF00216014FFF76D
:101680002AFF18E0E748844209D101210805FFF745
:1016900022FF00214FF48010FFF71DFF0BE0E2480E
:1016A000844208D101214805FFF715FF00214FF4BE
:1016B0000010FFF710FF10BD10B50022028802F4E1
:1016C00041520B884C8823438C882343CC88234386
:1016D0000C8923434C8923438C892343CC8923439E
:1016E0001A430280838B4FF2FF74234083830B8A5B
:1016F000038210BD2DE9F04F0025022300244FF096
:10170000010900220026002794469046B0F81CA04C
:101710004FF2400B0AEA0B0AA0F81CA04FF0020A95
:10172000A0F820A0858BD1F808A0BAF1020F01D152
:1017300000BF82E0B1F804A0BAF1000F02D14FF06F
:10174000010901E04FF00209DFF8E0A2DAF800A099
:101750000AF4000ABAF1000F09D0DFF8D0A2DAF8D3
:1017600000A02AF4000ADFF8C4B2CBF800A0DFF82A
:10177000BCA20AF17C0ADAF800A0CAF3881CDFF8E0
:10178000ACA20AF17C0ADAF800A0CAF30278DFF80A
:101790009CA2AAF1040ADAF800A00AF03F07DFF8D9
:1017A0008CA2AAF1040ADAF800A00AF4800ABAF5B9
:1017B000800F08D1DFF878A2BAFBF7FA0AFB0CFA1F
:1017C000BAFBF8F607E0DFF86CA2BAFBF7FA0AFBFF
:1017D0000CFABAFBF8F6B1F806A0BAF5007F0ED104
:1017E0004FEA162A0AEB8A0A4FEA4A0AD1F808B0E9
:1017F000BAFBFBFA0AF1050A1FFA8AF20FE04FEA78
:10180000491AB6FBFAFA0AEB8A0A4FEA4A0AD1F8F1
:1018100008B0BAFBFBFA0AF1050A1FFA8AF24FF088
:101820000A0AB2FBFAF202F00104A2EB040ACAF3BC
:101830004F034FF6FF7A0AEA0424022B01DBFF2B49
:1018400001DD02230024B1F806A04AEA040A4AEAAC
:10185000030AA0F820A0B1F804A0B1F80CB04AEA3D
:101860000B0AB1F802B04AEA0B0AB1F800B04AEA32
:101870000B0A4AF4006A4AEA05058583BDE8F08F41
:101880000021018041808180C1800181418181816D
:10189000C181072101827047002101804180818040
:1018A000C1800221816000218181704721B10288BD
:1018B00042F04002028004E002884FF6BF731A40F3
:1018C0000280704721B1828B42F48062828304E0FF
:1018D000828B4FF6FF331A408283704702884FF2A3
:1018E000FF731A40028002880A4302807047B1F5F4
:1018F000804F04D1028842F48042028004E00288D2
:101900004BF6FF731A40028070474FF6FF62914218
:1019100004D0028842F48072028004E002884FF60C
:10192000FF631A400280704721B1828842F00402AE
:10193000828004E082884FF6FB731A4082807047F1
:1019400021B1828842F01002828004E082884FF642
:10195000EF731A408280704730B500220023848BD9
:101960004FF240052C40848302240484828B0C882F
:10197000B4F5007F01D00C8814B94FF4807308E0EF
:101980000C88B4F5407F03D00C88B4F5807F00D17B
:1019900000238C888D892C434D882C431C4344F4B0
:1019A00000642243828330BD01468889704781816B
:1019B000704721B1028842F40052028004E002889C
:1019C0004DF6FF731A4002807047018841F4805140
:1019D0000180704702460020012901D0108B00E0F1
:1019E000908A70470146088A70471AB183880B4372
:1019F000838002E083888B438380704730B5002466
:101A000000230C110125A540ABB2AAB185881D4366
:101A1000858014E00030014000380040003C004068
:101A20000034014000500140005401400838024099
:101A300000127A000024F40085889D43858030BD23
:101A40000246002013890B400BB1012000E000206A
:101A50007047CA4302817047F0B502460020002457
:101A60000023002501F00F070126BE40B4B20B1180
:101A700001269E40B3B2968806EA030516892640E1
:101A800016B10DB1012000E00020F0BD10B500221C
:101A900001F00F040123A3409AB2D343038110BD88
:101AA00010B50446FE48844208D101210846FFF7DC
:101AB00012FD00210120FFF70EFD9DE0B4F1804FE3
:101AC00008D101210846FFF7F5FC00210120FFF7AE
:101AD000F1FC91E0F348844208D101210220FFF794
:101AE000E9FC00210220FFF7E5FC85E0EE48844296
:101AF00008D101210420FFF7DDFC00210420FFF7BD
:101B0000D9FC79E0E948844208D101210820FFF797
:101B1000D1FC00210820FFF7CDFC6DE0E4488442B1
:101B200008D101211020FFF7C5FC00211020FFF78C
:101B3000C1FC61E0DF48844208D101212020FFF789
:101B4000B9FC00212020FFF7B5FC55E0DA488442BB
:101B500008D101210220FFF7BEFC00210220FFF77F
:101B6000BAFC49E0D548844209D101210804FFF7B5
:101B7000B2FC00214FF48030FFF7ADFC3CE0D048D0
:101B8000844209D101214804FFF7A5FC00214FF44C
:101B90000030FFF7A0FC2FE0CA48844209D10121A0
:101BA0008804FFF798FC00214FF48020FFF793FC96
:101BB00022E0C548844208D101214020FFF77AFC89
:101BC00000214020FFF776FC16E0C048844208D18F
:101BD00001218020FFF76EFC00218020FFF76AFCC6
:101BE0000AE0BB48844207D101218015FFF762FC5F
:101BF0000021A015FFF75EFC10BD00220288A84B53
:101C000098420ED0AC4B98420BD0B0F1804F08D028
:101C1000A44B984205D0A44B984202D0A34B9842C3
:101C200004D14FF68F731A404B881A43A04B984249
:101C300007D0A04B984204D04FF6FF431A400B89BF
:101C40001A4302804B68C3620B880385944B984209
:101C500002D0994B984201D18B7A0386012383826B
:101C600070474FF0FF3141600021018001814180C8
:101C7000817270470185828270470A46002101887F
:101C80004FF68F73194011430180704741627047CE
:101C9000C16270470146486A70470146088D704727
:101CA00021B1028842F00202028004E002884FF66D
:101CB000FD731A400280704721B1028842F004028D
:101CC000028004E002884FF6FB731A4002807047DE
:101CD00021B1028842F08002028004E002884FF6BF
:101CE0007F731A400280704702884FF6F7731A40DC
:101CF000028002880A430280704702884FF6FF4341
:101D00001A40028002880A430280704721B102888B
:101D100042F00102028004E002884FF6FE731A408E
:101D20000280704770B5002400220023058C4FF616
:101D3000FE7635400584028C8388048B4FF68F75C0
:101D40002C40B51E2C400D882C43751E2A408D89D1
:101D50002A434D882A43524DA84202D0564DA842EC
:101D600013D14FF6F7752A40CD892A434FF6FB75FC
:101D70002A408D882A434FF6FF652B404FF6FF55CA
:101D80002B400D8A2B434D8A2B43838004838D681F
:101D90004563028470BD70B5002400220023058CC9
:101DA0004FF6EF7635400584028C8388048B48F625
:101DB000FF752C404FF6FF452C400D884FF6FF76FF
:101DC00006EA05252C434FF6DF752A408D8906EA81
:101DD00005152A434D8806EA05152A43304DA842C9
:101DE00002D0354DA8421DD14FF67F752A40CD89CE
:101DF0004FF6FF7606EA05152A434FF6BF752A40CF
:101E00008D8806EA05152A434FF6FF352B404FF221
:101E1000FF752B400D8A06EA85052B434D8A06EA9D
:101E200085052B43838004838D688563028470BDA0
:101E300070B5002400220023058C4FF6FF66354064
:101E40000584028C8388848B4FF68F752C404FF667
:101E5000FC752C400D882C434FF6FF552A408D8988
:101E60004FF6FF7606EA05252A434D8806EA052542
:101E70002A430B4DA84202D00F4DA84238D14FF251
:101E8000FF752A40CD894FF6FF7606EA05252A43DD
:101E90004FF6FF352A408D8806EA05252A4319E0CA
:101EA000000001400004004000080040000C004019
:101EB00000100040001400400004014000400140B8
:101EC000004401400048014000180040001C004050
:101ED000002000404EF6FF752B404DF6FF752B405D
:101EE0000D8A06EA05152B434D8A06EA05152B4394
:101EF000838084838D68C563028470BD70B50022C1
:101F000000230024058C4EF6FF7635400584038CB3
:101F10008488828B48F6FF752A404FF6FF452A4099
:101F20000D884FF6FF7606EA05252A434DF6FF7524
:101F30002B408D8906EA05352B434D8806EA053589
:101F40002B43FE4DA84202D0FD4DA84208D14BF6CE
:101F5000FF752C400D8A4FF6FF7606EA85152C4357
:101F6000848082838D680564038470BD00210180B4
:101F70004180818081608181C1810182418270477D
:101F800070B50346002000241846183001258D4006
:101F9000ACB21D8CA5431D8409B108290AD100EB00
:101FA000610005684FF68F7635400560056815437A
:101FB00005600FE00D1FC5F34E052844056848F67F
:101FC000FF763540056005684FF6FF7606EA022683
:101FD0003543056070BD4163704781637047C163DD
:101FE0007047016470470A460021018B4FF68F73DA
:101FF00019401143018370470A460021018B48F6BE
:10200000FF7319404FF6FF7303EA0223194301835C
:1020100070470A460021818B4FF68F731940114398
:10202000818370470A460021818B48F6FF7319406F
:102030004FF6FF7303EA02231943818370470A4670
:102040000021018B4FF6F77319401143018370474C
:102050000A460021018B4FF2FF7319404FF6FF73C0
:1020600003EA02231943018370470A460021818B4A
:102070004FF6F77319401143818370470A460021D8
:10208000818B4FF2FF7319404FF6FF7303EA02236F
:102090001943818370470A460021018B4FF6FB7379
:1020A00019401143018370470A460021018B4FF606
:1020B000FF3319404FF6FF7303EA022319430183EC
:1020C00070470A460021818B4FF6FB73194011437C
:1020D000818370470A460021818B4FF6FF331940F8
:1020E0004FF6FF7303EA02231943818370470A46C0
:1020F0000021018B4FF67F73194011430183704714
:102100000A460021018BC1F30E014FF6FF7303EA6B
:1021100002231943018370470A460021818B4FF641
:102120007F7319401143818370470A460021818BD8
:10213000C1F30E014FF6FF7303EA022319438183B3
:1021400070470A460021018C4FF6FD731940114378
:10215000018470470A460021018C4FF6F77319403D
:102160001143018470470A460021018C4FF6DF734A
:1021700019404FF6FF7303EA0213194301847047B5
:102180000A460021018C4FF67F7319404FF6FF730A
:1021900003EA02131943018470470A460021018CA7
:1021A0004FF6FF5319404FF6FF7303EA022319431A
:1021B000018470470A460021018C4FF2FF731940D9
:1021C0004FF6FF7303EA02231943018470470A465E
:1021D0000021018C4DF6FF7319404FF6FF7303EA9F
:1021E000023319430184704730B5002301248C4029
:1021F000A3B2048C9C430484048C02FA01F5ADB2B2
:102200002C43048430BD30B5002304248C40A3B299
:10221000048C9C430484048C02FA01F5ADB22C4377
:10222000048430BD828B4FF2FF331A408283828B4D
:102230004FF6FF7303EA01231A4382837047F0B518
:102240000C461546002100220026078C4EF6FF7C26
:1022500007EA0C070784818B028C4FF6FF7707EAA9
:10226000043640F6FF4739404FF6FF7707EA052767
:1022700039434FF6FF7707EA0337394345F6FF77CF
:102280003A4046F480573A4381830284F0BD828B02
:102290004FF6F3731A408283828B0A43828370471E
:1022A000F0B50C461546002100220026078C4FF69B
:1022B000FF6C07EA0C070784818B028C4FF6FF77CF
:1022C00007EA04264FF60C7739404FF6FF7707EA06
:1022D00003172F4339434FF2FF573A4046F48077B4
:1022E0003A4381830284F0BD028B4FF2FF331A40E0
:1022F0000283028B4FF6FF7303EA01231A43028322
:102300007047F0B50C461546002100220026078CC8
:102310004FF6EF7C07EA0C070784018B028C4FF61F
:10232000FF7707EA041640F6FF4739404FF6FF777C
:1023300007EA033739434FF6FF7703E00000014017
:102340000004014007EA052739434FF65F773A401A
:1023500046F010073A4301830284F0BD028B4FF62A
:10236000F3731A400283028B0A4302837047F0B56D
:102370000C46154600210022068C4FF6FE773E40A3
:102380000684018B028C4FF60C7631407E1C06EAE7
:1023900003162E4331434FF6F576324044F00106E2
:1023A000324301830284F0BD70B505460C46208897
:1023B00050B92389A28861882846FFF7D8FFE188B1
:1023C0002846FFF7CBFF25E0208804280AD123897F
:1023D000A28861882846FFF794FFE1882846FFF726
:1023E00083FF17E0208808280AD12389A288618802
:1023F0002846FFF755FFE1882846FFF748FF09E028
:102400002389A28861882846FFF719FFE1882846BA
:10241000FFF708FF70BD002101804180012181800C
:102420000021C180018170472DE9F04105460C462D
:1024300000260127608808B9022600E00026A0884F
:10244000012801D1022700E001272088A0B92389B3
:10245000A28861882846FFF78AFFE1882846FFF7AF
:102460007DFF23893A4631462846FFF74AFFE18837
:102470002846FFF739FF13E02389A28861882846A0
:10248000FFF73FFFE1882846FFF72EFF23893A46F2
:1024900031462846FFF76BFFE1882846FFF75EFFCD
:1024A000BDE8F0810146486B70470146886B704774
:1024B0000146C86B70470146086C70470A884B8814
:1024C0001A438B881A43CB881A430B891A434B89CA
:1024D0001A438B891A43A0F84420704700210180D9
:1024E00041808180C180018141818181704731B10A
:1024F000B0F8442042F40042A0F8442005E0B0F8CF
:102500004420C2F30E02A0F84420704721B1828813
:1025100042F00402828004E082884FF6FB731A4086
:102520008280704721B1828842F00102828004E0FB
:1025300082884FF6FE731A40828070471AB18389F1
:102540000B43838102E083898B43838170478182BF
:10255000704702460020138A0B400BB1012000E0B7
:1025600000207047CA430282704730B502460020FF
:1025700000230024158A05EA0103958905EA010470
:1025800013B10CB1012000E0002030BDCA4302822B
:10259000704741EA0203A0F8483070471AB18389B6
:1025A0000B43838102E083898B438381704721B190
:1025B000828842F00802828004E082884FF6F77336
:1025C0001A408280704701894FF6F87211400181EC
:1025D00070470A46002101894FF68F731940114355
:1025E0000181704730B504460D4629462046FFF765
:1025F000F0FF208940F00700208130BD2DE9F04137
:1026000004460D4616461F46602D06D13B46012264
:1026100031462046FFF775FE05E03B460122314674
:102620002046FFF7A4FE29462046FFF7D2FF208967
:1026300040F007002081BDE8F08130B50C46002154
:102640000189C9B24FF6FF7505EA032515432543F5
:102650002943018130BD2DE9F04105460E4617465C
:102660009846002443463A4631462846FFF7E5FFA0
:102670002C894FF6F870044044F007044FF68F7031
:10268000044044F070042C81BDE8F081F0B50446AC
:102690000D4616461F463B46324629462046FFF762
:1026A000CCFF208940F480402081F0BD82884FF625
:1026B0008F731A40828082880A4382807047028921
:1026C0004FF6F8731A40028102890A43028170476B
:1026D00002894FF67F731A40028102890A43028100
:1026E0007047F0B50C4615461E4600210022002317
:1026F0000189028B038C4FF6F877394021434FF65E
:10270000FC473A4040F201173A434FF6DD773B4031
:102710004FF6FF7707EA06172F433B4301810283F9
:102720000384F0BD21B1828842F08002828004E0FF
:1027300082884FF67F731A4082807047A0F850104D
:102740007047000010B50446FA48844208D10121C0
:102750001020FEF7C0FE00211020FEF7BCFE57E05F
:10276000F548844209D101214804FEF7A3FE002167
:102770004FF40030FEF79EFE4AE0F048844209D153
:1027800001218804FEF796FE00214FF48020FEF719
:1027900091FE3DE0EA48844209D10121C804FEF7D8
:1027A00089FE00214FF40020FEF784FE30E0E5486A
:1027B000844209D101210805FEF77CFE00214FF477
:1027C0008010FEF777FE23E0DF48844208D1012124
:1027D0002020FEF780FE00212020FEF77CFE17E07F
:1027E000DA48844209D101218807FEF763FE0021FF
:1027F0004FF08040FEF75EFE0AE0D548844207D1E4
:1028000001214005FEF756FE00216005FEF752FE4D
:1028100010BD2DE9FF4705460E460024A14600BF26
:10282000A046B08900B100BF2C8A24F44054F0883F
:1028300004432C82AC8941F20C608443B088318916
:102840000843718908430443AC81AC8A24F4407482
:10285000B0890443AC826846FEF7BDFCB5488542AA
:1028600002D0B948854202D1DDF80C9001E0DDF8D4
:102870000890A88900F4004040B109EBC90000EBC2
:10288000091031684900B0FBF1F707E009EBC90016
:1028900000EB091031688900B0FBF1F76420B7FB49
:1028A000F0F004012009642101FB1078A88900F4EC
:1028B000004040B1322000EBC800B0FBF1F000F066
:1028C0000700044308E0322000EB08106421B0FB4D
:1028D000F1F000F00F0004432C81BDE8FF874FF4B6
:1028E0001651016000218180C18001810C2141814C
:1028F00000218181704710B502460020108A20F423
:1029000070600B884C8823438C882343CC882343F6
:102910001843108210BD0021018041808180C18058
:10292000704721B1828942F40052828104E0828999
:102930004DF6FF731A4082817047028B02F47F428A
:102940000283028B0A430283704721B1828942F4D9
:102950000042828103E08289C2F30E0282817047C5
:1029600021B1828A42F40062828204E0828A4FF2BC
:10297000FF731A4082827047C1F308028280704759
:1029800001468888C0F308007047028A4FF6F0734A
:102990001A400282028A0A430282704721B1828968
:1029A00042F00202828104E082894FF6FD731A40F0
:1029B0008281704782894FF2FF731A408281828937
:1029C0000A4382817047028A4FF6DF731A400282FF
:1029D000028A0A430282704721B1028A42F480428D
:1029E000028204E0028A4BF6FF731A4002827047AB
:1029F000818941F001018181704721B1828A42F0D1
:102A00000802828204E0828A4FF6F7731A408282BB
:102A10007047028BD2B20283028B42EA0122028308
:102A2000704721B1828A42F02002828204E0828AC9
:102A30004FF6DF731A408282704721B1828A42F0DA
:102A40001002828204E0828A4FF6EF731A4082827B
:102A50007047828A4FF6FB731A408282828A0A4349
:102A60008282704721B1828A42F00202828204E0AF
:102A7000828A4FF6FD731A40828270471AB1838AA8
:102A80000B43838202E0838A8B4383827047F0B5D5
:102A90000346002400260025002040F66A17B942AC
:102AA00000D100BF1846C1F3421401F01F060127F0
:102AB00007FA06F5012C01D10C3004E0022C01D1FB
:102AC000103000E014301AB107682F43076002E0AD
:102AD0000768AF430760F0BD02460020B1F5007FF4
:102AE00000D100BF13880B400BB1012000E0002093
:102AF000704701F40072B2F5007F00D100BFCA43F5
:102B00000280704770B50246002400230025002093
:102B100040F66A16B14200D100BFC1F3421501F080
:102B20001F03012606FA03F3012D13D196893340C2
:102B300017E0000000100140004400400048004041
:102B4000004C00400050004000140140007800405C
:102B5000007C0040022D02D1168A334001E0968AA3
:102B600033400C12012606FA04F41688344013B1DF
:102B70000CB1012000E0002070BD10B50022002340
:102B800040F66A14A14200D100BF0A120124944009
:102B9000A3B2DC43048010BD016821F00101016093
:102BA0000021016041608160C160016121214161BA
:102BB000DB49884204D13D21D94A103A91608CE02A
:102BC000D7491831884205D14FF47461D44A103A7C
:102BD000916082E0D2493031884205D14FF47411BE
:102BE000CF4A103A916078E0CD494831884205D10A
:102BF0004FF07461CA4A103A91606EE0C849603182
:102C0000884204D1C749C64A103AD16065E0C44938
:102C10007831884204D1C449C14A103AD1605CE09D
:102C2000BF499031884204D1C049BD4A103AD160B1
:102C300053E0BB49A831884205D14FF03D51B84A15
:102C4000103AD16049E0BA49884204D13D21B84ADE
:102C5000083A116041E0B6491831884205D14FF475
:102C60007461B34A083A116037E0B14930318842A3
:102C700005D14FF47411AE4A083A11602DE0AC4909
:102C80004831884205D14FF07461A94A083A116071
:102C900023E0A7496031884204D1A249A44A121F07
:102CA00011601AE0A2497831884204D19E49A04AB5
:102CB000121F116011E09E499031884204D19B4956
:102CC0009B4A121F116008E09949A831884204D13B
:102CD0004FF03D51964A121F1160704710B5002207
:102CE0000268944B1A40CC680B6823434C69234319
:102CF0008C692343CC6923430C6A23434C6A2343E6
:102D00008C6A23434C6B23438C6B23431A4302602E
:102D1000426922F00702D1E90B3423431A4342618E
:102D20000B6943604B6883608B68C36010BD0021F2
:102D3000016041608160C160016141618161C16187
:102D4000016241628162C1620163416381637047D4
:102D500021B1026842F00102026003E0026822F041
:102D600001020260704721B1026842F40042026031
:102D700003E0026822F400420260704721B1026859
:102D800042F02002026003E0026822F020020260AA
:102D90007047416070470146486880B2704722B171
:102DA000036843F40023036003E0036823F4002373
:102DB00003600161704721B1026842F48022026021
:102DC00003E0026822F48022026070470AB10161C8
:102DD00000E0C1607047014600200A6802F400224A
:102DE0000AB1012000E000207047014600200A6877
:102DF00002F001020AB1012000E000207047014604
:102E000000204A6902F03800704730B503460A4690
:102E100000200024464DAB4202D24149103901E066
:102E20004349103902F000550DB14C6800E00C68C0
:102E3000414D2C4004EA02050DB1012000E00020C4
:102E400030BD02463A4B9A4202D23548103801E072
:102E50003748103801F000531BB1374B0B40C360AB
:102E600002E0354B0B408360704710B501F08003E2
:102E70004BB122B1436943F08003436103E04369EE
:102E800023F08003436180290BD02AB1036801F04D
:102E90001E042343036004E0036801F01E04A343FF
:102EA000036010BD70B50246002000240025204EAE
:102EB000B24202D21A4B103B01E01D4B103B1F4E99
:102EC0000E4036B11E2606EAD124166806EA04052D
:102ED00002E0566906F0800501F000560EB15C680C
:102EE00000E01C68144E344004EA010616B10DB12E
:102EF000012000E0002070BD02460D4B9A4202D234
:102F00000748103801E00A48103801F000531BB19F
:102F1000094B0B40C36002E0074B0B4083607047D6
:102F2000106002403D000020400F002000003D20C6
:102F3000106402403F801CF07D0F7D0F3C0F3C0F62
:102F400010B50A2001F0ECFE10BD10B5044600BF1C
:102F5000618901226068FDF7A5FD00BF00BF2189DE
:102F600001222068FDF79EFD00BFFFF7E9FF00BFCB
:102F7000618900226068FDF795FD00BFFFF7E0FF63
:102F800000BF218900222068FDF78CFD00BFFFF7FC
:102F9000D7FF10BD10B5044600BF618900226068EC
:102FA000FDF780FD00BFFFF7CBFF00BF21890122A5
:102FB0002068FDF777FD00BFFFF7C2FF00BF618902
:102FC00001226068FDF76EFD00BFFFF7B9FF10BD7D
:102FD00070B504460025002600BF618901226068A3
:102FE000FDF760FD00BFFFF7ABFF00BF21890122A5
:102FF0002068FDF757FD00BFFFF7A2FF08E0681C3F
:10300000C5B2FA2D04DD2046FFF7C4FF012605E016
:1030100061896068FDF728FD0028F0D100BF00BF7E
:10302000218900222068FDF73DFD00BFFFF788FFE2
:10303000304670BD10B5044600BF6189002260684B
:10304000FDF730FD00BFFFF77BFF00BF21890122A4
:103050002068FDF727FD00BFFFF772FF00BF218941
:1030600000222068FDF71EFD00BFFFF769FF00BFCB
:10307000618901226068FDF715FD00BFFFF760FF61
:1030800010BD10B5044600BF618901226068FDF7DC
:1030900009FD00BFFFF754FF00BF2189012220680E
:1030A000FDF700FD00BFFFF74BFF00BF21890022A5
:1030B0002068FDF7F7FC00BFFFF742FF10BD70B5B9
:1030C00004460D46002624E000BFE80928B16189C6
:1030D00001226068FDF7E6FC04E061890022606877
:1030E000FDF7E0FC00BFFFF72BFF00BF21890122A5
:1030F0002068FDF7D7FC00BFFFF722FF00BF218942
:1031000000222068FDF7CEFC00BF6806050E701C8B
:10311000C6B2082ED8DB00BF618901226068FDF7C6
:10312000C1FC00BF70BD2DE9F04104460E460025EC
:1031300000271CE06806050E00BF218901222068D7
:10314000FDF7B0FC00BFFFF7FBFE61896068FDF78B
:103150008BFC08B1681CC5B200BF21890022206821
:10316000FDF7A0FC00BFFFF7EBFE781CC7B2082FED
:10317000E0DB1EB92046FFF784FF02E02046FFF7A0
:1031800059FF2846BDE8F08100B59BB00121F94800
:10319000FEF7F2F801210802FEF748F9002002903C
:1031A000F5480390F54804900020059046200690CD
:1031B000002007904FF48060089040000990800044
:1031C0000A9040110B9040020C9000200D900120BD
:1031D0000E9000200F90109002A9E948FFF77EFDA5
:1031E0000121E748FFF7B4FD6F20009003208DF820
:1031F000040000208DF807006946E248FDF7D2FB85
:10320000042000906946E048FDF7CCFB00201190B7
:1032100012901390149011A8FDF746F915A8FDF728
:1032200039F90020159001208DF858008DF85900CB
:1032300000201790199007208DF8680015A9CE4836
:103240004C38FDF702F9002301221946CA484C38D0
:10325000FDF781F9002302220121C7484C38FDF710
:103260007AF9002303220221C3484C38FDF773F991
:10327000002304220321C0484C38FDF76CF90023D9
:1032800005221146BC484C38FDF765F9002306229B
:103290001146B9484C38FDF75EF9002307220C218E
:1032A000B5484C38FDF757F90121B3484C38FDF7C4
:1032B000FDF90121B0484C38FDF7EDF90121AE4888
:1032C0004C38FDF708F9AC484C38FDF7A0F91BB0B5
:1032D00000BD10B50446062301222146A6484C38FD
:1032E000FDF739F9A4484C38FDF791F900BF0221E8
:1032F000A1484C38FDF7ACFA0028F8D09E484C386D
:10330000FDF7C1F910BD10B502460023002109E008
:10331000C1EBC100994C04EB400030F812000344AB
:10332000481CC1B20A29F3DB0A20B3FBF0F080B2DB
:1033300010BD70B52DED048B0446002507E0A8B242
:10334000FFF7E1FF914901EBC50148806D1C072D96
:10335000F5DB8E48408800EE100AB8EE400ADFED3B
:103360008C0A20EE200ADFED8B0A80EE201A8748B7
:1033700080ED011A408900EE100AB8EE400ADFED38
:10338000840A20EE200ADFED830A80EE201A7F48AF
:1033900080ED031A408A00EE100AB8EE400ADFED15
:1033A0007C0A20EE200ADFED7B0A80EE201A7748A7
:1033B00080ED051A408B00EE100AB8EE400ADFEDF2
:1033C000740A20EE200A9FED731AC0EE010AB0EED7
:1033D000000A20EE800A6D4880ED070A408C00EE5E
:1033E000100AB8EE400ADFED6A0A20EE200ADFED8F
:1033F000690A80EE201AB0EE000A21EE000A634846
:1034000080ED090A408D00EE100AB8EE400ADFEDAB
:10341000600A20EE200ADFED5F0A80EE201A11EE2E
:10342000105A28460BF024FD41EC190B9FED5A0B66
:1034300053EC102B0BF01EFC41EC180B0BF0A6FB11
:103440005249C8620846408E00EE100AB8EE400AA3
:10345000DFED4F0A20EE200ADFED4E0A80EE201A43
:10346000084680ED0D1A90ED010ADFED4D0A20EEC1
:10347000200ABCEEC00A10EE100AA080084690EDAB
:10348000030ADFED470A20EE200ABCEEC00A10EE68
:10349000100AE080084690ED050ADFED410A20EEB3
:1034A000200ABCEEC00A10EE100A2081084690EDFA
:1034B000070ADFED3B0A20EE200ABCEEC00A10EE40
:1034C000100A6081084690ED090ADFED350A20EE0A
:1034D000200ABCEEC00A10EE100AA081084690ED4A
:1034E0000B0ADFED2F0A20EE200ABCEEC00A10EE18
:1034F000100AE081084690ED0D0AF0EE000A20EE79
:10350000200ADFED270A20EE200ABCEEC00A10EEEA
:10351000100A208200BF23A1002009F0ADFC00BFEB
:1035200000BFA3881948428829A1002009F0A4FC03
:1035300000BF00BFE388154842892EA1002009F092
:103540009BFC00BF00BF23891048428A32A10020A3
:1035500009F092FC00BF00BF63890C48428B37A181
:10356000002009F089FC00BF00BFA3890748428CF6
:1035700076E00000050040004C200140481E00207D
:1035800010640240000002400008024010000020C9
:1035900033335340000080452FDD24068195F73FEB
:1035A0000000C8423D3D3D3D3D3D3D3D3D3D3D3D35
:1035B0003D3D3D3D3D3D3D3D3D3D3D3D3D3D3D3D3B
:1035C0003D3D3D3D3D3D3D3D3D3D0D0A0000000082
:1035D0005644445120202072617776616C5B25301F
:1035E00034785D20766F6C746167655B25645D0D72
:1035F0000A0000005644445F434F524520726177F1
:1036000076616C5B253034785D20766F6C74616711
:10361000655B25645D0D0A00766363317638207240
:10362000617776616C5B253034785D20766F6C74E1
:103630006167655B25645D0D0A0000007663633297
:1036400076352072617776616C5B253034785D2049
:10365000766F6C746167655B25645D0D0A00000020
:103660000CA1002009F008FC00BF00BFE38912484C
:10367000428D12A1002009F0FFFB00BF00BF238A8A
:103680000D48428E16A1002009F0F6FB00BFBDECEC
:10369000048B70BD76636333763320726177766115
:1036A0006C5B253034785D20766F6C746167655B88
:1036B00025645D0D0A00000010000020766363356C
:1036C00076302072617776616C5B253034785D20CE
:1036D000766F6C746167655B25645D0D0A000000A0
:1036E0007670783132762072617776616C5B253046
:1036F00034785D2063757272656E745B25645D2A33
:1037000031306D410D0A00001CB501210420FDF788
:1037100033FE4FF48070009001208DF804000020EB
:103720008DF8060003208DF8050001208DF80700B4
:1037300069465548FDF736F94FF480715248FDF758
:10374000ADF91CBD1CB501210220FDF715FE43F2A9
:103750000330009000208DF8040003208DF8050050
:1037600001208DF8070069464848FDF71BF91CBD8C
:103770001CB501210420FDF7FFFDC02000900120B1
:103780008DF8040000208DF8060003208DF8050058
:1037900001208DF8070069463B48FDF703F9032037
:1037A000009000208DF8040003208DF80500012012
:1037B0008DF8070069463548FDF7F4F84021324896
:1037C000FDF76CF980213048FDF768F91CBD1CB588
:1037D00001210220FDF7D0FD4FF440400090002071
:1037E0008DF8040003208DF8050001208DF80700F6
:1037F00069462648FDF7D6F81CBD1CB501210620F8
:10380000FDF7BAFD8020009001208DF80400002013
:103810008DF8060003208DF8050001208DF80700C3
:1038200069461B48FDF7BEF880211948FDF738F9B5
:103830001CBD1CB501210420FDF79EFD2020009039
:1038400001208DF8040000208DF8060003208DF87B
:10385000050001208DF8070069460B48FDF7A2F826
:103860001020009000208DF8040003208DF8050042
:1038700001208DF8070069460348FDF793F82021E1
:103880000148FDF70DF91CBD00080240000402408C
:10389000000002407FB504460D4601210846FDF7B1
:1038A000B4FDADF8045002940020ADF80600ADF868
:1038B0000C0001A94FF08040FEF79FF9012211464C
:1038C0009007FEF73BFE01218807FEF71FFA1C2038
:1038D0008DF8000001208DF8010007208DF802000E
:1038E00001208DF803006846FCF739FD7FBD10B557
:1038F00001218807FEF739FE012808D10E48026829
:103900004068521C40F100000B490A6048600121E8
:103910008807FEF73BFE10BD0749086849687047F5
:1039200010B502460B460448016840688C1A60EBEB
:103930000301204610BD00004800002010B50446D9
:103940002CB101224021F748FDF7ACF804E0002239
:103950004021F448FDF7A6F8002010BD10B504463C
:103960002CB101228021EF48FDF79CF804E00022F1
:103970008021EC48FDF796F8002010BD10B50446F4
:103980000121E848FDF770F808B1012010BD0020C2
:10399000FCE710B504460221E248FDF765F808B1DE
:1039A000012010BD0020FCE700B587B001214805CB
:1039B000FDF72BFD01210220FDF7DEFC012188032C
:1039C000FDF734FD01214805FDF774FD00214FF49A
:1039D0000010FDF76FFD0121D348FDF7BEF900216E
:1039E000D148FDF7BAF904220621D048FDF765F861
:1039F00004220721CD48FDF760F840200590022001
:103A00008DF8180003208DF8190001208DF81A0098
:103A100000208DF81B0005A9C448FCF7C3FF8020D7
:103A2000059005A9C148FCF7BDFF0020ADF80400D2
:103A30004BF6FF70ADF80600BD4890F81E0440003C
:103A4000ADF808004FF48060ADF80A000001ADF851
:103A50000C00B84800906946B348FDF790F8012182
:103A6000B148FDF74BF90121AF48FDF704F91F20DC
:103A70008DF8100000208DF8110001208DF8120043
:103A80008DF8130004A8FCF76AFC20208DF81000C4
:103A900007208DF8120004A8FCF761FC01225102F6
:103AA000A148FDF7FAF9012291029F48FDF7F5F9C7
:103AB000012211029C48FDF7F0F9012001F078F98C
:103AC00007B000BD00B587B001218805FDF79DFC5A
:103AD00001210220FDF750FC01218803FDF7A6FC1F
:103AE00001218805FDF7E6FC00214FF48000FDF779
:103AF000E1FC04220A218D48FCF7DFFF04220B21A0
:103B00008A48FCF7DAFF4FF48060059002208DF8B8
:103B100018008DF8190001208DF81A008DF81B008F
:103B200005A98248FCF73EFF4FF40060059005A907
:103B30007E48FCF737FF01217B48FDF70EF9002195
:103B40007948FDF70AF90020ADF804004BF6FF7044
:103B5000ADF80600784890F81E044000ADF8080063
:103B60004FF48060ADF80A000001ADF80C00714818
:103B7000009069467148FDF702F801216F48FDF792
:103B8000BDF801216D48FDF776F821208DF8100071
:103B900000208DF8110002208DF8120001208DF810
:103BA000130004A8FCF7DBFB22208DF8100007208F
:103BB0008DF8120004A8FCF7D2FB012251025F48E5
:103BC000FDF76BF9012291025C48FDF766F90122CD
:103BD00011025A48FDF761F9012001F0E9F807B038
:103BE00000BD00B587B00121C805FDF70EFC01211D
:103BF0000520FDF7C1FB01218803FDF717FC01211A
:103C0000C805FDF757FC00214FF40000FDF752FCFA
:103C100001214B48FDF7A1F800214948FDF79DF827
:103C2000042208214748FCF748FF042209213D48A7
:103C3000FCF743FF4FF48070059002208DF81800C8
:103C400003208DF8190001208DF81A0000208DF84E
:103C50001B0005A93B48FCF7A5FE4FF4007005903A
:103C600005A93048FCF79EFE0020ADF808004BF691
:103C7000FF70ADF80A000020ADF80C004FF4806032
:103C8000ADF80E000001ADF810002A48019001A91E
:103C90002B48FCF774FF01212948FDF72FF807B0E6
:103CA00000BD10B50121284800F051FD0121274831
:103CB00000F04DFDFFF706FF642001F079F8FFF7F3
:103CC00073FE642001F074F8FFF78BFF4FF400726D
:103CD00017491431A1F1100006F04EFD4FF40072A7
:103CE00015491431A1F1100006F046FD00211848D5
:103CF00000F037FD28B100BF16A1002009F0BCF884
:103D000000BF0021194800F02CFD28B100BF18A108
:103D1000002009F0B1F800BF10BD10B5044600BF87
:103D2000224631E0000802400054004000040240F6
:103D300090000020A0860100B00400200058004040
:103D4000005C00400000024058000020600000209D
:103D50006800002049324331206275666665722032
:103D60007265616479204F4B200D0A0070000020BD
:103D700049324332206275666665722072656164FD
:103D800079204F4B200D0A00FEA1002009F074F8A5
:103D900000BF002010BD2DE9F04704460F4616462F
:103DA00098460025A94600224FF400712068FDF7CF
:103DB00074F800224FF480612068FDF76EF800224D
:103DC0004FF480712068FDF768F84FF4204506E055
:103DD000281EA5F1010502D14FF0040962E04FF45D
:103DE00000312068FDF784F80028F1D10121206816
:103DF000FCF764FF4FF4805506E0281EA5F101058D
:103E000002D14FF005094DE0E9492068FDF74EF871
:103E10000028F2D07A06110E00222068FCF766FF17
:103E20004FF4805506E0281EA5F1010502D14FF0A0
:103E3000060937E0DF492068FDF738F80028F2D09E
:103E400015E031782068FCF7D5FF761C4FF48055DB
:103E500006E0281EA5F1010502D14FF0080921E076
:103E6000D449891C2068FDF721F80028F1D0B8F169
:103E70000000A8F101011FFA81F8E2D101212068B8
:103E8000FCF728FF012251022068FDF706F8012205
:103E900091022068FDF701F8012211022068FCF769
:103EA000FCFF00BFB9F1000F03D009F0FF00FFF7DE
:103EB00034FFC1492068884201D1FFF775FDBF4931
:103EC0002068884201D1FFF7FDFD0020BDE8F087A2
:103ED0002DE9F05F04460E4615461F46DDF828B072
:103EE0004FF00009CA46B4492068884201D1DFF882
:103EF000D0A2B2492068884201D1DFF8C8A250465A
:103F0000FFF723F87006010E5046FFF7D8F8504629
:103F1000FFF75EF84FF0000809E015F8011B504666
:103F2000FFF7CDF85046FFF753F808F10108B84500
:103F3000F3DB5046FFF72EF84846BDE8F09F2DE929
:103F4000F04704460F464FF00008C1460025AA4638
:103F500099492068884201D1DFF864A29749206816
:103F6000884201D1DFF85CA25046FEF7EEFF012047
:103F700000EB4700C1B25046FFF7A1F85046FFF7EB
:103F800027F8012084F81C0449465046FFF7CBF877
:103F900080464146201D06F0F6FB49465046FFF795
:103FA000C2F805462946201D06F0EDFB002611E06B
:103FB000681EB04202D14FF0000901E04FF0010944
:103FC00049465046FFF7AFF880464146201D06F0AF
:103FD000DAFB761CAE42EBDB022084F81C04504670
:103FE000FEF7D8FF4046BDE8F0872DE9F0410546D1
:103FF0000F4690461C462046E11704EBD15149126A
:10400000A4EB4121A5F81A147806000E85F81F04C8
:104010004FF4007105F5057009F015FA2646E01712
:1040200004EB10600012A4EB0022414605F5057078
:1040300009F09AF9BDE8F08170B504460025002624
:104040002068FCF748FF06465A49891E701A8E42BE
:1040500026D008DC6FF44030304448B101285FD0EE
:104060003F287DD15DE0022809D00428F9D137E04E
:1040700094F81F1400222068FCF738FEB3E0B4F86F
:1040800018345A1CA4F8182404F50572D15C206871
:10409000FCF7B0FEB4F81A04401EA4F81A04A2E01B
:1040A000B4F81A04002810DDB4F818345A1CA4F827
:1040B000182404F50572D15C2068FCF79BFEB4F867
:1040C0001A04401EA4F81A0409E001212068FCF734
:1040D00001FE0020A4F81804102084F81C0482E0DB
:1040E000B4F81A04002810DDB4F818345A1CA4F8E7
:1040F000182404F50572D15C2068FCF77BFEB4F847
:104100001A04401EA4F81A0409E001212068FCF7F3
:10411000E1FD0020A4F81804102084F81C0462E0DB
:1041200061E0042084F81C042068FCF765FE054665
:104130002946201D06F027FBB4F81404401CA4F8FF
:104140001404B4F81404022801D1A4F81654B4F8E5
:104150001414B4F81604401C814205D1002100E07B
:1041600037E02068FCF7CAFDB4F81414B4F816045C
:10417000801C81422CD10020A4F81404022084F871
:104180001C0421E04552524F523A204932432077D5
:104190006169742074696D656F75742C2065727225
:1041A0006F72436F6465203D2025640D0A00000096
:1041B0000100030082000700005400400058004046
:1041C000780000208400002001212068FCF782FD97
:1041D00009E000BF334640F2B122FDA1002008F003
:1041E0004BFE00BF00BF00BF70BD70B50446002687
:1041F00000252068FCF76FFE0546FE49681A8D42CF
:1042000048D008DC102D4ED0B5F5806F36D0B5F112
:10421000021F50D13DE0A0F58020403828B102288F
:1042200002D0042847D114E04DE0202084F81C047B
:10423000B4F818345A1CA4F8182404F50572D15C9B
:104240002068FCF7D7FDB4F81A04401EA4F81A043D
:1042500039E0B4F81A0400280FDDB4F818345A1CF9
:10426000A4F8182404F50572D15C2068FCF7C2FD9F
:10427000B4F81A04401EA4F81A0424E00020A4F89C
:104280001804102084F81C04DB492068FCF773FE36
:1042900019E018E02068FCF7AFFD06463146201D06
:1042A00006F071FA0FE0022084F81C040121206856
:1042B000FCF7E1FC07E000BF2A46C7A1002008F098
:1042C000DBFD00BF00BF00BF70BD70B50446002518
:1042D00000262068FCF7FFFD0646C849701A8E428A
:1042E00078D015DCC349A6EB01008E4273D008DC00
:1042F000102E71D0B6F5806F6FD0B6F1021F6DD160
:10430000E4E0A0F57F40C138B8B10128F7D171E0F1
:10431000BB4A811A904228D00ADCA0F54030A0F1B7
:10432000400000287ED002287DD00428E7D1ADE0EF
:10433000022909D00429E2D137E094F81F140022A1
:104340002068FCF7D3FCDBE0B4F818345A1CA4F85E
:10435000182404F50572D15C2068FCF74BFDB4F815
:104360001A04401EA4F81A04CAE0B4F81A0400287B
:1043700010DDB4F818345A1CA4F8182404F505729A
:10438000D15C2068FCF736FDB4F81A04401EA4F88E
:104390001A0409E001212068FCF79CFC0020A4F825
:1043A0001804102084F81C04AAE0B4F81A040028A9
:1043B00015DDB4F818345A1CA4F8182404F5057255
:1043C000D15C2068FCF716FDB4F81A04401EA4F86E
:1043D0001A040EE00FE07AE082E06CE088E0012150
:1043E0002068FCF777FC0020A4F81804102084F85B
:1043F0001C0485E084E0042084F81C042068FCF799
:10440000FBFC05462946201D06F0BDF9B4F814044E
:10441000401CA4F81404B4F81404022801D1A4F830
:10442000165401E01EE01CE0B4F81414B4F81604AD
:10443000401C814203D100212068FCF75FFCB4F8E6
:104440001414B4F81604801C814209D10020A4F889
:104450001404022084F81C0401212068FCF73AFCB3
:104460004EE04DE0202084F81C04B4F818345A1CA7
:10447000A4F8182404F50572D15C2068FCF7BAFC96
:10448000B4F81A04401EA4F81A0439E0B4F81A0467
:1044900000280FDDB4F818345A1CA4F8182404F5C9
:1044A0000572D15C2068FCF7A5FCB4F81A04401E24
:1044B000A4F81A0424E00020A4F81804102084F8BA
:1044C0001C044D492068FCF756FD19E018E02068EF
:1044D000FCF792FC05462946201D06F054F90FE032
:1044E000022084F81C0401212068FCF7C4FB07E0CB
:1044F00000BF324638A1002008F0BEFC00BF00BF5C
:1045000000BF70BD10B53F48FFF7DFFE10BD10B50E
:1045100039493D48FCF71CFD18B137493A48FCF7CA
:104520002AFD4FF001213848FCF712FD20B14FF071
:1045300001213548FCF71FFD34493348FCF708FDDD
:1045400018B132493048FCF716FD10BD10B530489F
:10455000FFF7BBFE10BD10B527492B48FCF7F8FC50
:1045600018B125492848FCF706FD4FF001212648DF
:10457000FCF7EEFC20B14FF001212348FCF7FBFCD7
:1045800010BD70B50446234D07E0281EA5F10105B6
:1045900003D16320FFF7C1FB70BD4FF400312068E9
:1045A000FCF7A6FC0028F0D102E02068FCF724FC10
:1045B00019492068FCF79CFC0028F6D14FF40072E2
:1045C00010491431A1F1100006F0D6F826E00000E1
:1045D0004C696E6525643A2049324320696E7661E4
:1045E000696C64204556454E545B253038785D0D26
:1045F0000A00000040000200000400014000030027
:10460000400004009000002000540040000200011F
:10461000B0040020A0860100400000104FF400729A
:104620001849A1F1100006F0A7F80020B4E77CB506
:1046300006460C462546082313A227212846FFF7E5
:10464000AAFBAFF215004FF47A720023CDE9000502
:10465000104805F0D1FF7CBD1CB50F48007878B933
:104660000D480078401C0C4908700C48AFF241011D
:104670004FF47A720023CDE90010064805F0BCFF24
:104680001CBD0000C40400203132333435363738C5
:1046900000000000D81E00203815002090000020E7
:1046A00010B504462CB1012211025248FCF7FAF968
:1046B00005E000224FF480714E48FCF7F3F900202A
:1046C00010BD10B5044601214B48FCF7CDF908B1E7
:1046D000012010BD0020FCE710B504460221464829
:1046E000FCF7C2F908B1012010BD0020FCE710B5AD
:1046F00004464FF480714048FCF7B6F908B1012038
:1047000010BD0020FCE710B504464FF400713A4894
:10471000FCF7AAF908B1012010BD0020FCE710B594
:1047200004464FF480513448FCF79EF908B101204B
:1047300010BD0020FCE710B504464FF400512E4890
:10474000FCF792F908B1012010BD0020FCE770B51C
:1047500004460D46002628466168884706463046CE
:1047600070BD70B504460D4600262846616888472E
:104770000646304670BD10B5044621461F48FFF777
:10478000E6FF10BD70B5054600244FF400511A48ED
:10479000FCF76AF904434FF480511748FCF764F9B9
:1047A00044EA4000C4B24FF400711348FCF75CF9CE
:1047B00044EA8000C4B24FF480710F48FCF754F90A
:1047C00044EAC000C4B202210B48FCF74DF944EAA8
:1047D0000010C4B201210848FCF746F944EA401031
:1047E000C4B200BF224606A1002008F045FB00BF6E
:1047F0002C7070BD00080240000402403C150020EF
:104800006C6F63616C2061646472657373203C2516
:104810003032783E200D0A0070B52DED068B04462F
:104820000025A5886D1105F48060C0B1E843401CE7
:1048300085B228460AF00BFA41EC1A0B9FED990B52
:1048400053EC102B0AF016FA41EC190B0AF092F90E
:1048500041EC180B0AF0CCF900B2E08010E02846D9
:104860000AF0F5F941EC190B9FED8E0B53EC102B70
:104870000AF000FA41EC180B0AF0BAF900B2E08035
:10488000BDEC068B70BDF8B50446002000900225F3
:1048900000264FF420408549086009E083490868F4
:1048A000411E824A116018B90920FFF736FAF8BD97
:1048B000216808684FF40031FCF71AFB0028EDD19D
:1048C000216808680121FCF7F9F94FF48050774915
:1048D000086009E075490868411E744A116018B9FA
:1048E0000A20FFF71AFAE2E7216808687049FCF726
:1048F000DDFA0028EED0226892F81F14106800221A
:10490000FCF7F4F94FF480506849086009E0674902
:104910000868411E654A116018B90B20FFF7FDF9C0
:10492000C5E7216808686349FCF7C0FA0028EED0A3
:10493000216808680121FCF79EF9216808680021B8
:10494000FCF758FA4FF480505849086009E057497D
:104950000868411E554A116018B90C20FFF7DDF9AF
:10496000A5E7216808685349891CFCF79FFA0028CD
:10497000EDD0216808680121FCF7A0F94FF48050C0
:104980004A49086009E049490868411E474A1160E0
:1049900018B90D20FFF7C1F989E721680868444973
:1049A000FCF784FA0028EED0226892F81F2442F027
:1049B0000101226810680122FCF798F94FF4805039
:1049C0003A49086009E039490868411E374A1160D0
:1049D00018B90E20FFF7A1F969E721680868344982
:1049E000491CFCF763FA0028EDD02DE0012D09D118
:1049F000216808680021FCF781F921680868012115
:104A0000FCF768F94FF420402849086009E027497D
:104A10000868411E254A116018B90320FFF77DF987
:104A200045E72168086822493F31FCF73FFA002832
:104A3000EDD021680868FCF7DFF93146721CD6B268
:104A40000DF80100681EC5B2002DCFD1216808689D
:104A50000121FCF753F99DF801009DF8001040EA90
:104A60000120A0802046FFF7D7FE01201FE710B5E8
:104A700000241148FFF707FF0F48B0F9064000BFB8
:104A80000EA1002008F0F8F900BF00BF0A48B0F9F5
:104A90000620234614A1002008F0EEF900BF2046AE
:104AA00010BD000000000000000029407415002027
:104AB0000100030082000700781500203D3D3D3DC8
:104AC0003D3D3D3D3D3D3D3D3D3D3D3D3D3D3D3D16
:104AD0003D3D3D3D3D3D3D3D3D3D3D3D3D3D3D3D06
:104AE0003D3D0D0A0000000054454D50315B2564EA
:104AF0005D204156475B25645D0D0A0070B5044694
:104B00000D4600212046FEF723F900BF2046FEF7A0
:104B10006CF90028FAD129462046FEF73AF901211E
:104B20002046FEF715F970BD30B58FB004460D462E
:104B300001218805FCF720FC5D48FEF72DF800BF39
:104B40005B48FEF752F90028FAD14FF0C0600090A0
:104B5000584801900294049540200390002005904D
:104B60004FF48060069000200790089009904FF461
:104B700080300A9000200B9003200C9000200D90B4
:104B80000E9069464A48FEF7A9F829464848FFF7BB
:104B9000B5FF0FB030BD00B589B001210320FCF78F
:104BA000EBFB01210803FCF741FC382007900220B1
:104BB0008DF8200000208DF8220003208DF82100C0
:104BC00001208DF8230007A93B48FBF7EBFE1020DE
:104BD000079007A93948FBF7E5FE0522042137486D
:104BE000FBF76BFF052203213348FBF766FF052225
:104BF00004213148FBF761FF052211462E48FBF7DF
:104C00005CFF01210803FCF766FC00214FF4805093
:104C1000FCF761FC0020ADF80800ADF80A00ADF823
:104C20000C000220ADF80E000120ADF810000020AD
:104C3000ADF812003820ADF814000020ADF81600D1
:104C40000720ADF8180002A91A480C38FCF734FD0B
:104C5000012118480C38FCF729FE23208DF80400A8
:104C600000208DF805008DF8060001208DF8070062
:104C700001A8FBF774FB012260210E480C38FCF7F9
:104C8000BDFE09B000BD10B504460A480C380088C6
:104C90004FF6C771084007490C390880084600885C
:104CA00020430880012103480C38FCF7FFFD10BDAC
:104CB000586402400C3001400004024000000240F1
:104CC00070B505460C4645F25550FCF75BF9284691
:104CD000FCF75BF92046FCF75BF9FCF75CF9FCF7A5
:104CE0005FF970BD10B5FCF756F910BD10B504465C
:104CF0006FF00400FBF780FBE11704EB5171C1F387
:104D0000C701394A11701046007800EB4001C1EB31
:104D1000C0104FF6FF7101EAC0003449088010BD91
:104D20000146314A12784A434FF0E0235A6100228B
:104D30009A611A46126942F001021A6100BF4FF0EF
:104D4000E022106900F001021AB100F48032002A5A
:104D5000F5D04FF0E022126922F001024FF0E0237B
:104D60001A6100229A6170470146204A12884A431C
:104D70004FF0E0235A6100229A611A46126942F00C
:104D800001021A6100BF4FF0E022106900F0010239
:104D90001AB100F48032002AF5D04FF0E0221269F7
:104DA00022F001024FF0E0231A6100229A6170475D
:104DB00070B504464FF4077094FBF0F0C6B24FF4A0
:104DC000077094FBF0F100FB114085B205E04FF451
:104DD0000770FFF7C9FF701EC6B2002EF7D115B1DC
:104DE0002846FFF7C1FF70BD881500208A150020F6
:104DF00000BF704770B504460D467C490C8000BF6B
:104E000040217A48001FFDF767FE0028F8D02046B1
:104E100070BD10B588B0044601210846FCF7ACFA15
:104E200001211020FCF7B9FA072209217048FBF78D
:104E300044FE07220A216E48FBF73FFE4FF4C06094
:104E4000069002208DF81C008DF81D0000208DF8C2
:104E50001E0001208DF81F0006A96548FBF7A2FD82
:104E600002940020ADF80C00ADF80E00ADF8100073
:104E7000ADF814000C20ADF8120002A95D48FDF752
:104E8000C8FC01215B48FDF74CFD40215948FDF766
:104E900030FE012240F225515648FDF7F8FD25204D
:104EA0008DF8040003208DF805008DF80600012020
:104EB0008DF8070001A8FBF752FA08B010BD10B535
:104EC00086B0044601214FF00410FCF755FA47481C
:104ED000001FFDF737FC07220A214748FBF7EDFDCD
:104EE00007220B214448FBF7E8FD4FF44060049093
:104EF00002208DF814008DF8150000208DF81600A2
:104F000001208DF8170004A93B48FBF74BFD0094E6
:104F10000020ADF80400ADF80600ADF80800ADF8CB
:104F20000C000C20ADF80A0069463048001FFDF760
:104F300070FC01212D48001FFDF7F3FC40212B4898
:104F4000001FFDF7D6FD06B010BD10B586B00446B3
:104F500001210420FCF710FA01218804FCF755FA1E
:104F600007220A212448FBF7A8FD07220B2122482B
:104F7000FBF7A3FD4FF44060049002208DF814006D
:104F80008DF8150000208DF8160001208DF817000F
:104F900004A91948FBF706FD00940020ADF80400B1
:104FA000ADF80600ADF80800ADF80C000C20ADF827
:104FB0000A0069460D48001FFDF72BFC01210B4834
:104FC000001FFDF7AEFC40210848001FFDF791FDD2
:104FD00006B010BD10B540F225510648FDF792FD10
:104FE00018B10448FDF7CCFCC4B210BD0448004021
:104FF0000000024000100140000802400F2180F82C
:105000002A100F222B210A542C210A542D210A5434
:105010002E210A542F210A5430210A54704700BF10
:1050200000BF4FF4C060FBF795F9A820FFF75EFEC4
:1050300040F2DC50FFF7BCFE00BF21A1002007F0CA
:105040001BFF00BF4FF4E130FFF77FFF4FF4E1306B
:10505000FFF7DFFEFEF758FBFEF774FBFEF788FB59
:10506000FEF7B5FBFEF7C9FBFEF7E3FBFEF78CF896
:10507000532140F2E730FEF70DFCFEF712FE174811
:10508000FFF780FB05F04BFB02F0A7FA05F038F8BC
:105090001348FFF7B3FF4FF448710420FFF710FEE9
:1050A00000BF10A1002007F0E7FE00BF06E005F0FA
:1050B00043FB02F0DBFA05F055F800BFF7E700000C
:1050C0003C5A4B423E2073797374656D20696E695A
:1050D00074202E2E2E2E2E2E0D0A0000A01F002032
:1050E000BC1F00203C5A4B423E2053797374656DBF
:1050F00020696E697420636F6D706C657465642CD3
:1051000020656E746572206C6F6F70202E2E2E2EAF
:105110002E2E0D0A00000000704700BFFEE700BF02
:10512000FEE700BFFEE700BFFEE77047704770472D
:10513000704700000CB50020019000907648006890
:1051400040F480307449086000BF7348006800F480
:10515000003000900198401C0190009818B9019807
:10516000B0F5A04FF1D16C48006800F4003010B1E8
:105170000120009001E0002000900098012846D115
:1051800065484030006840F0805063494031086015
:105190006248006840F44040604908605E4808305A
:1051A00000685D49083108600846006840F4004026
:1051B00008600846006840F4A05008605848091F7D
:1051C0000860081F006840F08070091F086000BF79
:1051D0005148006800F000700028F9D040F20570D6
:1051E000504908604C480830006820F003004A49E4
:1051F000083108600846006840F00200086000BFFF
:1052000045480830006800F00C000828F8D10CBDB3
:1052100010B54548006840F47000434908603E48B6
:10522000006840F001003C49086000203A4908311C
:105230000860394800683D490840374908603C48E3
:10524000091D0860081F006820F48020091F0860FD
:10525000002031490C310860FFF76CFF4FF000600F
:1052600031498039086010BD70B50020002202234A
:1052700000240221284D08352D6805F00C0020B1CE
:10528000042806D0082834D107E02A4D2A4E35607C
:1052900033E02A4D284E35602FE01F4D2D1D2D681F
:1052A000C5F380541C4D2D1D2D6805F03F0154B1F0
:1052B000224DB5FBF1F5184E361D3668C6F388163B
:1052C00005FB06F209E01B4DB5FBF1F5124E361D4C
:1052D0003668C6F3881605FB06F20F4D2D1D2D68A6
:1052E000C5F301456D1C6B00B2FBF3F5124E356042
:1052F00003E0104D104E356000BF00BF064D08356D
:105300002D68C5F303150E4E705D0B4D2D68C5401D
:10531000094E356070BD000000380240007000404A
:1053200008544007003C024088ED00E0FFFFF6FE15
:10533000103000240024F400C415002000127A006C
:10534000C815002010B502460B460020002100BF02
:1053500004E0545C0444E0B24C1CE1B25C1E8C429C
:10536000F7DC10BD10B502460B460020002100BF3F
:1053700004E0545C0444E0B24C1CE1B29942F8DB16
:1053800010BDF0B5ADF5017D0446002700250026CF
:105390004FF4007101A808F056F8A079801F86B27A
:1053A000627929466D1C01A84254A27929466D1CD8
:1053B0004254E27929466D1C4254227A29466D1CDA
:1053C0004254627A29466D1C4254002E08DD01A920
:1053D0004819324604F10A0107F0C6FFA81985B240
:1053E000A81EC1B20DF10600FFF7BCFF014628461A
:1053F0006A1C95B201AA115421792B462068FEF748
:10540000CAFC074638460DF5017DF0BD10B50446CF
:105410002CB101228021F848FBF744FB04E0002274
:105420008021F548FBF73EFB002010BD2DE9F04739
:1054300007460D461646B8464FF00009EF4C062EBB
:105440006FD128780328FBD10120A8F822006878C2
:105450000E3812287ED2DFE800F0092139516A8324
:105460009BB4CDEFEDECEBEAE9E8E7E600BFE878C6
:10547000A97840EA012020826879297940EA012050
:10548000A086208AB0F5967F03DD012084F85A00BB
:1054900002E0002084F85A0000BFBAE100BFE878BB
:1054A000A97840EA012060826879297940EA0120E0
:1054B000E086608AB0F5967F03DD012084F85B000A
:1054C00002E0002084F85B0000BFA2E100BFE878A2
:1054D000A97840EA0120A0826879297940EA012070
:1054E0002087A08AB0F5967F03DD012084F85C0058
:1054F00002E0002084F85C0000BF8AE100BFE87889
:10550000A97840EA0120E0826879297940EA0120FF
:105510006087E08AB0F5967F04DD012084F85D00A5
:1055200003E077E1002084F85D0000BF71E100BF77
:10553000E878A97840EA012020836879297940EA4F
:105540000120A087208BB0F5967F04DD012084F830
:105550005E0003E054E1002084F85E0000BF58E1E3
:1055600000BFE878A97840EA01206083687929794A
:1055700040EA0120E087608BB0F5967F03DD0120D3
:1055800084F85F0002E0002084F85F0000BF40E183
:1055900000BFE878A97840EA0120A08368792979DA
:1055A00040EA0120A4F84000A08BB0F5967F03DD0F
:1055B000012084F8600002E0002084F8600000BF51
:1055C00027E100BFE878A97840EA0120A083687944
:1055D000297940EA0120A4F84000A08BB0F5967F1D
:1055E00003DD012084F8600002E0002084F8600000
:1055F00000BF0EE100BFE878A97840EA01202084CE
:105600006879297940EA0120A4F84400208CB0F59B
:10561000967F03DD012084F8620002E0002084F818
:10562000620000BFF5E0CEE0B5E09BE081E067E01E
:105630004DE033E019E0FFE700BFE878A97840EAE1
:10564000012060846879297940EA0120A4F84600A5
:10565000608CB0F5967F03DD012084F8630002E0E2
:10566000002084F8630000BFD3E000BFE878A97889
:1056700040EA0120A0846879297940EA0120A4F851
:105680004800A08CB0F5967F03DD012084F864000B
:1056900002E0002084F8640000BFBAE000BFE878B0
:1056A000A97840EA0120E0846879297940EA01205C
:1056B000A4F84A00E08CB0F5967F03DD012084F861
:1056C000650002E0002084F8650000BFA1E000BF93
:1056D000E878A97840EA012020856879297940EAAC
:1056E0000120A4F84C00208DB0F5967F03DD012049
:1056F00084F8660002E0002084F8660000BF88E0BD
:1057000000BFE878A97840EA0120608568792979A6
:1057100040EA0120A4F84E00608DB0F5967F03DDCD
:10572000012084F8670002E0002084F8670000BFD1
:105730006FE000BFE878A97840EA0120A085687989
:10574000297940EA0120A4F85000A08DB0F5967F99
:1057500003DD012084F8680002E0002084F868007E
:1057600000BF56E000BFE878A97840EA0120E08554
:105770006879297940EA0120A4F85200E08DB0F55B
:10578000967F03DD012084F8690002E0002084F8A0
:10579000690000BF3DE000BFE878A97840EA012039
:1057A000A0816879297940EA01202086A089B0F596
:1057B000967F03DD012084F8580002E0002084F881
:1057C000580000BF25E000BFE878A97840EA012032
:1057D000E0816879297940EA01206086E089B0F5A6
:1057E000967F03DD012084F8590002E0002084F850
:1057F000590000BF0DE0000000000240341F0020EF
:1058000000BF6B78A322F7A1002007F035FB00BF93
:1058100000BF00BF701E82B2691CFA4804F053FA40
:1058200081464846BDE8F0872DE9F04704460D461D
:105830001646A0460027B9464EB12878032806D15F
:1058400000BFC122F0A1002007F016FB00BF3846C0
:10585000BDE8F0872DE9F04707460C469046B9466B
:105860004FF0000A0026ED4DB8F1040F59D1207811
:10587000032856D10120A9F822006078092806D013
:105880000A2814D00B2822D00C2840D12FE000BFCA
:10589000E078A17840EA012626B16E80012085F8E3
:1058A000540002E0002085F8540000BF38E000BF3B
:1058B000E078A17840EA012626B1AE80012085F883
:1058C000550002E0002085F8550000BF28E000BF29
:1058D000E078A17840EA012626B1EE80012085F823
:1058E000560002E0002085F8560000BF18E000BF17
:1058F000E078A17840EA012626B12E81012085F8C2
:10590000570002E0002085F8570000BF08E000BF04
:105910006378E422B3A1002007F0AEFA00BF00BF15
:1059200000BF5046BDE8F0872DE9F84304460D4618
:10593000164627464FF0000800200090012E0AD19D
:105940002878032807D10120788400BFB4A1002063
:1059500007F092FA00BF01226946AA4804F059FAFA
:1059600080464046BDE8F8832DE9F04106460C46E6
:10597000154637464FF0000825B12078032801D19D
:1059800001207884681E82B2611C9E4804F077F979
:1059900080464046BDE8F0812DE9F04105460F46BE
:1059A0009046002408F1190600BF4EE015F81400D7
:1059B00034282DD008DC302812D0312816D03228D7
:1059C0001AD0332836D11DE0352827D036282BD0E1
:1059D00072282FD1012000EB4400285CB07032E027
:1059E000012000EB4400285C70702CE0012000EBEB
:1059F0004400285CF07026E0012000EB4400285CA5
:105A0000307120E0012000EB4400285C70711AE046
:105A1000012000EB4400285CB07114E0012000EB91
:105A20004400285CF0710EE0012000EB4400285C8B
:105A3000307208E000BF15F8142086A1002007F09E
:105A40001BFA00BF00BF00BF641C07EBD771B4EBAB
:105A5000610FABDBBDE8F0812DE9F04105460F4653
:105A60009046002408F1220600BF46E015F8140015
:105A7000242825D006DC212810D0222814D0232861
:105A800030D117E0252821D0262825D0732829D108
:105A9000012000EB4400285CB0702CE0012000EBFA
:105AA0004400285C707026E0012000EB4400285C74
:105AB000F07020E0012000EB4400285C30711AE017
:105AC000012000EB4400285C707114E0012000EB21
:105AD0004400285CB0710EE0012000EB4400285C1B
