:020000040800F2
:100000007828002039020008553F0008573F0008B3
:100010005B3F00085F3F0008633F000800000000EE
:10002000000000000000000000000000673F000822
:10003000693F0008000000006B3F00086D3F0008AA
:10004000530200085302000853020008530200083C
:100050005302000853020008872D000853020008CD
:10006000530200085302000853020008530200081C
:10007000530200085302000853020008530200080C
:1000800053020008530200085302000853020008FC
:1000900053020008530200085302000853020008EC
:1000A00053020008530200085302000853020008DC
:1000B000912A0008312B000853020008530200085F
:1000C00053020008530200085302000853020008BC
:1000D0005302000853020008353C00085302000890
:1000E000530200085302000853020008530200089C
:1000F000530200085302000853020008530200088C
:10010000530200085302000853020008530200087B
:10011000530200085302000853020008530200086B
:10012000530200085302000853020008530200085B
:10013000530200085302000853020008530200084B
:10014000530200085302000853020008530200083B
:10015000530200085302000853020008530200082B
:10016000530200085302000853020008530200081B
:10017000530200085302000853020008530200080B
:10018000530200085302000800F002F800F044F89F
:100190000AA090E8000C82448344AAF10107DA45E2
:1001A00001D100F039F8AFF2090EBAE80F0013F0F0
:1001B000010F18BFFB1A43F001031847A46B00009E
:1001C000C46B0000103A24BF78C878C1FAD852072F
:1001D00024BF30C830C144BF04680C6070470000C1
:1001E0000023002400250026103A28BF78C1FBD840
:1001F000520728BF30C148BF0B607047642905F023
:100200000187782905F06587002070471FB506F043
:1002100068FD1FBD10B510BD06F086F91146FFF749
:10022000F5FF03F0D5FD06F0A4F903B4FFF7F2FFE4
:1002300003BC03F095FC00000948804709480047CB
:10024000FEE7FEE7FEE7FEE7FEE7FEE7FEE7FEE786
:10025000FEE7FEE704480549054A064B70470000E3
:100260004D40000889010008780900207828002006
:10027000781800207818002032490143324A116072
:10028000704770B5002100230F22C4781CB32E4C98
:10029000246804F4E064C4F5E064C4F30721C1F108
:1002A0000404E3B20A4144789C40E1B284781440EB
:1002B00021430C07210E254C05786155047804F084
:1002C0001F050124AC4005786D11AD0005F1E02556
:1002D000C5F8004109E0047804F01F050124AC4092
:1002E0001B4D0678761145F8264070BD194A0A4024
:1002F0000243154B1B1F1A60704739B1124A121D79
:1003000012680243104B1B1D1A6006E00E4A121DB4
:10031000126882430C4B1B1D1A607047042808D1D9
:100320004FF0E021096941F004014FF0E022116132
:1003300007E04FF0E021096921F004014FF0E022CD
:10034000116170470000FA050CED00E000E400E0E8
:1003500080E100E080FFFF1F002041490860091D87
:100360000860091D0860091D08603E483C491431B9
:100370000860704700213A498279002A3AD00A463B
:10038000126803689A430B461A600A1D12680368D4
:100390009A430B1D1A60027911440A6803681A43D4
:1003A0000A602F4A0832126803689A432C4B0833BC
:1003B0001A601A1D126803689A43294B0C331A609D
:1003C0004279102A0ED11A1F126803681A43244B6F
:1003D00008331A601A1D126803681A43204B0C3345
:1003E0001A600DE01E49427911440A6803681A43F5
:1003F0000A6005E0027911440A6803689A430A60BA
:1004000070470021016001710C214171002181714F
:1004100070471349103109680143114A10321160C5
:100420007047014600200E4A143212680A400AB191
:10043000012000E00020704709491431086070472E
:1004400001460020064A143212680A400AB101200F
:1004500000E0002070470249143108607047000036
:10046000003C0140FFFF7F00FE4A1070704730B132
:10047000FC49096841F48071FA4A116005E0F949C4
:10048000096821F48071F74A1160704730B1F5496D
:10049000096841F40071F34A116005E0F149096807
:1004A00021F40071EF4A1160704730B1ED490968DD
:1004B00041F48061EB4A116005E0EA49096821F4E2
:1004C0008061E84A11607047E648006840F40060C7
:1004D000E44908607047E348006840F48050E1490F
:1004E00008607047DF481030006800F0004028B115
:1004F000DD48DC49091D0860DC4808607047D948C0
:100500001030006840F00040D64910310860704754
:100510000920D4490C31096801F48031B1F5803FDC
:1005200001D1012020E0CF490C31096801F0100110
:1005300009B1062018E0CB490C31096801F480713B
:1005400009B1022010E0C7490C31096801F0EF0140
:1005500009B1072008E0C3490C31096801F0020124
:1005600009B1082000E00920704708B50920009073
:10057000FFF7CEFF009002E0FFF7CAFF00909DF862
:1005800000000128F8D09DF8000008BD70B50446B1
:100590000A460026092502B909E0012A01D11602FE
:1005A00005E0022A01D1160201E04FF44076FFF780
:1005B000DCFF0546092D2DD1AA481030006820F433
:1005C0004070A84910310860084600683043086050
:1005D0000846006820F0F80008600846006844F00B
:1005E000020108439F49103108600846006840F442
:1005F00080300860FFF7B9FF05469A481030006860
:1006000020F002009749103108600846006820F089
:10061000F8000860284670BD30B502460025092460
:10062000FFF7A3FF044602B909E0012A01D1150230
:1006300005E0022A01D1150201E04FF44075092CB2
:1006400020D188481030006820F44070854910316E
:10065000086008460068284308600846006840F0C3
:10066000040008600846006840F480300860FFF726
:100670007CFF04467B481030006820F00400794974
:1006800010310860204630BD30B5024600250924EF
:10069000FFF76BFF044602B909E0012A01D11502F8
:1006A00005E0022A01D1150201E04FF44075092C42
:1006B00020D16C481030006820F440706949103136
:1006C000086008460068284308600846006840F053
:1006D000040008600846006840F480300860FFF7B6
:1006E00044FF04465F481030006820F004005D4974
:1006F00010310860204630BD30B50246002509247F
:10070000FFF733FF044602B909E0012A01D11502BF
:1007100005E0022A01D1150201E04FF44075092CD1
:1007200020D150481030006820F440704D491031FD
:10073000086008460068284308600846006840F4DE
:10074000004008600846006840F480300860FFF709
:100750000CFF044643481030006820F40040414933
:1007600010310860204630BD70B5064614461D465F
:100770000922FFF7FAFE0246092A1ED13948103035
:10078000006820F44070374910310860084600685E
:1007900040F4407008600846006840F001000860BE
:1007A00034607560FFF7E1FE02462E4810300068A5
:1007B00020F001002B4910310860104670BD30B5A3
:1007C00002460C460925FFF7D0FE0546092D1DD12E
:1007D00024481030006820F440702249103108602D
:1007E0000846006840F4007008600846006840F061
:1007F000010008601460FFF7B8FE05461948103084
:10080000006820F00100174910310860284630BD0B
:1008100030B502460C460925FFF7A7FE0546092D0F
:100820001DD110481030006820F440700D4910317F
:1008300008600846006840F4807008600846006858
:1008400040F0010008601480FFF78FFE0546054860
:100850001030006820F0010002491031086028467D
:1008600030BD0000003C024023016745AB89EFCD5D
:1008700030B502460C460925FFF777FE0546092DDF
:1008800017D19B48006820F44070994908600846D9
:10089000006808600846006840F0010008601470B5
:1008A000FFF763FE05469248006820F0010090497A
:1008B0000860284630BD8E48001D006800F0010029
:1008C00028B18C488A49083908608B48086070470D
:1008D0008748001D006840F001008549091D086037
:1008E000704730B502460C460925FFF73EFE054627
:1008F000092D10D13CB17E48801D008890437C4971
:10090000891D088007E07A48801D008891B208435D
:100910007749891D088030BD30B502460C4609254F
:10092000FFF723FE0546092D10D13CB170480A306F
:10093000008890436E490A31088007E06C480A300D
:10094000008891B208436A490A31088030BDFF210E
:10095000674AD21D127802F07F0140EA0102644B1F
:10096000DB1D1A70704730B502460C460925FFF7AB
:10097000FCFD0546092D10D144B15D48801D00885D
:1009800091B208435A49891D088006E05848801DE5
:10099000008890435649891D088030BD30B5024615
:1009A0000C460925FFF7E1FD0546092D10D144B19C
:1009B0004F480A30008891B208434D490A310880F7
:1009C00006E04B480A300088904349490A310880C4
:1009D00030BD10B502460924FFF7C7FD0446092CB7
:1009E00002D14348401D027010BDF0B504460D46CB
:1009F000FF260927FFF7B9FD0746092F0BD13C4811
:100A0000001D007800F00F0645EA06001043204361
:100A10003749091D0870F0BD3549091D097821F0D5
:100A20001001334A121D11701146097801431170EB
:100A300070472F49091D097821F00C012C4A121D1D
:100A400011701146097801431170704700B50922F1
:100A50002748001D007840F002002549091D087054
:100A6000FFF783FD0246104600BD2148001D0068C7
:100A7000C0F3471070471E48801D008870471C480F
:100A80000A30008870471A48801D0088704718484F
:100A90000A300088704700201549491D0978AA29A5
:100AA00001D0012000E0002070471148001D0078AF
:100AB00000F00C00704729B10D4A126802430C4B3C
:100AC0001A6004E00A4A12688243094B1A607047B0
:100AD00001460020064A121F12680A400AB101208E
:100AE00000E0002070470249091F086070470000BD
:100AF000103C02403B2A19087F6E5D4C10B504463D
:100B00009848844208D10121084600F0A6FB002144
:100B1000012000F0A2FB76E09348844208D1012135
:100B2000022000F09AFB0021022000F096FB6AE010
:100B30008E48844208D10121042000F08EFB002160
:100B4000042000F08AFB5EE08948844208D101213C
:100B5000082000F082FB0021082000F07EFB52E01C
:100B60008448844208D10121102000F076FB002146
:100B7000102000F072FB46E07F48844208D101213A
:100B8000202000F06AFB0021202000F066FB3AE004
:100B90007A48844208D10121402000F05EFB002108
:100BA000402000F05AFB2EE07548844208D1012114
:100BB000802000F052FB0021802000F04EFB22E05C
:100BC0007048844208D10121801500F046FB0021C5
:100BD000A01500F042FB16E06B48844208D10121C9
:100BE000401500F03AFB0021601500F036FB0AE0EA
:100BF0006648844207D10121001500F02EFB002138
:100C0000201500F02AFB10BDF0B50A460021002394
:100C1000002400BF3DE0012505FA01F3156805EA4F
:100C200003049C4234D105684F000326BE40B543FF
:100C3000056015794E00B5400668354305601579A5
:100C4000012D02D01579022D16D185684F0003269B
:100C5000BE40B543856055794E00B5408668354342
:100C60008560456801268E40B543456045689679A4
:100C70008E40B6B235434560C5684F000326BE407E
:100C8000B543C560D5794E00B540C6683543C560EB
:100C9000491C1029BFD3F0BD4FF6FF710160002140
:100CA000017141718171C171704708B54FF4803293
:100CB0000092009A0A430092009AC261C161009AB0
:100CC000C261C2690092C269009208BD024600205A
:100CD00013690B400BB1012000E000207047014672
:100CE000086980B270470246002053690B400BB17F
:100CF000012000E0002070470146486980B270473B
:100D000001837047418370470AB1018300E041834A
:100D100070474161704742694A4042617047F0B58F
:100D2000002300244D07ED0E02FA05F3CE1000F16A
:100D3000200555F826504E07F70E0F26BE40B54346
:100D4000CF1000F1200646F82750CE1000F1200504
:100D500055F8265045EA0304CE1000F1200545F869
:100D60002640F0BD0000024000040240000802409E
:100D7000000C024000100240001402400018024023
:100D8000001C0240002002400024024000280240D3
:100D90000E49086070470D49486070470B498860EC
:100DA00070474AF6AA200949086070474CF6CC40C3
:100DB00006490860704701460020044AD2680A408C
:100DC0000AB1012000E00020704700000030004020
:100DD000F948006840F00100F74908600020F64932
:100DE00008310860F4480068F4490840F249086096
:100DF000F348091D0860F348EF4984310860F04862
:100E00001038091D0860EC48006820F48020EA4989
:100E100008600020E8490C310860E7498C3108601F
:100E200070470021E44A921C117011460870704707
:100E300010B501460022002300204A11012A02D1E8
:100E4000DD4C236808E0022A03D1DB4C70342368B0
:100E500002E0D94C7434236801F01F02012494404D
:100E60001C400CB1012000E0002010BD38B500206E
:100E700000900024002500BF3120FFF7D9FF054670
:100E80000098401C00900098B0F5A04F01D0002DB4
:100E9000F2D03120FFF7CCFF08B1012400E000249C
:100EA000204638BD01460020C34A106820F0F800F3
:100EB00040EAC10010607047C349086070470021D4
:100EC000BD4A703211701170012802D004280AD175
:100ED00004E00121B84A7032117005E00521B64ADC
:100EE0007032117000E000BF00BF7047B749086062
:100EF000704770B5049C41EA82150126C6EB530683
:100F000045EA0645054345EA0465AB4E361D3560A6
:100F100070BDAD4908667047820142EA0172A64B76
:100F200084331A607047A8498866704710B58301FA
:100F300043EA016343EA02739F4C8834236010BD87
:100F4000A14908677047A049C8647047024600205D
:100F5000994B0833186820F0EC6042EA010318430B
:100F6000954B08331860704702460020924B0833B7
:100F7000186820F0784042EA010318438E4B08338A
:100F800018607047014600208B4A0832106820F034
:100F9000030008431060704787480830006800F07D
:100FA0000C00704701460020834A0832106820F088
:100FB000F000084310607047014600207E4A083266
:100FC000106820F4E050084310607047014600208C
:100FD000794A0832106820F4604040EAC10010608D
:100FE0007047F0B5002100220024022500260223CC
:100FF000714F08373F6807F00C0121B1042905D073
:10100000082937D105E0724F076036E0714F07605D
:1010100033E0694F3F1D3F68C7F38056664F3F1D61
:101020003F6807F03F036EB16A4FB7FBF3F7DFF895
:1010300088C10CF1040CDCF800C0CCF3881C07FB61
:101040000CF40CE0624FB7FBF3F7DFF86CC10CF166
:10105000040CDCF800C0CCF3881C07FB0CF4564FE2
:101060003F1D3F68C7F301477F1C7D00B4FBF5F7C8
:10107000076002E0564F076000BF00BF4E4F0837C1
:101080003F6807F0F0010909534F7A5C0768D740C1
:101090004760494F08373F6807F4E051890A4E4FCF
:1010A0007A5C4768D7408760434F08373F6807F44A
:1010B0006041490B484F7A5C4768D740C760F0BD34
:1010C000002100F44072B2F5407F0AD13A4A08325A
:1010D000116821F4F811414A02401143364A08329E
:1010E0001160354A70321268C0F30B031A43324B59
:1010F00070331A6070473549443908607047334986
:101100004039086070473649086070470146002042
:10111000294A8C32106820F01F004A1E1043264ACC
:101120008C321060704701460020234A8C321068D0
:1011300020F4F8504A1E40EA02201F4A8C32106008
:101140007047014600201C4A8C32106820F4401081
:1011500008431060704701460020174A8C3210681F
:1011600020F4400008431060704701460020124AF6
:101170008C32106820F440300843106070471949E1
:101180000860704739B10C4A3032126802430A4B8A
:1011900030331A6006E0084A303212688243064B48
:1011A00030331A607047F9B1034A3432126802438F
:1011B000014B34331A601CE000380240FFFFF6EAAE
:1011C000103000240030002000004742800E4742CB
:1011D0000024F40000127A0000000020FFFCFF0F42
:1011E0005C014742E01147428F4A126882438E4BAE
:1011F0001A60704739B18C4A121D126802438A4B3B
:101200001B1D1A6006E0884A121D12688243864B35
:101210001B1D1A60704739B1834A0C3212680243B1
:10122000814B0C331A6006E07F4A0C32126882430D
:101230007D4B0C331A60704739B17B4A103212680B
:101240000243794B10331A6006E0774A1032126875
:101250008243754B10331A60704739B1724A243A91
:1012600012680243704B243B1A6006E06E4A243A2F
:10127000126882436C4B243B1A60704739B16A4A4A
:10128000203A12680243684B203B1A6006E0664A27
:10129000203A12688243644B203B1A60704739B190
:1012A000614A1C3A126802435F4B1C3B1A6006E01D
:1012B0005D4A1C3A126882435B4B1C3B1A607047C4
:1012C00039B1594A143A12680243574B143B1A6019
:1012D00006E0554A143A12688243534B143B1A6095
:1012E000704739B1504A103A126802434E4B103BD6
:1012F0001A6006E04C4A103A126882434A4B103B8F
:101300001A60704739B1484A1C3212680243464B92
:101310001C331A6006E0444A1C3212688243424B76
:101320001C331A60704739B13F4A203212680243B9
:101330003D4B20331A6006E03B4A2032126882435C
:10134000394B20331A60704739B1374A243212685A
:101350000243354B24331A6006E0334A24321268C4
:101360008243314B24331A60704739B12E4A2C32F4
:10137000126802432C4B2C331A6006E02A4A2C32A6
:1013800012688243284B2C331A60704739B1264AC1
:10139000303212680243244B30331A6006E0224A8E
:1013A000303212688243204B30331A607047012874
:1013B00008D11D493C31096841F008011A4A3C3204
:1013C000116007E018493C31096821F00801164A0C
:1013D0003C321160704739B1134A273A1278024300
:1013E000114B273B1A7006E00F4A273A12788243C6
:1013F0000D4B273B1A7070470B484030006840F097
:101400008070094940310860704701460020064A53
:10141000283A12680A400AB1012000E00020704713
:1014200001492639087070473438024010B5044627
:10143000FB48844208D101218014FFF752FF0021AC
:10144000A014FFF74EFF3CE0F648844208D101218A
:101450000014FFF735FF00212014FFF731FF30E0C3
:10146000F148844208D10121C013FFF729FF002170
:10147000E013FFF725FF24E0EC48844208D1012166
:101480004014FFF72EFF00216014FFF72AFF18E039
:10149000E748844209D101210805FFF722FF002116
:1014A0004FF48010FFF71DFF0BE0E248844208D1A3
:1014B00001214805FFF715FF00214FF40010FFF749
:1014C00010FF10BD10B50022028802F441520B88B3
:1014D0004C8823438C882343CC8823430C892343A3
:1014E0004C8923438C892343CC8923431A430280AC
:1014F000838B4FF2FF74234083830B8A038210BDDA
:101500002DE9F04F0025022300244FF001090022AD
:101510000026002794469046B0F81CA04FF2400BDE
:101520000AEA0B0AA0F81CA04FF0020AA0F820A0BB
:10153000858BD1F808A0BAF1020F01D100BF82E07B
:10154000B1F804A0BAF1000F02D14FF0010901E097
:101550004FF00209DFF8E0A2DAF800A00AF4000A6E
:10156000BAF1000F09D0DFF8D0A2DAF800A02AF40F
:10157000000ADFF8C4B2CBF800A0DFF8BCA20AF181
:101580007C0ADAF800A0CAF3881CDFF8ACA20AF1E2
:101590007C0ADAF800A0CAF30278DFF89CA2AAF16C
:1015A000040ADAF800A00AF03F07DFF88CA2AAF1DB
:1015B000040ADAF800A00AF4800ABAF5800F08D10C
:1015C000DFF878A2BAFBF7FA0AFB0CFABAFBF8F6D6
:1015D00007E0DFF86CA2BAFBF7FA0AFB0CFABAFBD9
:1015E000F8F6B1F806A0BAF5007F0ED14FEA162A38
:1015F0000AEB8A0A4FEA4A0AD1F808B0BAFBFBFAAA
:101600000AF1050A1FFA8AF20FE04FEA491AB6FBFF
:10161000FAFA0AEB8A0A4FEA4A0AD1F808B0BAFB8A
:10162000FBFA0AF1050A1FFA8AF24FF00A0AB2FB26
:10163000FAF202F00104A2EB040ACAF34F034FF6D8
:10164000FF7A0AEA0424022B01DBFF2B01DD0223CF
:101650000024B1F806A04AEA040A4AEA030AA0F8FC
:1016600020A0B1F804A0B1F80CB04AEA0B0AB1F816
:1016700002B04AEA0B0AB1F800B04AEA0B0A4AF48F
:10168000006A4AEA05058583BDE8F08F00210180E4
:1016900041808180C180018141818181C181072197
:1016A000018270470021018041808180C180022138
:1016B000816000218181704721B1028842F040029F
:1016C000028004E002884FF6BF731A400280704720
:1016D00021B1828B42F48062828304E0828B4FF6D8
:1016E000FF331A408283704702884FF2FF731A401B
:1016F000028002880A4302807047B1F5804F04D10E
:10170000028842F48042028004E002884BF6FF73B4
:101710001A40028070474FF6FF62914204D002885F
:1017200042F48072028004E002884FF6FF631A40A0
:101730000280704721B1828842F00402828004E076
:1017400082884FF6FB731A408280704721B18288ED
:1017500042F01002828004E082884FF6EF731A4054
:101760008280704730B500220023848B4FF2400501
:101770002C40848302240484828B0C88B4F5007F7F
:1017800001D00C8814B94FF4807308E00C88B4F5CC
:10179000407F03D00C88B4F5807F00D100238C8873
:1017A0008D892C434D882C431C4344F40064224310
:1017B000828330BD0146888970478181704721B19D
:1017C000028842F40052028004E002884DF6FF7362
:1017D0001A4002807047018841F4805101807047AF
:1017E00002460020012901D0108B00E0908A70474A
:1017F0000146088A70471AB183880B43838002E050
:1018000083888B438380704730B5002400230C11FC
:101810000125A540ABB2AAB185881D43858014E09F
:101820000030014000380040003C004000340140DE
:1018300000500140005401400838024000127A0074
:101840000024F40085889D43858030BD0246002039
:1018500013890B400BB1012000E000207047CA4300
:1018600002817047F0B502460020002400230025C5
:1018700001F00F070126BE40B4B20B1101269E40B5
:10188000B3B2968806EA03051689264016B10DB153
:10189000012000E00020F0BD10B5002201F00F048F
:1018A0000123A3409AB2D343038110BD10B5012197
:1018B0008803FFF716FD00214FF48040FFF711FD6C
:1018C00010BD1C49086070471B490862704730B55D
:1018D00000228B071C0F0F2303FA04F2154B083369
:1018E0008C1053F824309343124C08348D1044F874
:1018F000253023468C1053F824308C07240F00FA2F
:1019000004F423430B4C08348D1044F8253030BDCB
:101910000949DC31086070470849086070470020B9
:1019200004492031096801F4807109B1012000E007
:101930000020704700380140000027420004274281
:1019400010B50446FE48844208D101210846FFF73D
:10195000C8FC00210120FFF7C4FC9DE0B4F1804FDA
:1019600008D101210846FFF7ABFC00210120FFF759
:10197000A7FC91E0F348844208D101210220FFF73F
:101980009FFC00210220FFF79BFC85E0EE4884428B
:1019900008D101210420FFF793FC00210420FFF768
:1019A0008FFC79E0E948844208D101210820FFF743
:1019B00087FC00210820FFF783FC6DE0E4488442A7
:1019C00008D101211020FFF77BFC00211020FFF738
:1019D00077FC61E0DF48844208D101212020FFF735
:1019E0006FFC00212020FFF76BFC55E0DA488442B1
:1019F00008D101210220FFF774FC00210220FFF72B
:101A000070FC49E0D548844209D101210804FFF760
:101A100068FC00214FF48030FFF763FC3CE0D048C5
:101A2000844209D101214804FFF75BFC00214FF4F7
:101A30000030FFF756FC2FE0CA48844209D101214B
:101A40008804FFF74EFC00214FF48020FFF749FC8B
:101A500022E0C548844208D101214020FFF730FC34
:101A600000214020FFF72CFC16E0C048844208D13A
:101A700001218020FFF724FC00218020FFF720FCBB
:101A80000AE0BB48844207D101218015FFF718FC0A
:101A90000021A015FFF714FC10BD00220288A84BFE
:101AA00098420ED0AC4B98420BD0B0F1804F08D08A
:101AB000A44B984205D0A44B984202D0A34B984225
:101AC00004D14FF68F731A404B881A43A04B9842AB
:101AD00007D0A04B984204D04FF6FF431A400B8921
:101AE0001A4302804B68C3620B880385944B98426B
:101AF00002D0994B984201D18B7A038601238382CD
:101B000070474FF0FF314160002101800181418029
:101B1000817270470185828270470A4600210188E0
:101B20004FF68F731940114301807047416270472F
:101B3000C16270470146486A70470146088D704788
:101B400021B1028842F00202028004E002884FF6CE
:101B5000FD731A400280704721B1028842F00402EE
:101B6000028004E002884FF6FB731A40028070473F
:101B700021B1028842F08002028004E002884FF620
:101B80007F731A400280704702884FF6F7731A403D
:101B9000028002880A430280704702884FF6FF43A2
:101BA0001A40028002880A430280704721B10288ED
:101BB00042F00102028004E002884FF6FE731A40F0
:101BC0000280704770B5002400220023058C4FF678
:101BD000FE7635400584028C8388048B4FF68F7522
:101BE0002C40B51E2C400D882C43751E2A408D8933
:101BF0002A434D882A43524DA84202D0564DA8424E
:101C000013D14FF6F7752A40CD892A434FF6FB755D
:101C10002A408D882A434FF6FF652B404FF6FF552B
:101C20002B400D8A2B434D8A2B43838004838D6880
:101C30004563028470BD70B5002400220023058C2A
:101C40004FF6EF7635400584028C8388048B48F686
:101C5000FF752C404FF6FF452C400D884FF6FF7660
:101C600006EA05252C434FF6DF752A408D8906EAE2
:101C700005152A434D8806EA05152A43304DA8422A
:101C800002D0354DA8421DD14FF67F752A40CD892F
:101C90004FF6FF7606EA05152A434FF6BF752A4030
:101CA0008D8806EA05152A434FF6FF352B404FF283
:101CB000FF752B400D8A06EA85052B434D8A06EAFF
:101CC00085052B43838004838D688563028470BD02
:101CD00070B5002400220023058C4FF6FF663540C6
:101CE0000584028C8388848B4FF68F752C404FF6C9
:101CF000FC752C400D882C434FF6FF552A408D89EA
:101D00004FF6FF7606EA05252A434D8806EA0525A3
:101D10002A430B4DA84202D00F4DA84238D14FF2B2
:101D2000FF752A40CD894FF6FF7606EA05252A433E
:101D30004FF6FF352A408D8806EA05252A4319E02B
:101D4000000001400004004000080040000C00407A
:101D50000010004000140040000401400040014019
:101D6000004401400048014000180040001C0040B1
:101D7000002000404EF6FF752B404DF6FF752B40BE
:101D80000D8A06EA05152B434D8A06EA05152B43F5
:101D9000838084838D68C563028470BD70B5002222
:101DA00000230024058C4EF6FF7635400584038C15
:101DB0008488828B48F6FF752A404FF6FF452A40FB
:101DC0000D884FF6FF7606EA05252A434DF6FF7586
:101DD0002B408D8906EA05352B434D8806EA0535EB
:101DE0002B43FE4DA84202D0FD4DA84208D14BF630
:101DF000FF752C400D8A4FF6FF7606EA85152C43B9
:101E0000848082838D680564038470BD0021018015
:101E10004180818081608181C181018241827047DE
:101E200070B50346002000241846183001258D4067
:101E3000ACB21D8CA5431D8409B108290AD100EB61
:101E4000610005684FF68F763540056005681543DB
:101E500005600FE00D1FC5F34E052844056848F6E0
:101E6000FF763540056005684FF6FF7606EA0226E4
:101E70003543056070BD4163704781637047C1633E
:101E80007047016470470A460021018B4FF68F733B
:101E900019401143018370470A460021018B48F61F
:101EA000FF7319404FF6FF7303EA022319430183BE
:101EB00070470A460021818B4FF68F7319401143FA
:101EC000818370470A460021818B48F6FF731940D1
:101ED0004FF6FF7303EA02231943818370470A46D2
:101EE0000021018B4FF6F7731940114301837047AE
:101EF0000A460021018B4FF2FF7319404FF6FF7322
:101F000003EA02231943018370470A460021818BAB
:101F10004FF6F77319401143818370470A46002139
:101F2000818B4FF2FF7319404FF6FF7303EA0223D0
:101F30001943818370470A460021018B4FF6FB73DA
:101F400019401143018370470A460021018B4FF667
:101F5000FF3319404FF6FF7303EA0223194301834D
:101F600070470A460021818B4FF6FB7319401143DD
:101F7000818370470A460021818B4FF6FF33194059
:101F80004FF6FF7303EA02231943818370470A4621
:101F90000021018B4FF67F73194011430183704775
:101FA0000A460021018BC1F30E014FF6FF7303EACD
:101FB00002231943018370470A460021818B4FF6A3
:101FC0007F7319401143818370470A460021818B3A
:101FD000C1F30E014FF6FF7303EA02231943818315
:101FE00070470A460021018C4FF6FD7319401143DA
:101FF000018470470A460021018C4FF6F77319409F
:102000001143018470470A460021018C4FF6DF73AB
:1020100019404FF6FF7303EA021319430184704716
:102020000A460021018C4FF67F7319404FF6FF736B
:1020300003EA02131943018470470A460021018C08
:102040004FF6FF5319404FF6FF7303EA022319437B
:10205000018470470A460021018C4FF2FF7319403A
:102060004FF6FF7303EA02231943018470470A46BF
:102070000021018C4DF6FF7319404FF6FF7303EA00
:10208000023319430184704730B5002301248C408A
:10209000A3B2048C9C430484048C02FA01F5ADB213
:1020A0002C43048430BD30B5002304248C40A3B2FB
:1020B000048C9C430484048C02FA01F5ADB22C43D9
:1020C000048430BD828B4FF2FF331A408283828BAF
:1020D0004FF6FF7303EA01231A4382837047F0B57A
:1020E0000C461546002100220026078C4EF6FF7C88
:1020F00007EA0C070784818B028C4FF6FF7707EA0B
:10210000043640F6FF4739404FF6FF7707EA0527C8
:1021100039434FF6FF7707EA0337394345F6FF7730
:102120003A4046F480573A4381830284F0BD828B63
:102130004FF6F3731A408283828B0A43828370477F
:10214000F0B50C461546002100220026078C4FF6FC
:10215000FF6C07EA0C070784818B028C4FF6FF7730
:1021600007EA04264FF60C7739404FF6FF7707EA67
:1021700003172F4339434FF2FF573A4046F4807715
:102180003A4381830284F0BD028B4FF2FF331A4041
:102190000283028B4FF6FF7303EA01231A43028383
:1021A0007047F0B50C461546002100220026078C2A
:1021B0004FF6EF7C07EA0C070784018B028C4FF681
:1021C000FF7707EA041640F6FF4739404FF6FF77DE
:1021D00007EA033739434FF6FF7703E00000014079
:1021E0000004014007EA052739434FF65F773A407C
:1021F00046F010073A4301830284F0BD028B4FF68C
:10220000F3731A400283028B0A4302837047F0B5CE
:102210000C46154600210022068C4FF6FE773E4004
:102220000684018B028C4FF60C7631407E1C06EA48
:1022300003162E4331434FF6F576324044F0010643
:10224000324301830284F0BD70B505460C462088F8
:1022500050B92389A28861882846FFF7D8FFE18812
:102260002846FFF7CBFF25E0208804280AD12389E0
:10227000A28861882846FFF794FFE1882846FFF787
:1022800083FF17E0208808280AD12389A288618863
:102290002846FFF755FFE1882846FFF748FF09E089
:1022A0002389A28861882846FFF719FFE18828461C
:1022B000FFF708FF70BD002101804180012181806E
:1022C0000021C180018170472DE9F04105460C468F
:1022D00000260127608808B9022600E00026A088B1
:1022E000012801D1022700E001272088A0B9238915
:1022F000A28861882846FFF78AFFE1882846FFF711
:102300007DFF23893A4631462846FFF74AFFE18898
:102310002846FFF739FF13E02389A2886188284601
:10232000FFF73FFFE1882846FFF72EFF23893A4653
:1023300031462846FFF76BFFE1882846FFF75EFF2E
:10234000BDE8F0810146486B70470146886B7047D5
:102350000146C86B70470146086C70470A884B8875
:102360001A438B881A43CB881A430B891A434B892B
:102370001A438B891A43A0F844207047002101803A
:1023800041808180C180018141818181704731B16B
:10239000B0F8442042F40042A0F8442005E0B0F830
:1023A0004420C2F30E02A0F84420704721B1828875
:1023B00042F00402828004E082884FF6FB731A40E8
:1023C0008280704721B1828842F00102828004E05D
:1023D00082884FF6FE731A40828070471AB1838953
:1023E0000B43838102E083898B4383817047818221
:1023F000704702460020138A0B400BB1012000E019
:1024000000207047CA430282704730B50246002060
:1024100000230024158A05EA0103958905EA0104D1
:1024200013B10CB1012000E0002030BDCA4302828C
:10243000704741EA0203A0F8483070471AB1838917
:102440000B43838102E083898B438381704721B1F1
:10245000828842F00802828004E082884FF6F77397
:102460001A408280704701894FF6F872114001814D
:1024700070470A46002101894FF68F7319401143B6
:102480000181704730B504460D4629462046FFF7C6
:10249000F0FF208940F00700208130BD2DE9F04198
:1024A00004460D4616461F46602D06D13B460122C6
:1024B00031462046FFF775FE05E03B4601223146D6
:1024C0002046FFF7A4FE29462046FFF7D2FF2089C9
:1024D00040F007002081BDE8F08130B50C460021B6
:1024E0000189C9B24FF6FF7505EA03251543254357
:1024F0002943018130BD2DE9F04105460E461746BE
:102500009846002443463A4631462846FFF7E5FF01
:102510002C894FF6F870044044F007044FF68F7092
:10252000044044F070042C81BDE8F081F0B504460D
:102530000D4616461F463B46324629462046FFF7C3
:10254000CCFF208940F480402081F0BD82884FF686
:102550008F731A40828082880A4382807047028982
:102560004FF6F8731A40028102890A4302817047CC
:1025700002894FF67F731A40028102890A43028161
:102580007047F0B50C4615461E4600210022002378
:102590000189028B038C4FF6F877394021434FF6BF
:1025A000FC473A4040F201173A434FF6DD773B4093
:1025B0004FF6FF7707EA06172F433B43018102835B
:1025C0000384F0BD21B1828842F08002828004E061
:1025D00082884FF67F731A4082807047A0F85010AF
:1025E0007047000010B50446FA48844208D1012122
:1025F0001020FEF776FE00211020FEF772FE57E055
:10260000F548844209D101214804FEF759FE002112
:102610004FF40030FEF754FE4AE0F048844209D1FE
:1026200001218804FEF74CFE00214FF48020FEF7C4
:1026300047FE3DE0EA48844209D10121C804FEF783
:102640003FFE00214FF40020FEF73AFE30E0E5485F
:10265000844209D101210805FEF732FE00214FF422
:102660008010FEF72DFE23E0DF48844208D10121CF
:102670002020FEF736FE00212020FEF732FE17E074
:10268000DA48844209D101218807FEF719FE0021AA
:102690004FF08040FEF714FE0AE0D548844207D18F
:1026A00001214005FEF70CFE00216005FEF708FE43
:1026B00010BD2DE9FF4705460E460024A14600BF88
:1026C000A046B08900B100BF2C8A24F44054F088A1
:1026D00004432C82AC8941F20C608443B088318978
:1026E0000843718908430443AC81AC8A24F44074E4
:1026F000B0890443AC826846FEF773FCB548854256
:1027000002D0B948854202D1DDF80C9001E0DDF835
:102710000890A88900F4004040B109EBC90000EB23
:10272000091031684900B0FBF1F707E009EBC90077
:1027300000EB091031688900B0FBF1F76420B7FBAA
:10274000F0F004012009642101FB1078A88900F44D
:10275000004040B1322000EBC800B0FBF1F000F0C7
:102760000700044308E0322000EB08106421B0FBAE
:10277000F1F000F00F0004432C81BDE8FF874FF417
:102780001651016000218180C18001810C214181AD
:1027900000218181704710B502460020108A20F484
:1027A00070600B884C8823438C882343CC88234358
:1027B0001843108210BD0021018041808180C180BA
:1027C000704721B1828942F40052828104E08289FB
:1027D0004DF6FF731A4082817047028B02F47F42EC
:1027E0000283028B0A430283704721B1828942F43B
:1027F0000042828103E08289C2F30E028281704727
:1028000021B1828A42F40062828204E0828A4FF21D
:10281000FF731A4082827047C1F3080282807047BA
:1028200001468888C0F308007047028A4FF6F073AB
:102830001A400282028A0A430282704721B18289C9
:1028400042F00202828104E082894FF6FD731A4051
:102850008281704782894FF2FF731A408281828998
:102860000A4382817047028A4FF6DF731A40028260
:10287000028A0A430282704721B1028A42F48042EE
:10288000028204E0028A4BF6FF731A40028270470C
:10289000818941F001018181704721B1828A42F032
:1028A0000802828204E0828A4FF6F7731A4082821D
:1028B0007047028BD2B20283028B42EA012202836A
:1028C000704721B1828A42F02002828204E0828A2B
:1028D0004FF6DF731A408282704721B1828A42F03C
:1028E0001002828204E0828A4FF6EF731A408282DD
:1028F0007047828A4FF6FB731A408282828A0A43AB
:102900008282704721B1828A42F00202828204E010
:10291000828A4FF6FD731A40828270471AB1838A09
:102920000B43838202E0838A8B4383827047F0B536
:102930000346002400260025002040F66A17B9420D
:1029400000D100BF1846C1F3421401F01F06012751
:1029500007FA06F5012C01D10C3004E0022C01D15C
:10296000103000E014301AB107682F43076002E00E
:102970000768AF430760F0BD02460020B1F5007F55
:1029800000D100BF13880B400BB1012000E00020F4
:10299000704701F40072B2F5007F00D100BFCA4356
:1029A0000280704770B502460024002300250020F5
:1029B00040F66A16B14200D100BFC1F3421501F0E2
:1029C0001F03012606FA03F3012D13D19689334024
:1029D00017E00000001001400044004000480040A3
:1029E000004C0040005000400014014000780040BE
:1029F000007C0040022D02D1168A334001E0968A05
:102A000033400C12012606FA04F41688344013B140
:102A10000CB1012000E0002070BD10B500220023A1
:102A200040F66A14A14200D100BF0A12012494406A
:102A3000A3B2DC43048010BD7FB504460D460121DE
:102A40000846FEF7E8FBADF8045002940020ADF80C
:102A50000600ADF80C0001A94FF08040FFF71DF80B
:102A6000012211469007FFF7B9FC01218807FFF703
:102A70009DF81C208DF8000003208DF801008DF8D2
:102A8000020001208DF803006846FDF7FAFB7FBDC8
:102A900010B501218807FFF7B8FC012808D1334899
:102AA00002684068521C40F1000030490A604860EA
:102AB00001218807FFF7BAFC10BD2C490868496856
:102AC000704710B502460B462848016840688C1ACA
:102AD00060EB0301204610BD7FB505460C46012181
:102AE0000220FEF798FB0295ADF804400020ADF8F7
:102AF0000600ADF80C0001A91D48FEF7CEFF01222B
:102B000011461B48FFF76AFC01211948FFF74EF8F0
:102B10001D208DF8000001208DF8010003208DF8A4
:102B2000020001208DF803006846FDF7AAFB7FBD77
:102B300010B501210E48FFF768FC012810D10D489F
:102B40000068401C0B49086008464068401C48600B
:102B500008468068401C88600846C068401CC86001
:102B600001210348FFF762FC10BD000010000020A7
:102B700000040040F403002070B505460C4645F201
:102B80005550FEF705F92846FEF705F92046FEF7F1
:102B900005F9FEF706F9FEF709F970BD10B5FEF765
:102BA00000F910BD1CB501210520FEF7EBFA01214B
:102BB0008803FEF741FBFC48006840F00070FA49CA
:102BC00008604FF48170009001208DF8040000200F
:102BD0008DF8060003208DF8050000208DF8070011
:102BE0006946F248FEF710F80120009000208DF8A9
:102BF00004008DF807006946EC48FEF705F84FF42D
:102C0000E050009002208DF8040000208DF80600AE
:102C100003208DF8050000208DF807006946E44880
:102C2000FDF7F2FF4FF40040009001208DF8040002
:102C300000208DF8060003208DF8050000208DF897
:102C400007006946D948FDF7DFFF06220A21D84868
:102C5000FEF765F806220B21D548FEF760F806223C
:102C60000C21D348FEF75BF806220F21CF48FEF770
:102C700056F84FF40041CD48FEF742F81CBD00B5B0
:102C800085B00121C803FEF7C6FA0020ADF80000A8
:102C90004FF48270ADF802004FF40060ADF804000C
:102CA0000220ADF806000120ADF808004002ADF8A2
:102CB0000A000020ADF80C00ADF80E000720ADF8BA
:102CC00010006946BB48FEF7FDFB0121B948FEF73D
:102CD000F3FC05B000BD08B5FFF764FFFFF7CFFFB9
:102CE0004FF48071B148FEF70BF80020009002E02D
:102CF0000098401C00900098B0F57A7FF8D34FF40C
:102D00008071AA48FDF7FEFF08BD0EB501218803BA
:102D1000FEF792FA00210846FEF7D9FD0120019046
:102D200000208DF808000C208DF8090001208DF896
:102D30000A0001A8FDF71EFB06208DF80000032005
:102D40008DF8010001208DF802008DF8030068461F
:102D5000FDF797FA0EBD10B5044600BF0221954855
:102D6000FEF774FD0028F9D021469248FEF725FDB4
:102D700000BF01218F48FEF769FD0028F9D08D487A
:102D8000FEF718FD10BD10B50120FDF759FBB8B1D5
:102D90004FF400418548FDF7B5FF002406E0002010
:102DA000FFF7D9FF844921F81400641C082CF6DBD6
:102DB0004FF400417D48FDF7A3FF0120FDF74BFBD9
:102DC00010BD30B502460B467C4850F8220002EB9D
:102DD00082047B4D35F82440001B784C44F82200D7
:102DE000002110E002EB8200754C04EB8004481CCB
:102DF00034F8100002EB8204714D05EB840424F8D2
:102E00001100481CC1B20929ECDB02EB82006C4CBA
:102E100004EB80004382694850F8220002EB8204F0
:102E2000674D05EB8404648A2044644C44F8220016
:102E3000204650F822000A24B0FBF4F080B230BDE6
:102E400070B505460024012D0ED100BF09E05A4A95
:102E500032F81410E0B2FFF7B4FF5A4921F8140019
:102E6000641C082CF3DB0AE0002406E0524830F82A
:102E70001400544921F81400641C082CF6DB70BDC2
:102E800008B502214948FDF73DFF0020009002E00F
:102E90000098401C009000986428F9D30221434810
:102EA000FDF72EFF08BD70B52DED048B0025002425
:102EB00000BFCAE0434830F8150004B2082D71D2B3
:102EC000DFE805F0041E2D47568897B104EB840116
:102ED00049004FF47A7201FB02F0C11700EB514137
:102EE000C9130EB2304603F026FD9FED370B53ECAD
:102EF000102B03F09BFB03F0F1FC3549488000BF29
:102F000004EB840149004FF47A7251438800C117E1
:102F100000EB5141C1F3CF312D4A118093E004EB16
:102F2000840149004FF47A7201FB02F0C11700EBF3
:102F30005141C9130EB2304603F0FDFC9FED220B48
:102F400053EC102B03F072FB03F0C8FC20494881BE
:102F500079E004EB840149004FF47A725143880010
:102F6000C11700EB5141C1F3CF31194A11816AE019
:102F700004EB840149004FF47A7201FB02F0C1179F
:102F800000EB5141C9130EB2304603F0D4FC9FED63
:102F90000E0B53EC102B03F049FB03F09FFC0C4984
:102FA000C88150E04EE000000038014000000240BF
:102FB00000080240003C0040B400002074010020E2
:102FC000D400002094010020000000000000E03F39
:102FD000C400002004EB840149004FF47A7251438D
:102FE0008800C11700EB5141C1F3CF31FE4A9181F6
:102FF00029E004EB840149004FF47A7201FB02F0EE
:10300000C11700EB5141C9130EB2304603F093FCD7
:103010001FED130B53EC102B03F008FB03F05EFCC9
:10302000F149C8800FE004EB840149004FF47A7243
:1030300051438800C11700EB5141C1F3CF31EA4A37
:10304000918000E000BF00BF6D1C082DFFF632AF7D
:10305000BDEC048B70BD30B500210023002016E0CC
:10306000E24A32F8102011B201EB810464004FF4FF
:103070007A756C43A200D41702EB5444C4F3CF34E6
:10308000D94D25F8104000BF00BF421CD0B208281F
:10309000E6DB30BD30B50446D54D2D7F05F001038C
:1030A000D14D2D8800EE105AB8EE400AD14D05EBF7
:1030B000C30585ED000A0BB1254600E0002500EEB2
:1030C000105AB8EEC00ACB4D05EBC30585ED010AD9
:1030D000C74D2D7FC5F34000C34DAD8800EE105A9B
:1030E000B8EE400AC34D103505EBC00585ED000A6A
:1030F00008B1254600E0002500EE105AB8EEC00ADF
:10310000BC4D103505EBC00585ED010AB84D2D7F8E
:10311000C5F38001B44D2D8900EE105AB8EE400A77
:10312000B44D203505EBC10585ED000A09B12546F2
:1031300000E0002500EE105AB8EEC00AAD4D203573
:1031400005EBC10585ED010AA94D2D7FC5F3C00230
:10315000A54DAD8900EE105AB8EE400AA54D3035A8
:1031600005EBC20585ED000A0AB1254600E0002501
:1031700000EE105AB8EEC00A9E4D303505EBC20580
:1031800085ED010A30BD2DE9F0412DED0A8B054694
:103190000E46174698462DB127B1B8F1000F01D061
:1031A000022E04D20020BDEC0A8BBDE8F0819FED19
:1031B000928ADFED918A9FED909ADFED8F9A00243D
:1031C0002CE005EBC40090ED000A30EE080AB0EEEA
:1031D000408A05EBC40090ED010A30EE280AF0EEBB
:1031E000408A05EBC400D0ED000A05EBC40090ED69
:1031F000011AB0EE490A00EE810AB0EE409A05EBE2
:10320000C400D0ED000A05EBC40090ED001AB0EE4A
:10321000690A00EE810AF0EE409A641CB442D0D3F1
:1032200000EE106AB8EE400A20EE290AB0EE40AA7D
:1032300008EE48AA1AEE100A03F0E2FC41EC1C0B5F
:10324000B0EE4C0AF0EE6C0A03F0A0F9B0EE40BA12
:10325000F0EE60BA9FED690B53EC102B51EC1B0B99
:1032600003F094FB01D200209DE700EE106AB8EE57
:10327000400A20EE090A08EE680AC0EE0A0AC7ED05
:10328000000A28EEA90A08EE490AC0EE0A0AC8EDAB
:10329000000A97ED000A10EE101A084603F0B0FC81
:1032A00041EC1C0B9FED570B53EC102B03F0AAFBCA
:1032B00041EC1B0B03F07CF9386098ED000A10EE2E
:1032C000101A084603F09CFC41EC1C0B9FED4D0BC3
:1032D00053EC102B03F096FB41EC1B0B03F068F949
:1032E000C8F8000001205EE7F0EE401AB0EE410A97
:1032F00000EEA10A704738B5002500BF4FF40071F9
:103300004248FDF7FFFC00BF00BF4FF480513F482B
:10331000FDF7F8FC00BF00BF08213D48FDF7F2FCB7
:1033200000BF00BF80213B48FDF7ECFC00BF4FF41D
:10333000FA6000F0F5FB00BF0CE0FFF7A1FD0020F4
:10334000FFF77EFDFFF7AFFD01F08BF9012000F0E4
:10335000E7FB6D1C142DF0DB46F66050FFF79AFE7C
:1033600000BF4FF400712948FDF7CAFC00BF00BF41
:103370004FF480512548FDF7C3FC00BF00BF082172
:103380002348FDF7BDFC00BF00BF80212148FDF7A9
:10339000B7FC00BF00BF20A1002002F011FE00BF5B
:1033A0004FF4FA6000F0BCFB00250CE0FFF768FD6D
:1033B0000020FFF745FDFFF776FD01F052F90120EF
:1033C00000F0AEFB6D1C142DF0DB46F66050FFF7ED
:1033D00061FE164B164A02210648FFF7D4FE134B36
:1033E0001B1D134A121D25E0C4000020B40000205C
:1033F00004040020A4010020000000008DEDB5A011
:10340000F7C6B03E0000000080842E41000002405C
:103410000004024000080240706C65617365206F13
:1034200070656E2042460D0A000000006002002018
:10343000F801002002212048FFF7A5FE1F4B204A7B
:1034400002211D481030FFF79EFE1C4B1B1D1C4A1D
:10345000121D022118482030FFF795FE002428E0B5
:1034600017481C3800EB840090ED000ABCEEC00A3F
:1034700010EE100A134941F8240010481C3800EBE4
:10348000840090ED000ABDEEC00A10EE100A0E494D
:1034900041F8240000BF084650F824000090094875
:1034A00050F82430224609A1002002F089FD00BF17
:1034B000641C0D2CD4D338BDB40100206802002058
:1034C000000200201802002080020020693D2564CF
:1034D0002C6B5F7533323D25642C20202020625FE9
:1034E0007533323D2564200D0A00000000B587B019
:1034F00001210220FDF746FE01218803FDF78BFE26
:103500004FF42040059002208DF8180000208DF81F
:103510001A0003208DF8190001208DF81B0005A961
:10352000F848FDF771FB05220D21F648FDF7F7FB82
:1035300005220F21F348FDF7F2FB4FF44040ADF8B0
:1035400000004FF48270ADF802004FF40060ADF857
:1035500004000220ADF806000120ADF8080040028A
:10356000ADF80A000820ADF80C000020ADF80E0000
:103570000720ADF810006946E348FDF7A3FF0121DD
:10358000E148FEF799F807B000BD1CB504460121DB
:103590000620FDF7F7FDA088009001208DF80400BB
:1035A00000208DF8060003208DF8050001208DF81D
:1035B000070069462068FDF727FBA1882068FDF712
:1035C0009FFBA089009001208DF8040000208DF859
:1035D000060003208DF8050001208DF807006946DC
:1035E000A068FDF711FBA189A068FDF789FB1CBD50
:1035F00070B504460D46A1882068FDF783FB00BF27
:103600000221C148FEF722F90028F9D02946BE4818
:10361000FEF7D3F800BF0221BB48FEF717F90028D8
:10362000F9D08021B848FEF711F90128F3D0052020
:1036300000F02EFAA1882068FDF762FB70BD38B556
:1036400004460020009002E00098401C0090009882
:103650000A28F9D3A189A068FDF754FB0020009047
:1036600002E00098401C009000986428F9D3A189DA
:10367000A068FDF745FB38BDB5EEC00AF1EE10FAC3
:1036800004D2DFEDA20AB0EE600A0AE0F0EE040A0E
:10369000B4EEE00AF1EE10FA03DDF0EE040AB0EE4B
:1036A000600ADFED9B0A60EE200AB0EE041AC0EE5D
:1036B000811AFCEEE10A10EE900A80B2704710B554
:1036C000FFF714FF9348FFF760FF9348FFF75DFF94
:1036D0009248FFF75AFF9248FFF757FF10BD10B509
:1036E0002DED068B002400BFCEE034B1012C33D089
:1036F000022C60D0032C7CD18EE08A4931F8140072
:1037000003F030F941EC1A0B9FED870B53EC102BB3
:1037100002F08CFF41EC190B9FED850B53EC102B45
:1037200003F070F941EC180B9FED830B53EC102B59
:1037300051EC180B03F066F941EC190B03F0CEF8CD
:103740007F49088000BF084630F814207DA1002082
:1037500002F036FC00BF95E0724931F8140003F026
:1037600001F941EC1A0B9FED700B53EC102B02F09A
:103770005DFF41EC190B9FED6E0B53EC102B03F02A
:1037800041F941EC180B9FED6C0B53EC102B51ECF5
:10379000180B03F037F941EC190B03F09FF8684957
:1037A000488000BF084630F8142073A1002002F0C2
:1037B00007FC00BF66E05B4931F8140003F0D2F863
:1037C00041EC1A0B9FED580B53EC102B02F02EFF1F
:1037D00041EC190B9FED560B53EC102B03F012F933
:1037E00041EC180B9FED540B53EC102B51EC180BC4
:1037F00000E040E003F006F941EC190B03F06EF82D
:103800004F49888000BF084630F8142067A1002087
:1038100002F0D6FB00BF35E0424931F8140003F056
:10382000A1F841EC1A0B9FED400B53EC102B02F06A
:10383000FDFE41EC190B9FED3E0B53EC102B03F0FA
:10384000E1F841EC180B9FED3C0B53EC102B51ECC5
:10385000180B03F0D7F841EC190B03F03FF8384987
:10386000C88000BF084630F814205DA1002002F097
:10387000A7FB00BF06E000BF66A1002002F0A0FB8E
:1038800000BF00BF00BF641C042CFFF62EAFBDECD0
:10389000068B10BD10B500246A480068401C6949B9
:1038A00008600846007800F0030434B1012C0DD004
:1038B000022C14D0032C24D11AE021480188154889
:1038C000FFF796FE1348FFF7BAFEC5E01C48418893
:1038D0001148FFF78DFE1048FFF7B1FEBCE0184815
:1038E00081880E48FFF784FE0C48FFF7A8FEB3E07E
:1038F0001348C1880A48FFF77BFE0948FFF79FFE7F
:10390000AAE0A1E0000402400038004000000000EE
:1039100000008047200000203000002040000020F0
:10392000500000208C0000200000000000408F406C
:10393000000000000000E03F000000008099D94036
:10394000600000202A2A2A2A2A2A2A2A096C696D5C
:1039500069745F4164353532345F446174615B3052
:103960005D093D092564092A2A2A2A2A2A2A2A2A9F
:103970002A2A2A2A2A0D0A002A2A2A2A2A2A2A2A0E
:10398000096C696D69745F4164353532345F446137
:1039900074615B315D093D092564092A2A2A2A2AB6
:1039A0002A2A2A2A2A2A2A2A2A0D0A002A2A2A2ADE
:1039B0002A2A2A2A096C696D69745F416435353297
:1039C000345F446174615B325D093D092564092AF5
:1039D0002A2A2A2A2A2A2A2A2A2A2A2A2A0D0A00AE
:1039E0002A2A2A2A2A2A2A2A096C696D69745F41BF
:1039F00064353532345F446174615B335D093D0980
:103A00002564092A2A2A2A2A2A2A2A2A2A2A2A2A02
:103A10002A0D0A005741524E494E472121212121AA
:103A200021212020464154414C204552524F452CE3
:103A3000504C4541534520434845434B20434F4458
:103A4000450D0A006800002000BFAFF238010020D9
:103A500002F0B6FA00BF00BF00BF10BD10B50446AB
:103A60006FF00400FCF75AFCE11704EB5171C1F34D
:103A7000C701394A11701046007800EB4001C1EBD4
:103A8000C0104FF6FF7101EAC0003449088010BD34
:103A90000146314A12784A434FF0E0235A6100222E
:103AA0009A611A46126942F001021A6100BF4FF092
:103AB000E022106900F001021AB100F48032002AFD
:103AC000F5D04FF0E022126922F001024FF0E0231E
:103AD0001A6100229A6170470146204A12884A43BF
:103AE0004FF0E0235A6100229A611A46126942F0AF
:103AF00001021A6100BF4FF0E022106900F00102DC
:103B00001AB100F48032002AF5D04FF0E022126999
:103B100022F001024FF0E0231A6100229A617047FF
:103B200070B504464FF4077094FBF0F0C6B24FF442
:103B3000077094FBF0F100FB114085B205E04FF4F3
:103B40000770FFF7C9FF701EC6B2002EF7D115B17E
:103B50002846FFF7C1FF70BD6C0000206E000020FA
:103B600000BF704770B504460D4652490C8000BF37
:103B700040215048001FFEF7FFFE0028F8D02046E5
:103B800070BD10B588B0044601210846FDF7FAFA69
:103B900001214804FDF73FFB072202214648FDF7BB
:103BA000BEF8072203214448FDF7B9F80C2006901F
:103BB00002208DF81C008DF81D0000208DF81E00DD
:103BC00001208DF81F0006A93B48FDF71DF802945F
:103BD0000020ADF80C00ADF80E00ADF81000ADF807
:103BE00014000C20ADF8120002A93248001FFEF7A5
:103BF00060FD01212F48001FFEF7E3FD40212D4805
:103C0000001FFEF7C6FE012240F225512948001F81
:103C1000FEF78DFE26208DF8040003208DF80500A8
:103C20008DF8060001208DF8070001A8FCF729FB9C
:103C300008B010BD10B540F225511E48001FFEF718
:103C4000B1FE18B31B48001FFEF7EAFDC4B21B48C3
:103C5000008800F40040C8B91848008800F480408B
:103C600060B10A2C03D000201449088020E01348DA
:103C7000008840F400401149088019E00D2C06D15D
:103C80000E48008840F480400C49088010E00B4842
:103C90000088C0F30D000A490C5408480088401CF5
:103CA0000649088008460088C72801DD00200880F2
:103CB00010BD0000044400400000024074000020D9
:103CC000B4020020704710B50446FCF70BFC03213A
:103CD0002046FCF75BFCFCF712FC10BD70B50446F7
:103CE0000D46FCF7FFFB00BF4FF48030FCF7F0FE01
:103CF0000028F9D11020FCF7EBFE10B11020FCF7E2
:103D0000F2FE2020FCF7E4FE10B12020FCF7EBFED1
:103D100029462046FCF753FDFCF7F1FB70BD2DE969
:103D2000F04180460C46154604B10DB9BDE8F0815E
:103D3000FCF7D8FB464600271BE000BF4FF480305D
:103D4000FCF7C6FE0028F9D11020FCF7C1FE10B127
:103D50001020FCF7C8FE2020FCF7BAFE10B120208E
:103D6000FCF7C1FE54F827103046FCF728FD361D3D
:103D70007F1CB7EB950FE0D3FCF7C1FB00BFD5E785
:103D80000146B1F1006F02D3B1F1016F02D34FF0E0
:103D9000FF3070470868FCE770B50C4604B102B903
:103DA00070BD3F49884200D9FAE786184B1C9E42F5
:103DB00001D90B1A5A1C0546002304E055F823606C
:103DC00044F823605B1CB3EB920FF7D300BFE7E727
:103DD00000BF00BF4FF4A060FCF74EFAA820FFF729
:103DE0003DFE40F2DC50FFF79BFE00BF2DA10020FE
:103DF00002F0E6F800BF00F0ADFB00F0EDFBFFF7CE
:103E00005EFCFEF768FF00F0BBF900F078FBFEF700
:103E10007CFF4FF4E130FFF7B4FE532140F2E7306E
:103E2000FEF70AFE00F0C5FF42F2CF010920FEF7BF
:103E300053FE00BF23A1002002F0C2F800BF29E01A
:103E400000F0C0FF5820FFF73EFFFFF754FA34227E
:103E500029492A48FFF763FF34222949274834308B
:103E6000FFF75DFF342227492448FFF795FF3422EE
:103E7000254922483430FFF78FFF00BF23A10020DF
:103E800002F09EF800BF00BF28A1002002F098F8C1
:103E900000BF00E0D4E700BF01E000F093FFFCE7C3
:103EA000FFFF0F083C4459474C423E20737973741E
:103EB000656D20696E6974202E2E2E2E2E2E0D0A11
:103EC000000000003C4459474C423E205379737433
:103ED000656D20696E697420636F6D706C657465C3
:103EE000642C20656E746572206C6F6F70202E2EAE
:103EF0002E2E2E2E0D0A00001802002000000E08A3
:103F0000800200207C030020B00300206269616F02
:103F10002064696E6720454E442121212121212101
:103F2000202020202020200D0A000000796F75201D
:103F300063616E20627265616B206F666620706FD0
:103F40007765722121212121212120202020200D8F
:103F50000A000000704700BFFEE700BFFEE700BF99
:103F6000FEE700BFFEE770477047704770470000EC
:103F70000CB50020019000907648006840F4803035
:103F80007449086000BF7348006800F40030009076
:103F90000198401C0190009818B90198B0F5A04F05
:103FA000F1D16C48006800F4003010B1012000909D
:103FB00001E0002000900098012846D1654840307B
:103FC000006840F0805063494031086062480068F2
:103FD00040F44040604908605E48083000685D4930
:103FE000083108600846006840F400400860084650
:103FF000006840F4A05008605848091F0860081F76
:10400000006840F08070091F086000BF51480068D8
:1040100000F000700028F9D040F2057050490860A7
:104020004C480830006820F003004A490831086015
:104030000846006840F00200086000BF45480830AC
:10404000006800F00C000828F8D10CBD10B54548F8
:10405000006840F47000434908603E48006840F042
:1040600001003C49086000203A490831086039489D
:1040700000683D490840374908603C48091D086010
:10408000081F006820F48020091F086000203149C3
:104090000C310860FFF76CFF4FF000603149803948
:1040A000086010BD70B50020002202230024022108
:1040B000284D08352D6805F00C0020B1042806D0E5
:1040C000082834D107E02A4D2A4E356033E02A4DC6
:1040D000284E35602FE01F4D2D1D2D68C5F38054EF
:1040E0001C4D2D1D2D6805F03F0154B1224DB5FB2F
:1040F000F1F5184E361D3668C6F3881605FB06F234
:1041000009E01B4DB5FBF1F5124E361D3668C6F3BE
:10411000881605FB06F20F4D2D1D2D68C5F30145D0
:104120006D1C6B00B2FBF3F5124E356003E0104DD1
:10413000104E356000BF00BF064D08352D68C5F331
:1041400003150E4E705D0B4D2D68C540094E356050
:1041500070BD000000380240007000400854400765
:10416000003C024088ED00E0FFFFF6FE1030002426
:104170000024F4007800002000127A007C00002067
:104180001CB501210F20FCF7FDFF4FF4806000906B
:1041900000208DF804008DF807006946E148FCF71F
:1041A00033FD112000906946DF48FCF72DFD4FF4E8
:1041B000007000906946DD48FCF726FD4FF49050F2
:1041C000009001208DF8040000208DF806000320E7
:1041D0008DF8050000208DF807006946D148FCF7EE
:1041E00013FD082000906946CF48FCF70DFD8020A4
:1041F00000906946CD48FCF707FD4FF40060009041
:104200006946C848FCF700FD222000906946C64870
:10421000FCF7FAFC402000906946C448FCF7F4FC27
:104220004FF40061BF48FCF76BFD0221BE48FCF76C
:1042300067FD2021BC48FCF763FD4021BB48FCF72B
:104240005FFD0420009001208DF8040000208DF80F
:10425000060003208DF8050000208DF80700694650
:10426000B348FCF7D1FC4FF40071AE48FCF74AFDAF
:104270004FF48051AB48FCF745FD0821AA48FCF7F4
:1042800041FD8021A948FCF73DFD1CBD08B500207B
:104290000090A848007F00F001008DF80000A548BC
:1042A000007FC0F340008DF80100A248007FC0F3FA
:1042B00080008DF802009F48007FC0F3C0008DF899
:1042C00003009DF8000098B94FF400619548FCF791
:1042D00019FD002000E0401C3228FCDB4FF4006197
:1042E0009048FCF70DFD0020934908609349086051
:1042F0009DF8010088B902218B48FCF703FD0020DE
:1043000000E0401C3228FCDB02218748FCF7F8FC67
:10431000002089494860894948609DF8020088B9B1
:1043200020218148FCF7EEFC002000E0401C3228F0
:10433000FCDB20217C48FCF7E3FC00207E49886000
:104340007E4988609DF8030088B940217748FCF7D2
:10435000D9FC002000E0401C3228FCDB40217348DF
:10436000FCF7CEFC00207449C8607449C8609DF811
:10437000000001280AD17048006838B94FF4006184
:104380006848FCF7BFFC01206B4908609DF80100FC
:10439000012809D16848406830B902216248FCF719
:1043A000B1FC0120644948609DF80200012809D150
:1043B0006148806830B920215B48FCF7A3FC0120EC
:1043C0005D4988609DF8030001280DD15A48C068F6
:1043D00050B940215548FCF795FC01205649C8606A
:1043E000FEF76BFB5649086000BF5248007F00F0A3
:1043F000010028B14FF400714A48FCF781FC04E049
:104400004FF400714748FCF77DFC00BF00BF4948EE
:10441000007FC0F3400028B14FF480514148FCF7C1
:104420006FFC04E04FF480513E48FCF76BFC00BF8A
:1044300000BF4048007FC0F3800020B108213A4807
:10444000FCF75EFC03E008213748FCF75BFC00BF8B
:1044500000BF3848007FC0F3C00020B1802133483E
:10446000FCF74EFC03E080213048FCF74BFC00BF1A
:1044700008BD10B5044631480068A04204D94FF485
:1044800000612848FCF73CFC2C484068A04203D956
:1044900002212548FCF734FC28488068A04203D953
:1044A00020212148FCF72CFC2448C068A0420ED9EA
:1044B00040211E48FCF724FC21480068FEF701FB60
:1044C0002049086001202049086000BF00BF10BDDE
:1044D00070B50024002500BF0AE004EB4405154830
:1044E000001DA91C30F81100184921F81400641CA3
:1044F000042CF2DBFFF7F3F8FFF7CCF970BD10B531
:1045000000241348007801280BD100BF00E0641C90
:10451000042CFCDBFFF7E3F8FFF7BCF900200C49A3
:10452000087010BD00000240000402400008024074
:10453000000C024026040020E4030020F4030020C5
:10454000980000209C000020A00000208C0000208B
:10455000940000201CB501210846FCF713FEE02062
:10456000009002208DF8040000208DF80600032042
:104570008DF8050000208DF807006946FE48FCF71D
:1045800043FB1020009001208DF8040000208DF8DE
:10459000060003208DF8050000208DF8070069460D
:1045A000F548FCF731FB05220421F348FCF7B7FB83
:1045B00005221146F048FCF7B2FB05220621EE4821
:1045C000FCF7ADFB05220721EB48FCF7A8FB102107
:1045D000E948FCF795FB1CBD00B585B00121080337
:1045E000FCF72AFE0020ADF800004FF48270ADF811
:1045F00002004FF40060ADF804000220ADF80600A0
:104600000120ADF808004002ADF80A001820ADF80E
:104610000C000020ADF80E000720ADF81000694630
:10462000D648FCF74FFF0121D448FDF745F805B007
:1046300000BD10B5044600BF0221D048FDF706F9C1
:104640000028F9D02146CD48FDF7B7F800BF012179
:10465000CA48FDF7FBF80028F9D0C848FDF7AAF8CA
:1046600010BD70B500260025002445F2AA50C449AB
:1046700008801A20488000BF32E004EB4405601D2A
:1046800081B2BF48001D20F8151000BF30F815207A
:104690002946BCA001F0AAFC00BF6000C84931F85F
:1046A0001020B748001D691C20F8112000BF30F809
:1046B0001120B4A001F09AFC00BF012000EB4400DF
:1046C000BF4931F81020AE48001DA91C20F8112068
:1046D00000BF30F81120ABA001F088FC00BF641CC3
:1046E000042CCADB00BF4FF40071A348FCF7FBFAAF
:1046F000A349898B60F30001A14881834FF4805165
:104700009D48FCF7F0FA9E49898B60F341019C4873
:1047100081830821AB48FCF7E6FA9949898B60F35D
:104720008201974881838021A748FCF7DCFA9449ED
:10473000898B60F3C301924881834FF480618E4876
:10474000FCF7C4FA08B9012000E000208C49898BED
:1047500060F308218A48818301219A48FCF7B6FA60
:1047600008B9012000E000208549898B60F34921C8
:104770008348818310219348FCF7A8FA08B90120E7
:1047800000E000207E49898B60F38A217C48818388
:104790004FF400718C48FCF799FA08B9012000E049
:1047A00000207749898B60F3CB217548818300BF56
:1047B00000BF818B85A001F019FC00BF7048008804
:1047C0006F494988084486B2002406E06C48001D01
:1047D00030F81400304486B2641C0C2CF6DB6848B8
:1047E000808B304486B26648C68300BFC18B80A0F0
:1047F00001F0FCFB00BF4AF6BC406149088470BD73
:1048000070B500245E4D10215B48FCF77BFA00BFB9
:1048100004E035F81400FFF70CFF641C584840888A
:10482000801CA042F5DC10215348FCF769FA70BDEA
:104830002DE9F04700250024A046A1460026A24607
:104840000027A8E1002610214B48FCF75BFA45F24F
:10485000AA50FFF7EEFE07460220FFF7EAFE4AF6EF
:10486000DE30FFF7E6FE4FF4C570FFF7E2FE4AF6D2
:10487000BC40FFF7DEFE10213F48FCF741FA012063
:10488000FFF706F910213C48FCF73CFA47F2AA7002
:10489000FFF7CFFE074600BF3B462A4660A1002037
:1048A00001F08EFB00BF00BF3A4629465CA001F034
:1048B0009DFB00BF5F4807800020FFF7BAFE5D49FF
:1048C000488000BF084642885BA1002001F078FBC9
:1048D00000BF00BF5748418857A001F087FB00BFC9
:1048E0000025D9E005EB45040020FFF7A2FE514961
:1048F000091D21F8140000BF084630F81430224684
:1049000055A1002001F05CFB00BF00BF4948001D1D
:1049100030F81420214650A001F068FB00BF0020B1
:10492000FFF787FE4349091D621C21F8120000BFF2
:104930000846611C30F8113047A1002001F040FB0F
:1049400000BF00BF3B48001D611C30F8112042A091
:1049500001F04CFB00BF0020FFF76BFE014635481D
:10496000001DA21C20F8121000BFA11C30F811304D
:1049700039A1002082E00000000002400030014028
:10498000040400202A2A2A2A2A2A2A2A2A73656E3F
:10499000646D6573736167652E6D657373616765BB
:1049A000446174615B25785D3D3D25642A2A2A2A8D
:1049B0002A2A2A2A2A2A2A2A2A2A2A0D0A00000012
:1049C000C4000020000402400008024073656E64C9
:1049D0006D6573736167652E737475416E6477617D
:1049E000726E696E672E7261773D3D25780D0A0003
:1049F0002A2A2A2A2A2A2A2A2A73656E646D65734E
:104A0000736167652E73756D3D3D25782A2A2A2AC4
:104A10002A2A2A2A2A2A2A2A2A2A2A0D0A000000B1
:104A20007370695F686561645B25645D3D25780D21
:104A30000A000000260400207265636976656D65D2
:104A400073736167652E646174615F6C656E3D3D73
:104A500025780D0A000000007265636976656D6552
:104A600073736167652E6D65737361676544617407
:104A7000615B25645D3D3D25780D0A0001F0A0FADB
:104A800000BF00BF4848A11C30F81120AFF2380029
:104A900001F0ACFA00BF6D1C042DFFF623AF00201F
:104AA000FFF7C7FD4049091F888300BF0846828B76
:104AB0003EA1002001F084FA00BF00BF3A48001F69
:104AC000818B3AA001F092FA00BF0020FFF7B1FD00
:104AD0003549091FC88300BF0846C28B3DA100208D
:104AE00001F06EFA00BF00BF2F48001FC18B39A034
:104AF00001F07CFA00BF0020FFF79BFD2A49091F47
:104B0000088400BF0846028C38A1002001F058FA42
:104B100000BF00BF2448001F018C34A001F066FADA
:104B200000BF2148001F00881F49091F4988084409
:104B300086B2002505E01C4830F81500304486B2E6
:104B40006D1C0C2DF7DB1848001F808B304486B29B
:104B50001548001FC08BB0420FD176B14FF6FF70E1
:104B600086420AD04FF0010800BF0F48001FC28BD9
:104B7000314625A001F03AFA01E009F10109B9F145
:104B8000030F04D110212948FCF7BAF807E01021DF
:104B90002648FCF7B5F8B8F1000F3FF453AE00BF5C
:104BA0004046BDE8F08700002A0400207265636972
:104BB00076656D6573736167652E737475416E6498
:104BC0007761726E696E672E7261773D3D25780D53
:104BD0000A0000007265636976656D6573736167CD
:104BE000652E73756D3D3D25780D0A00726563690C
:104BF00076656D6573736167652E64617461456E7A
:104C0000643D3D25780D0A0073756D3D307825783B
:104C10002C7265636976656D6573736167652E7364
:104C2000756D3D3D25782C0D0A0000000000024006
:104C300001463A480160002070472DE9F0470446DC
:104C400016461F46DDE9088914B1B8F1000F03D1FB
:104C50004FF0FF30BDE8F087314D06E02868A042F4
:104C600002D12068286003E02D6828680028F5D16B
:104C700000BF2A480068804780197941C4E90201D1
:104C8000C4F81080C4F81490254D00BF286818B9E6
:104C9000002020602C600DE0D4E902302A68D2E9BF
:104CA0000212591A904103D2286820602C6001E05A
:104CB0002D68EBE700BF0020CCE70246184906E06C
:104CC0000868904202D113680B6003E00968086825
:104CD0000028F5D100BF0020704710B510480468C7
:104CE00017E00E4800688047D4E90232C01A9141AB
:104CF00005D20A4800688047A168081A10BD084913
:104D000020680860206918B12046D4E90421904742
:104D10002468002CE5D10020F0E70000A800002066
:104D2000A400002010B5FDF7C8FE10BD2DE9FC471A
:104D3000064614461D46DDE90A784FF00009224672
:104D40002B463046CDE90078FFF777FF814648468D
:104D5000BDE8FC8770B5044600252046FFF7ADFF8F
:104D60000546284670BD1CB5184819494FF4FA721B
:104D70000023CDE90010FFF7D9FF1CBD70B5044634
:104D80000D4614480068401C124908600846007827
:104D900000F0010020B904210F48FBF7B1FF03E048
:104DA00004210D48FBF7AEFFFDF7F8FEFFF7DBFF30
:104DB00070BD10B5AFF29300FFF73AFFFFF7D3FFD6
:104DC000002010BD10B5FFF788FF10BD480400207B
:104DD0007D4D0008AC000020000C024070B5FE4C78
:104DE000A821204601F0BCFA032020616061FBA0ED
:104DF000A061FD49E1614FF4806121620021A1625F
:104E00006162E162F5A02066F84961661021A16641
:104E100000212167E1666167002505E0C5F10F000B
:104E2000F349085C60556D1C102DF7D370BD2DE95A
:104E3000F05F0446894617464FF0000AE56800BF58
:104E4000D4F81080A84503D9A8EB0500461E04E05D
:104E5000A5EB0800401CA1680E1AA068401BB042D8
:104E600001D9304601E0A068401B0646BE4201D28F
:104E7000304600E038460646606800EB050B3246D7
:104E80004946584601F027FAB244B144BF1B3544A5
:104E9000A068A84200D10025E560002FD0D150467F
:104EA000BDE8F09F2DE9F047044689461546E668BF
:104EB000A068871BAF420AD9606800EB060A2A4641
:104EC0004946504601F007FA7019E06014E0B84610
:104ED000606800EB060A42464946504601F0FBF97D
:104EE000A5EB0708D4F804A009EB07014246504699
:104EF00001F0F1F9C4F80C80BDE8F08738B505463B
:104F00000C46FF208DF80000BA48005D8DF80100C6
:104F1000022269462846FFF78AFF38BD10B50146D0
:104F20000A69CB689A4204D88C68641EE41AA018F7
:104F300001E0D41A601E10BD2DE9F74F82B0834600
:104F4000174600BFA448009000980078532801D06D
:104F5000FFF744FF00BF0BEB4B019F48183000EBFD
:104F6000C106DDF80C903569D6F80CA04FF00008AA
:104F7000554517D9B068441BBC4201D2204600E019
:104F800038460446706828440190224648460199F4
:104F900001F0A1F9A044A1443F1B2544B068A842F8
:104FA00000D10025AAEB0504BC4201D2204600E056
:104FB000384604465CB17068284401902246484651
:104FC000019901F088F9A044A1443F1B2544B8F1A0
:104FD000000F00D03561404605B0BDE8F08F2DE9E7
:104FE000F74F82B08346174600BF7B480090009879
:104FF0000078532801D0FFF7F1FE00BF0BEB4B0107
:105000007548603000EBC106DDF80C903569D6F8C4
:105010000CA04FF00008554517D9B068441BBC429E
:1050200001D2204600E038460446706828440190CA
:1050300022464846019901F04EF9A044A1443F1B85
:105040002544B068A84200D10025AAEB0504BC4263
:1050500001D2204600E0384604465CB1706828441E
:10506000019022464846019901F035F9A044A14437
:105070003F1B2544B8F1000F00D03561404605B014
:10508000BDE8F08F2DE9F04104460D461646EFF3DA
:1050900011808046202080F3118800BF00BF324677
:1050A00029462046FFF748FF074608F0FF0080F337
:1050B000118800BF00BF3846BDE8F0812DE9F041FE
:1050C00004460D461646EFF311808046202080F3FB
:1050D000118800BF00BF324629462046FFF77FFFF8
:1050E000074608F0FF0080F3118800BF00BF384674
:1050F000BDE8F0812DE9F047074688461646C146CF
:1051000007EB47013448183000EBC104D4E9030130
:10511000884202D1A068451E0EE0D4E9030188420E
:1051200004D22069E168401A451E05E02069E16863
:10513000401A401EA1684518AE420CD92069711B67
:105140000844206103E02069A168401A20612069B9
:10515000A1688842F7D2D4E90201451A00BFB542DE
:105160000CD9E168606800EB010A324649465046B6
:1051700001F0B1F8E0683044E06010E0E168606898
:1051800000EB010A2A464946504601F0A4F8A9441A
:105190000020E060761BA068451E002EDFD100BF16
:1051A000BDE8F0872DE9F74F82B082461446DDF85E
:1051B0000CB00AEB4A010848183000EBC105D5F8DD
:1051C0001090EE68686830440190B14539D8A868FD
:1051D000801B471EA7420FE0600400205465726DDB
:1051E000696E616C000000000805002008090020BD
:1051F000066D0008F66C00080AD32246594601984D
:1052000001F069F83019E860012005B0BDE8F08FC1
:105210004F44A74223D3A868A0EB0608424659464C
:10522000019801F058F8A4EB08043CB168680190BB
:105230000BEB08012246019801F04DF8EC600120CB
:10524000E3E7A9EB0600471EA74208D322465946CA
:10525000019801F040F83019E8600120D5E70020FE
:10526000D3E72DE9F047074688461646C24607EBC6
:105270004701FE4800EBC109D9F8140020B101280C
:1052800011D0022826D11EE04846FFF747FE05460A
:10529000B54201D2002405E0344632465146484624
:1052A000FFF700FE18E04846FFF738FE0546B54216
:1052B00001D2284600E03046044622465146484680
:1052C000FFF7F0FD08E0324651464846FFF7AFFDD4
:1052D000044601E0002400BF00BF2046BDE8F0877F
:1052E0002DE9F047074688461646C24607EB4701B8
:1052F000DE48483800EBC109D9F8140020B1012874
:1053000011D0022826D11EE04846FFF707FE0546C9
:10531000B54201D2002405E03446324651464846A3
:10532000FFF7C0FD18E04846FFF7F8FD0546B54217
:1053300001D2284600E030460446224651464846FF
:10534000FFF7B0FD08E0324651464846FFF76FFDD3
:10535000044601E0002400BF00BF2046BDE8F087FE
:105360002DE9F04104460D46164600BFBF4F603F91
:105370003878532801D0FFF731FD00BFEFF31180DB
:105380000746202080F3118800BF00BF324629461F
:105390002046FFF766FF8046F8B280F3118800BF11
:1053A00000BF4046BDE8F0812DE9F04104460D46BE
:1053B000164600BFAD4F603F3878532801D0FFF745
:1053C0000DFD00BFEFF311800746202080F3118808
:1053D00000BF00BF324629462046FFF781FF8046C6
:1053E000F8B280F3118800BF00BF4046BDE8F081ED
:1053F00070B505460C46204600F04EFF0646324684
:1054000021462846FFF7D0FF70BDF0B503460C4695
:1054100003EB4307954E483E06EBC701CE68721C6E
:105420008E68964200D100220E69964206D0CF685F
:105430004E68F5192C70CA60012000E00020F0BD14
:105440002DE9F0470746884600BFDFF820A2AAF101
:10545000600A9AF80000532801D0FFF7BFFC00BF94
:10546000EFF311810846202181F3118800BF00BFAE
:1054700007EB47027D49483901EBC204E1684D1C46
:10548000A168A94200D100252169A94208D0E2689B
:10549000616801EB020989F80080E560012600E0FF
:1054A0000026C1B281F3118800BF00BF3046BDE8BD
:1054B000F0872DE9F0470746884600BFDFF8ACA12A
:1054C000AAF1600A9AF80000532801D0FFF786FC81
:1054D00000BFEFF311810846202181F3118800BF3E
:1054E00000BF07EB47026149483901EBC204E1689C
:1054F0004D1CA168A94200D100256169022903D190
:1055000000BF2169A942FCD02169A94208D0E26804
:10551000616801EB020989F80080E560012600E07E
:105520000026C1B281F3118800BF00BF3046BDE83C
:10553000F08738B5012269460020FFF7BFFD044619
:10554000012C02D19DF8004001E04FF0FF342046CD
:1055500038BD10B500BFFFF7ECFF0028FBDB10BD26
:105560002DE9F04100BF414F603F3878532801D00A
:10557000FFF734FC00BF3D4C2669E068B04201D023
:10558000012500E000252846BDE8F08110B5014660
:1055900001EB4104354800EBC402D3681069181AC6
:1055A00010BD10B5014601EB41043048483800EB0E
:1055B000C4021369D068C01A10BD2DE9F047064631
:1055C0000F469046994600BFDFF8A0A0AAF1600AF6
:1055D0009AF80000532801D0FFF700FC00BFEFF35A
:1055E00011810846202181F3118800BF00BF1F4DA3
:1055F000603D002400BF04EB440205F1600101EBB3
:10560000C201496801B903E0641C6969A142F2DC86
:1056100000BF6969A1422EDD04EB440205F160017F
:1056200041F8326004EB440201EBC2014F6004EB2D
:10563000440205F1600101EBC201C1F808800022BB
:1056400004EB440305F1600101EBC3010A6104EBC3
:10565000440305F1600101EBC301CA6004EB44029D
:1056600005F1600101EBC20102E00000C00400206E
:10567000C1F8149001E04FF0FF34C1B281F31188FA
:1056800000BF00BF2046BDE8F0872DE9F047064681
:105690000F469046994600BFDFF800A49AF8000034
:1056A000532801D0FFF79AFB00BFEFF311810846A2
:1056B000202181F3118800BF00BFF84D002400BFF6
:1056C00004EB440205F1180101EBC201496801B97C
:1056D00003E0641C2969A142F2DC00BF2969A142F0
:1056E0002ADD04EB440205F1180141F8326004EBB5
:1056F000440201EBC2014F6004EB440205F11801C2
:1057000001EBC201C1F80880002204EB440305F15B
:10571000180101EBC3010A6104EB440305F1180110
:1057200001EBC301CA6004EB440205F1180101EB6F
:10573000C201C1F8149001E04FF0FF34C1B281F30F
:10574000118800BF00BF2046BDE8F0872DE9F05F5B
:1057500005460F469046994600BFDFF840B39BF8D8
:105760000000532801D0FFF739FB00BFDFF82CA35E
:10577000032D1FD2EFF311810846202181F31188F8
:1057800000BF00BF05EB45020AF1180101EBC2049E
:105790003DB12760C4F80480C4F80890002121615D
:1057A000E1600A996161C1B281F3118800BF00BF55
:1057B000002601E04FF0FF363046BDE8F09F2DE9AE
:1057C000F05F05460F469046994600BFDFF8CCB221
:1057D0009BF80000532801D0FFF700FB00BFDFF863
:1057E000BCA2032D1FD2EFF311810846202181F3C3
:1057F000118800BF00BF05EB45020AF1600101EB13
:10580000C2043DB12760C4F80480C4F808900021A8
:105810002161E1600A996161C1B281F3118800BF21
:1058200000BF002601E04FF0FF363046BDE8F09F94
:105830002DE9F04704460E4600BFDFF8609299F864
:105840000000532801D0FFF7C9FA00BF934F032C83
:1058500016D2EFF311810846202181F3118800BF91
:1058600000BF04EB440207F1180101EBC208C8F8BD
:105870000060C1B281F3118800BF00BF002501E0C4
:105880004FF0FF352846BDE8F0872DE9F047044684
:105890000E4600BFDFF8049299F80000532801D0AB
:1058A000FFF79CFA00BF7D4F032C16D2EFF3118156
:1058B0000846202181F3118800BF00BF04EB440299
:1058C00007F1600101EBC208C8F80060C1B281F3C2
:1058D000118800BF00BF002501E04FF0FF352846CA
:1058E000BDE8F0872DE9F04704460E4600BFDFF81B
:1058F000AC9199F80000532801D0FFF76FFA00BF70
:10590000664F032C16D2EFF311810846202181F354
:10591000118800BF00BF04EB440207F1180101EB3E
:10592000C208C8F81460C1B281F3118800BF00BF7B
:10593000002501E04FF0FF352846BDE8F0872DE94E
:10594000F04704460E4600BFDFF8509199F800007A
:10595000532801D0FFF742FA00BF504F032C16D254
:10596000EFF311810846202181F3118800BF00BFA9
:1059700004EB440207F1600101EBC208C8F81460AF
:10598000C1B281F3118800BF00BF002501E04FF0D4
:10599000FF352846BDE8F08710B5FFF71FFA10BDA8
:1059A0002DE9F843044600BFDFF8F08098F80000C6
:1059B000532801D0FFF712FA00BF0027FF208DF80F
:1059C0000000102C31D23648005D8DF80100334DB7
:1059D0001835EFF311808046202080F3118800BF36
:1059E00000BF287D00F00300022807D12D48047075
:1059F000022269462846FFF71AFA0FE02846FFF709
:105A00008DFA0646022E07D3264804700222694604
:105A10002846FFF747FA01E04FF0FF3708F0FF0094
:105A200080F3118800BF00BF01E04FF0FF37384618
:105A3000BDE8F8832DE9F0470746894600BFDFF847
:105A40005CA09AF80000532801D0FFF7C7F900BF07
:105A5000102F70DADFF8448008F11808484600F08B
:105A60001BFC0646EFF311808246202080F311884C
:105A700000BF00BF4046FFF751FA054698F81400F2
:105A800000F0030020B101281ED0022847D136E0E3
:105A9000301D854208D2002415E00000600400207B
:105AA000F66C0008B000002039464046FFF726FAA1
:105AB000324649464046FFF7BAF90446364801786F
:105AC0004046FFF71BFA2DE0042D02D24FF0FF34C1
:105AD00014E039464046FFF711FA281FB04201D9B9
