:020000040800F2
:1000000048280020390200081D3E00081F3E000855
:10001000233E0008273E00082B3E00080000000099
:100020000000000000000000000000002F3E00085B
:10003000313E000800000000333E0008353E000855
:10004000530200085302000853020008530200083C
:1000500053020008530200087F2D000853020008D5
:10006000530200085302000853020008530200081C
:10007000530200085302000853020008530200080C
:1000800053020008530200085302000853020008FC
:1000900053020008530200085302000853020008EC
:1000A00053020008530200085302000853020008DC
:1000B000912A0008312B000853020008530200085F
:1000C00053020008530200085302000853020008BC
:1000D0005302000853020008FD3A000853020008CA
:1000E000530200085302000853020008530200089C
:1000F000530200085302000853020008530200088C
:10010000530200085302000853020008530200087B
:10011000530200085302000853020008530200086B
:10012000530200085302000853020008530200085B
:10013000530200085302000853020008530200084B
:10014000530200085302000853020008530200083B
:10015000530200085302000853020008530200082B
:10016000530200085302000853020008530200081B
:10017000530200085302000853020008530200080B
:10018000530200085302000800F002F800F044F89F
:100190000AA090E8000C82448344AAF10107DA45E2
:1001A00001D100F039F8AFF2090EBAE80F0013F0F0
:1001B000010F18BFFB1A43F0010318479C690000A8
:1001C000BC690000103A24BF78C878C1FAD8520739
:1001D00024BF30C830C144BF04680C6070470000C1
:1001E0000023002400250026103A28BF78C1FBD840
:1001F000520728BF30C148BF0B607047642905F023
:100200001186782905F07586002070471FB506F025
:1002100064FC1FBD10B510BD06F096F81146FFF73F
:10022000F5FF03F039FD06F0B4F803B4FFF7F2FF71
:1002300003BC03F0F9FB0000094880470948004768
:10024000FEE7FEE7FEE7FEE7FEE7FEE7FEE7FEE786
:10025000FEE7FEE704480549054A064B70470000E3
:10026000153F00088901000848090020482800209F
:10027000481800204818002032490143324A1160D2
:10028000704770B5002100230F22C4781CB32E4C98
:10029000246804F4E064C4F5E064C4F30721C1F108
:1002A0000404E3B20A4144789C40E1B284781440EB
:1002B00021430C07210E254C05786155047804F084
:1002C0001F050124AC4005786D11AD0005F1E02556
:1002D000C5F8004109E0047804F01F050124AC4092
:1002E0001B4D0678761145F8264070BD194A0A4024
:1002F0000243154B1B1F1A60704739B1124A121D79
:1003000012680243104B1B1D1A6006E00E4A121DB4
:10031000126882430C4B1B1D1A607047042808D1D9
:100320004FF0E021096941F004014FF0E022116132
:1003300007E04FF0E021096921F004014FF0E022CD
:10034000116170470000FA050CED00E000E400E0E8
:1003500080E100E080FFFF1F002041490860091D87
:100360000860091D0860091D08603E483C491431B9
:100370000860704700213A498279002A3AD00A463B
:10038000126803689A430B461A600A1D12680368D4
:100390009A430B1D1A60027911440A6803681A43D4
:1003A0000A602F4A0832126803689A432C4B0833BC
:1003B0001A601A1D126803689A43294B0C331A609D
:1003C0004279102A0ED11A1F126803681A43244B6F
:1003D00008331A601A1D126803681A43204B0C3345
:1003E0001A600DE01E49427911440A6803681A43F5
:1003F0000A6005E0027911440A6803689A430A60BA
:1004000070470021016001710C214171002181714F
:1004100070471349103109680143114A10321160C5
:100420007047014600200E4A143212680A400AB191
:10043000012000E00020704709491431086070472E
:1004400001460020064A143212680A400AB101200F
:1004500000E0002070470249143108607047000036
:10046000003C0140FFFF7F00FE4A1070704730B132
:10047000FC49096841F48071FA4A116005E0F949C4
:10048000096821F48071F74A1160704730B1F5496D
:10049000096841F40071F34A116005E0F149096807
:1004A00021F40071EF4A1160704730B1ED490968DD
:1004B00041F48061EB4A116005E0EA49096821F4E2
:1004C0008061E84A11607047E648006840F40060C7
:1004D000E44908607047E348006840F48050E1490F
:1004E00008607047DF481030006800F0004028B115
:1004F000DD48DC49091D0860DC4808607047D948C0
:100500001030006840F00040D64910310860704754
:100510000920D4490C31096801F48031B1F5803FDC
:1005200001D1012020E0CF490C31096801F0100110
:1005300009B1062018E0CB490C31096801F480713B
:1005400009B1022010E0C7490C31096801F0EF0140
:1005500009B1072008E0C3490C31096801F0020124
:1005600009B1082000E00920704708B50920009073
:10057000FFF7CEFF009002E0FFF7CAFF00909DF862
:1005800000000128F8D09DF8000008BD70B50446B1
:100590000A460026092502B909E0012A01D11602FE
:1005A00005E0022A01D1160201E04FF44076FFF780
:1005B000DCFF0546092D2DD1AA481030006820F433
:1005C0004070A84910310860084600683043086050
:1005D0000846006820F0F80008600846006844F00B
:1005E000020108439F49103108600846006840F442
:1005F00080300860FFF7B9FF05469A481030006860
:1006000020F002009749103108600846006820F089
:10061000F8000860284670BD30B502460025092460
:10062000FFF7A3FF044602B909E0012A01D1150230
:1006300005E0022A01D1150201E04FF44075092CB2
:1006400020D188481030006820F44070854910316E
:10065000086008460068284308600846006840F0C3
:10066000040008600846006840F480300860FFF726
:100670007CFF04467B481030006820F00400794974
:1006800010310860204630BD30B5024600250924EF
:10069000FFF76BFF044602B909E0012A01D11502F8
:1006A00005E0022A01D1150201E04FF44075092C42
:1006B00020D16C481030006820F440706949103136
:1006C000086008460068284308600846006840F053
:1006D000040008600846006840F480300860FFF7B6
:1006E00044FF04465F481030006820F004005D4974
:1006F00010310860204630BD30B50246002509247F
:10070000FFF733FF044602B909E0012A01D11502BF
:1007100005E0022A01D1150201E04FF44075092CD1
:1007200020D150481030006820F440704D491031FD
:10073000086008460068284308600846006840F4DE
:10074000004008600846006840F480300860FFF709
:100750000CFF044643481030006820F40040414933
:1007600010310860204630BD70B5064614461D465F
:100770000922FFF7FAFE0246092A1ED13948103035
:10078000006820F44070374910310860084600685E
:1007900040F4407008600846006840F001000860BE
:1007A00034607560FFF7E1FE02462E4810300068A5
:1007B00020F001002B4910310860104670BD30B5A3
:1007C00002460C460925FFF7D0FE0546092D1DD12E
:1007D00024481030006820F440702249103108602D
:1007E0000846006840F4007008600846006840F061
:1007F000010008601460FFF7B8FE05461948103084
:10080000006820F00100174910310860284630BD0B
:1008100030B502460C460925FFF7A7FE0546092D0F
:100820001DD110481030006820F440700D4910317F
:1008300008600846006840F4807008600846006858
:1008400040F0010008601480FFF78FFE0546054860
:100850001030006820F0010002491031086028467D
:1008600030BD0000003C024023016745AB89EFCD5D
:1008700030B502460C460925FFF777FE0546092DDF
:1008800017D19B48006820F44070994908600846D9
:10089000006808600846006840F0010008601470B5
:1008A000FFF763FE05469248006820F0010090497A
:1008B0000860284630BD8E48001D006800F0010029
:1008C00028B18C488A49083908608B48086070470D
:1008D0008748001D006840F001008549091D086037
:1008E000704730B502460C460925FFF73EFE054627
:1008F000092D10D13CB17E48801D008890437C4971
:10090000891D088007E07A48801D008891B208435D
:100910007749891D088030BD30B502460C4609254F
:10092000FFF723FE0546092D10D13CB170480A306F
:10093000008890436E490A31088007E06C480A300D
:10094000008891B208436A490A31088030BDFF210E
:10095000674AD21D127802F07F0140EA0102644B1F
:10096000DB1D1A70704730B502460C460925FFF7AB
:10097000FCFD0546092D10D144B15D48801D00885D
:1009800091B208435A49891D088006E05848801DE5
:10099000008890435649891D088030BD30B5024615
:1009A0000C460925FFF7E1FD0546092D10D144B19C
:1009B0004F480A30008891B208434D490A310880F7
:1009C00006E04B480A300088904349490A310880C4
:1009D00030BD10B502460924FFF7C7FD0446092CB7
:1009E00002D14348401D027010BDF0B504460D46CB
:1009F000FF260927FFF7B9FD0746092F0BD13C4811
:100A0000001D007800F00F0645EA06001043204361
:100A10003749091D0870F0BD3549091D097821F0D5
:100A20001001334A121D11701146097801431170EB
:100A300070472F49091D097821F00C012C4A121D1D
:100A400011701146097801431170704700B50922F1
:100A50002748001D007840F002002549091D087054
:100A6000FFF783FD0246104600BD2148001D0068C7
:100A7000C0F3471070471E48801D008870471C480F
:100A80000A30008870471A48801D0088704718484F
:100A90000A300088704700201549491D0978AA29A5
:100AA00001D0012000E0002070471148001D0078AF
:100AB00000F00C00704729B10D4A126802430C4B3C
:100AC0001A6004E00A4A12688243094B1A607047B0
:100AD00001460020064A121F12680A400AB101208E
:100AE00000E0002070470249091F086070470000BD
:100AF000103C02403B2A19087F6E5D4C10B504463D
:100B00009848844208D10121084600F0A6FB002144
:100B1000012000F0A2FB76E09348844208D1012135
:100B2000022000F09AFB0021022000F096FB6AE010
:100B30008E48844208D10121042000F08EFB002160
:100B4000042000F08AFB5EE08948844208D101213C
:100B5000082000F082FB0021082000F07EFB52E01C
:100B60008448844208D10121102000F076FB002146
:100B7000102000F072FB46E07F48844208D101213A
:100B8000202000F06AFB0021202000F066FB3AE004
:100B90007A48844208D10121402000F05EFB002108
:100BA000402000F05AFB2EE07548844208D1012114
:100BB000802000F052FB0021802000F04EFB22E05C
:100BC0007048844208D10121801500F046FB0021C5
:100BD000A01500F042FB16E06B48844208D10121C9
:100BE000401500F03AFB0021601500F036FB0AE0EA
:100BF0006648844207D10121001500F02EFB002138
:100C0000201500F02AFB10BDF0B50A460021002394
:100C1000002400BF3DE0012505FA01F3156805EA4F
:100C200003049C4234D105684F000326BE40B543FF
:100C3000056015794E00B5400668354305601579A5
:100C4000012D02D01579022D16D185684F0003269B
:100C5000BE40B543856055794E00B5408668354342
:100C60008560456801268E40B543456045689679A4
:100C70008E40B6B235434560C5684F000326BE407E
:100C8000B543C560D5794E00B540C6683543C560EB
:100C9000491C1029BFD3F0BD4FF6FF710160002140
:100CA000017141718171C171704708B54FF4803293
:100CB0000092009A0A430092009AC261C161009AB0
:100CC000C261C2690092C269009208BD024600205A
:100CD00013690B400BB1012000E000207047014672
:100CE000086980B270470246002053690B400BB17F
:100CF000012000E0002070470146486980B270473B
:100D000001837047418370470AB1018300E041834A
:100D100070474161704742694A4042617047F0B58F
:100D2000002300244D07ED0E02FA05F3CE1000F16A
:100D3000200555F826504E07F70E0F26BE40B54346
:100D4000CF1000F1200646F82750CE1000F1200504
:100D500055F8265045EA0304CE1000F1200545F869
:100D60002640F0BD0000024000040240000802409E
:100D7000000C024000100240001402400018024023
:100D8000001C0240002002400024024000280240D3
:100D90000E49086070470D49486070470B498860EC
:100DA00070474AF6AA200949086070474CF6CC40C3
:100DB00006490860704701460020044AD2680A408C
:100DC0000AB1012000E00020704700000030004020
:100DD000F948006840F00100F74908600020F64932
:100DE00008310860F4480068F4490840F249086096
:100DF000F348091D0860F348EF4984310860F04862
:100E00001038091D0860EC48006820F48020EA4989
:100E100008600020E8490C310860E7498C3108601F
:100E200070470021E44A921C117011460870704707
:100E300010B501460022002300204A11012A02D1E8
:100E4000DD4C236808E0022A03D1DB4C70342368B0
:100E500002E0D94C7434236801F01F02012494404D
:100E60001C400CB1012000E0002010BD38B500206E
:100E700000900024002500BF3120FFF7D9FF054670
:100E80000098401C00900098B0F5A04F01D0002DB4
:100E9000F2D03120FFF7CCFF08B1012400E000249C
:100EA000204638BD01460020C34A106820F0F800F3
:100EB00040EAC10010607047C349086070470021D4
:100EC000BD4A703211701170012802D004280AD175
:100ED00004E00121B84A7032117005E00521B64ADC
:100EE0007032117000E000BF00BF7047B749086062
:100EF000704770B5049C41EA82150126C6EB530683
:100F000045EA0645054345EA0465AB4E361D3560A6
:100F100070BDAD4908667047820142EA0172A64B76
:100F200084331A607047A8498866704710B58301FA
:100F300043EA016343EA02739F4C8834236010BD87
:100F4000A14908677047A049C8647047024600205D
:100F5000994B0833186820F0EC6042EA010318430B
:100F6000954B08331860704702460020924B0833B7
:100F7000186820F0784042EA010318438E4B08338A
:100F800018607047014600208B4A0832106820F034
:100F9000030008431060704787480830006800F07D
:100FA0000C00704701460020834A0832106820F088
:100FB000F000084310607047014600207E4A083266
:100FC000106820F4E050084310607047014600208C
:100FD000794A0832106820F4604040EAC10010608D
:100FE0007047F0B5002100220024022500260223CC
:100FF000714F08373F6807F00C0121B1042905D073
:10100000082937D105E0724F076036E0714F07605D
:1010100033E0694F3F1D3F68C7F38056664F3F1D61
:101020003F6807F03F036EB16A4FB7FBF3F7DFF895
:1010300088C10CF1040CDCF800C0CCF3881C07FB61
:101040000CF40CE0624FB7FBF3F7DFF86CC10CF166
:10105000040CDCF800C0CCF3881C07FB0CF4564FE2
:101060003F1D3F68C7F301477F1C7D00B4FBF5F7C8
:10107000076002E0564F076000BF00BF4E4F0837C1
:101080003F6807F0F0010909534F7A5C0768D740C1
:101090004760494F08373F6807F4E051890A4E4FCF
:1010A0007A5C4768D7408760434F08373F6807F44A
:1010B0006041490B484F7A5C4768D740C760F0BD34
:1010C000002100F44072B2F5407F0AD13A4A08325A
:1010D000116821F4F811414A02401143364A08329E
:1010E0001160354A70321268C0F30B031A43324B59
:1010F00070331A6070473549443908607047334986
:101100004039086070473649086070470146002042
:10111000294A8C32106820F01F004A1E1043264ACC
:101120008C321060704701460020234A8C321068D0
:1011300020F4F8504A1E40EA02201F4A8C32106008
:101140007047014600201C4A8C32106820F4401081
:1011500008431060704701460020174A8C3210681F
:1011600020F4400008431060704701460020124AF6
:101170008C32106820F440300843106070471949E1
:101180000860704739B10C4A3032126802430A4B8A
:1011900030331A6006E0084A303212688243064B48
:1011A00030331A607047F9B1034A3432126802438F
:1011B000014B34331A601CE000380240FFFFF6EAAE
:1011C000103000240030002000004742800E4742CB
:1011D0000024F40000127A0000000020FFFCFF0F42
:1011E0005C014742E01147428F4A126882438E4BAE
:1011F0001A60704739B18C4A121D126802438A4B3B
:101200001B1D1A6006E0884A121D12688243864B35
:101210001B1D1A60704739B1834A0C3212680243B1
:10122000814B0C331A6006E07F4A0C32126882430D
:101230007D4B0C331A60704739B17B4A103212680B
:101240000243794B10331A6006E0774A1032126875
:101250008243754B10331A60704739B1724A243A91
:1012600012680243704B243B1A6006E06E4A243A2F
:10127000126882436C4B243B1A60704739B16A4A4A
:10128000203A12680243684B203B1A6006E0664A27
:10129000203A12688243644B203B1A60704739B190
:1012A000614A1C3A126802435F4B1C3B1A6006E01D
:1012B0005D4A1C3A126882435B4B1C3B1A607047C4
:1012C00039B1594A143A12680243574B143B1A6019
:1012D00006E0554A143A12688243534B143B1A6095
:1012E000704739B1504A103A126802434E4B103BD6
:1012F0001A6006E04C4A103A126882434A4B103B8F
:101300001A60704739B1484A1C3212680243464B92
:101310001C331A6006E0444A1C3212688243424B76
:101320001C331A60704739B13F4A203212680243B9
:101330003D4B20331A6006E03B4A2032126882435C
:10134000394B20331A60704739B1374A243212685A
:101350000243354B24331A6006E0334A24321268C4
:101360008243314B24331A60704739B12E4A2C32F4
:10137000126802432C4B2C331A6006E02A4A2C32A6
:1013800012688243284B2C331A60704739B1264AC1
:10139000303212680243244B30331A6006E0224A8E
:1013A000303212688243204B30331A607047012874
:1013B00008D11D493C31096841F008011A4A3C3204
:1013C000116007E018493C31096821F00801164A0C
:1013D0003C321160704739B1134A273A1278024300
:1013E000114B273B1A7006E00F4A273A12788243C6
:1013F0000D4B273B1A7070470B484030006840F097
:101400008070094940310860704701460020064A53
:10141000283A12680A400AB1012000E00020704713
:1014200001492639087070473438024010B5044627
:10143000FB48844208D101218014FFF752FF0021AC
:10144000A014FFF74EFF3CE0F648844208D101218A
:101450000014FFF735FF00212014FFF731FF30E0C3
:10146000F148844208D10121C013FFF729FF002170
:10147000E013FFF725FF24E0EC48844208D1012166
:101480004014FFF72EFF00216014FFF72AFF18E039
:10149000E748844209D101210805FFF722FF002116
:1014A0004FF48010FFF71DFF0BE0E248844208D1A3
:1014B00001214805FFF715FF00214FF40010FFF749
:1014C00010FF10BD10B50022028802F441520B88B3
:1014D0004C8823438C882343CC8823430C892343A3
:1014E0004C8923438C892343CC8923431A430280AC
:1014F000838B4FF2FF74234083830B8A038210BDDA
:101500002DE9F04F0025022300244FF001090022AD
:101510000026002794469046B0F81CA04FF2400BDE
:101520000AEA0B0AA0F81CA04FF0020AA0F820A0BB
:10153000858BD1F808A0BAF1020F01D100BF82E07B
:10154000B1F804A0BAF1000F02D14FF0010901E097
:101550004FF00209DFF8E0A2DAF800A00AF4000A6E
:10156000BAF1000F09D0DFF8D0A2DAF800A02AF40F
:10157000000ADFF8C4B2CBF800A0DFF8BCA20AF181
:101580007C0ADAF800A0CAF3881CDFF8ACA20AF1E2
:101590007C0ADAF800A0CAF30278DFF89CA2AAF16C
:1015A000040ADAF800A00AF03F07DFF88CA2AAF1DB
:1015B000040ADAF800A00AF4800ABAF5800F08D10C
:1015C000DFF878A2BAFBF7FA0AFB0CFABAFBF8F6D6
:1015D00007E0DFF86CA2BAFBF7FA0AFB0CFABAFBD9
:1015E000F8F6B1F806A0BAF5007F0ED14FEA162A38
:1015F0000AEB8A0A4FEA4A0AD1F808B0BAFBFBFAAA
:101600000AF1050A1FFA8AF20FE04FEA491AB6FBFF
:10161000FAFA0AEB8A0A4FEA4A0AD1F808B0BAFB8A
:10162000FBFA0AF1050A1FFA8AF24FF00A0AB2FB26
:10163000FAF202F00104A2EB040ACAF34F034FF6D8
:10164000FF7A0AEA0424022B01DBFF2B01DD0223CF
:101650000024B1F806A04AEA040A4AEA030AA0F8FC
:1016600020A0B1F804A0B1F80CB04AEA0B0AB1F816
:1016700002B04AEA0B0AB1F800B04AEA0B0A4AF48F
:10168000006A4AEA05058583BDE8F08F00210180E4
:1016900041808180C180018141818181C181072197
:1016A000018270470021018041808180C180022138
:1016B000816000218181704721B1028842F040029F
:1016C000028004E002884FF6BF731A400280704720
:1016D00021B1828B42F48062828304E0828B4FF6D8
:1016E000FF331A408283704702884FF2FF731A401B
:1016F000028002880A4302807047B1F5804F04D10E
:10170000028842F48042028004E002884BF6FF73B4
:101710001A40028070474FF6FF62914204D002885F
:1017200042F48072028004E002884FF6FF631A40A0
:101730000280704721B1828842F00402828004E076
:1017400082884FF6FB731A408280704721B18288ED
:1017500042F01002828004E082884FF6EF731A4054
:101760008280704730B500220023848B4FF2400501
:101770002C40848302240484828B0C88B4F5007F7F
:1017800001D00C8814B94FF4807308E00C88B4F5CC
:10179000407F03D00C88B4F5807F00D100238C8873
:1017A0008D892C434D882C431C4344F40064224310
:1017B000828330BD0146888970478181704721B19D
:1017C000028842F40052028004E002884DF6FF7362
:1017D0001A4002807047018841F4805101807047AF
:1017E00002460020012901D0108B00E0908A70474A
:1017F0000146088A70471AB183880B43838002E050
:1018000083888B438380704730B5002400230C11FC
:101810000125A540ABB2AAB185881D43858014E09F
:101820000030014000380040003C004000340140DE
:1018300000500140005401400838024000127A0074
:101840000024F40085889D43858030BD0246002039
:1018500013890B400BB1012000E000207047CA4300
:1018600002817047F0B502460020002400230025C5
:1018700001F00F070126BE40B4B20B1101269E40B5
:10188000B3B2968806EA03051689264016B10DB153
:10189000012000E00020F0BD10B5002201F00F048F
:1018A0000123A3409AB2D343038110BD10B5012197
:1018B0008803FFF716FD00214FF48040FFF711FD6C
:1018C00010BD1C49086070471B490862704730B55D
:1018D00000228B071C0F0F2303FA04F2154B083369
:1018E0008C1053F824309343124C08348D1044F874
:1018F000253023468C1053F824308C07240F00FA2F
:1019000004F423430B4C08348D1044F8253030BDCB
:101910000949DC31086070470849086070470020B9
:1019200004492031096801F4807109B1012000E007
:101930000020704700380140000027420004274281
:1019400010B50446FE48844208D101210846FFF73D
:10195000C8FC00210120FFF7C4FC9DE0B4F1804FDA
:1019600008D101210846FFF7ABFC00210120FFF759
:10197000A7FC91E0F348844208D101210220FFF73F
:101980009FFC00210220FFF79BFC85E0EE4884428B
:1019900008D101210420FFF793FC00210420FFF768
:1019A0008FFC79E0E948844208D101210820FFF743
:1019B00087FC00210820FFF783FC6DE0E4488442A7
:1019C00008D101211020FFF77BFC00211020FFF738
:1019D00077FC61E0DF48844208D101212020FFF735
:1019E0006FFC00212020FFF76BFC55E0DA488442B1
:1019F00008D101210220FFF774FC00210220FFF72B
:101A000070FC49E0D548844209D101210804FFF760
:101A100068FC00214FF48030FFF763FC3CE0D048C5
:101A2000844209D101214804FFF75BFC00214FF4F7
:101A30000030FFF756FC2FE0CA48844209D101214B
:101A40008804FFF74EFC00214FF48020FFF749FC8B
:101A500022E0C548844208D101214020FFF730FC34
:101A600000214020FFF72CFC16E0C048844208D13A
:101A700001218020FFF724FC00218020FFF720FCBB
:101A80000AE0BB48844207D101218015FFF718FC0A
:101A90000021A015FFF714FC10BD00220288A84BFE
:101AA00098420ED0AC4B98420BD0B0F1804F08D08A
:101AB000A44B984205D0A44B984202D0A34B984225
:101AC00004D14FF68F731A404B881A43A04B9842AB
:101AD00007D0A04B984204D04FF6FF431A400B8921
:101AE0001A4302804B68C3620B880385944B98426B
:101AF00002D0994B984201D18B7A038601238382CD
:101B000070474FF0FF314160002101800181418029
:101B1000817270470185828270470A4600210188E0
:101B20004FF68F731940114301807047416270472F
:101B3000C16270470146486A70470146088D704788
:101B400021B1028842F00202028004E002884FF6CE
:101B5000FD731A400280704721B1028842F00402EE
:101B6000028004E002884FF6FB731A40028070473F
:101B700021B1028842F08002028004E002884FF620
:101B80007F731A400280704702884FF6F7731A403D
:101B9000028002880A430280704702884FF6FF43A2
:101BA0001A40028002880A430280704721B10288ED
:101BB00042F00102028004E002884FF6FE731A40F0
:101BC0000280704770B5002400220023058C4FF678
:101BD000FE7635400584028C8388048B4FF68F7522
:101BE0002C40B51E2C400D882C43751E2A408D8933
:101BF0002A434D882A43524DA84202D0564DA8424E
:101C000013D14FF6F7752A40CD892A434FF6FB755D
:101C10002A408D882A434FF6FF652B404FF6FF552B
:101C20002B400D8A2B434D8A2B43838004838D6880
:101C30004563028470BD70B5002400220023058C2A
:101C40004FF6EF7635400584028C8388048B48F686
:101C5000FF752C404FF6FF452C400D884FF6FF7660
:101C600006EA05252C434FF6DF752A408D8906EAE2
:101C700005152A434D8806EA05152A43304DA8422A
:101C800002D0354DA8421DD14FF67F752A40CD892F
:101C90004FF6FF7606EA05152A434FF6BF752A4030
:101CA0008D8806EA05152A434FF6FF352B404FF283
:101CB000FF752B400D8A06EA85052B434D8A06EAFF
:101CC00085052B43838004838D688563028470BD02
:101CD00070B5002400220023058C4FF6FF663540C6
:101CE0000584028C8388848B4FF68F752C404FF6C9
:101CF000FC752C400D882C434FF6FF552A408D89EA
:101D00004FF6FF7606EA05252A434D8806EA0525A3
:101D10002A430B4DA84202D00F4DA84238D14FF2B2
:101D2000FF752A40CD894FF6FF7606EA05252A433E
:101D30004FF6FF352A408D8806EA05252A4319E02B
:101D4000000001400004004000080040000C00407A
:101D50000010004000140040000401400040014019
:101D6000004401400048014000180040001C0040B1
:101D7000002000404EF6FF752B404DF6FF752B40BE
:101D80000D8A06EA05152B434D8A06EA05152B43F5
:101D9000838084838D68C563028470BD70B5002222
:101DA00000230024058C4EF6FF7635400584038C15
:101DB0008488828B48F6FF752A404FF6FF452A40FB
:101DC0000D884FF6FF7606EA05252A434DF6FF7586
:101DD0002B408D8906EA05352B434D8806EA0535EB
:101DE0002B43FE4DA84202D0FD4DA84208D14BF630
:101DF000FF752C400D8A4FF6FF7606EA85152C43B9
:101E0000848082838D680564038470BD0021018015
:101E10004180818081608181C181018241827047DE
:101E200070B50346002000241846183001258D4067
:101E3000ACB21D8CA5431D8409B108290AD100EB61
:101E4000610005684FF68F763540056005681543DB
:101E500005600FE00D1FC5F34E052844056848F6E0
:101E6000FF763540056005684FF6FF7606EA0226E4
:101E70003543056070BD4163704781637047C1633E
:101E80007047016470470A460021018B4FF68F733B
:101E900019401143018370470A460021018B48F61F
:101EA000FF7319404FF6FF7303EA022319430183BE
:101EB00070470A460021818B4FF68F7319401143FA
:101EC000818370470A460021818B48F6FF731940D1
:101ED0004FF6FF7303EA02231943818370470A46D2
:101EE0000021018B4FF6F7731940114301837047AE
:101EF0000A460021018B4FF2FF7319404FF6FF7322
:101F000003EA02231943018370470A460021818BAB
:101F10004FF6F77319401143818370470A46002139
:101F2000818B4FF2FF7319404FF6FF7303EA0223D0
:101F30001943818370470A460021018B4FF6FB73DA
:101F400019401143018370470A460021018B4FF667
:101F5000FF3319404FF6FF7303EA0223194301834D
:101F600070470A460021818B4FF6FB7319401143DD
:101F7000818370470A460021818B4FF6FF33194059
:101F80004FF6FF7303EA02231943818370470A4621
:101F90000021018B4FF67F73194011430183704775
:101FA0000A460021018BC1F30E014FF6FF7303EACD
:101FB00002231943018370470A460021818B4FF6A3
:101FC0007F7319401143818370470A460021818B3A
:101FD000C1F30E014FF6FF7303EA02231943818315
:101FE00070470A460021018C4FF6FD7319401143DA
:101FF000018470470A460021018C4FF6F77319409F
:102000001143018470470A460021018C4FF6DF73AB
:1020100019404FF6FF7303EA021319430184704716
:102020000A460021018C4FF67F7319404FF6FF736B
:1020300003EA02131943018470470A460021018C08
:102040004FF6FF5319404FF6FF7303EA022319437B
:10205000018470470A460021018C4FF2FF7319403A
:102060004FF6FF7303EA02231943018470470A46BF
:102070000021018C4DF6FF7319404FF6FF7303EA00
:10208000023319430184704730B5002301248C408A
:10209000A3B2048C9C430484048C02FA01F5ADB213
:1020A0002C43048430BD30B5002304248C40A3B2FB
:1020B000048C9C430484048C02FA01F5ADB22C43D9
:1020C000048430BD828B4FF2FF331A408283828BAF
:1020D0004FF6FF7303EA01231A4382837047F0B57A
:1020E0000C461546002100220026078C4EF6FF7C88
:1020F00007EA0C070784818B028C4FF6FF7707EA0B
:10210000043640F6FF4739404FF6FF7707EA0527C8
:1021100039434FF6FF7707EA0337394345F6FF7730
:102120003A4046F480573A4381830284F0BD828B63
:102130004FF6F3731A408283828B0A43828370477F
:10214000F0B50C461546002100220026078C4FF6FC
:10215000FF6C07EA0C070784818B028C4FF6FF7730
:1021600007EA04264FF60C7739404FF6FF7707EA67
:1021700003172F4339434FF2FF573A4046F4807715
:102180003A4381830284F0BD028B4FF2FF331A4041
:102190000283028B4FF6FF7303EA01231A43028383
:1021A0007047F0B50C461546002100220026078C2A
:1021B0004FF6EF7C07EA0C070784018B028C4FF681
:1021C000FF7707EA041640F6FF4739404FF6FF77DE
:1021D00007EA033739434FF6FF7703E00000014079
:1021E0000004014007EA052739434FF65F773A407C
:1021F00046F010073A4301830284F0BD028B4FF68C
:10220000F3731A400283028B0A4302837047F0B5CE
:102210000C46154600210022068C4FF6FE773E4004
:102220000684018B028C4FF60C7631407E1C06EA48
:1022300003162E4331434FF6F576324044F0010643
:10224000324301830284F0BD70B505460C462088F8
:1022500050B92389A28861882846FFF7D8FFE18812
:102260002846FFF7CBFF25E0208804280AD12389E0
:10227000A28861882846FFF794FFE1882846FFF787
:1022800083FF17E0208808280AD12389A288618863
:102290002846FFF755FFE1882846FFF748FF09E089
:1022A0002389A28861882846FFF719FFE18828461C
:1022B000FFF708FF70BD002101804180012181806E
:1022C0000021C180018170472DE9F04105460C468F
:1022D00000260127608808B9022600E00026A088B1
:1022E000012801D1022700E001272088A0B9238915
:1022F000A28861882846FFF78AFFE1882846FFF711
:102300007DFF23893A4631462846FFF74AFFE18898
:102310002846FFF739FF13E02389A2886188284601
:10232000FFF73FFFE1882846FFF72EFF23893A4653
:1023300031462846FFF76BFFE1882846FFF75EFF2E
:10234000BDE8F0810146486B70470146886B7047D5
:102350000146C86B70470146086C70470A884B8875
:102360001A438B881A43CB881A430B891A434B892B
:102370001A438B891A43A0F844207047002101803A
:1023800041808180C180018141818181704731B16B
:10239000B0F8442042F40042A0F8442005E0B0F830
:1023A0004420C2F30E02A0F84420704721B1828875
:1023B00042F00402828004E082884FF6FB731A40E8
:1023C0008280704721B1828842F00102828004E05D
:1023D00082884FF6FE731A40828070471AB1838953
:1023E0000B43838102E083898B4383817047818221
:1023F000704702460020138A0B400BB1012000E019
:1024000000207047CA430282704730B50246002060
:1024100000230024158A05EA0103958905EA0104D1
:1024200013B10CB1012000E0002030BDCA4302828C
:10243000704741EA0203A0F8483070471AB1838917
:102440000B43838102E083898B438381704721B1F1
:10245000828842F00802828004E082884FF6F77397
:102460001A408280704701894FF6F872114001814D
:1024700070470A46002101894FF68F7319401143B6
:102480000181704730B504460D4629462046FFF7C6
:10249000F0FF208940F00700208130BD2DE9F04198
:1024A00004460D4616461F46602D06D13B460122C6
:1024B00031462046FFF775FE05E03B4601223146D6
:1024C0002046FFF7A4FE29462046FFF7D2FF2089C9
:1024D00040F007002081BDE8F08130B50C460021B6
:1024E0000189C9B24FF6FF7505EA03251543254357
:1024F0002943018130BD2DE9F04105460E461746BE
:102500009846002443463A4631462846FFF7E5FF01
:102510002C894FF6F870044044F007044FF68F7092
:10252000044044F070042C81BDE8F081F0B504460D
:102530000D4616461F463B46324629462046FFF7C3
:10254000CCFF208940F480402081F0BD82884FF686
:102550008F731A40828082880A4382807047028982
:102560004FF6F8731A40028102890A4302817047CC
:1025700002894FF67F731A40028102890A43028161
:102580007047F0B50C4615461E4600210022002378
:102590000189028B038C4FF6F877394021434FF6BF
:1025A000FC473A4040F201173A434FF6DD773B4093
:1025B0004FF6FF7707EA06172F433B43018102835B
:1025C0000384F0BD21B1828842F08002828004E061
:1025D00082884FF67F731A4082807047A0F85010AF
:1025E0007047000010B50446FA48844208D1012122
:1025F0001020FEF776FE00211020FEF772FE57E055
:10260000F548844209D101214804FEF759FE002112
:102610004FF40030FEF754FE4AE0F048844209D1FE
:1026200001218804FEF74CFE00214FF48020FEF7C4
:1026300047FE3DE0EA48844209D10121C804FEF783
:102640003FFE00214FF40020FEF73AFE30E0E5485F
:10265000844209D101210805FEF732FE00214FF422
:102660008010FEF72DFE23E0DF48844208D10121CF
:102670002020FEF736FE00212020FEF732FE17E074
:10268000DA48844209D101218807FEF719FE0021AA
:102690004FF08040FEF714FE0AE0D548844207D18F
:1026A00001214005FEF70CFE00216005FEF708FE43
:1026B00010BD2DE9FF4705460E460024A14600BF88
:1026C000A046B08900B100BF2C8A24F44054F088A1
:1026D00004432C82AC8941F20C608443B088318978
:1026E0000843718908430443AC81AC8A24F44074E4
:1026F000B0890443AC826846FEF773FCB548854256
:1027000002D0B948854202D1DDF80C9001E0DDF835
:102710000890A88900F4004040B109EBC90000EB23
:10272000091031684900B0FBF1F707E009EBC90077
:1027300000EB091031688900B0FBF1F76420B7FBAA
:10274000F0F004012009642101FB1078A88900F44D
:10275000004040B1322000EBC800B0FBF1F000F0C7
:102760000700044308E0322000EB08106421B0FBAE
:10277000F1F000F00F0004432C81BDE8FF874FF417
:102780001651016000218180C18001810C214181AD
:1027900000218181704710B502460020108A20F484
:1027A00070600B884C8823438C882343CC88234358
:1027B0001843108210BD0021018041808180C180BA
:1027C000704721B1828942F40052828104E08289FB
:1027D0004DF6FF731A4082817047028B02F47F42EC
:1027E0000283028B0A430283704721B1828942F43B
:1027F0000042828103E08289C2F30E028281704727
:1028000021B1828A42F40062828204E0828A4FF21D
:10281000FF731A4082827047C1F3080282807047BA
:1028200001468888C0F308007047028A4FF6F073AB
:102830001A400282028A0A430282704721B18289C9
:1028400042F00202828104E082894FF6FD731A4051
:102850008281704782894FF2FF731A408281828998
:102860000A4382817047028A4FF6DF731A40028260
:10287000028A0A430282704721B1028A42F48042EE
:10288000028204E0028A4BF6FF731A40028270470C
:10289000818941F001018181704721B1828A42F032
:1028A0000802828204E0828A4FF6F7731A4082821D
:1028B0007047028BD2B20283028B42EA012202836A
:1028C000704721B1828A42F02002828204E0828A2B
:1028D0004FF6DF731A408282704721B1828A42F03C
:1028E0001002828204E0828A4FF6EF731A408282DD
:1028F0007047828A4FF6FB731A408282828A0A43AB
:102900008282704721B1828A42F00202828204E010
:10291000828A4FF6FD731A40828270471AB1838A09
:102920000B43838202E0838A8B4383827047F0B536
:102930000346002400260025002040F66A17B9420D
:1029400000D100BF1846C1F3421401F01F06012751
:1029500007FA06F5012C01D10C3004E0022C01D15C
:10296000103000E014301AB107682F43076002E00E
:102970000768AF430760F0BD02460020B1F5007F55
:1029800000D100BF13880B400BB1012000E00020F4
:10299000704701F40072B2F5007F00D100BFCA4356
:1029A0000280704770B502460024002300250020F5
:1029B00040F66A16B14200D100BFC1F3421501F0E2
:1029C0001F03012606FA03F3012D13D19689334024
:1029D00017E00000001001400044004000480040A3
:1029E000004C0040005000400014014000780040BE
:1029F000007C0040022D02D1168A334001E0968A05
:102A000033400C12012606FA04F41688344013B140
:102A10000CB1012000E0002070BD10B500220023A1
:102A200040F66A14A14200D100BF0A12012494406A
:102A3000A3B2DC43048010BD7FB504460D460121DE
:102A40000846FEF7E8FBADF8045002940020ADF80C
:102A50000600ADF80C0001A94FF08040FFF71DF80B
:102A6000012211469007FFF7B9FC01218807FFF703
:102A70009DF81C208DF8000003208DF801008DF8D2
:102A8000020001208DF803006846FDF7FAFB7FBDC8
:102A900010B501218807FFF7B8FC012808D131489B
:102AA00002684068521C40F100002E490A604860EC
:102AB00001218807FFF7BAFC10BD2A490868496858
:102AC000704710B502460B462648016840688C1ACC
:102AD00060EB0301204610BD7FB505460C46012181
:102AE0000220FEF798FB0295ADF804400020ADF8F7
:102AF0000600ADF80C0001A91B48FEF7CEFF01222D
:102B000011461948FFF76AFC01211748FFF74EF8F4
:102B10001D208DF8000001208DF8010003208DF8A4
:102B2000020001208DF803006846FDF7AAFB7FBD77
:102B300010B501210C48FFF768FC01280CD10B48A7
:102B40000068401C0949086008464068401C48600D
:102B500008468068401C886001210348FFF766FC36
:102B600010BD00001000002000040040D003002031
:102B700070B505460C4645F25550FEF709F9284652
:102B8000FEF709F92046FEF709F9FEF70AF9FEF704
:102B90000DF970BD10B5FEF704F910BD1CB501218B
:102BA0000520FEF7EFFA01218803FEF745FBFE48FA
:102BB000006840F00070FC4908604FF4817000909C
:102BC00001208DF8040000208DF8060003208DF808
:102BD000050000208DF807006946F448FEF714F858
:102BE0000120009000208DF804008DF80700694650
:102BF000EE48FEF709F84FF4E050009002208DF8FF
:102C0000040000208DF8060003208DF80500002048
:102C10008DF807006946E648FDF7F6FF4FF40040DF
:102C2000009001208DF8040000208DF8060003209C
:102C30008DF8050000208DF807006946DB48FDF798
:102C4000E3FF06220A21DA48FEF769F806220B2183
:102C5000D748FEF764F806220C21D548FEF75FF846
:102C600006220F21D148FEF75AF84FF40041CF4811
:102C7000FEF746F81CBD00B585B00121C803FEF77C
:102C8000CAFA0020ADF800004FF48270ADF80200DF
:102C90004FF40060ADF804000220ADF806000120FA
:102CA000ADF808004002ADF80A000020ADF80C00B5
:102CB000ADF80E000720ADF810006946BD48FEF7DC
:102CC00001FC0121BB48FEF7F7FC05B000BD08B5CB
:102CD000FFF764FFFFF7CFFF4FF48071B348FEF7B3
:102CE0000FF80020009002E00098401C009000982F
:102CF000B0F57A7FF8D34FF48071AC48FEF702F854
:102D000008BD0EB501218803FEF796FA002108469A
:102D1000FEF7DDFD0120019000208DF808000C2059
:102D20008DF8090001208DF80A0001A8FDF722FBAB
:102D300006208DF8000003208DF8010001208DF899
:102D400002008DF803006846FDF79BFA0EBD10B532
:102D5000044600BF02219748FEF778FD0028F9D00D
:102D600021469448FEF729FD00BF01219148FEF756
:102D70006DFD0028F9D08F48FEF71CFD10BD10B581
:102D80000120FDF75DFBB8B14FF400418748FDF726
:102D9000B9FF002406E00020FFF7D9FF864921F89B
:102DA0001400641C082CF6DB4FF400417F48FDF74B
:102DB000A7FF0120FDF74FFB10BD30B502460B46C3
:102DC0007E4850F8220002EB82047D4D35F8244005
:102DD000001B7A4C44F82200002110E002EB820034
:102DE000774C04EB8004481C34F8100002EB82049A
:102DF000734D05EB840424F81100481CC1B2092965
:102E0000ECDB02EB82006E4C04EB800043826B48EB
:102E100050F8220002EB8204694D05EB8404648AB9
:102E20002044664C44F82200204650F822000A2430
:102E3000B0FBF4F080B230BD70B505460024012D22
:102E40000ED100BF09E05C4A32F81410E0B2FFF77F
:102E5000B4FF5C4921F81400641C082CF3DB0AE081
:102E6000002406E0544830F81400564921F81400B4
:102E7000641C082CF6DB70BD08B502214B48FDF739
:102E800041FF0020009002E00098401C0090009854
:102E90006428F9D302214548FDF732FF08BD70B51B
:102EA0002DED048B0025002400BFBFE0454830F81D
:102EB000150004B2082D75D2DFE805F004132231A5
:102EC0004B5A8C9B04EB840149004FF47A7201FB4E
:102ED00002F0C11700EB5141C1F3CF313A4AD18121
:102EE000A2E004EB840149004FF47A7201FB02F086
:102EF000C11700EB5141C1F3CF31334A918193E0C7
:102F000004EB840149004FF47A7251434800C11721
:102F100000EB5141C1F3CF312B4A118084E004EB27
:102F2000840149004FF47A7201FB02F0C11700EBF3
:102F30005141C9130EB2304603F00DFC9FED230B37
:102F400053EC102B03F082FA03F0D8FB1E494880A3
:102F50006AE004EB840149004FF47A72514348005F
:102F6000C11700EB5141C1F3CF31174A11815BE02A
:102F700004EB840149004FF47A7201FB02F0C1179F
:102F800000EB5141C9130EB2304603F0E4FB9FED54
:102F90000F0B53EC102B03F059FA03F0AFFB0A4967
:102FA000488141E03FE0000000380140000002405D
:102FB00000080240003C0040A40000206401002002
:102FC000C400002084010020B400002000000000A4
:102FD0000000E03F04EB840149004FF47A72514352
:102FE0004800C11700EB5141C1F3CF31FB4A91803A
:102FF0001AE004EB840149004FF47A7201FB02F0FD
:10300000C11700EB5141C9130EB2304603F0A3FBC8
:103010001FED120B53EC102B03F018FA03F06EFBAC
:10302000EE49C88000E000BF00BF6D1C082DFFF610
:103030003DAFBDEC048B70BD30B5002100230020F6
:1030400016E0E74A32F8102011B201EB8104640067
:103050004FF47A756C436200D41702EB5444C4F306
:10306000CF34DE4D25F8104000BF00BF421CD0B267
:103070000828E6DB30BD10B50346DA4CA47D04F029
:103080000102D64C248800EE104AB8EE400AD64C15
:1030900004EBC20484ED000A0AB11C4600E00024DF
:1030A00000EE104AB8EEC00ACF4C04EBC20484ED27
:1030B000010ACC4CA47DC4F34000C84CA48800EEA7
:1030C000104AB8EE400AC84C103404EBC00484ED3A
:1030D000000A08B11C4600E0002400EE104AB8EED9
:1030E000C00AC14C103404EBC00484ED010ABD4C8D
:1030F000A47DC4F38001B94C248900EE104AB8EED7
:10310000400AB94C203404EBC10484ED000A09B133
:103110001C4600E0002400EE104AB8EEC00AB24C93
:10312000203404EBC10484ED010A10BD2DE9F04107
:103130002DED0A8B05460E46174698462DB127B150
:10314000B8F1000F01D0022E04D20020BDEC0A8B92
:10315000BDE8F0819FEDA58ADFEDA48A9FEDA39ADB
:10316000DFEDA29A00242CE005EBC40090ED000AEC
:1031700030EE080AB0EE408A05EBC40090ED010A7B
:1031800030EE280AF0EE408A05EBC400D0ED000ACC
:1031900005EBC40090ED011AB0EE490A00EE810A79
:1031A000B0EE409A05EBC400D0ED000A05EBC40078
:1031B00090ED001AB0EE690A00EE810AF0EE409A36
:1031C000641CB442D0D300EE106AB8EE400A20EE80
:1031D000290AB0EE40AA08EE48AA1AEE100A03F037
:1031E0000BFC41EC1C0BB0EE4C0AF0EE6C0A03F049
:1031F000DDF8B0EE40BAF0EE60BA9FED7D0B53EC17
:10320000102B51EC1B0B03F0BDFA01D200209DE7FF
:1032100000EE106AB8EE400A20EE090A08EE680ACD
:10322000C0EE0A0AC7ED000A28EEA90A08EE490A0C
:10323000C0EE0A0AC8ED000A97ED000A10EE101A57
:10324000084603F0D9FB41EC1C0B9FED6B0B53ECD4
:10325000102B03F0D3FA41EC1B0B03F0B9F83860E4
:1032600098ED000A10EE101A084603F0C5FB41EC79
:103270001C0B9FED610B53EC102B03F0BFFA41ECDC
:103280001B0B03F0A5F8C8F8000001205EE7F0EE84
:10329000401AB0EE410A00EEA10A704738B5002589
:1032A00000BF80215648FDF72DFD00BF00BF102153
:1032B0005348FDF727FD00BF00BF4FF400515048B1
:1032C000FDF720FD00BF4FF4FA6000F08DFB00BF5A
:1032D0000CE0FFF7D1FD0020FFF7AEFDFFF7DFFDAB
:1032E00001F0F7F8012000F07FFB6D1C142DF0DBDE
:1032F00042F6E060FFF7BFFE00BF80214048FDF7C7
:10330000FFFC00BF00BF10213D48FDF7F9FC00BFE6
:1033100000BF4FF400513A48FDF7F2FC00BF4FF4F4
:10332000FA6000F061FB00250CE0FFF7A5FD00202E
:10333000FFF782FDFFF7B3FD01F0CBF8012000F0AD
:1033400053FB6D1C142DF0DB42F6E060FFF793FE9B
:103350002C4B2D4A02212448FFF7E8FE294B1B1D68
:10336000294A121D022120481030FFF7DFFE254BAD
:103370000833254A083202211B482030FFF7D6FEC9
:10338000002428E02048083800EB840090ED000A73
:10339000BCEEC00A10EE100A1C4941F8240019487E
:1033A000083800EB840090ED000ABDEEC00A10EE74
:1033B000100A174941F8240000BF084650F82400BD
:1033C0000090124850F82430224612A1002002F04A
:1033D00007FD00BF641C0D2CD4D338BDB400002001
:1033E000A4000020DC030020940100200000000065
:1033F0008DEDB5A0F7C6B03E0000000080842E41E0
:103400000008024034020020CC010020F801002016
:1034100060020020693D25642C6B5F7533323D25C9
:10342000642C20202020625F7533323D2564200DFE
:103430000A00000000B587B001210220FDF7A2FEBE
:1034400001218803FDF7E7FE4FF42040059002209C
:103450008DF8180000208DF81A0003208DF819004F
:1034600001208DF81B0005A9E348FDF7CDFB0522DF
:103470000D21E148FDF753FC05220F21DE48FDF741
:103480004EFC4FF44040ADF800004FF48270ADF8B0
:1034900002004FF40060ADF804000220ADF8060011
:1034A0000120ADF808004002ADF80A000820ADF890
:1034B0000C000020ADF80E000720ADF810006946A2
:1034C000CE48FDF7FFFF0121CC48FEF7F5F807B025
:1034D00000BD1CB5044601210620FDF753FEA0885F
:1034E000009001208DF8040000208DF806000320D4
:1034F0008DF8050001208DF8070069462068FDF76A
:1035000083FBA1882068FDF7FBFBA08900900120C8
:103510008DF8040000208DF8060003208DF80500CA
:1035200001208DF807006946A068FDF76DFBA189B1
:10353000A068FDF7E5FB1CBD70B504460D46A188EB
:103540002068FDF7DFFB00BF0221AC48FEF77EF9E3
:103550000028F9D02946A948FEF72FF900BF02211B
:10356000A648FEF773F90028F9D08021A348FEF79A
:103570006DF90128F3D0052000F0EEF9A18820684C
:10358000FDF7BEFB70BD38B504460020009002E098
:103590000098401C009000980A28F9D3A189A068DF
:1035A000FDF7B0FB0020009002E00098401C009066
:1035B00000986428F9D3A189A068FDF7A1FB38BD64
:1035C000B5EEC00AF1EE10FA04D2DFED8D0AB0EECE
:1035D000600A0AE0F0EE040AB4EEE00AF1EE10FA36
:1035E00003DDF0EE040AB0EE600ADFED860A60EE5D
:1035F000200AB0EE041AC0EE811AFCEEE10A10EEC9
:10360000900A80B2704710B5FFF714FF7E48FFF7AD
:1036100060FF7E48FFF75DFF7D48FFF75AFF10BD52
:1036200070B52DED048B002400BFA6E024B1012C61
:1036300034D0022C7DD163E0764830F8140000EEDF
:10364000100AB8EE400ADFED740A80EE201A11EE7F
:10365000105A284603F0D0F941EC190B9FED6F0B7F
:1036600053EC102B03F0CAF841EC180B9FED6D0BD7
:1036700053EC102B51EC180B03F0C0F841EC190B74
:1036800003F03CF86949088000BF084630F8142070
:1036900067A1002002F0A4FB00BF6CE05D4830F899
:1036A000140000EE100AB8EE400ADFED5B0A80EE6F
:1036B000201A11EE105A284603F09EF941EC190B1E
:1036C0009FED560B53EC102B03F098F841EC180BC0
:1036D0009FED540B53EC102B51EC180B03F08EF8AC
:1036E00041EC190B03F00AF85049488000BF084626
:1036F00030F814205EA1002002F072FB00BF3AE017
:10370000444830F8140000EE100AB8EE400ADFED2D
:10371000420A80EE201A11EE105A284603F06CF986
:1037200041EC190B9FED3D0B53EC102B03F066F8A9
:1037300000E019E041EC180B9FED3A0B53EC102B15
:1037400051EC180B03F05AF841EC190B02F0D6FFBC
:103750003649888000BF084630F8142054A1002064
:1037600002F03EFB00BF06E000BF61A1002002F0B6
:1037700037FB00BF00BF00BF641C032CFFF656AF31
:10378000BDEC048B70BD10B5002465480068401C7A
:1037900063490860084600680321B0FBF1F201FBB1
:1037A000120424B1012C0BD0022C1BD111E01F48B4
:1037B00001881548FFF7C0FE1348FFF7E4FE18E044
:1037C0001A4841881148FFF7B7FE1048FFF7DBFEA3
:1037D0000FE0164881880E48FFF7AEFE0C48FFF751
:1037E000D2FE06E000BF42A1002002F0F9FA00BFBD
:1037F00000BF00BF10BD00000004024000380040C0
:103800000000000000008047200000203000002061
:10381000400000207C00002000007A4400000000EE
:103820000000E03F000000008099D94050000020D7
:103830002A2A2A2A2A2A2A2A096C696D69745F4170
:1038400064353532345F446174615B4753444A31B7
:103850005F4445565F4E554D5D093D092564092A73
:103860002A2A2A2A2A2A2A2A2A2A2A2A2A0D0A001F
:103870002A2A2A2A2A2A2A2A096C696D69745F4130
:1038800064353532345F446174615B4753444A3276
:103890005F4445565F4E554D5D093D092564092A33
:1038A0002A2A2A2A2A2A2A2A2A2A2A2A2A0D0A00DF
:1038B0002A2A2A2A2A2A2A2A096C696D69745F41F0
:1038C00064353532345F446174615B445947595FF4
:1038D0004445565F4E554D5D093D092564092A2A28
:1038E0002A2A2A2A2A2A2A2A2A2A2A2A0D0A0000C9
:1038F0005741524E494E472121212121212120208B
:10390000464154414C204552524F452C504C454164
:10391000534520434845434B20434F44450D0A003F
:103920005800002010B504466FF00400FCF7F6FCC8
:10393000E11704EB5171C1F3C701394A1170104608
:10394000007800EB4001C1EBC0104FF6FF7101EAB7
:10395000C0003449088010BD0146314A12784A43FC
:103960004FF0E0235A6100229A611A46126942F030
:1039700001021A6100BF4FF0E022106900F001025D
:103980001AB100F48032002AF5D04FF0E02212691B
:1039900022F001024FF0E0231A6100229A61704781
:1039A0000146204A12884A434FF0E0235A61002220
:1039B0009A611A46126942F001021A6100BF4FF083
:1039C000E022106900F001021AB100F48032002AEE
:1039D000F5D04FF0E022126922F001024FF0E0230F
:1039E0001A6100229A61704770B504464FF407705F
:1039F00094FBF0F0C6B24FF4077094FBF0F100FBBB
:103A0000114085B205E04FF40770FFF7C9FF701E43
:103A1000C6B2002EF7D115B12846FFF7C1FF70BD21
:103A20005C0000205E00002000BF704770B50446B7
:103A30000D4652490C8000BF40215048001FFEF740
:103A40009BFF0028F8D0204670BD10B588B0044612
:103A500001210846FDF796FB01214804FDF7DBFB39
:103A6000072202214648FDF75AF90722032144485C
:103A7000FDF755F90C20069002208DF81C008DF8FA
:103A80001D0000208DF81E0001208DF81F0006A9E2
:103A90003B48FDF7B9F802940020ADF80C00ADF8F2
:103AA0000E00ADF81000ADF814000C20ADF81200B7
:103AB00002A93248001FFEF7FCFD01212F48001F1C
:103AC000FEF77FFE40212D48001FFEF762FF012216
:103AD00040F225512948001FFEF729FF26208DF8C6
:103AE000040003208DF805008DF8060001208DF8F4
:103AF000070001A8FCF7C5FB08B010BD10B540F2E7
:103B000025511E48001FFEF74DFF18B31B48001F2C
:103B1000FEF786FEC4B21B48008800F40040C8B916
:103B20001848008800F4804060B10A2C03D00020BF
:103B30001449088020E01348008840F400401149EF
:103B4000088019E00D2C06D10E48008840F4804012
:103B50000C49088010E00B480088C0F30D000A49AA
:103B60000C5408480088401C064908800846008814
:103B7000C72801DD0020088010BD0000044400407B
:103B8000000002406400002094020020704710B53D
:103B90000446FCF7A7FC03212046FCF7F7FCFCF7E2
:103BA000AEFC10BD70B504460D46FCF79BFC00BF93
:103BB0004FF48030FCF78CFF0028F9D11020FCF77F
:103BC00087FF10B11020FCF78EFF2020FCF780FF4C
:103BD00010B12020FCF787FF29462046FCF7EFFDB7
:103BE000FCF78DFC70BD2DE9F04180460C46154672
:103BF00004B10DB9BDE8F081FCF774FC464600271E
:103C00001BE000BF4FF48030FCF762FF0028F9D1C1
:103C10001020FCF75DFF10B11020FCF764FF20209E
:103C2000FCF756FF10B12020FCF75DFF54F8271079
:103C30003046FCF7C4FD361D7F1CB7EB950FE0D373
:103C4000FCF75DFC00BFD5E70146B1F1006F02D380
:103C5000B1F1016F02D34FF0FF3070470868FCE705
:103C600070B50C4604B102B970BD3F49884200D915
:103C7000FAE786184B1C9E4201D90B1A5A1C0546BE
:103C8000002304E055F8236044F823605B1CB3EB89
:103C9000920FF7D300BFE7E700BF00BF4FF4A0606B
:103CA000FCF7EAFAA820FFF73DFE40F2DC50FFF7F0
:103CB0009BFE00BF2DA1002002F092F800BF00F093
:103CC00081FB00F0C1FBFFF79EFCFFF700F800F05E
:103CD000BBF900F04CFBFFF714F84FF4E130FFF7AD
:103CE000B4FE532140F2E730FEF7A6FE00F071FF6C
:103CF00042F2CF010920FEF7EFFE00BF23A1002012
:103D000002F06EF800BF29E000F06CFF5820FFF7CA
:103D10003EFFFFF7C3FA342229492A48FFF763FF21
:103D20003422294927483430FFF75DFF34222749E0
:103D30002448FFF795FF3422254922483430FFF705
:103D40008FFF00BF23A1002002F04AF800BF00BF90
:103D500027A1002002F044F800BF00E0D4E700BF34
:103D600001E000F03FFFFCE7FFFF0F083C4459472C
:103D70004C423E2073797374656D20696E697420BE
:103D80002E2E2E2E2E2E0D0A000000003C445947E8
:103D90004C423E2053797374656D20696E697420BE
:103DA000636F6D706C657465642C20656E746572EC
:103DB000206C6F6F70202E2E2E2E2E2E0D0A0000DE
:103DC000F801002000000E08600200205C030020C3
:103DD000900300206269616F2064696E6720454E20
:103DE00044212121212121212121210D0A0000002E
:103DF000796F752063616E20627265616B206F66FA
:103E00006620706F776572212121212121212121D6
:103E10002121212121210D0A00000000704700BF4F
:103E2000FEE700BFFEE700BFFEE700BFFEE770470A
:103E300070477047704700000CB50020019000905B
:103E40007648006840F480307449086000BF7348C9
:103E5000006800F4003000900198401C0190009828
:103E600018B90198B0F5A04FF1D16C48006800F482
:103E7000003010B10120009001E000200090009877
:103E8000012846D165484030006840F080506349C1
:103E9000403108606248006840F440406049086072
:103EA0005E48083000685D490831086008460068CF
:103EB00040F4004008600846006840F4A0500860E4
:103EC0005848091F0860081F006840F08070091FEB
:103ED000086000BF5148006800F000700028F9D069
:103EE00040F20570504908604C480830006820F0E6
:103EF00003004A49083108600846006840F00200A3
:103F0000086000BF45480830006800F00C00082831
:103F1000F8D10CBD10B54548006840F47000434925
:103F200008603E48006840F001003C4908600020FD
:103F30003A4908310860394800683D490840374926
:103F400008603C48091D0860081F006820F48020B4
:103F5000091F0860002031490C310860FFF76CFF31
:103F60004FF0006031498039086010BD70B5002005
:103F70000022022300240221284D08352D6805F077
:103F80000C0020B1042806D0082834D107E02A4DBF
:103F90002A4E356033E02A4D284E35602FE01F4D04
:103FA0002D1D2D68C5F380541C4D2D1D2D6805F069
:103FB0003F0154B1224DB5FBF1F5184E361D366860
:103FC000C6F3881605FB06F209E01B4DB5FBF1F5BB
:103FD000124E361D3668C6F3881605FB06F20F4DE5
:103FE0002D1D2D68C5F301456D1C6B00B2FBF3F56B
:103FF000124E356003E0104D104E356000BF00BF1B
:10400000064D08352D68C5F303150E4E705D0B4D3A
:104010002D68C540094E356070BD00000038024073
:104020000070004008544007003C024088ED00E06A
:10403000FFFFF6FE103000240024F400680000208A
:1040400000127A006C0000201CB501210D20FDF744
:1040500099F844F22010009000208DF804008DF8AB
:1040600007006946CB48FCF7CFFD42F29000009074
:1040700001208DF8040000208DF8060003208DF843
:10408000050000208DF807006946C248FCF7BCFD1A
:1040900048F2402000906946BE48FCF7B5FD40213B
:1040A000BC48FCF72DFE4FF40071BA48FCF728FE1F
:1040B0004FF40041B748FCF723FE4FF4C050009086
:1040C00001208DF8040000208DF8060003208DF8F3
:1040D000050000208DF807006946AF48FCF794FD05
:1040E0004FF48051AC48FCF70BFE042000900120F7
:1040F0008DF8040000208DF8060003208DF80500DF
:1041000000208DF807006946A448FCF77DFD1021CA
:10411000A048FCF7F7FD80219E48FCF7F3FD4FF423
:1041200000519C48FCF7EEFD1CBD10B50446012C67
:1041300004D1C1029848FCF7E3FD04E04FF40061AC
:104140009548FCF7DFFD10BD08B5002000909448AD
:10415000807D00F001008DF800009148807DC0F363
:1041600040008DF801008E48807DC0F380008DF8FE
:1041700002009DF8000098B94FF400718548FCF7E3
:10418000C1FD002000E0401C3228FCDB4FF4007130
:104190008048FCF7B5FD002082490860824908602C
:1041A0009DF8010088B940217A48FCF7ABFD00205A
:1041B00000E0401C3228FCDB40217648FCF7A0FDE3
:1041C000002078494860784948609DF8020098B915
:1041D0004FF400416F48FCF795FD002000E0401CC3
:1041E0003228FCDB4FF400416A48FCF789FD0020CF
:1041F0006C4988606C4988609DF8000001280AD1EC
:104200006848006838B94FF400716248FCF77AFDDD
:104210000120644908609DF80100012809D1614826
:10422000406830B940215B48FCF76CFD01205D49D6
:1042300048609DF8020001280ED15A48806858B99C
:104240004FF400415348FCF75DFD0120554988605B
:10425000FEF733FC5549086000BF5148807D00F0EF
:10426000010020B180214B48FCF74AFD03E080218A
:104270004848FCF747FD00BF4948807DC0F3400037
:1042800028B10020FFF751FF00204949086000BF16
:104290004348807DC0F3400020B110213D48FCF729
:1042A0002FFD03E010213B48FCF72CFD00BF3C48EC
:1042B000807DC0F3400040B93D48006828B9012026
:1042C000FFF733FF01203A49086000BF3448807D82
:1042D000C0F3800028B14FF400512E48FCF710FDC8
:1042E00004E04FF400512B48FCF70CFD00BF08BD63
:1042F00010B504462C480068A04204D94FF4007160
:104300002448FCF7FDFC28484068A04203D940211E
:104310002048FCF7F5FC24488068A0420FD94FF4F0
:1043200000411C48FCF7ECFC20480068FEF7C9FB84
:104330002049086001202049086000BF00BF10BD6F
:1043400070B50024002500BF0AE004EB44051448C2
:10435000001DA91C30F81100184921F81400641C34
:10436000032CF2DBFFF75CF9FFF70DFA70BD10B517
:1043700000241348007801280BD100BF00E0641C22
:10438000032CFCDBFFF74CF9FFF7FDF900200C498B
:10439000087010BD0008024000000240000C0240FE
:1043A000F8030020C4030020D00300208400002074
:1043B00090000020880000208C0000207C0000205D
:1043C000820000201CB501210846FCF7DBFEE0203E
:1043D000009002208DF8040000208DF806000320D4
:1043E0008DF8050000208DF807006946FD48FCF7B0
:1043F0000BFC1020009001208DF8040000208DF8A7
:10440000060003208DF8050000208DF8070069469E
:10441000F448FCF7F9FB05220421F248FCF77FFC85
:1044200005221146EF48FCF77AFC05220621ED48EB
:10443000FCF775FC05220721EA48FCF770FC102107
:10444000E848FCF75DFC1CBD00B585B00121080300
:10445000FCF7F2FE0020ADF800004FF48270ADF8DA
:1044600002004FF40060ADF804000220ADF8060031
:104470000120ADF808004002ADF80A001820ADF8A0
:104480000C000020ADF80E000720ADF810006946C2
:10449000D548FDF717F80121D348FDF70DF905B010
:1044A00000BD10B5044600BF0221CF48FDF7CEF98C
:1044B0000028F9D02146CC48FDF77FF900BF012143
:1044C000C948FDF7C3F90028F9D0C748FDF772F9CC
:1044D00010BD70B500260025002445F2AA50C3493E
:1044E00008801420488000BF32E004EB4405A01C83
:1044F00081B2BE48001D20F8151000BF30F815200D
:104500002946BBA001F082FC00BF6000C74931F81A
:104510001020B648001D691C20F8112000BF30F89B
:104520001120B3A001F072FC00BF012000EB440099
:10453000BE4931F81020AD48001DA91C20F81120FB
:1045400000BF30F81120AAA001F060FC00BF641C7D
:10455000032CCADB00BF8021B548FCF7C4FBA3498C
:10456000C98A60F30001A148C1821021B048FCF75C
:10457000BAFB9E49C98A60F341019C48C1824FF44D
:104580000051AB48FCF7AFFB9849C98A60F3820140
:104590009648C1824FF48071A548FCF797FB08B993
:1045A000012000E000209149C98A60F308218F486A
:1045B000C18220219E48FCF789FB08B9012000E058
:1045C00000208A49C98A60F349218848C1824FF492
:1045D00080419748FCF77AFB08B9012000E00020F1
:1045E0008249C98A60F38A218048C18200BF00BF26
:1045F000C18A90A001F00AFC00BF7C4800887B497A
:104600004988084486B2002406E07848001D30F846
:104610001400304486B2641C092CF6DB7348C08A4F
:10462000304486B27148068300BF018B8AA001F036
:10463000EDFB00BF4AF6BC406C49488370BD70B5C5
:1046400000246A4D10216748FCF75CFB00BF04E0C2
:1046500035F81400FFF725FF641C64484088801C6F
:10466000A042F5DC10215F48FCF74AFB70BD2DE944
:10467000F04700250024A046A1460026A2460027B8
:104680009AE1002610215748FCF73CFB45F2AA505E
:10469000FFF707FF07460220FFF703FF4AF6DE3069
:1046A000FFF7FFFE4FF4C570FFF7FBFE4AF6BC4074
:1046B000FFF7F7FE10214B48FCF722FB0120FFF724
:1046C0004BF910214748FCF71DFB47F2AA70FFF792
:1046D000E8FE074600BF3B462A466BA1002001F0DA
:1046E0007FFB00BF00BF3A46294667A001F08EFB62
:1046F00000BF6A4807800020FFF7D3FE6749488063
:1047000000BF0846428866A1002001F069FB00BF97
:1047100000BF6248418862A001F078FB00BF00251D
:1047200055E005EB45040020FFF7BBFE5B49091D82
:1047300021F8140000BF084630F81430224660A16A
:10474000002001F04DFB00BF00BF5448001D30F8B1
:10475000142021465AA001F059FB00BF0020FFF7AA
:10476000A0FE4E49091D621C21F8120000BF084638
:10477000611C30F8113052A1002001F031FB00BF64
:1047800000BF4648001D611C30F811204CA001F00C
:104790003DFB00BF0020FFF784FE01463F48001D9F
:1047A000A21C20F8121000BFA11C30F8113044A147
:1047B000002001F015FB00BF00BF3848001DA11C00
:1047C00030F811203EA001F021FB00BF6D1C032D2D
:1047D000A7DB0020FFF765FE3049C88200BF08460E
:1047E000C28A7FE00000024000300140DC0300206C
:1047F0002A2A2A2A2A2A2A2A2A73656E646D657350
:10480000736167652E6D657373616765446174617B
:104810005B25785D3D3D25642A2A2A2A2A2A2A2AF0
:104820002A2A2A2A2A2A2A0D0A000000B400002077
:104830000008024073656E646D6573736167652E71
:10484000737475416E647761726E696E672E726102
:10485000773D3D25780D0A002A2A2A2A2A2A2A2A63
:104860002A73656E646D6573736167652E73756D0C
:104870003D3D25782A2A2A2A2A2A2A2A2A2A2A2A29
:104880002A2A2A0D0A0000007370695F6865616456
:104890005B25645D3D25780D0A000000F8030020CB
:1048A0007265636976656D6573736167652E6461B2
:1048B00074615F6C656E3D3D25780D0A0000000057
:1048C0007265636976656D6573736167652E6D6585
:1048D0007373616765446174615B25645D3D3D256B
:1048E000780D0A0038A1002001F07AFA00BF00BF5D
:1048F0003F48C18A34A001F089FA00BF0020FFF7C9
:10490000D0FD3B49088300BF0846028B39A1002037
:1049100001F066FA00BF00BF3548018B35A001F0F9
:1049200075FA00BF0020FFF7BCFD3149488300BF86
:104930000846428B35A1002001F052FA00BF00BFAB
:104940002B48418B31A001F061FA00BF2848008854
:1049500027494988084486B2002506E02448001DFE
:1049600030F81500304486B26D1C092DF6DB204866
:10497000C08A304486B21E48008BB0420ED16EB160
:104980004FF6FF70864209D04FF0010800BF18486B
:10499000028B314624A001F039FA01E009F1010946
:1049A000B9F1030F04D110212848FCF7A9F907E059
:1049B00010212648FCF7A4F9B8F1000F3FF461AECE
:1049C00000BF4046BDE8F0877265636976656D6536
:1049D00073736167652E737475416E647761726E6F
:1049E000696E672E7261773D3D25780D0A000000E3
:1049F000F80300207265636976656D65737361679E
:104A0000652E73756D3D3D25780D0A0072656369ED
:104A100076656D6573736167652E64617461456E5B
:104A2000643D3D25780D0A0073756D3D307825781D
:104A30002C7265636976656D6573736167652E7346
:104A4000756D3D3D25782C0D0A00000000000240E8
:104A500001463A480160002070472DE9F0470446BE
:104A600016461F46DDE9088914B1B8F1000F03D1DD
:104A70004FF0FF30BDE8F087314D06E02868A042D6
:104A800002D12068286003E02D6828680028F5D14D
:104A900000BF2A480068804780197941C4E90201B3
:104AA000C4F81080C4F81490254D00BF286818B9C8
:104AB000002020602C600DE0D4E902302A68D2E9A1
:104AC0000212591A904103D2286820602C6001E03C
:104AD0002D68EBE700BF0020CCE70246184906E04E
:104AE0000868904202D113680B6003E00968086807
:104AF0000028F5D100BF0020704710B510480468A9
:104B000017E00E4800688047D4E90232C01A91418C
:104B100005D20A4800688047A168081A10BD0849F4
:104B200020680860206918B12046D4E90421904724
:104B30002468002CE5D10020F0E700009800002058
:104B40009400002010B5FDF7B8FF10BD2DE9FC471B
:104B5000064614461D46DDE90A784FF00009224654
:104B60002B463046CDE90078FFF777FF814648466F
:104B7000BDE8FC8770B5044600252046FFF7ADFF71
:104B80000546284670BD1CB5184819494FF4FA72FD
:104B90000023CDE90010FFF7D9FF1CBD70B5044616
:104BA0000D4614480068401C124908600846007809
:104BB00000F0010020B904210F48FCF7A1F803E040
:104BC00004210D48FCF79EF8FDF7E4FFFFF7DBFF3B
:104BD00070BD10B5AFF29300FFF73AFFFFF7D3FFB8
:104BE000002010BD10B5FFF788FF10BD180400208D
:104BF0009D4B00089C000020000C024070B5FE4C4C
:104C0000A821204601F0BCFA032020616061FBA0CE
:104C1000A061FD49E1614FF4806121620021A16240
:104C20006162E162F5A02066F84961661021A16623
:104C300000212167E1666167002505E0C5F10F00ED
:104C4000F349085C60556D1C102DF7D370BD2DE93C
:104C5000F05F0446894617464FF0000AE56800BF3A
:104C6000D4F81080A84503D9A8EB0500461E04E03F
:104C7000A5EB0800401CA1680E1AA068401BB042BA
:104C800001D9304601E0A068401B0646BE4201D271
:104C9000304600E038460646606800EB050B3246B9
:104CA0004946584601F027FAB244B144BF1B354487
:104CB000A068A84200D10025E560002FD0D1504661
:104CC000BDE8F09F2DE9F047044689461546E668A1
:104CD000A068871BAF420AD9606800EB060A2A4623
:104CE0004946504601F007FA7019E06014E0B846F2
:104CF000606800EB060A42464946504601F0FBF95F
:104D0000A5EB0708D4F804A009EB0701424650467A
:104D100001F0F1F9C4F80C80BDE8F08738B505461C
:104D20000C46FF208DF80000BA48005D8DF80100A8
:104D3000022269462846FFF78AFF38BD10B50146B2
:104D40000A69CB689A4204D88C68641EE41AA018D9
:104D500001E0D41A601E10BD2DE9F74F82B08346E2
:104D6000174600BFA448009000980078532801D04F
:104D7000FFF744FF00BF0BEB4B019F48183000EBDF
:104D8000C106DDF80C903569D6F80CA04FF000088C
:104D9000554517D9B068441BBC4201D2204600E0FB
:104DA00038460446706828440190224648460199D6
:104DB00001F0A1F9A044A1443F1B2544B068A842DA
:104DC00000D10025AAEB0504BC4201D2204600E038
:104DD000384604465CB17068284401902246484633
:104DE000019901F088F9A044A1443F1B2544B8F182
:104DF000000F00D03561404605B0BDE8F08F2DE9C9
:104E0000F74F82B08346174600BF7B48009000985A
:104E10000078532801D0FFF7F1FE00BF0BEB4B01E8
:104E20007548603000EBC106DDF80C903569D6F8A6
:104E30000CA04FF00008554517D9B068441BBC4280
:104E400001D2204600E038460446706828440190AC
:104E500022464846019901F04EF9A044A1443F1B67
:104E60002544B068A84200D10025AAEB0504BC4245
:104E700001D2204600E0384604465CB17068284400
:104E8000019022464846019901F035F9A044A14419
:104E90003F1B2544B8F1000F00D03561404605B0F6
:104EA000BDE8F08F2DE9F04104460D461646EFF3BC
:104EB00011808046202080F3118800BF00BF324659
:104EC00029462046FFF748FF074608F0FF0080F319
:104ED000118800BF00BF3846BDE8F0812DE9F041E0
:104EE00004460D461646EFF311808046202080F3DD
:104EF000118800BF00BF324629462046FFF77FFFDA
:104F0000074608F0FF0080F3118800BF00BF384655
:104F1000BDE8F0812DE9F047074688461646C146B0
:104F200007EB47013448183000EBC104D4E9030112
:104F3000884202D1A068451E0EE0D4E903018842F0
:104F400004D22069E168401A451E05E02069E16845
:104F5000401A401EA1684518AE420CD92069711B49
:104F60000844206103E02069A168401A206120699B
:104F7000A1688842F7D2D4E90201451A00BFB542C0
:104F80000CD9E168606800EB010A32464946504698
:104F900001F0B1F8E0683044E06010E0E16860687A
:104FA00000EB010A2A464946504601F0A4F8A944FC
:104FB0000020E060761BA068451E002EDFD100BFF8
:104FC000BDE8F0872DE9F74F82B082461446DDF840
:104FD0000CB00AEB4A010848183000EBC105D5F8BF
:104FE0001090EE68686830440190B14539D8A868DF
:104FF000801B471EA7420FE0300400205465726DED
:10500000696E616C00000000D8040020D808002000
:10501000FE6A0008EE6A00080AD322465946019843
:1050200001F069F83019E860012005B0BDE8F08FA3
:105030004F44A74223D3A868A0EB0608424659462E
:10504000019801F058F8A4EB08043CB1686801909D
:105050000BEB08012246019801F04DF8EC600120AD
:10506000E3E7A9EB0600471EA74208D322465946AC
:10507000019801F040F83019E8600120D5E70020E0
:10508000D3E72DE9F047074688461646C24607EBA8
:105090004701FE4800EBC109D9F8140020B10128EE
:1050A00011D0022826D11EE04846FFF747FE0546EC
:1050B000B54201D2002405E0344632465146484606
:1050C000FFF700FE18E04846FFF738FE0546B542F8
:1050D00001D2284600E03046044622465146484662
:1050E000FFF7F0FD08E0324651464846FFF7AFFDB6
:1050F000044601E0002400BF00BF2046BDE8F08761
:105100002DE9F047074688461646C24607EB470199
:10511000DE48483800EBC109D9F8140020B1012855
:1051200011D0022826D11EE04846FFF707FE0546AB
:10513000B54201D2002405E0344632465146484685
:10514000FFF7C0FD18E04846FFF7F8FD0546B542F9
:1051500001D2284600E030460446224651464846E1
:10516000FFF7B0FD08E0324651464846FFF76FFDB5
:10517000044601E0002400BF00BF2046BDE8F087E0
:105180002DE9F04104460D46164600BFBF4F603F73
:105190003878532801D0FFF731FD00BFEFF31180BD
:1051A0000746202080F3118800BF00BF3246294601
:1051B0002046FFF766FF8046F8B280F3118800BFF3
:1051C00000BF4046BDE8F0812DE9F04104460D46A0
:1051D000164600BFAD4F603F3878532801D0FFF727
:1051E0000DFD00BFEFF311800746202080F31188EA
:1051F00000BF00BF324629462046FFF781FF8046A8
:10520000F8B280F3118800BF00BF4046BDE8F081CE
:1052100070B505460C46204600F04EFF0646324665
:1052200021462846FFF7D0FF70BDF0B503460C4677
:1052300003EB4307954E483E06EBC701CE68721C50
:105240008E68964200D100220E69964206D0CF6841
:105250004E68F5192C70CA60012000E00020F0BDF6
:105260002DE9F0470746884600BFDFF820A2AAF1E3
:10527000600A9AF80000532801D0FFF7BFFC00BF76
:10528000EFF311810846202181F3118800BF00BF90
:1052900007EB47027D49483901EBC204E1684D1C28
:1052A000A168A94200D100252169A94208D0E2687D
:1052B000616801EB020989F80080E560012600E0E1
:1052C0000026C1B281F3118800BF00BF3046BDE89F
:1052D000F0872DE9F0470746884600BFDFF8ACA10C
:1052E000AAF1600A9AF80000532801D0FFF786FC63
:1052F00000BFEFF311810846202181F3118800BF20
:1053000000BF07EB47026149483901EBC204E1687D
:105310004D1CA168A94200D100256169022903D171
:1053200000BF2169A942FCD02169A94208D0E268E6
:10533000616801EB020989F80080E560012600E060
:105340000026C1B281F3118800BF00BF3046BDE81E
:10535000F08738B5012269460020FFF7BFFD0446FB
:10536000012C02D19DF8004001E04FF0FF342046AF
:1053700038BD10B500BFFFF7ECFF0028FBDB10BD08
:105380002DE9F04100BF414F603F3878532801D0EC
:10539000FFF734FC00BF3D4C2669E068B04201D005
:1053A000012500E000252846BDE8F08110B5014642
:1053B00001EB4104354800EBC402D3681069181AA8
:1053C00010BD10B5014601EB41043048483800EBF0
:1053D000C4021369D068C01A10BD2DE9F047064613
:1053E0000F469046994600BFDFF8A0A0AAF1600AD8
:1053F0009AF80000532801D0FFF700FC00BFEFF33C
:1054000011810846202181F3118800BF00BF1F4D84
:10541000603D002400BF04EB440205F1600101EB94
:10542000C201496801B903E0641C6969A142F2DC68
:1054300000BF6969A1422EDD04EB440205F1600161
:1054400041F8326004EB440201EBC2014F6004EB0F
:10545000440205F1600101EBC201C1F8088000229D
:1054600004EB440305F1600101EBC3010A6104EBA5
:10547000440305F1600101EBC301CA6004EB44027F
:1054800005F1600101EBC20102E000009004002080
:10549000C1F8149001E04FF0FF34C1B281F31188DC
:1054A00000BF00BF2046BDE8F0872DE9F047064663
:1054B0000F469046994600BFDFF800A49AF8000016
:1054C000532801D0FFF79AFB00BFEFF31181084684
:1054D000202181F3118800BF00BFF84D002400BFD8
:1054E00004EB440205F1180101EBC201496801B95E
:1054F00003E0641C2969A142F2DC00BF2969A142D2
:105500002ADD04EB440205F1180141F8326004EB96
:10551000440201EBC2014F6004EB440205F11801A3
:1055200001EBC201C1F80880002204EB440305F13D
:10553000180101EBC3010A6104EB440305F11801F2
:1055400001EBC301CA6004EB440205F1180101EB51
:10555000C201C1F8149001E04FF0FF34C1B281F3F1
:10556000118800BF00BF2046BDE8F0872DE9F05F3D
:1055700005460F469046994600BFDFF840B39BF8BA
:105580000000532801D0FFF739FB00BFDFF82CA340
:10559000032D1FD2EFF311810846202181F31188DA
:1055A00000BF00BF05EB45020AF1180101EBC20480
:1055B0003DB12760C4F80480C4F80890002121613F
:1055C000E1600A996161C1B281F3118800BF00BF37
:1055D000002601E04FF0FF363046BDE8F09F2DE990
:1055E000F05F05460F469046994600BFDFF8CCB203
:1055F0009BF80000532801D0FFF700FB00BFDFF845
:10560000BCA2032D1FD2EFF311810846202181F3A4
:10561000118800BF00BF05EB45020AF1600101EBF4
:10562000C2043DB12760C4F80480C4F8089000218A
:105630002161E1600A996161C1B281F3118800BF03
:1056400000BF002601E04FF0FF363046BDE8F09F76
:105650002DE9F04704460E4600BFDFF8609299F846
:105660000000532801D0FFF7C9FA00BF934F032C65
:1056700016D2EFF311810846202181F3118800BF73
:1056800000BF04EB440207F1180101EBC208C8F89F
:105690000060C1B281F3118800BF00BF002501E0A6
:1056A0004FF0FF352846BDE8F0872DE9F047044666
:1056B0000E4600BFDFF8049299F80000532801D08D
:1056C000FFF79CFA00BF7D4F032C16D2EFF3118138
:1056D0000846202181F3118800BF00BF04EB44027B
:1056E00007F1600101EBC208C8F80060C1B281F3A4
:1056F000118800BF00BF002501E04FF0FF352846AC
:10570000BDE8F0872DE9F04704460E4600BFDFF8FC
:10571000AC9199F80000532801D0FFF76FFA00BF51
:10572000664F032C16D2EFF311810846202181F336
:10573000118800BF00BF04EB440207F1180101EB20
:10574000C208C8F81460C1B281F3118800BF00BF5D
:10575000002501E04FF0FF352846BDE8F0872DE930
:10576000F04704460E4600BFDFF8509199F800005C
:10577000532801D0FFF742FA00BF504F032C16D236
:10578000EFF311810846202181F3118800BF00BF8B
:1057900004EB440207F1600101EBC208C8F8146091
:1057A000C1B281F3118800BF00BF002501E04FF0B6
:1057B000FF352846BDE8F08710B5FFF71FFA10BD8A
:1057C0002DE9F843044600BFDFF8F08098F80000A8
:1057D000532801D0FFF712FA00BF0027FF208DF8F1
:1057E0000000102C31D23648005D8DF80100334D99
:1057F0001835EFF311808046202080F3118800BF18
:1058000000BF287D00F00300022807D12D48047056
:10581000022269462846FFF71AFA0FE02846FFF7EA
:105820008DFA0646022E07D32648047002226946E6
:105830002846FFF747FA01E04FF0FF3708F0FF0076
:1058400080F3118800BF00BF01E04FF0FF373846FA
:10585000BDE8F8832DE9F0470746894600BFDFF829
:105860005CA09AF80000532801D0FFF7C7F900BFE9
:10587000102F70DADFF8448008F11808484600F06D
:105880001BFC0646EFF311808246202080F311882E
:1058900000BF00BF4046FFF751FA054698F81400D4
:1058A00000F0030020B101281ED0022847D136E0C5
:1058B000301D854208D2002415E00000300400208D
:1058C000EE6A0008A000002039464046FFF726FA9D
:1058D000324649464046FFF7BAF904463648017851
:1058E0004046FFF71BFA2DE0042D02D24FF0FF34A3
:1058F00014E039464046FFF711FA281FB04201D99B
:10590000304600E0281F024649464046FFF79FF90F
:105910000446294801784046FFF700FA12E039466C
:105920004046FFF7FBF9324649464046FFF78FF9FC
:105930000446214801784046FFF7F0F902E04FF0B5
:10594000FF3400BF00BF0AF0FF0080F3118800BFE2
:1059500000BF02E0FFE74FF0FF342046BDE8F087CC
:1059600070B5044604EB4401144800EBC105284619
:10597000FFF7E4F970BD70B50146104C183C01EB1F
:10598000410604F1180505EBC6052A6901EB41063D
:1059900004F1180505EBC605EB689A4201D8981A80
:1059A00008E001EB410604F1180505EBC605AD68FA
:1059B0009E1AA81B70BD0000A00000204804002013
:1059C00070B504460E46A568681C6168814206D31E
:1059D00020684655681CA060E068401CE060D4E97F
:1059E000011088420DD1A26821682069FFF7ECFB05
:1059F000A168884203D04FF0FF30E06001E0002052
:105A0000A06070BD2DE9FC5F8046894615461E46A4
:105A10000C9CCDF804900127BB4605E00198B0FB33
:105A2000F5F001900BF1010B0198A842F6D25E450A
:105A300000D9B3460D9800F00100D0B9CCB10D9853
:105A400000F00200022803D116B93020009001E0D6
:105A50002020009009E0641E40460099FFF7B0FF47
:105A6000D8F80C00002800DA02E00CB1A345F2D30C
:105A700000BFD8F80C00002835DB09E0012E01D961
:105A8000761E04E0B9FBF7FAAA4500D201E06F43A5
:105A9000F4E700BF00BFB9FBF7FA0AFB1799D94832
:105AA00010F80A104046FFF78BFFD8F80C000028CA
:105AB00000DA03E0B7FBF5F7002FECD100BF0D983B
:105AC00000F0010078B174B109E0641E2021404665
:105AD000FFF776FFD8F80C00002800DA02E00CB1DE
