:020000040800F2
:100000007838002079020008494400084B44000871
:100010004F44000853440008574400080000000003
:100020000000000000000000000000005B44000829
:100030005D440008000000005F44000861440008BF
:10004000930200089302000893020008930200083C
:1000500093020008930200088B2B0008930200080B
:10006000930200089302000893020008930200081C
:10007000930200089302000893020008930200080C
:1000800093020008930200089302000893020008FC
:1000900093020008930200089302000893020008EC
:1000A00093020008930200089302000893020008DC
:1000B00095280008352900089302000893020008DB
:1000C00093020008930200089302000893020008BC
:1000D000930200089302000881410008930200087F
:1000E000930200089302000893020008930200089C
:1000F000930200089302000893020008930200088C
:10010000930200089302000893020008930200087B
:10011000930200089302000893020008930200086B
:10012000930200089302000893020008930200085B
:10013000930200089302000893020008930200084B
:10014000930200089302000893020008930200083B
:10015000930200089302000893020008930200082B
:10016000930200089302000893020008930200081B
:10017000930200089302000893020008930200080B
:10018000930200089302000800F002F800F064F8FF
:100190000AA090E8000C82448344AAF10107DA45E2
:1001A00001D100F059F8AFF2090EBAE80F0013F0D0
:1001B000010F18BFFB1A43F0010318472473000016
:1001C000447300000A444FF0000C10F8013B13F098
:1001D000070408BF10F8014B1D1108BF10F8015BA0
:1001E000641E05D010F8016B641E01F8016BF9D193
:1001F00013F0080F1EBF10F8014BAD1C0C1B09D1EA
:100200006D1E58BF01F801CBFAD505E014F8016B5B
:1002100001F8016B6D1EF9D59142D6D370470000ED
:100220000023002400250026103A28BF78C1FBD8FF
:10023000520728BF30C148BF0B607047642906F0E1
:100240004783782906F0AB83002070471FB507F07D
:1002500007F91FBD10B510BD06F0CCFD1146FFF724
:10026000F5FF03F0F1FF06F0EAFD03B4FFF7F2FF3C
:1002700003BC03F01BFF0000094880470948004702
:10028000FEE7FEE7FEE7FEE7FEE7FEE7FEE7FEE746
:10029000FEE7FEE704480549054A064B70470000A3
:1002A00041450008890100087819002078380020AD
:1002B000782800207828002032490143324A116012
:1002C000704770B5002100230F22C4781CB32E4C58
:1002D000246804F4E064C4F5E064C4F30721C1F1C8
:1002E0000404E3B20A4144789C40E1B284781440AB
:1002F00021430C07210E254C05786155047804F044
:100300001F050124AC4005786D11AD0005F1E02515
:10031000C5F8004109E0047804F01F050124AC4051
:100320001B4D0678761145F8264070BD194A0A40E3
:100330000243154B1B1F1A60704739B1124A121D38
:1003400012680243104B1B1D1A6006E00E4A121D74
:10035000126882430C4B1B1D1A607047042808D199
:100360004FF0E021096941F004014FF0E0221161F2
:1003700007E04FF0E021096921F004014FF0E0228D
:10038000116170470000FA050CED00E000E400E0A8
:1003900080E100E080FFFF1F002041490860091D47
:1003A0000860091D0860091D08603E483C49143179
:1003B0000860704700213A498279002A3AD00A46FB
:1003C000126803689A430B461A600A1D1268036894
:1003D0009A430B1D1A60027911440A6803681A4394
:1003E0000A602F4A0832126803689A432C4B08337C
:1003F0001A601A1D126803689A43294B0C331A605D
:100400004279102A0ED11A1F126803681A43244B2E
:1004100008331A601A1D126803681A43204B0C3304
:100420001A600DE01E49427911440A6803681A43B4
:100430000A6005E0027911440A6803689A430A6079
:1004400070470021016001710C214171002181710F
:1004500070471349103109680143114A1032116085
:100460007047014600200E4A143212680A400AB151
:10047000012000E0002070470949143108607047EE
:1004800001460020064A143212680A400AB10120CF
:1004900000E00020704702491431086070470000F6
:1004A000003C0140FFFF7F0010B50446984884429D
:1004B00008D10121084600F0D2FD0021012000F002
:1004C000CEFD76E09348844208D10121022000F05D
:1004D000C6FD0021022000F0C2FD6AE08E48844281
:1004E00008D10121042000F0BAFD0021042000F011
:1004F000B6FD5EE08948844208D10121082000F061
:10050000AEFD0021082000F0AAFD52E0844884429C
:1005100008D10121102000F0A2FD0021102000F0E0
:100520009EFD46E07F48844208D10121202000F052
:1005300096FD0021202000F092FD3AE07A488442A6
:1005400008D10121402000F08AFD0021402000F068
:1005500086FD2EE07548844208D10121802000F0FC
:100560007EFD0021802000F07AFD22E07048844268
:1005700008D10121801500F072FD0021A01500F0C6
:100580006EFD16E06B48844208D10121401500F051
:1005900066FD0021601500F062FD0AE066488442B5
:1005A00007D10121001500F05AFD0021201500F0AF
:1005B00056FD10BDF0B50A4600210023002400BFFF
:1005C0003DE0012505FA01F3156805EA03049C42A4
:1005D00034D105684F000326BE40B5430560157948
:1005E0004E00B5400668354305601579012D02D0EF
:1005F0001579022D16D185684F000326BE40B543FC
:10060000856055794E00B5408668354385604568FC
:1006100001268E40B5434560456896798E40B6B256
:1006200035434560C5684F000326BE40B543C560ED
:10063000D5794E00B540C6683543C560491C1029C0
:10064000BFD3F0BD4FF6FF71016000210171417110
:100650008171C171704708B54FF480320092009AE1
:100660000A430092009AC261C161009AC261C269E4
:100670000092C269009208BD0246002013690B4037
:100680000BB1012000E0002070470146086980B2EC
:1006900070470246002053690B400BB1012000E077
:1006A000002070470146486980B270470183704757
:1006B000418370470AB1018300E041837047416183
:1006C000704742694A4042617047F0B500230024F8
:1006D0004D07ED0E02FA05F3CE1000F1200555F896
:1006E00026504E07F70E0F26BE40B543CF1000F13F
:1006F000200646F82750CE1000F1200555F8265068
:1007000045EA0304CE1000F1200545F82640F0BD6F
:10071000000002400004024000080240000C0240B9
:10072000001002400014024000180240001C024069
:1007300000200240002402400028024010B5044678
:10074000F848844209D10121480500F0BBFC002192
:100750004FF4001000F0B6FC18E0F348844209D1D1
:100760000121880500F0AEFC00214FF4800000F06C
:10077000A9FC0BE0ED48844208D10121C80500F036
:10078000A1FC00214FF4000000F09CFC10BD2DE9FD
:10079000FF4704460D460026B1460427DFF8908344
:1007A000A6884FF6C0700640684600F01CFBDDF8D6
:1007B0000880E048B8FBF0F01FFA80F946EA090625
:1007C000A68020884FF6FE71084020800026DA4976
:1007D000286888420CD828684000B8FBF0F087B23F
:1007E000042F00DA04273E4309F10100208427E0AA
:1007F000E8884BF6FF71884206D1286800EB40007C
:10080000B8FBF0F087B209E0286800EBC00101EB0B
:100810000010B8FBF0F087B247F48047C7F30B0035
:1008200008B947F0010747F4004006434FF49670BB
:1008300009FB00F04FF47A7190FBF1F0401C20842A
:10084000A683208840F00100208026884FF6F530EE
:100850000640A8886989084306432680A889298913
:1008600008432081BDE8FF8741F288310160002103
:1008700081804BF6FF71C1800021018141814FF4DD
:1008800080418181704721B1028842F001020280DB
:1008900004E002884FF6FE731A400280704729B1C7
:1008A000828C4FF6EF731A40828403E0828C42F010
:1008B0001002828470470A460021818C4FF6F07343
:1008C000194002F00F0319438184704721B1028857
:1008D00042F48072028004E002884FF6FF631A40FF
:1008E0000280704721B1028842F40072028004E065
:1008F00002884FF6FF531A400280704712B141F050
:10090000010101E001F0FE010182704721B102887E
:1009100042F48062028004E002884FF6FF331A40FE
:10092000028070470A46002181894FF60173194001
:1009300002F0FE0319438181704721B1828942F0A0
:100940000102828104E082894FF6FE731A4082819F
:10095000704721B1028842F04002028004E0028820
:100960004FF6BF731A400280704721B1028842F4EB
:100970000042028003E00288C2F30E020280704748
:1009800021B9028842F08002028004E002884FF61A
:100990007F731A4002807047B1F5804F05D0828B7B
:1009A0004BF6FF731A40828303E0828B42F480424D
:1009B00082837047B1F5006F04D1028842F400626F
:1009C000028004E002884FF2FF731A4002807047F1
:1009D000B1F5005F04D1028842F40052028004E0C5
:1009E00002884DF6FF731A400280704721B10288D9
:1009F00042F01002028004E002884FF6EF731A40C2
:100A000002807047018270470146088AC0B2704771
:100A100021B1028842F48052028004E002884EF63E
:100A2000FF731A4002807047B1F5006F04D102884D
:100A300042F40062028004E002884FF2FF731A4021
:100A40000280704721B1028842F02002028004E057
:100A500002884FF6DF731A40028070470146088B08
:100A60000012704721B1828842F40062828004E063
:100A700082884FF2FF731A408280704721B18288CA
:100A800042F48052828004E082884EF6FF731A405E
:100A90008280704708B502460020009000920098BE
:100AA000084400900098008808BD1AB183880B4361
:100AB000838002E083888B438380704770B5024651
:100AC0000024002500230020958A138B1B0445EA8F
:100AD000030626F07F4404EA01068E4201D101207C
:100AE00000E0002070BD10B5014600200023002268
:100AF0008B8A0A8B120443EA020424F07F4010BD63
:100B00000CB50246002000230193009300920B0FC6
:100B1000019321F07F41019B83B1009B143300932B
:100B200010E000000054004000580040005C00400D
:100B300000127A0040420F00A0860100090C009BC1
:100B400018330093009B1B680B400BB1012000E0A1
:100B500000200CBD002221F07F42D34383827047E6
:100B600030B5024600200023948801F0E06504EAD5
:100B7000154321F07F41948A0C4014B10BB1012040
:100B800000E0002030BD002221F07F42D343838269
:100B9000704700000E49086070470D494860704773
:100BA0000B49886070474AF6AA20094908607047D7
:100BB0004CF6CC4006490860704701460020044AC4
:100BC000D2680A400AB1012000E00020704700000E
:100BD00000300040F948006840F00100F749086023
:100BE0000020F64908310860F4480068F4490840DC
:100BF000F2490860F348091D0860F348EF49843161
:100C00000860F0481038091D0860EC48006820F4BE
:100C10008020EA4908600020E8490C310860E74973
:100C20008C31086070470021E44A921C1170114613
:100C30000870704710B501460022002300204A11B9
:100C4000012A02D1DD4C236808E0022A03D1DB4CE3
:100C50007034236802E0D94C7434236801F01F0219
:100C6000012494401C400CB1012000E0002010BD84
:100C700038B5002000900024002500BF3120FFF788
:100C8000D9FF05460098401C00900098B0F5A04F91
:100C900001D0002DF2D03120FFF7CCFF08B10124A4
:100CA00000E00024204638BD01460020C34A1068F9
:100CB00020F0F80040EAC10010607047C3490860A6
:100CC00070470021BD4A703211701170012802D0A6
:100CD00004280AD104E00121B84A7032117005E0FD
:100CE0000521B64A7032117000E000BF00BF7047A6
:100CF000B7490860704770B5049C41EA8215012627
:100D0000C6EB530645EA0645054345EA0465AB4E86
:100D1000361D356070BDAD4908667047820142EAF4
:100D20000172A64B84331A607047A84988667047E1
:100D300010B5830143EA016343EA02739F4C883490
:100D4000236010BDA14908677047A049C864704777
:100D500002460020994B0833186820F0EC6042EA04
:100D600001031843954B0833186070470246002072
:100D7000924B0833186820F0784042EA0103184388
:100D80008E4B083318607047014600208B4A0832AA
:100D9000106820F00300084310607047874808304F
:100DA000006800F00C00704701460020834A0832BA
:100DB000106820F0F00008431060704701460020E2
:100DC0007E4A0832106820F4E050084310607047F3
:100DD00001460020794A0832106820F4604040EA59
:100DE000C10010607047F0B50021002200240225E8
:100DF00000260223714F08373F6807F00C0121B12C
:100E0000042905D0082937D105E0724F076036E084
:100E1000714F076033E0694F3F1D3F68C7F380564D
:100E2000664F3F1D3F6807F03F036EB16A4FB7FB47
:100E3000F3F7DFF888C10CF1040CDCF800C0CCF348
:100E4000881C07FB0CF40CE0624FB7FBF3F7DFF8EC
:100E50006CC10CF1040CDCF800C0CCF3881C07FB5F
:100E60000CF4564F3F1D3F68C7F301477F1C7D00C0
:100E7000B4FBF5F7076002E0564F076000BF00BF04
:100E80004E4F08373F6807F0F0010909534F7A5C6D
:100E90000768D7404760494F08373F6807F4E0517B
:100EA000890A4E4F7A5C4768D7408760434F0837BE
:100EB0003F6807F46041490B484F7A5C4768D74068
:100EC000C760F0BD002100F44072B2F5407F0AD146
:100ED0003A4A0832116821F4F811414A024011439C
:100EE000364A08321160354A70321268C0F30B037B
:100EF0001A43324B70331A607047354944390860E1
:100F00007047334940390860704736490860704778
:100F100001460020294A8C32106820F01F004A1E2A
:100F20001043264A8C321060704701460020234A45
:100F30008C32106820F4F8504A1E40EA02201F4A02
:100F40008C3210607047014600201C4A8C321068B9
:100F500020F4401008431060704701460020174AF3
:100F60008C32106820F4400008431060704701463E
:100F70000020124A8C32106820F440300843106080
:100F8000704719490860704739B10C4A303212680D
:100F900002430A4B30331A6006E0084A30321268C6
:100FA0008243064B30331A607047F9B1034A34323A
:100FB00012680243014B34331A601CE000380240CF
:100FC000FFFFF6EA10300024003000200000474206
:100FD000800E47420024F40000127A000000002036
:100FE000FFFCFF0F5C014742E01147428F4A126845
:100FF00082438E4B1A60704739B18C4A121D1268B9
:1010000002438A4B1B1D1A6006E0884A121D1268B3
:101010008243864B1B1D1A60704739B1834A0C32DC
:1010200012680243814B0C331A6006E07F4A0C328F
:10103000126882437D4B0C331A60704739B17B4A8A
:10104000103212680243794B10331A6006E0774A77
:10105000103212688243754B10331A60704739B1F1
:10106000724A243A12680243704B243B1A6006E02D
:101070006E4A243A126882436C4B243B1A607047D4
:1010800039B16A4A203A12680243684B203B1A6021
:1010900006E0664A203A12688243644B203B1A609D
:1010A000704739B1614A1C3A126802435F4B1C3BDE
:1010B0001A6006E05D4A1C3A126882435B4B1C3B97
:1010C0001A60704739B1594A143A12680243574BB3
:1010D000143B1A6006E0554A143A12688243534B97
:1010E000143B1A60704739B1504A103A12680243F3
:1010F0004E4B103B1A6006E04C4A103A126882438D
:101100004A4B103B1A60704739B1484A1C3212688A
:101110000243464B1C331A6006E0444A1C321268F4
:101120008243424B1C331A60704739B13F4A203228
:10113000126802433D4B20331A6006E03B4A2032DE
:1011400012688243394B20331A60704739B1374AED
:10115000243212680243354B24331A6006E0334AC6
:10116000243212688243314B24331A60704739B1FC
:101170002E4A2C32126802432C4B2C331A6006E0A4
:101180002A4A2C3212688243284B2C331A6070474B
:1011900039B1264A303212680243244B30331A6088
:1011A00006E0224A303212688243204B30331A6004
:1011B0007047012808D11D493C31096841F00801F8
:1011C0001A4A3C32116007E018493C31096821F0A5
:1011D0000801164A3C321160704739B1134A273A68
:1011E00012780243114B273B1A7006E00F4A273A48
:1011F000127882430D4B273B1A7070470B484030E2
:10120000006840F08070094940310860704701462D
:101210000020064A283A12680A400AB1012000E07C
:101220000020704701492639087070473438024061
:1012300010B50446FB48844208D101218014FFF711
:1012400052FF0021A014FFF74EFF3CE0F648844215
:1012500008D101210014FFF735FF00212014FFF70A
:1012600031FF30E0F148844208D10121C013FFF77B
:1012700029FF0021E013FFF725FF24E0EC4884421A
:1012800008D101214014FFF72EFF00216014FFF761
:101290002AFF18E0E748844209D101210805FFF739
:1012A00022FF00214FF48010FFF71DFF0BE0E24802
:1012B000844208D101214805FFF715FF00214FF4B2
:1012C0000010FFF710FF10BD10B50022028802F4D5
:1012D00041520B884C8823438C882343CC8823437A
:1012E0000C8923434C8923438C892343CC89234392
:1012F0001A430280838B4FF2FF74234083830B8A4F
:10130000038210BD2DE9F04F0025022300244FF089
:10131000010900220026002794469046B0F81CA040
:101320004FF2400B0AEA0B0AA0F81CA04FF0020A89
:10133000A0F820A0858BD1F808A0BAF1020F01D146
:1013400000BF82E0B1F804A0BAF1000F02D14FF063
:10135000010901E04FF00209DFF8E0A2DAF800A08D
:101360000AF4000ABAF1000F09D0DFF8D0A2DAF8C7
:1013700000A02AF4000ADFF8C4B2CBF800A0DFF81E
:10138000BCA20AF17C0ADAF800A0CAF3881CDFF8D4
:10139000ACA20AF17C0ADAF800A0CAF30278DFF8FE
:1013A0009CA2AAF1040ADAF800A00AF03F07DFF8CD
:1013B0008CA2AAF1040ADAF800A00AF4800ABAF5AD
:1013C000800F08D1DFF878A2BAFBF7FA0AFB0CFA13
:1013D000BAFBF8F607E0DFF86CA2BAFBF7FA0AFBF3
:1013E0000CFABAFBF8F6B1F806A0BAF5007F0ED1F8
:1013F0004FEA162A0AEB8A0A4FEA4A0AD1F808B0DD
:10140000BAFBFBFA0AF1050A1FFA8AF20FE04FEA6B
:10141000491AB6FBFAFA0AEB8A0A4FEA4A0AD1F8E5
:1014200008B0BAFBFBFA0AF1050A1FFA8AF24FF07C
:101430000A0AB2FBFAF202F00104A2EB040ACAF3B0
:101440004F034FF6FF7A0AEA0424022B01DBFF2B3D
:1014500001DD02230024B1F806A04AEA040A4AEAA0
:10146000030AA0F820A0B1F804A0B1F80CB04AEA31
:101470000B0AB1F802B04AEA0B0AB1F800B04AEA26
:101480000B0A4AF4006A4AEA05058583BDE8F08F35
:101490000021018041808180C18001814181818161
:1014A000C181072101827047002101804180818034
:1014B000C1800221816000218181704721B10288B1
:1014C00042F04002028004E002884FF6BF731A40E7
:1014D0000280704721B1828B42F48062828304E0F3
:1014E000828B4FF6FF331A408283704702884FF297
:1014F000FF731A40028002880A4302807047B1F5E8
:10150000804F04D1028842F48042028004E00288C5
:101510004BF6FF731A40028070474FF6FF6291420C
:1015200004D0028842F48072028004E002884FF600
:10153000FF631A400280704721B1828842F00402A2
:10154000828004E082884FF6FB731A4082807047E5
:1015500021B1828842F01002828004E082884FF636
:10156000EF731A408280704730B500220023848BCD
:101570004FF240052C40848302240484828B0C8823
:10158000B4F5007F01D00C8814B94FF4807308E0E3
:101590000C88B4F5407F03D00C88B4F5807F00D16F
:1015A00000238C888D892C434D882C431C4344F4A4
:1015B00000642243828330BD01468889704781815F
:1015C000704721B1028842F40052028004E0028890
:1015D0004DF6FF731A4002807047018841F4805134
:1015E0000180704702460020012901D0108B00E0E5
:1015F000908A70470146088A70471AB183880B4366
:10160000838002E083888B438380704730B5002459
:1016100000230C110125A540ABB2AAB185881D435A
:10162000858014E00030014000380040003C00405C
:10163000003401400050014000540140083802408D
:1016400000127A000024F40085889D43858030BD17
:101650000246002013890B400BB1012000E000205E
:101660007047CA4302817047F0B50246002000244B
:101670000023002501F00F070126BE40B4B20B1174
:1016800001269E40B3B2968806EA030516892640D5
:1016900016B10DB1012000E00020F0BD10B5002210
:1016A00001F00F040123A3409AB2D343038110BD7C
:1016B00010B501218803FFF716FD00214FF480408B
:1016C000FFF711FD10BD1C49086070471B490862F7
:1016D000704730B500228B071C0F0F2303FA04F26A
:1016E000154B08338C1053F824309343124C0834B4
:1016F0008D1044F8253023468C1053F824308C0785
:10170000240F00FA04F423430B4C08348D1044F8E2
:10171000253030BD0949DC31086070470849086050
:101720007047002004492031096801F4807109B133
:10173000012000E0002070470038014000002742EF
:101740000004274210B50446FE48844208D1012116
:101750000846FFF7C8FC00210120FFF7C4FC9DE00C
:10176000B4F1804F08D101210846FFF7ABFC0021FE
:101770000120FFF7A7FC91E0F348844208D1012142
:101780000220FFF79FFC00210220FFF79BFC85E071
:10179000EE48844208D101210420FFF793FC002188
:1017A0000420FFF78FFC79E0E948844208D1012149
:1017B0000820FFF787FC00210820FFF783FC6DE07D
:1017C000E448844208D101211020FFF77BFC00216E
:1017D0001020FFF777FC61E0DF48844208D1012147
:1017E0002020FFF76FFC00212020FFF76BFC55E065
:1017F000DA48844208D101210220FFF774FC00215D
:101800000220FFF770FC49E0D548844209D101214C
:101810000804FFF768FC00214FF48030FFF763FCF9
:101820003CE0D048844209D101214804FFF75BFC29
:1018300000214FF40030FFF756FC2FE0CA488442E5
:1018400009D101218804FFF74EFC00214FF48020CC
:10185000FFF749FC22E0C548844208D1012140201D
:10186000FFF730FC00214020FFF72CFC16E0C048B9
:10187000844208D101218020FFF724FC0021802030
:10188000FFF720FC0AE0BB48844207D10121801504
:10189000FFF718FC0021A015FFF714FC10BD002273
:1018A0000288A84B98420ED0AC4B98420BD0B0F1B6
:1018B000804F08D0A44B984205D0A44B984202D048
:1018C000A34B984204D14FF68F731A404B881A43AA
:1018D000A04B984207D0A04B984204D04FF6FF434C
:1018E0001A400B891A4302804B68C3620B88038538
:1018F000944B984202D0994B984201D18B7A03863F
:101900000123838270474FF0FF3141600021018045
:1019100001814180817270470185828270470A4649
:10192000002101884FF68F731940114301807047E1
:1019300041627047C16270470146486A704701467C
:10194000088D704721B1028842F00202028004E053
:1019500002884FF6FD731A400280704721B1028859
:1019600042F00402028004E002884FF6FB731A4042
:101970000280704721B1028842F08002028004E0B8
:1019800002884FF67F731A400280704702884FF634
:10199000F7731A40028002880A4302807047028867
:1019A0004FF6FF431A40028002880A4302807047C4
:1019B00021B1028842F00102028004E002884FF661
:1019C000FE731A400280704770B500240022002385
:1019D000058C4FF6FE7635400584028C8388048B97
:1019E0004FF68F752C40B51E2C400D882C43751E6C
:1019F0002A408D892A434D882A43524DA84202D05D
:101A0000564DA84213D14FF6F7752A40CD892A4387
:101A10004FF6FB752A408D882A434FF6FF652B4011
:101A20004FF6FF552B400D8A2B434D8A2B43838065
:101A300004838D684563028470BD70B50024002264
:101A40000023058C4FF6EF7635400584028C8388A1
:101A5000048B48F6FF752C404FF6FF452C400D884F
:101A60004FF6FF7606EA05252C434FF6DF752A4030
:101A70008D8906EA05152A434D8806EA05152A438D
:101A8000304DA84202D0354DA8421DD14FF67F758A
:101A90002A40CD894FF6FF7606EA05152A434FF610
:101AA000BF752A408D8806EA05152A434FF6FF3593
:101AB0002B404FF2FF752B400D8A06EA85052B431C
:101AC0004D8A06EA85052B43838004838D688563F0
:101AD000028470BD70B5002400220023058C4FF6EF
:101AE000FF6635400584028C8388848B4FF68F75A2
:101AF0002C404FF6FC752C400D882C434FF6FF55BB
:101B00002A408D894FF6FF7606EA05252A434D883F
:101B100006EA05252A430B4DA84202D00F4DA842E4
:101B200038D14FF2FF752A40CD894FF6FF7606EA8D
:101B300005252A434FF6FF352A408D8806EA0525FC
:101B40002A4319E000000140000400400008004062
:101B5000000C004000100040001400400004014050
:101B6000004001400044014000480140001800408E
:101B7000001C0040002000404EF6FF752B404DF643
:101B8000FF752B400D8A06EA05152B434D8A06EAA0
:101B900005152B43838084838D68C563028470BDE3
:101BA00070B5002200230024058C4EF6FF763540E8
:101BB0000584038C8488828B48F6FF752A404FF693
:101BC000FF452A400D884FF6FF7606EA05252A4391
:101BD0004DF6FF752B408D8906EA05352B434D8860
:101BE00006EA05352B43FE4DA84202D0FD4DA84222
:101BF00008D14BF6FF752C400D8A4FF6FF7606EAAA
:101C000085152C43848082838D680564038470BDB0
:101C1000002101804180818081608181C1810182B8
:101C20004182704770B503460020002418461830E2
:101C300001258D40ACB21D8CA5431D8409B1082936
:101C40000AD100EB610005684FF68F7635400560DC
:101C50000568154305600FE00D1FC5F34E052844C8
:101C6000056848F6FF763540056005684FF6FF7653
:101C700006EA02263543056070BD41637047816303
:101C80007047C1637047016470470A460021018BA9
:101C90004FF68F7319401143018370470A460021A4
:101CA000018B48F6FF7319404FF6FF7303EA0223D6
:101CB0001943018370470A460021818B4FF68F73C9
:101CC00019401143818370470A460021818B48F6F1
:101CD000FF7319404FF6FF7303EA02231943818310
:101CE00070470A460021018B4FF6F77319401143E4
:101CF000018370470A460021018B4FF2FF731940A0
:101D00004FF6FF7303EA02231943018370470A4623
:101D10000021818B4FF6F77319401143818370477F
:101D20000A460021818B4FF2FF7319404FF6FF7373
:101D300003EA02231943818370470A460021018B7D
:101D40004FF6FB7319401143018370470A46002187
:101D5000018B4FF6FF3319404FF6FF7303EA02235E
:101D60001943018370470A460021818B4FF6FB73AC
:101D700019401143818370470A460021818B4FF639
:101D8000FF3319404FF6FF7303EA0223194381839F
:101D900070470A460021018B4FF67F7319401143AB
:101DA000018370470A460021018BC1F30E014FF6F3
:101DB000FF7303EA02231943018370470A46002197
:101DC000818B4FF67F7319401143818370470A4618
:101DD0000021818BC1F30E014FF6FF7303EA02234A
:101DE0001943818370470A460021018C4FF6FD7329
:101DF00019401143018470470A460021018C4FF6B7
:101E0000F77319401143018470470A460021018C81
:101E10004FF6DF7319404FF6FF7303EA02131943BD
:101E2000018470470A460021018C4FF67F731940E8
:101E30004FF6FF7303EA02131943018470470A4601
:101E40000021018C4FF6FF5319404FF6FF7303EA50
:101E500002231943018470470A460021018C4FF286
:101E6000FF7319404FF6FF7303EA022319430184FD
:101E700070470A460021018C4DF6FF7319404FF65A
:101E8000FF7303EA023319430184704730B500231E
:101E900001248C40A3B2048C9C430484048C02FA79
:101EA00001F5ADB22C43048430BD30B500230424C9
:101EB0008C40A3B2048C9C430484048C02FA01F588
:101EC000ADB22C43048430BD828B4FF2FF331A40F5
:101ED0008283828B4FF6FF7303EA01231A438283C6
:101EE0007047F0B50C461546002100220026078CED
:101EF0004EF6FF7C07EA0C070784818B028C4FF6B5
:101F0000FF7707EA043640F6FF4739404FF6FF7780
:101F100007EA052739434FF6FF7707EA03373943C6
:101F200045F6FF773A4046F480573A43818302846E
:101F3000F0BD828B4FF6F3731A408283828B0A4383
:101F400082837047F0B50C4615460021002200261A
:101F5000078C4FF6FF6C07EA0C070784818B028C15
:101F60004FF6FF7707EA04264FF60C7739404FF615
:101F7000FF7707EA03172F4339434FF2FF573A40E1
:101F800046F480773A4381830284F0BD028B4FF29E
:101F9000FF331A400283028B4FF6FF7303EA0123DB
:101FA0001A4302837047F0B50C4615460021002203
:101FB0000026078C4FF6EF7C07EA0C070784018B9D
:101FC000028C4FF6FF7707EA041640F6FF473940C8
:101FD0004FF6FF7707EA033739434FF6FF7703E001
:101FE000000001400004014007EA052739434FF68D
:101FF0005F773A4046F010073A4301830284F0BD10
:10200000028B4FF6F3731A400283028B0A4302835A
:102010007047F0B50C46154600210022068C4FF69D
:10202000FE773E400684018B028C4FF60C763140E1
:102030007E1C06EA03162E4331434FF6F5763240F6
:1020400044F00106324301830284F0BD70B50546B9
:102050000C46208850B92389A28861882846FFF75A
:10206000D8FFE1882846FFF7CBFF25E02088042829
:102070000AD12389A28861882846FFF794FFE18866
:102080002846FFF783FF17E0208808280AD1238914
:10209000A28861882846FFF755FFE1882846FFF7A8
:1020A00048FF09E02389A28861882846FFF719FFC5
:1020B000E1882846FFF708FF70BD002101804180BC
:1020C000012181800021C180018170472DE9F0410B
:1020D00005460C4600260127608808B9022600E064
:1020E0000026A088012801D1022700E001272088CE
:1020F000A0B92389A28861882846FFF78AFFE18872
:102100002846FFF77DFF23893A4631462846FFF7E8
:102110004AFFE1882846FFF739FF13E02389A288A8
:1021200061882846FFF73FFFE1882846FFF72EFF2A
:1021300023893A4631462846FFF76BFFE188284657
:10214000FFF75EFFBDE8F0810146486B704701462E
:10215000886B70470146C86B70470146086C704732
:102160000A884B881A438B881A43CB881A430B89F9
:102170001A434B891A438B891A43A0F844207047AD
:102180000021018041808180C18001814181818164
:10219000704731B1B0F8442042F40042A0F8442026
:1021A00005E0B0F84420C2F30E02A0F844207047C6
:1021B00021B1828842F00402828004E082884FF6D6
:1021C000FB731A408280704721B1828842F001027D
:1021D000828004E082884FF6FE731A408280704746
:1021E0001AB183890B43838102E083898B43838106
:1021F00070478182704702460020138A0B400BB162
:10220000012000E000207047CA430282704730B5C9
:102210000246002000230024158A05EA010395895F
:1022200005EA010413B10CB1012000E0002030BD2B
:10223000CA430282704741EA0203A0F8483070475F
:102240001AB183890B43838102E083898B438381A5
:10225000704721B1828842F00802828004E08288BF
:102260004FF6F7731A408280704701894FF6F87273
:102270001140018170470A46002101894FF68F7392
:10228000194011430181704730B504460D46294677
:102290002046FFF7F0FF208940F00700208130BD85
:1022A0002DE9F04104460D4616461F46602D06D125
:1022B0003B46012231462046FFF775FE05E03B46CE
:1022C000012231462046FFF7A4FE29462046FFF7AB
:1022D000D2FF208940F007002081BDE8F08130B5B1
:1022E0000C4600210189C9B24FF6FF7505EA0325A6
:1022F000154325432943018130BD2DE9F0410546B1
:102300000E4617469846002443463A46314628462C
:10231000FFF7E5FF2C894FF6F870044044F00704FE
:102320004FF68F70044044F070042C81BDE8F081BA
:10233000F0B504460D4616461F463B463246294632
:102340002046FFF7CCFF208940F480402081F0BD7B
:1023500082884FF68F731A40828082880A43828077
:10236000704702894FF6F8731A40028102890A43C6
:102370000281704702894FF67F731A4002810289F9
:102380000A4302817047F0B50C4615461E460021EF
:10239000002200230189028B038C4FF6F877394025
:1023A00021434FF6FC473A4040F201173A434FF6BB
:1023B000DD773B404FF6FF7707EA06172F433B4395
:1023C000018102830384F0BD21B1828842F0800242
:1023D000828004E082884FF67F731A4082807047C3
:1023E000A0F850107047000010B50446FA48844227
:1023F00008D101211020FEF776FE00211020FEF703
:1024000072FE57E0F548844209D101214804FEF7E5
:1024100059FE00214FF40030FEF754FE4AE0F04828
:10242000844209D101218804FEF74CFE00214FF4BB
:102430008020FEF747FE3DE0EA48844209D10121B1
:10244000C804FEF73FFE00214FF40020FEF73AFEDD
:1024500030E0E548844209D101210805FEF732FE4B
:1024600000214FF48010FEF72DFE23E0DF48844268
:1024700008D101212020FEF736FE00212020FEF7A2
:1024800032FE17E0DA48844209D101218807FEF7BD
:1024900019FE00214FF08040FEF714FE0AE0D548F7
:1024A000844207D101214005FEF70CFE00216005A2
:1024B000FEF708FE10BD2DE9FF4705460E46002435
:1024C000A14600BFA046B08900B100BF2C8A24F409
:1024D0004054F08804432C82AC8941F20C60844360
:1024E000B08831890843718908430443AC81AC8AC0
:1024F00024F44074B0890443AC826846FEF773FC50
:10250000B548854202D0B948854202D1DDF80C9029
:1025100001E0DDF80890A88900F4004040B109EB23
:10252000C90000EB091031684900B0FBF1F707E082
:1025300009EBC90000EB091031688900B0FBF1F725
:102540006420B7FBF0F004012009642101FB10783E
:10255000A88900F4004040B1322000EBC800B0FB75
:10256000F1F000F00700044308E0322000EB08100F
:102570006421B0FBF1F000F00F0004432C81BDE8B2
:10258000FF874FF41651016000218180C1800181D5
:102590000C21418100218181704710B50246002045
:1025A000108A20F470600B884C8823438C88234366
:1025B000CC8823431843108210BD00210180418044
:1025C0008180C180704721B1828942F400528281AA
:1025D00004E082894DF6FF731A4082817047028BB6
:1025E00002F47F420283028B0A430283704721B1C7
:1025F000828942F40042828103E08289C2F30E02A2
:102600008281704721B1828A42F40062828204E0B2
:10261000828A4FF2FF731A4082827047C1F3080228
:102620008280704701468888C0F308007047028A9C
:102630004FF6F0731A400282028A0A430282704700
:1026400021B1828942F00202828104E082894FF640
:10265000FD731A408281704782894FF2FF731A40DE
:10266000828182890A4382817047028A4FF6DF7332
:102670001A400282028A0A430282704721B1028A0A
:1026800042F48042028204E0028A4BF6FF731A4051
:1026900002827047818941F001018181704721B137
:1026A000828A42F00802828204E0828A4FF6F7733F
:1026B0001A4082827047028BD2B20283028B42EAB6
:1026C00001220283704721B1828A42F02002828275
:1026D00004E0828A4FF6DF731A408282704721B18C
:1026E000828A42F01002828204E0828A4FF6EF73FF
:1026F0001A4082827047828A4FF6FB731A408282A8
:10270000828A0A438282704721B1828A42F00202A1
:10271000828204E0828A4FF6FD731A4082827047FB
:102720001AB1838A0B43838202E0838A8B438382BC
:102730007047F0B50346002400260025002040F62F
:102740006A17B94200D100BF1846C1F3421401F024
:102750001F06012707FA06F5012C01D10C3004E011
:10276000022C01D1103000E014301AB107682F4359
:10277000076002E00768AF430760F0BD0246002033
:10278000B1F5007F00D100BF13880B400BB10120D1
:1027900000E00020704701F40072B2F5007F00D124
:1027A00000BFCA430280704770B502460024002370
:1027B0000025002040F66A16B14200D100BFC1F3E7
:1027C000421501F01F03012606FA03F3012D13D170
:1027D0009689334017E0000000100140004400409B
:1027E00000480040004C00400050004000140140F0
:1027F00000780040007C0040022D02D1168A334050
:1028000001E0968A33400C12012606FA04F4168879
:10281000344013B10CB1012000E0002070BD10B5B0
:102820000022002340F66A14A14200D100BF0A1220
:1028300001249440A3B2DC43048010BD7FB504465C
:102840000D4601210846FEF7E8FBADF8045002945E
:102850000020ADF80600ADF80C0001A94FF0804053
:10286000FFF71DF8012211469007FFF7B9FC01217F
:102870008807FFF79DF81C208DF8000003208DF8D5
:1028800001008DF8020001208DF803006846FDF775
:1028900018FD7FBD10B501218807FFF7B8FC01289E
:1028A00008D1334802684068521C40F100003049AA
:1028B0000A60486001218807FFF7BAFC10BD2C4967
:1028C00008684968704710B502460B4628480168F9
:1028D00040688C1A60EB0301204610BD7FB50546A9
:1028E0000C4601210220FEF798FB0295ADF804404A
:1028F0000020ADF80600ADF80C0001A91D48FEF758
:10290000CEFF012211461B48FFF76AFC012119483E
:10291000FFF74EF81D208DF8000001208DF8010012
:1029200003208DF8020001208DF803006846FDF7B2
:10293000C8FC7FBD10B501210E48FFF768FC0128D7
:1029400010D10D480068401C0B49086008464068DB
:10295000401C486008468068401C88600846C06883
:10296000401CC86001210348FFF762FC10BD000055
:102970001000002000040040F013002070B5054650
:102980000C4645F25550FEF705F92846FEF705F9C5
:102990002046FEF705F9FEF706F9FEF709F970BDC6
:1029A00010B5FEF700F910BD1CB501210520FEF79A
:1029B000EBFA01218803FEF741FBFE48006840F076
:1029C0000070FC4908604FF48170009001208DF880
:1029D000040000208DF8060003208DF8050000207B
:1029E0008DF807006946F448FDF7E4FD01200090EA
:1029F00000208DF804008DF807006946EE48FDF7C9
:102A0000D9FD4FF4E050009002208DF80400002022
:102A10008DF8060003208DF8050000208DF80700D2
:102A20006946E648FDF7C6FD4FF4004000900120DE
:102A30008DF8040000208DF8060003208DF80500B5
:102A400000208DF807006946DB48FDF7B3FD06223C
:102A50000A21DA48FDF739FE06220B21D748FDF797
:102A600034FE06220C21D548FDF72FFE06220F2149
:102A7000D148FDF72AFE4FF40041CF48FDF716FE7E
:102A80001CBD00B585B00121C803FEF7C6FA0020C1
:102A9000ADF800004FF48270ADF802004FF4006012
:102AA000ADF804000220ADF806000120ADF80800E2
:102AB0004002ADF80A000020ADF80C00ADF80E00A1
:102AC0000720ADF810006946BD48FEF7FDFB012167
:102AD000BB48FEF7F3FC05B000BD08B5FFF764FF87
:102AE000FFF7CFFF4FF48071B348FDF7DFFD002003
:102AF000009002E00098401C00900098B0F57A7FAA
:102B0000F8D34FF48071AC48FDF7D2FD08BD0EB587
:102B100001218803FEF792FA00210846FEF7D9FD4D
:102B20000120019000208DF808000C208DF809008C
:102B300001208DF80A0001A8FDF73CFC06208DF865
:102B4000000003208DF8010001208DF802008DF8AF
:102B500003006846FDF7B5FB0EBD10B5044600BF87
:102B600002219748FEF774FD0028F9D021469448C9
:102B7000FEF725FD00BF01219148FEF769FD002801
:102B8000F9D08F48FEF718FD10BD10B50120FDF7F4
:102B900077FCB8B14FF400418748FDF789FD002468
:102BA00006E00020FFF7D9FF864921F81400641CD5
:102BB000082CF6DB4FF400417F48FDF777FD01203C
:102BC000FDF769FC10BD30B502460B467E4850F853
:102BD000220002EB82047D4D35F82440001B7A4C24
:102BE00044F82200002110E002EB8200774C04EB55
:102BF0008004481C34F8100002EB8204734D05EB8E
:102C0000840424F81100481CC1B20929ECDB02EB52
:102C100082006E4C04EB800043826B4850F8220027
:102C200002EB8204694D05EB8404648A2044664CFF
:102C300044F82200204650F822000A24B0FBF4F0A9
:102C400080B230BD70B505460024012D0ED100BF05
:102C500009E05C4A32F81410E0B2FFF7B4FF5C49B7
:102C600021F81400641C082CF3DB0AE0002406E0C1
:102C7000544830F81400564921F81400641C082CFC
:102C8000F6DB70BD08B502214B48FDF711FD0020B1
:102C9000009002E00098401C009000986428F9D34E
:102CA00002214548FDF702FD08BD70B52DED048BEE
:102CB0000025002400BF20E1454830F8150004B28B
:102CC000082D75D2DFE805F0041E415B9BB5D8F3F3
:102CD00004EB840149004FF47A7201FB02F0C11742
:102CE00000EB5141C9130EB2304604F090FA9FED4B
:102CF000390B53EC102B04F005F904F05BFA37495B
:102D0000488000BF04EB840149004FF47A725143BC
:102D10008800C11700EB5141C1F3CF312F4A118018
:102D20002F4890ED050A2F4890ED051A10460088AF
:102D300000EE900AF8EE600A01EE200ABCEEC00A2E
:102D400010EE100A11460880D5E004EB840149001A
:102D50004FF47A7201FB02F0C11700EB5141C91325
:102D60000EB2304604F053FA9FED1A0B53EC102BC1
:102D700004F0C8F804F01EFA18494881BBE004EBDF
:102D8000840149004FF47A7251438800C11700EB67
:102D90005141C1F3CF31114A1181114890ED070A19
:102DA000104890ED071A1046008900EE900A1BE0CB
:102DB000A0E000000038014000000240000802408E
:102DC000003C00405811002018120020781100200B
:102DD00038120020000000000000E03F68110020D1
:102DE000AC13002078130020F8EE600A01EE200AF0
:102DF000BCEEC00A10EE100A114608817BE004EB1D
:102E0000840149004FF47A7201FB02F0C11700EB14
:102E10005141C9130EB2304604F0F9F91FED130BFE
:102E200053EC102B04F06EF804F0C4F94549C88146
:102E300061E004EB840149004FF47A725143880049
:102E4000C11700EB5141C1F3CF313E4A91813E4859
:102E500090ED080A3D4890ED081A1046808900EE72
:102E6000900AF8EE600A01EE200ABCEEC00A10EEED
:102E7000100A114688813EE004EB840149004FF4BA
:102E80007A7201FB02F0C11700EB5141C9130EB277
:102E9000304604F0BCF91FED310B53EC102B04F05D
:102EA00031F804F087F92749C88024E0FFE704EBF4
:102EB000840149004FF47A7251438800C11700EB36
:102EC0005141C1F3CF311F4A91801F4890ED060A4E
:102ED0001E4890ED061A1046808800EE900AF8EE23
:102EE000600A01EE200ABCEEC00A10EE100A11467C
:102EF000888000E000BF00BF6D1C082DFFF6DCAE2F
:102F0000BDEC048B70BD30B500210023002016E01D
:102F10000F4A32F8102011B201EB810464004FF423
:102F20007A756C43A200D41702EB5444C4F3CF3437
:102F3000044D25F8104000BF00BF421CD0B2082845
:102F4000E6DB30BD68110020AC13002078130020B0
:102F50005811002000B587B001210220FEF714F8B7
:102F600001218803FEF759F84FF420400590022014
:102F70008DF8180000208DF81A0003208DF8190034
:102F800001208DF81B0005A9F848FDF713FB052269
:102F90000D21F648FDF799FB05220F21F348FDF7B7
:102FA00094FB4FF44040ADF800004FF48270ADF850
:102FB00002004FF40060ADF804000220ADF80600F6
:102FC0000120ADF808004002ADF80A000820ADF875
:102FD0000C000020ADF80E000720ADF81000694687
:102FE000E348FEF771F90121E148FEF767FA07B0FF
:102FF00000BD1CB5044601210620FDF7C5FFA088D1
:10300000009001208DF8040000208DF806000320B8
:103010008DF8050001208DF8070069462068FDF74E
:10302000C9FAA1882068FDF741FBA0890090012022
:103030008DF8040000208DF8060003208DF80500AF
:1030400001208DF807006946A068FDF7B3FAA18951
:10305000A068FDF72BFB1CBD70B504460D46A1888A
:103060002068FDF725FB00BF0221C148FEF7F0FAFA
:103070000028F9D02946BE48FEF7A1FA00BF022178
:10308000BB48FEF7E5FA0028F9D08021B848FEF7E2
:10309000DFFA0128F3D0052000F0A0FFA188206806
:1030A000FDF704FB70BD38B504460020009002E037
:1030B0000098401C009000980A28F9D3A189A068C4
:1030C000FDF7F6FA0020009002E00098401C009006
:1030D00000986428F9D3A189A068FDF7E7FA38BD04
:1030E000B5EEC00AF1EE10FA04D2DFEDA20AB0EE9E
:1030F000600A0AE0F0EE040AB4EEE00AF1EE10FA1B
:1031000003DDF0EE040AB0EE600ADFED9B0A60EE2C
:10311000200AB0EE041AC0EE811AFCEEE10A10EEAD
:10312000900A80B2704710B5FFF714FF9348FFF77D
:1031300060FF9348FFF75DFF9248FFF75AFF924800
:10314000FFF757FF10BD10B52DED068B002400BF13
:10315000CEE034B1012C33D0022C60D0032C7CD1D2
:103160008EE08A4931F8140004F068F841EC1A0B3B
:103170009FED870B53EC102B03F0C4FE41EC190BB1
:103180009FED850B53EC102B04F06CF841EC180B01
:103190009FED830B53EC102B51EC180B04F062F8ED
:1031A00041EC190B04F006F87F49088000BF08467F
:1031B00030F814207DA1002003F068FB00BF95E0EB
:1031C000724931F8140004F039F841EC1A0B9FED04
:1031D000700B53EC102B03F095FE41EC190B9FED97
:1031E0006E0B53EC102B04F03DF841EC180B9FEDE7
:1031F0006C0B53EC102B51EC180B04F033F841EC32
:10320000190B03F0D7FF6849488000BF084630F823
:10321000142073A1002003F039FB00BF66E05B4976
:1032200031F8140004F00AF841EC1A0B9FED580B2A
:1032300053EC102B03F066FE41EC190B9FED560B7F
:1032400053EC102B04F00EF841EC180B9FED540BCF
:1032500053EC102B51EC180B00E040E004F002F8A6
:1032600041EC190B03F0A6FF4F49888000BF0846C8
:1032700030F8142067A1002003F008FB00BF35E000
:10328000424931F8140003F0D9FF41EC1A0B9FEDCD
:10329000400B53EC102B03F035FE41EC190B9FED66
:1032A0003E0B53EC102B03F0DDFF41EC180B9FEDB0
:1032B0003C0B53EC102B51EC180B03F0D3FF41ECFB
:1032C000190B03F077FF3849C88000BF084630F873
:1032D00014205DA1002003F0D9FA00BF06E000BF72
:1032E00066A1002003F0D2FA00BF00BF00BF641C3B
:1032F000042CFFF62EAFBDEC068B10BD10B50024DC
:103300006A480068401C694908600846007800F077
:10331000030434B1012C0DD0022C14D0032C24D181
:103320001AE0214801881548FFF796FE1348FFF779
:10333000BAFEC5E01C4841881148FFF78DFE1048D1
:10334000FFF7B1FEBCE0184881880E48FFF784FE05
:103350000C48FFF7A8FEB3E01348C1880A48FFF7FE
:103360007BFE0948FFF79FFEAAE0A1E000040240AF
:1033700000380040000000000000804720000020CE
:103380003000002040000020500000202C110020C0
:103390000000000000408F40000000000000E03FFF
:1033A000000000008099D940600000202A2A2A2AC3
:1033B0002A2A2A2A096C696D69745F41643535329D
:1033C000345F446174615B305D093D092564092AFD
:1033D0002A2A2A2A2A2A2A2A2A2A2A2A2A0D0A00B4
:1033E0002A2A2A2A2A2A2A2A096C696D69745F41C5
:1033F00064353532345F446174615B315D093D0988
:103400002564092A2A2A2A2A2A2A2A2A2A2A2A2A08
:103410002A0D0A002A2A2A2A2A2A2A2A096C696DD0
:1034200069745F4164353532345F446174615B3285
:103430005D093D092564092A2A2A2A2A2A2A2A2AD4
:103440002A2A2A2A2A0D0A002A2A2A2A2A2A2A2A43
:10345000096C696D69745F4164353532345F44616C
:1034600074615B335D093D092564092A2A2A2A2AE9
:103470002A2A2A2A2A2A2A2A2A0D0A005741524E83
:10348000494E47212121212121212020464154411B
:103490004C204552524F452C504C454153452043FA
:1034A0004845434B20434F44450D0A006800002027
:1034B00000BFAFF23801002003F0E8F900BF00BF01
:1034C00000BF10BD00B587B001214805FDF7A5FD7F
:1034D00001210220FDF758FD01218803FDF7AEFD13
:1034E00001214805FDF7EEFD00214FF40010FDF726
:1034F000E9FD01219F48FDF738FA00219D48FDF7BD
:1035000034FA042206219C48FDF7DFF80422072143
:103510009948FDF7DAF84020059002208DF8180050
:1035200003208DF8190001208DF81A008DF81B007A
:1035300005A99148FDF73EF88020059005A98E4821
:10354000FDF738F80020ADF808004BF6FF70ADF835
:103550000A008A4890F81E04ADF80C004FF4806011
:10356000ADF80E000001ADF810008548019001A9EA
:103570008048FDF70CF901217E48FDF7C7F90121CC
:103580007C48FDF780F907B000BD10B5FFF79AFF42
:1035900010BD10B5044600BF22467AA1002003F0FA
:1035A00075F900BF204610BD2DE9F04704460F46CF
:1035B000164698460025A94600224FF4007120685F
:1035C000FDF773FA00224FF480612068FDF76DFA71
:1035D00000224FF480712068FDF767FA4FF4204510
:1035E00006E0281EA5F1010502D14FF0040962E0B2
:1035F0004FF400312068FDF783FA0028F1D1012152
:103600002068FDF763F94FF4805506E0281EA5F108
:10361000010502D14FF005094DE065492068FDF72D
:103620004DFA0028F2D07A06110E00222068FDF72C
:1036300065F94FF4805506E0281EA5F1010502D179
:103640004FF0060937E05B492068FDF737FA00289C
:10365000F2D015E031782068FDF7D4F9761C4FF4EC
:10366000805506E0281EA5F1010502D14FF008099A
:1036700021E05049891C2068FDF720FA0028F1D08C
:10368000B8F10000A8F101011FFA81F8E2D101218F
:103690002068FDF727F9012251022068FDF705FA9D
:1036A000012291022068FDF700FA01221102206830
:1036B000FDF7FBF900BFB9F1000F03D009F0FF00DF
:1036C000FFF767FF0020BDE8F0872DE9F0410546D0
:1036D0000F4690461C462046E11704EBD151491293
:1036E000A4EB4121A5F81A147806000E85F81F04F2
:1036F0004FF4007105F5057003F098FA2646E017BF
:1037000004EB10600012A4EB0022414605F50570A1
:1037100003F047FABDE8F08170B50446184D07E0A4
:10372000281EA5F1010503D16320FFF732FF70BD0C
:103730004FF400312068FDF7E3F90028F0D102E0F2
:103740002068FDF761F91C492068FDF7D9F90028C8
:10375000F6D14FF4007209491431A1F1100001F0C3
:1037600031FF4FF400721549A1F1100001F02AFF5A
:103770000020DCE7005400400004024084000020E8
:10378000A08601004552524F523A204932432077D9
:103790006169742074696D656F75742C206572722F
:1037A0006F72436F6465203D2025640D0A000000A0
:1037B000010003008200070040000010B804002050
:1037C00008B50020009000BFFB4908680121FDF703
:1037D0007DF8F94908681421FDF75CF90090F64A74
:1037E00092F81F1410680022FDF788F8F249086863
:1037F0001421FDF74FF900F002000028E4D0EE4953
:103800000868EE49FDF7A6F9EB4908680121FDF7C4
:1038100069F808BD70B504460D4616464FF42040C1
:10382000E749086009E0E6490868411EE44A11607A
:1038300018B90420FFF7ADFE70BDDF4908684FF4EA
:103840000031FDF75DF90028EDD1DB490868012161
:10385000FDF73CF84FF48050D949086009E0D84999
:103860000868411ED64A116018B90520FFF791FE7D
:10387000E2E7D1490868D349FDF720F90028EED0E6
:10388000CD4A92F81F1410680022FDF737F84FF464
:103890008050CB49086009E0C9490868411EC84A00
:1038A000116018B90620FFF774FEC5E7C249086821
:1038B000C549FDF703F90028EED02912BE4A106869
:1038C000FDF7A0F84FF48050BD49086009E0BC49FD
:1038D0000868411EBA4A116018B90720FFF759FE5F
:1038E000AAE7B5490868B849891CFDF7E7F8002838
:1038F000EDD0E9B2B04A1068FDF784F84FF480507B
:10390000AF49086009E0AE490868411EAC4A116041
:1039100018B90720FFF73DFE8EE7A7490868AA49B6
:10392000891CFDF7CBF80028EDD01CE02178A24AD5
:103930001068FDF767F8641C4FF48050A0490860D8
:1039400009E09F490868411E9D4A116018B9082086
:10395000FFF71FFE70E7984908689B49891CFDF72F
:10396000ADF80028EDD0301EA6F10101CEB2DDD1B8
:10397000914908680121FCF7B5FF01205CE72DE9BA
:10398000F04707460D4614464FF00008C146C246B0
:1039900000262846E91705EB5161C911A5EBC111B5
:1039A00001F0FF0ACAF18000C6B22046E11704EB1D
:1039B0005161C1F3C718E11704EB5161C911A4EBC0
:1039C000C11101F0FF09BAF1000F28D1B8F1000FC1
:1039D00007D14A4629463846FFF71CFFFFF7F0FE9D
:1039E00060E00AE0802229463846FFF713FFFFF720
:1039F000E7FE05F18000C5B28037B8F10000A8F1FC
:103A0000010101F0FF08EDD1B9F1000F4AD04A469B
:103A100029463846FFF7FEFEFFF7D2FE42E0B8F136
:103A2000000F07D14A4629463846FFF7F3FEFFF755
:103A3000C7FE37E0A01B84B22046E11704EB5161BA
:103A4000C1F3C718E11704EB5161C911A4EBC1110F
:103A500001F0FF094EB1324629463846FFF7DAFE3B
:103A6000FFF7AEFEA819C5B237440AE08022294606
:103A70003846FFF7CFFEFFF7A3FE05F18000C5B281
:103A80008037B8F10000A8F1010101F0FF08EDD185
:103A9000B9F1000F06D04A4629463846FFF7BAFE6C
:103AA000FFF78EFEBDE8F08770B505460C4642492B
:103AB00008680121FCF70AFF4FF480504049086074
:103AC00009E03F490868411E3D4A116018B90020CD
:103AD000FFF75FFD70BD384908683A49FCF7EEFF13
:103AE0000028EED0344A92F81F1410680022FCF728
:103AF00005FF4FF480503249086009E030490868FA
:103B0000411E2F4A116018B90120FFF742FDE1E77D
:103B1000294908682C49FCF7D1FF0028EED0211272
:103B2000254A1068FCF76EFF4FF480502449086066
:103B300009E023490868411E214A116018B9022092
:103B4000FFF727FDC6E71C4908681F49891CFCF7D9
:103B5000B5FF0028EDD0E1B2174A1068FCF752FF1C
:103B60004FF480501649086009E015490868411E65
:103B7000134A116018B90220FFF70BFDAAE70E499E
:103B800008681149891CFCF799FF0028EDD02978B5
:103B9000094A1068FCF736FF4FF480500849086066
:103BA00014E007490868411E054A116070B90320F6
:103BB000FFF7EFFC8EE70000EC0C00200004001083
:103BC000E80C00200100030082000700C8490868D3
:103BD000C849FCF773FF0028E3D0C54908680121F4
:103BE000FCF780FE012075E770B505460E461446C9
:103BF0004FF42040C049086009E0BF490868411EF1
:103C0000BD4A116018B90920FFF7C3FC70BDB8495F
:103C100008684FF40031FCF773FF0028EDD1B44978
:103C200008680121FCF752FE4FF48050B249086049
:103C300009E0B1490868411EAF4A116018B90A206D
:103C4000FFF7A7FCE2E7AA490868AC49FCF736FF92
:103C50000028EED0A64A92F81F1410680022FCF744
:103C60004DFE4FF48050A449086009E0A24908685D
:103C7000411EA14A116018B90B20FFF78AFCC5E765
:103C80009B4908689B49891EFCF718FF0028EDD066
:103C9000974908680121FCF7F6FD3112944A106833
:103CA000FCF7B0FE4FF480509349086009E0924958
:103CB0000868411E904A116018B90C20FFF769FC92
:103CC000A4E78B4908688B49FCF7F8FE0028EED082
:103CD000F1B2874A1068FCF795FE4FF48050864990
:103CE000086009E084490868411E834A116018B9D8
:103CF0000C20FFF74EFC89E77D4908687D49FCF7F9
:103D0000DDFE0028EED07A4908680121FCF7DEFDCF
:103D10004FF480507849086009E077490868411EEF
:103D2000754A116018B90D20FFF733FC6EE7704932
:103D300008687249FCF7C2FE0028EED06C4A92F87F
:103D40001F1410680122FCF7D9FD4FF480506A4916
:103D5000086009E068490868411E674A116018B99F
:103D60000E20FFF716FC51E7614908686349491CBA
:103D7000FCF7A4FE0028EDD02AE0012C09D15C4913
:103D800008680021FCF7C2FD594908680121FCF7C9
:103D9000A9FD4FF420405849086009E056490868D9
:103DA000411E554A116018B90320FFF7F2FB2DE7B9
:103DB0004F49086851493F31FCF780FE0028EDD09B
:103DC0004B490868FCF720FE28706D1C601E84B209
:103DD000002CD2D1464908680121FCF797FD01204B
:103DE00014E710B5ADF5007D4FF4807140A802F0E6
:103DF0001DFF4FF48071684602F018FF00BF40A11C
:103E0000002002F043FD00BF002419E040A90C553A
:103E100000BF40A8025D40A1002002F037FD00BFB6
:103E2000E11704EB11710911A4EB01110F2905D160
:103E300000BF38A1002002F029FD00BF601C84B241
:103E4000FF2CE3DD4FF48072002140A8FFF797FDBF
:103E500000BF33A1002002F019FD00BF00BF33A155
:103E6000002002F013FD00BF4FF48072002168466D
:103E7000FFF7BAFE002430E01DF8040040A9095DF8
:103E8000884212D000BF1DF8043022462DA1002028
:103E900002F0FCFC00BF00BF30A1002002F0F6FCE5
:103EA00000BF00200DF5007D10BD00BF1DF80420EF
:103EB00019A1002002F0EAFC00BFE11704EB117128
:103EC0000911A4EB01110F2905D100BF11A1002098
:103ED00002F0DCFC00BF601C84B2FF2CCCDD00BF14
:103EE00028A1002002F0D2FC00BF0120DAE7000088
:103EF000EC0C002084000700E80C00200100030007
:103F00007772697465206461746120746F206565DF
:103F100070726F6D0D0A00002530325820000000CD
:103F20005772697465204F4B0D0A00005265616439
:103F300020646174612066726F6D20656570726FB8
:103F40006D0D0A00696E6465785B25645D2076619D
:103F50006C5B3078253032585D0D0A004545505273
:103F60004F4D2D4552524F523A2072656164206E7A
:103F70006F7420657175616C20746F20777269743D
:103F8000650D0A0049324328415432344330322906
:103F90002074657374207375636365737366756CE1
:103FA0006C790D0A0000000010B504466FF00400A3
:103FB000FCF7D4F9E11704EB5171C1F3C701394A99
:103FC00011701046007800EB4001C1EBC0104FF6B5
:103FD000FF7101EAC0003449088010BD0146314A32
:103FE00012784A434FF0E0235A6100229A611A4640
:103FF000126942F001021A6100BF4FF0E02210691D
:1040000000F001021AB100F48032002AF5D04FF01E
:10401000E022126922F001024FF0E0231A6100222F
:104020009A6170470146204A12884A434FF0E023C4
:104030005A6100229A611A46126942F001021A611D
:1040400000BF4FF0E022106900F001021AB100F445
:104050008032002AF5D04FF0E022126922F00102EE
:104060004FF0E0231A6100229A61704770B5044650
:104070004FF4077094FBF0F0C6B24FF4077094FB56
:10408000F0F100FB114085B205E04FF40770FFF737
:10409000C9FF701EC6B2002EF7D115B12846FFF732
:1040A000C1FF70BD0C1100200E11002000BF704731
:1040B00070B504460D4652490C8000BF402150485F
:1040C000001FFEF75BFB0028F8D0204670BD10B53E
:1040D00088B0044601210846FCF756FF0121480438
:1040E000FCF79BFF072202214648FCF7EEFA072265
:1040F00003214448FCF7E9FA0C20069002208DF8D1
:104100001C008DF81D0000208DF81E0001208DF888
:104110001F0006A93B48FCF74DFA02940020ADF8B9
:104120000C00ADF80E00ADF81000ADF814000C2036
:10413000ADF8120002A93248001FFEF7BCF90121B8
:104140002F48001FFEF73FFA40212D48001FFEF7C1
:1041500022FB012240F225512948001FFEF7E9FA0F
:1041600026208DF8040003208DF805008DF8060048
:1041700001208DF8070001A8FCF7A3F808B010BDD6
:1041800010B540F225511E48001FFEF70DFB18B375
:104190001B48001FFEF746FAC4B21B48008800F413
:1041A0000040C8B91848008800F4804060B10A2C6B
:1041B00003D000201449088020E01348008840F410
:1041C00000401149088019E00D2C06D10E480088E6
:1041D00040F480400C49088010E00B480088C0F390
:1041E0000D000A490C5408480088401C0649088004
:1041F00008460088C72801DD0020088010BD0000A7
:104200000444004000000240141100204812002025
:1042100070B50C4604B102B970BD6449884200D93A
:10422000FAE786184B1C9E4201D90B1A5A1C054608
:10423000002304E055F8236044F823605B1CB3EBD3
:10424000920FF7D300BFE7E72DED048B82B0002576
:1042500000264FF4A060FCF72FF8A820FFF7A4FE7B
:1042600040F2DC50FFF702FF00BF51A1002002F036
:104270000DFB00BFFFF789F900F0ECFC00F02CFD0E
:10428000FEF751FFFEF729FC00F0F4F900F0B1FB56
:10429000FEF73DFC4FF4E130FFF719FF532140F2E8
:1042A000E730FEF7CBFA01F078F942F2CF010920AE
:1042B000FEF714FB4FF448710420FEF75FFB342235
:1042C00043494448FFF7A4FF34224349414834306E
:1042D000FFF79EFF002428E03D4951F8240002F03A
:1042E000ADFF41EC190B9FED3D0B53EC102B02F091
:1042F000B9FF41EC180B02F0D3FD3A4941F8240014
:10430000354951F8240002F082FF41EC190B9FED72
:10431000330B53EC102B02F0A5FF41EC180B02F00D
:10432000BFFD314941F82400641C0D2CD4D32F4823
:1043300000F0DFFF2D480088019000F06DFB00BF0A
:104340002BA1002002F0A2FA00BF2DE001F02EF90F
:10435000FEF798FC0020FEF775FCFEF7A6FC00F0C7
:1043600000FD00F0F1FD3846FEF7ADFA87B200F02F
:1043700003FE0546FEF7A3FA87B2012D06D100F031
:10438000FFF900F01FFB00F0BFFF06E0761C00BF46
:1043900024A1002002F07AFA00BF4FF47A7000F0F6
:1043A000E2FA0120FFF762FED0E70000FFFF0F08EE
:1043B0003C4459474C423E2073797374656D2069C3
:1043C0006E6974202E2E2E2E2E2E0D0A0000000057
:1043D0001013002000000E08441300208DEDB5A03E
:1043E000F7C6B03E78130020AC1300204611002021
:1043F0003C4459474C423E2053797374656D2069A3
:104400006E697420636F6D706C657465642C2065D3
:104410006E746572206C6F6F70202E2E2E2E2E2ED5
:104420000D0A00004C494D495420435552454E5405
:10443000204D455353474520524543495645204555
:1044400052524F520D0A0000704700BFFEE700BFF6
:10445000FEE700BFFEE700BFFEE77047704770470A
:10446000704700000CB5002001900090764800686D
:1044700040F480307449086000BF7348006800F45D
:10448000003000900198401C0190009818B90198E4
:10449000B0F5A04FF1D16C48006800F4003010B1C5
:1044A0000120009001E0002000900098012846D1F2
:1044B00065484030006840F08050634940310860F2
:1044C0006248006840F44040604908605E48083037
:1044D00000685D49083108600846006840F4004003
:1044E00008600846006840F4A05008605848091F5A
:1044F0000860081F006840F08070091F086000BF56
:104500005148006800F000700028F9D040F20570B2
:10451000504908604C480830006820F003004A49C0
:10452000083108600846006840F00200086000BFDB
:1045300045480830006800F00C000828F8D10CBD90
:1045400010B54548006840F47000434908603E4893
:10455000006840F001003C49086000203A490831F9
:104560000860394800683D490840374908603C48C0
:10457000091D0860081F006820F48020091F0860DA
:10458000002031490C310860FFF76CFF4FF00060EC
:1045900031498039086010BD70B500200022022327
:1045A00000240221284D08352D6805F00C0020B1AB
:1045B000042806D0082834D107E02A4D2A4E356059
:1045C00033E02A4D284E35602FE01F4D2D1D2D68FC
:1045D000C5F380541C4D2D1D2D6805F03F0154B1CD
:1045E000224DB5FBF1F5184E361D3668C6F3881618
:1045F00005FB06F209E01B4DB5FBF1F5124E361D29
:104600003668C6F3881605FB06F20F4D2D1D2D6882
:10461000C5F301456D1C6B00B2FBF3F5124E35601E
:1046200003E0104D104E356000BF00BF064D083549
:104630002D68C5F303150E4E705D0B4D2D68C540FA
:10464000094E356070BD0000003802400070004027
:1046500008544007003C024088ED00E0FFFFF6FEF2
:10466000103000240024F4001811002000127A00F9
:104670001C1100201CB501210F20FCF785FC4FF414
:104680008060009000208DF804008DF807006946D6
:10469000FE48FBF78FFF112000906946FC48FBF7AE
:1046A00089FF4FF4007000906946FA48FBF782FFDB
:1046B0004FF49050009001208DF8040000208DF8F8
:1046C000060003208DF8050000208DF807006946DC
:1046D000EE48FBF76FFF082000906946EC48FBF7B7
:1046E00069FF802000906946EA48FBF763FF4FF4BA
:1046F000006000906946E548FBF75CFF22200090CF
:104700006946E348FBF756FF402000906946E148C0
:10471000FBF750FF4FF40061DC48FBF7C7FF0221B5
:10472000DB48FBF7C3FF2021D948FBF7BFFF40213F
:10473000D848FBF7BBFF0420009001208DF804004F
:1047400000208DF8060003208DF8050000208DF86C
:1047500007006946D048FBF72DFF4FF40071CB48A6
:10476000FBF7A6FF4FF48051C848FBF7A1FF0821D3
:10477000C748FBF79DFF8021C648FBF799FF1CBD8A
:1047800008B500200090C548007F00F001008DF8BA
:104790000000C248007FC0F340008DF80100BF4810
:1047A000007FC0F380008DF80200BC48007FC0F39A
:1047B000C0008DF803009DF8000098B94FF4006127
:1047C000B248FBF775FF002000E0401C3228FCDBFC
:1047D0004FF40061AD48FBF769FF0020B049086065
:1047E000B04908609DF8010088B90221A848FBF78C
:1047F0005FFF002000E0401C3228FCDB0221A448BF
:10480000FBF754FF0020A6494860A64948609DF880
:10481000020088B920219E48FBF74AFF002000E0F3
:10482000401C3228FCDB20219948FBF73FFF002089
:104830009B4988609B4988609DF8030088B94021A6
:104840009448FBF735FF002000E0401C3228FCDBD9
:1048500040219048FBF72AFF00209149C860914908
:10486000C8609DF8000001280AD18D48006838B959
:104870004FF400618548FBF71BFF01208849086061
:104880009DF80100012809D18548406830B902210E
:104890007F48FBF70DFF0120814948609DF8020029
:1048A000012809D17E48806830B920217848FBF77B
:1048B000FFFE01207A4988609DF8030001280DD190
:1048C0007748C06850B940217248FBF7F1FE0120DB
:1048D0007349C860FDF7F3FF7349086000BF6F4874
:1048E000007F00F0010028B14FF400716748FBF72A
:1048F000DDFE04E04FF400716448FBF7D9FE00BF11
:1049000000BF6648007FC0F3400028B14FF48051DB
:104910005E48FBF7CBFE04E04FF480515B48FBF7A9
:10492000C7FE00BF00BF5D48007FC0F3800020B11C
:1049300008215748FBF7BAFE03E008215448FBF76B
:10494000B7FE00BF00BF5548007FC0F3C00020B1D4
:1049500080215048FBF7AAFE03E080214D48FBF779
:10496000A7FE00BF08BD10B504464E480068A0422F
:1049700004D94FF400614548FBF798FE4948406868
:10498000A04203D902214248FBF790FE45488068C7
:10499000A04203D920213E48FBF788FE4148C06869
:1049A000A0420ED940213B48FBF780FE3E480068FC
:1049B000FDF789FF3D49086001203D49086000BFBF
:1049C00000BF10BD70B50024002500BF0AE004EB55
:1049D00044053248001DA91C30F81100354921F862
:1049E0001400641C042CF2DBFEF7ADFBFEF786FC22
:1049F00070BD10B500243048007801280BD100BFED
:104A000000E0641C042CFCDBFEF79DFBFEF776FC4B
:104A100000202949087010BD01B582B00020019026
:104A2000BDF8080000F001008DF80400BDF8080092
:104A3000C0F340008DF80500BDF80800C0F3800009
:104A40008DF80600BDF80800C0F3C0008DF807001F
:104A50009DF8040098B94FF400610C48FBF728FE5C
:104A6000002000E0401C3228FCDB4FF400610748C6
:104A7000FBF71CFE00200A4908600A4908609DF8FF
:104A8000050058BB0221024818E000000000024067
:104A90000004024000080240000C024022140020E2
:104AA000E0130020F0130020381100203C110020FA
:104AB000401100202C11002034110020FBF7F8FDDC
:104AC000002000E0401C3228FCDB02215A48FBF7A2
:104AD000EDFD002059494860594948609DF806009D
:104AE00088B920215448FBF7E3FD002000E0401C7A
:104AF0003228FCDB20215048FBF7D8FD00204F492D
:104B000088604F4988609DF8070088B940214D486A
:104B1000FBF7CEFD002000E0401C3228FCDB4021EA
:104B20004848FBF7C3FD00204449C8604449C860B9
:104B30009DF8040001280AD14048006838B94FF4B4
:104B400000614148FBF7B4FD01203C4908609DF835
:104B50000500012809D13948406830B9022136489A
:104B6000FBF7A6FD0120354948609DF806000128A5
:104B700009D13248806830B920212F48FBF798FDD1
:104B800001202E4988609DF8070001280DD12B488F
:104B9000C06850B940212B48FBF78AFD0120274906
:104BA000C860FDF78CFE2949086000BF2848007FD7
:104BB00000F0010028B14FF400712348FBF776FDA7
:104BC00004E04FF400712048FBF772FD00BF00BF06
:104BD0001F48007FC0F3400028B14FF480511A48AD
:104BE000FBF764FD04E04FF480511748FBF760FDCC
:104BF00000BF00BF1648007FC0F3800020B108212D
:104C00000D48FBF753FD03E008210B48FBF750FD6F
:104C100000BF00BF0E48007FC0F3C00020B180215C
:104C20000848FBF743FD03E080210648FBF740FD01
:104C300000BF00200EBD000000040240E013002071
:104C4000F01300200008024000000240381100204C
:104C5000221400201CB501210846FCF795F9E0203C
:104C6000009002208DF8040000208DF8060003203B
:104C70008DF8050000208DF807006946FE48FBF717
:104C800099FC1020009001208DF8040000208DF880
:104C9000060003208DF8050000208DF80700694606
:104CA000F548FBF787FC05220421F348FBF70DFDCF
:104CB00005221146F048FBF708FD05220621EE48C3
:104CC000FBF703FD05220721EB48FBF7FEFC102153
:104CD000E948FBF7EBFC1CBD00B585B001210803DA
:104CE000FCF7ACF90020ADF800004FF48270ADF88D
:104CF00002004FF40060ADF804000220ADF8060099
:104D00000120ADF808004002ADF80A001820ADF807
:104D10000C000020ADF80E000720ADF81000694629
:104D2000D648FCF7D1FA0121D448FCF7C7FB05B0FF
:104D300000BD10B5044600BF0221D048FCF788FC36
:104D40000028F9D02146CD48FCF739FC00BF0121ED
:104D5000CA48FCF77DFC0028F9D0C848FCF72CFCB9
:104D600010BD70B500260025002445F2AA50C449A4
:104D700008801A20488000BF32E004EB4405601D23
:104D800081B2BF48001D20F8151000BF30F8152073
:104D90002946BCA001F090FD00BF6000C84931F871
:104DA0001020B748001D691C20F8112000BF30F802
:104DB0001120B4A001F080FD00BF012000EB4400F1
:104DC000BF4931F81020AE48001DA91C20F8112061
:104DD00000BF30F81120ABA001F06EFD00BF641CD5
:104DE000042CCADB00BF4FF40071A348FBF751FC51
:104DF000A349898B60F30001A14881834FF480515E
:104E00009D48FBF746FC9E49898B60F341019C4815
:104E100081830821AB48FBF73CFC9949898B60F3FF
:104E20008201974881838021A748FBF732FC94498F
:104E3000898B60F3C301924881834FF480618E486F
:104E4000FBF71AFC08B9012000E000208C49898B8F
:104E500060F308218A48818301219A48FBF70CFC02
:104E600008B9012000E000208549898B60F34921C1
:104E70008348818310219348FBF7FEFB08B901208A
:104E800000E000207E49898B60F38A217C48818381
:104E90004FF400718C48FBF7EFFB08B9012000E0EC
:104EA00000207749898B60F3CB217548818387483F
:104EB00000787349898B60F30411714881838348BA
:104EC000007841086E48808B61F345106C498883F7
:104ED0007E48007881086A48808B61F386106849B3
:104EE00088837A480078C1086548808B61F3C710D1
:104EF0006349888300BF00BF0846818B74A001F01E
:104F0000DBFC00BF5E4800885D494988084486B2E2
:104F1000002406E05A48001D30F81400304486B2E0
:104F2000641C0C2CF6DB5648808B304486B2544807
:104F3000C68300BFC18B6FA001F0BEFC00BF4AF664
:104F4000BC404F49088470BD70B500244C4D102101
:104F50004948FBF7ADFB00BF04E035F81400FFF74C
:104F6000E8FE641C46484088801CA042F5DC102105
:104F70004148FBF79BFB70BD2DE9F047002500245D
:104F8000A046A1460026A2460027AAE1002610213D
:104F90003948FBF78DFB45F2AA50FFF7CAFE0746DA
:104FA0000220FFF7C6FE4AF6DE30FFF7C2FE4FF4DE
:104FB000C570FFF7BEFE4AF6BC40FFF7BAFE1021EF
:104FC0002D48FBF773FB0120FFF708F810212A4852
:104FD000FBF76EFB47F2AA70FFF7ABFE074600BF78
:104FE0003B462A464FA1002001F050FC00BF00BF05
:104FF0003A4629464BA001F05FFC00BF4E480780AF
:105000000020FFF796FE4C49488000BF08464288C2
:105010004AA1002001F03AFC00BF00BF4648418889
:1050200046A001F049FC00BF0025DBE005EB45048C
:105030000020FFF77EFE4049091D21F8140000BF43
:10504000084630F81430224644A1002001F01EFC2E
:1050500000BF00BF3848001D30F8142021463FA093
:1050600001F02AFC00BF0020FFF763FE3249091D52
:10507000621C21F8120083E0000002400030014071
:10508000001400202A2A2A2A2A2A2A2A2A73656E2C
:10509000646D6573736167652E6D657373616765B4
:1050A000446174615B25785D3D3D25642A2A2A2A86
:1050B0002A2A2A2A2A2A2A2A2A2A2A0D0A0000000B
:1050C0006811002000040240000802404611002040
:1050D00073656E646D6573736167652E7374754176
:1050E0006E647761726E696E672E7261773D3D25E1
:1050F000780D0A002A2A2A2A2A2A2A2A2A73656E61
:10510000646D6573736167652E73756D3D3D2578BC
:105110002A2A2A2A2A2A2A2A2A2A2A2A2A2A2A0D0C
:105120000A0000007370695F686561645B25645DF7
:105130003D25780D0A000000221400207265636985
:1051400076656D6573736167652E646174615F6C0C
:10515000656E3D3D25780D0A0000000072656369AB
:1051600076656D6573736167652E6D6573736167D1
:1051700065446174615B25645D3D3D25780D0A00E1
:1051800000BF0846611C30F81130AFF2300100203A
:1051900001F07CFB00BF00BF7B48611C30F8112090
:1051A000AFF2480001F088FB00BF0020FFF7C1FD0F
:1051B00001467548A21C20F8121000BFA11C30F84F
:1051C0001130AFF26801002001F060FB00BF00BFAA
:1051D0006D48A11C30F81120AFF2800001F06CFB8B
:1051E00000BF6D1C042DFFF621AF0020FFF7A1FDCD
:1051F0006549091F888300BF0846828B63A1002090
:1052000001F044FB00BF00BF5F48001F818B5FA01F
:1052100001F052FB00BF0020FFF78BFD5A49091F28
:10522000C88300BF0846C28B62A1002001F02EFB9C
:1052300000BF00BF5448001FC18B5EA001F03CFBC3
:1052400000BF0020FFF775FD4F49091F088400BF0C
:105250000846028C5DA1002001F018FB00BF00BFD2
:105260004948001F018C59A001F026FB00BF4648A9
:10527000001F00884449091F4988084486B2002558
:1052800005E0414830F81500304486B26D1C0C2D05
:10529000F7DB3D48001F808B304486B23A48001F40
:1052A000C08BB0420FD176B14FF6FF7086420AD064
:1052B0004FF0010800BF3448001FC28B31464AA09E
:1052C00001F0FAFA01E009F10109B9F1030F04D183
:1052D00010214E48FBF7EAF907E010214B48FBF795
:1052E000E5F9B8F1000F3FF451AE00BF4046BDE80C
:1052F000F08770B504460025012200212046FEF704
:1053000073FC0546284670BD10B5002400204049B6
:1053100008701D48001F007F01093D48008861F3A7
:1053200000003B4908801848001F007F41093848A9
:10533000008861F34100364908801348001F007F50
:1053400081093348008861F38200314908800E48A2
:10535000001F007FC1092E48008861F3C3002C495B
:105360000880084600782B49097888420AD0002135
:105370002748FEF799FB0446012C03D12448007806
:1053800024490870204610BD261400207265636908
:1053900076656D6573736167652E737475416E64B0
:1053A0007761726E696E672E7261773D3D25780D6B
:1053B0000A0000007265636976656D6573736167E5
:1053C000652E73756D3D3D25780D0A007265636924
:1053D00076656D6573736167652E64617461456E92
:1053E000643D3D25780D0A0073756D3D3078257854
:1053F0002C7265636976656D6573736167652E737D
:10540000756D3D3D25782C0D0A000000000002401E
:10541000441100204611002001463A480160002056
:1054200070472DE9F047044616461F46DDE9088916
:1054300014B1B8F1000F03D14FF0FF30BDE8F08791
:10544000314D06E02868A04202D12068286003E0C0
:105450002D6828680028F5D100BF2A4800688047D9
:1054600080197941C4E90201C4F81080C4F814908D
:10547000254D00BF286818B9002020602C600DE081
:10548000D4E902302A68D2E90212591A904103D2B3
:10549000286820602C6001E02D68EBE700BF002049
:1054A000CCE70246184906E00868904202D113682A
:1054B0000B6003E0096808680028F5D100BF0020F0
:1054C000704710B51048046817E00E480068804720
:1054D000D4E90232C01A914105D20A4800688047D7
:1054E000A168081A10BD084920680860206918B131
:1054F0002046D4E9042190472468002CE5D10020FF
:10550000F0E700004C1100204811002010B5FDF715
:10551000D6F910BD2DE9FC47064614461D46DDE9C7
:105520000A784FF0000922462B463046CDE9007834
:10553000FFF777FF81464846BDE8FC8770B5044613
:1055400000252046FFF7ADFF0546284670BD1CB577
:10555000184819494FF4FA720023CDE90010FFF7FB
:10556000D9FF1CBD70B504460D4614480068401CA8
:10557000124908600846007800F0010020B90421B3
:105580000F48FBF793F803E004210D48FBF790F870
:10559000FDF706FAFFF7DBFF70BD10B5AFF2930021
:1055A000FFF73AFFFFF7D3FF002010BD10B5FFF75C
:1055B00088FF10BD481400206555000850110020D8
:1055C000000C02400160531E436000238360C360EF
:1055D000704770B504460D46204601F04DFC20B1E1
:1055E000A068401C61680840A060E16820684554DC
:1055F000E068401C61680840E06070BD2DE9F04142
:1056000007460D461646002404E0295D3846FFF79C
:10561000E0FF641CB442F8D3BDE8F08170B50446E5
:105620000D46204601F01FFC08B1002070BDA168A6
:105630002068405C2870A068401C61680840A06039
:105640000120F3E72DE9F04180460E46174640461B
:1056500001F009FC10B10020BDE8F08135460024BE
:1056600001E0641C6D1CBC4205D229464046FFF790
:10567000D5FF0028F5D12046EEE72DE9F04104469C
:105680000E461546204601F003FCA84202D8002031
:10569000BDE8F081A0682844616800EA010720683D
:1056A000C05D30700120F3E770B5FE4CA8212046A4
:1056B00001F0BCFA032020616061FBA0A061FD49FC
:1056C000E1614FF4806121620021A1626162E162C7
:1056D000F5A02066F84961661021A16600212167C6
:1056E000E1666167002505E0C5F10F00F349085C3C
:1056F00060556D1C102DF7D370BD2DE9F05F044689
:10570000894617464FF0000AE56800BFD4F81080BC
:10571000A84503D9A8EB0500461E04E0A5EB080048
:10572000401CA1680E1AA068401BB04201D9304647
:1057300001E0A068401B0646BE4201D2304600E0B0
:1057400038460646606800EB050B32464946584627
:1057500001F027FAB244B144BF1B3544A068A84207
:1057600000D10025E560002FD0D15046BDE8F09F64
:105770002DE9F047044689461546E668A068871B70
:10578000AF420AD9606800EB060A2A4649465046ED
:1057900001F007FA7019E06014E0B846606800EBA9
:1057A000060A42464946504601F0FBF9A5EB0708B8
:1057B000D4F804A009EB07014246504601F0F1F984
:1057C000C4F80C80BDE8F08738B505460C46FF20CC
:1057D0008DF80000BA48005D8DF80100022269468C
:1057E0002846FFF78AFF38BD10B501460A69CB6825
:1057F0009A4204D88C68641EE41AA01801E0D41AF6
:10580000601E10BD2DE9F74F82B08346174600BFDA
:10581000A448009000980078532801D0FFF744FF77
:1058200000BF0BEB4B019F48183000EBC106DDF8C1
:105830000C903569D6F80CA04FF00008554517D9E3
:10584000B068441BBC4201D2204600E03846044602
:1058500070682844019022464846019901F0A1F958
:10586000A044A1443F1B2544B068A84200D10025B4
:10587000AAEB0504BC4201D2204600E038460446AB
:105880005CB170682844019022464846019901F0B5
:1058900088F9A044A1443F1B2544B8F1000F00D073
:1058A0003561404605B0BDE8F08F2DE9F74F82B075
:1058B0008346174600BF7B48009000980078532825
:1058C00001D0FFF7F1FE00BF0BEB4B0175486030D4
:1058D00000EBC106DDF80C903569D6F80CA04FF04E
:1058E0000008554517D9B068441BBC4201D2204678
:1058F00000E0384604467068284401902246484635
:10590000019901F04EF9A044A1443F1B2544B06821
:10591000A84200D10025AAEB0504BC4201D22046D2
:1059200000E0384604465CB1706828440190224685
:105930004846019901F035F9A044A1443F1B254494
:10594000B8F1000F00D03561404605B0BDE8F08FDA
:105950002DE9F04104460D461646EFF311808046CE
:10596000202080F3118800BF00BF32462946204620
:10597000FFF748FF074608F0FF0080F3118800BFDB
:1059800000BF3846BDE8F0812DE9F04104460D46E0
:105990001646EFF311808046202080F3118800BF67
:1059A00000BF324629462046FFF77FFF074608F032
:1059B000FF0080F3118800BF00BF3846BDE8F081CA
:1059C0002DE9F047074688461646C14607EB4701D2
:1059D0003448183000EBC104D4E90301884202D1F5
:1059E000A068451E0EE0D4E90301884204D2206974
:1059F000E168401A451E05E02069E168401A401E32
:105A0000A1684518AE420CD92069711B0844206179
:105A100003E02069A168401A20612069A1688842DA
:105A2000F7D2D4E90201451A00BFB5420CD9E168AA
:105A3000606800EB010A32464946504601F0B1F871
:105A4000E0683044E06010E0E168606800EB010A63
:105A50002A464946504601F0A4F8A9440020E060D7
:105A6000761BA068451E002EDFD100BFBDE8F08781
:105A70002DE9F74F82B082461446DDF80CB00AEBF0
:105A80004A010848183000EBC105D5F81090EE68BF
:105A9000686830440190B14539D8A868801B471E1A
:105AA000A7420FE0601400205465726D696E616C4E
:105AB0000000000008150020081900208474000868
:105AC000747400080AD322465946019801F069F817
:105AD0003019E860012005B0BDE8F08F4F44A742BF
